{
	"B4B.CONTRACTS/b4b.sol": {
		"B4B": {
			"abi": [
				{
					"inputs": [],
					"payable": false,
					"stateMutability": "nonpayable",
					"type": "constructor"
				},
				{
					"constant": false,
					"inputs": [
						{
							"internalType": "uint256",
							"name": "_campaignID",
							"type": "uint256"
						}
					],
					"name": "AcceptBooking",
					"outputs": [],
					"payable": false,
					"stateMutability": "nonpayable",
					"type": "function"
				},
				{
					"constant": true,
					"inputs": [
						{
							"internalType": "uint256",
							"name": "_campaignID",
							"type": "uint256"
						}
					],
					"name": "AcceptStatus",
					"outputs": [
						{
							"internalType": "bool",
							"name": "",
							"type": "bool"
						}
					],
					"payable": false,
					"stateMutability": "view",
					"type": "function"
				},
				{
					"constant": false,
					"inputs": [
						{
							"internalType": "uint256",
							"name": "_campaignID",
							"type": "uint256"
						}
					],
					"name": "ApproveAds",
					"outputs": [],
					"payable": false,
					"stateMutability": "nonpayable",
					"type": "function"
				},
				{
					"constant": true,
					"inputs": [
						{
							"internalType": "uint256",
							"name": "_campaignID",
							"type": "uint256"
						}
					],
					"name": "ApprovedStatus",
					"outputs": [
						{
							"internalType": "bool",
							"name": "",
							"type": "bool"
						}
					],
					"payable": false,
					"stateMutability": "view",
					"type": "function"
				},
				{
					"constant": true,
					"inputs": [
						{
							"internalType": "uint256",
							"name": "_campaignID",
							"type": "uint256"
						}
					],
					"name": "BookStatus",
					"outputs": [
						{
							"internalType": "bool",
							"name": "",
							"type": "bool"
						}
					],
					"payable": false,
					"stateMutability": "view",
					"type": "function"
				},
				{
					"constant": false,
					"inputs": [
						{
							"internalType": "uint256",
							"name": "_price",
							"type": "uint256"
						}
					],
					"name": "ChangePrice",
					"outputs": [],
					"payable": false,
					"stateMutability": "nonpayable",
					"type": "function"
				},
				{
					"constant": false,
					"inputs": [
						{
							"internalType": "uint256",
							"name": "_campaignID",
							"type": "uint256"
						}
					],
					"name": "CompleteAds",
					"outputs": [],
					"payable": false,
					"stateMutability": "nonpayable",
					"type": "function"
				},
				{
					"constant": true,
					"inputs": [
						{
							"internalType": "uint256",
							"name": "_campaignID",
							"type": "uint256"
						}
					],
					"name": "CompleteStatus",
					"outputs": [
						{
							"internalType": "bool",
							"name": "",
							"type": "bool"
						}
					],
					"payable": false,
					"stateMutability": "view",
					"type": "function"
				},
				{
					"constant": false,
					"inputs": [
						{
							"internalType": "address",
							"name": "_influencer",
							"type": "address"
						}
					],
					"name": "NewBooking",
					"outputs": [
						{
							"internalType": "uint256",
							"name": "campaignID",
							"type": "uint256"
						}
					],
					"payable": true,
					"stateMutability": "payable",
					"type": "function"
				},
				{
					"constant": true,
					"inputs": [
						{
							"internalType": "uint256",
							"name": "_campaignID",
							"type": "uint256"
						}
					],
					"name": "PaidOnContract",
					"outputs": [
						{
							"internalType": "uint256",
							"name": "",
							"type": "uint256"
						}
					],
					"payable": false,
					"stateMutability": "view",
					"type": "function"
				},
				{
					"constant": true,
					"inputs": [
						{
							"internalType": "address",
							"name": "_influencer",
							"type": "address"
						}
					],
					"name": "PointsBalance",
					"outputs": [
						{
							"internalType": "uint256",
							"name": "",
							"type": "uint256"
						}
					],
					"payable": false,
					"stateMutability": "view",
					"type": "function"
				},
				{
					"constant": false,
					"inputs": [
						{
							"internalType": "uint256",
							"name": "_campaignID",
							"type": "uint256"
						}
					],
					"name": "ReceiveSalary",
					"outputs": [],
					"payable": false,
					"stateMutability": "nonpayable",
					"type": "function"
				},
				{
					"constant": false,
					"inputs": [],
					"name": "TakeCoins",
					"outputs": [
						{
							"internalType": "uint256",
							"name": "",
							"type": "uint256"
						}
					],
					"payable": false,
					"stateMutability": "nonpayable",
					"type": "function"
				}
			],
			"devdoc": {
				"methods": {}
			},
			"evm": {
				"assembly": "    /* \"B4B.CONTRACTS/b4b.sol\":24:4927  contract B4B {... */\n  mstore(0x40, 0x80)\n    /* \"B4B.CONTRACTS/b4b.sol\":66:116  constructor() public {... */\n  callvalue\n    /* \"--CODEGEN--\":8:17   */\n  dup1\n    /* \"--CODEGEN--\":5:7   */\n  iszero\n  tag_1\n  jumpi\n    /* \"--CODEGEN--\":30:31   */\n  0x00\n    /* \"--CODEGEN--\":27:28   */\n  dup1\n    /* \"--CODEGEN--\":20:32   */\n  revert\n    /* \"--CODEGEN--\":5:7   */\ntag_1:\n    /* \"B4B.CONTRACTS/b4b.sol\":66:116  constructor() public {... */\n  pop\n    /* \"B4B.CONTRACTS/b4b.sol\":106:109  now */\n  timestamp\n    /* \"B4B.CONTRACTS/b4b.sol\":93:103  deployDate */\n  0x00\n    /* \"B4B.CONTRACTS/b4b.sol\":93:109  deployDate = now */\n  dup2\n  swap1\n  sstore\n  pop\n    /* \"B4B.CONTRACTS/b4b.sol\":24:4927  contract B4B {... */\n  dataSize(sub_0)\n  dup1\n  dataOffset(sub_0)\n  0x00\n  codecopy\n  0x00\n  return\nstop\n\nsub_0: assembly {\n        /* \"B4B.CONTRACTS/b4b.sol\":24:4927  contract B4B {... */\n      mstore(0x40, 0x80)\n      jumpi(tag_1, lt(calldatasize, 0x04))\n      shr(0xe0, calldataload(0x00))\n      dup1\n      0x9ddac05e\n      gt\n      tag_15\n      jumpi\n      dup1\n      0xe0e1bd84\n      gt\n      tag_16\n      jumpi\n      dup1\n      0xe0e1bd84\n      eq\n      tag_11\n      jumpi\n      dup1\n      0xe352893e\n      eq\n      tag_12\n      jumpi\n      dup1\n      0xe6bf297b\n      eq\n      tag_13\n      jumpi\n      dup1\n      0xfb92488b\n      eq\n      tag_14\n      jumpi\n      jump(tag_1)\n    tag_16:\n      dup1\n      0x9ddac05e\n      eq\n      tag_8\n      jumpi\n      dup1\n      0xa07c81f0\n      eq\n      tag_9\n      jumpi\n      dup1\n      0xa6602d5f\n      eq\n      tag_10\n      jumpi\n      jump(tag_1)\n    tag_15:\n      dup1\n      0x1172cde8\n      eq\n      tag_2\n      jumpi\n      dup1\n      0x1eb398af\n      eq\n      tag_3\n      jumpi\n      dup1\n      0x318d6178\n      eq\n      tag_4\n      jumpi\n      dup1\n      0x4f6109d6\n      eq\n      tag_5\n      jumpi\n      dup1\n      0x8712c66e\n      eq\n      tag_6\n      jumpi\n      dup1\n      0x97190fae\n      eq\n      tag_7\n      jumpi\n    tag_1:\n      0x00\n      dup1\n      revert\n        /* \"B4B.CONTRACTS/b4b.sol\":1323:1878  function NewBooking (address  _influencer/*, uint _date*/) public payable returns (uint campaignID) {... */\n    tag_2:\n      tag_17\n      0x04\n      dup1\n      calldatasize\n      sub\n        /* \"--CODEGEN--\":13:15   */\n      0x20\n        /* \"--CODEGEN--\":8:11   */\n      dup2\n        /* \"--CODEGEN--\":5:16   */\n      lt\n        /* \"--CODEGEN--\":2:4   */\n      iszero\n      tag_18\n      jumpi\n        /* \"--CODEGEN--\":29:30   */\n      0x00\n        /* \"--CODEGEN--\":26:27   */\n      dup1\n        /* \"--CODEGEN--\":19:31   */\n      revert\n        /* \"--CODEGEN--\":2:4   */\n    tag_18:\n        /* \"B4B.CONTRACTS/b4b.sol\":1323:1878  function NewBooking (address  _influencer/*, uint _date*/) public payable returns (uint campaignID) {... */\n      dup2\n      add\n      swap1\n      dup1\n      dup1\n      calldataload\n      0xffffffffffffffffffffffffffffffffffffffff\n      and\n      swap1\n      0x20\n      add\n      swap1\n      swap3\n      swap2\n      swap1\n      pop\n      pop\n      pop\n      tag_19\n      jump\t// in\n    tag_17:\n      mload(0x40)\n      dup1\n      dup3\n      dup2\n      mstore\n      0x20\n      add\n      swap2\n      pop\n      pop\n      mload(0x40)\n      dup1\n      swap2\n      sub\n      swap1\n      return\n        /* \"B4B.CONTRACTS/b4b.sol\":2819:3168  function ApproveAds (uint _campaignID) public {... */\n    tag_3:\n      callvalue\n        /* \"--CODEGEN--\":8:17   */\n      dup1\n        /* \"--CODEGEN--\":5:7   */\n      iszero\n      tag_20\n      jumpi\n        /* \"--CODEGEN--\":30:31   */\n      0x00\n        /* \"--CODEGEN--\":27:28   */\n      dup1\n        /* \"--CODEGEN--\":20:32   */\n      revert\n        /* \"--CODEGEN--\":5:7   */\n    tag_20:\n        /* \"B4B.CONTRACTS/b4b.sol\":2819:3168  function ApproveAds (uint _campaignID) public {... */\n      pop\n      tag_21\n      0x04\n      dup1\n      calldatasize\n      sub\n        /* \"--CODEGEN--\":13:15   */\n      0x20\n        /* \"--CODEGEN--\":8:11   */\n      dup2\n        /* \"--CODEGEN--\":5:16   */\n      lt\n        /* \"--CODEGEN--\":2:4   */\n      iszero\n      tag_22\n      jumpi\n        /* \"--CODEGEN--\":29:30   */\n      0x00\n        /* \"--CODEGEN--\":26:27   */\n      dup1\n        /* \"--CODEGEN--\":19:31   */\n      revert\n        /* \"--CODEGEN--\":2:4   */\n    tag_22:\n        /* \"B4B.CONTRACTS/b4b.sol\":2819:3168  function ApproveAds (uint _campaignID) public {... */\n      dup2\n      add\n      swap1\n      dup1\n      dup1\n      calldataload\n      swap1\n      0x20\n      add\n      swap1\n      swap3\n      swap2\n      swap1\n      pop\n      pop\n      pop\n      tag_23\n      jump\t// in\n    tag_21:\n      stop\n        /* \"B4B.CONTRACTS/b4b.sol\":4100:4263  function ApprovedStatus(uint _campaignID) public view returns (bool) {... */\n    tag_4:\n      callvalue\n        /* \"--CODEGEN--\":8:17   */\n      dup1\n        /* \"--CODEGEN--\":5:7   */\n      iszero\n      tag_24\n      jumpi\n        /* \"--CODEGEN--\":30:31   */\n      0x00\n        /* \"--CODEGEN--\":27:28   */\n      dup1\n        /* \"--CODEGEN--\":20:32   */\n      revert\n        /* \"--CODEGEN--\":5:7   */\n    tag_24:\n        /* \"B4B.CONTRACTS/b4b.sol\":4100:4263  function ApprovedStatus(uint _campaignID) public view returns (bool) {... */\n      pop\n      tag_25\n      0x04\n      dup1\n      calldatasize\n      sub\n        /* \"--CODEGEN--\":13:15   */\n      0x20\n        /* \"--CODEGEN--\":8:11   */\n      dup2\n        /* \"--CODEGEN--\":5:16   */\n      lt\n        /* \"--CODEGEN--\":2:4   */\n      iszero\n      tag_26\n      jumpi\n        /* \"--CODEGEN--\":29:30   */\n      0x00\n        /* \"--CODEGEN--\":26:27   */\n      dup1\n        /* \"--CODEGEN--\":19:31   */\n      revert\n        /* \"--CODEGEN--\":2:4   */\n    tag_26:\n        /* \"B4B.CONTRACTS/b4b.sol\":4100:4263  function ApprovedStatus(uint _campaignID) public view returns (bool) {... */\n      dup2\n      add\n      swap1\n      dup1\n      dup1\n      calldataload\n      swap1\n      0x20\n      add\n      swap1\n      swap3\n      swap2\n      swap1\n      pop\n      pop\n      pop\n      tag_27\n      jump\t// in\n    tag_25:\n      mload(0x40)\n      dup1\n      dup3\n      iszero\n      iszero\n      iszero\n      iszero\n      dup2\n      mstore\n      0x20\n      add\n      swap2\n      pop\n      pop\n      mload(0x40)\n      dup1\n      swap2\n      sub\n      swap1\n      return\n        /* \"B4B.CONTRACTS/b4b.sol\":4601:4925  function TakeCoins () public returns (uint256) {... */\n    tag_5:\n      callvalue\n        /* \"--CODEGEN--\":8:17   */\n      dup1\n        /* \"--CODEGEN--\":5:7   */\n      iszero\n      tag_28\n      jumpi\n        /* \"--CODEGEN--\":30:31   */\n      0x00\n        /* \"--CODEGEN--\":27:28   */\n      dup1\n        /* \"--CODEGEN--\":20:32   */\n      revert\n        /* \"--CODEGEN--\":5:7   */\n    tag_28:\n        /* \"B4B.CONTRACTS/b4b.sol\":4601:4925  function TakeCoins () public returns (uint256) {... */\n      pop\n      tag_29\n      tag_30\n      jump\t// in\n    tag_29:\n      mload(0x40)\n      dup1\n      dup3\n      dup2\n      mstore\n      0x20\n      add\n      swap2\n      pop\n      pop\n      mload(0x40)\n      dup1\n      swap2\n      sub\n      swap1\n      return\n        /* \"B4B.CONTRACTS/b4b.sol\":3758:3917  function AcceptStatus(uint _campaignID) public view returns (bool) {... */\n    tag_6:\n      callvalue\n        /* \"--CODEGEN--\":8:17   */\n      dup1\n        /* \"--CODEGEN--\":5:7   */\n      iszero\n      tag_31\n      jumpi\n        /* \"--CODEGEN--\":30:31   */\n      0x00\n        /* \"--CODEGEN--\":27:28   */\n      dup1\n        /* \"--CODEGEN--\":20:32   */\n      revert\n        /* \"--CODEGEN--\":5:7   */\n    tag_31:\n        /* \"B4B.CONTRACTS/b4b.sol\":3758:3917  function AcceptStatus(uint _campaignID) public view returns (bool) {... */\n      pop\n      tag_32\n      0x04\n      dup1\n      calldatasize\n      sub\n        /* \"--CODEGEN--\":13:15   */\n      0x20\n        /* \"--CODEGEN--\":8:11   */\n      dup2\n        /* \"--CODEGEN--\":5:16   */\n      lt\n        /* \"--CODEGEN--\":2:4   */\n      iszero\n      tag_33\n      jumpi\n        /* \"--CODEGEN--\":29:30   */\n      0x00\n        /* \"--CODEGEN--\":26:27   */\n      dup1\n        /* \"--CODEGEN--\":19:31   */\n      revert\n        /* \"--CODEGEN--\":2:4   */\n    tag_33:\n        /* \"B4B.CONTRACTS/b4b.sol\":3758:3917  function AcceptStatus(uint _campaignID) public view returns (bool) {... */\n      dup2\n      add\n      swap1\n      dup1\n      dup1\n      calldataload\n      swap1\n      0x20\n      add\n      swap1\n      swap3\n      swap2\n      swap1\n      pop\n      pop\n      pop\n      tag_34\n      jump\t// in\n    tag_32:\n      mload(0x40)\n      dup1\n      dup3\n      iszero\n      iszero\n      iszero\n      iszero\n      dup2\n      mstore\n      0x20\n      add\n      swap2\n      pop\n      pop\n      mload(0x40)\n      dup1\n      swap2\n      sub\n      swap1\n      return\n        /* \"B4B.CONTRACTS/b4b.sol\":3927:4090  function CompleteStatus(uint _campaignID) public view returns (bool) {... */\n    tag_7:\n      callvalue\n        /* \"--CODEGEN--\":8:17   */\n      dup1\n        /* \"--CODEGEN--\":5:7   */\n      iszero\n      tag_35\n      jumpi\n        /* \"--CODEGEN--\":30:31   */\n      0x00\n        /* \"--CODEGEN--\":27:28   */\n      dup1\n        /* \"--CODEGEN--\":20:32   */\n      revert\n        /* \"--CODEGEN--\":5:7   */\n    tag_35:\n        /* \"B4B.CONTRACTS/b4b.sol\":3927:4090  function CompleteStatus(uint _campaignID) public view returns (bool) {... */\n      pop\n      tag_36\n      0x04\n      dup1\n      calldatasize\n      sub\n        /* \"--CODEGEN--\":13:15   */\n      0x20\n        /* \"--CODEGEN--\":8:11   */\n      dup2\n        /* \"--CODEGEN--\":5:16   */\n      lt\n        /* \"--CODEGEN--\":2:4   */\n      iszero\n      tag_37\n      jumpi\n        /* \"--CODEGEN--\":29:30   */\n      0x00\n        /* \"--CODEGEN--\":26:27   */\n      dup1\n        /* \"--CODEGEN--\":19:31   */\n      revert\n        /* \"--CODEGEN--\":2:4   */\n    tag_37:\n        /* \"B4B.CONTRACTS/b4b.sol\":3927:4090  function CompleteStatus(uint _campaignID) public view returns (bool) {... */\n      dup2\n      add\n      swap1\n      dup1\n      dup1\n      calldataload\n      swap1\n      0x20\n      add\n      swap1\n      swap3\n      swap2\n      swap1\n      pop\n      pop\n      pop\n      tag_38\n      jump\t// in\n    tag_36:\n      mload(0x40)\n      dup1\n      dup3\n      iszero\n      iszero\n      iszero\n      iszero\n      dup2\n      mstore\n      0x20\n      add\n      swap2\n      pop\n      pop\n      mload(0x40)\n      dup1\n      swap2\n      sub\n      swap1\n      return\n        /* \"B4B.CONTRACTS/b4b.sol\":3593:3748  function BookStatus(uint _campaignID) public view returns (bool) {... */\n    tag_8:\n      callvalue\n        /* \"--CODEGEN--\":8:17   */\n      dup1\n        /* \"--CODEGEN--\":5:7   */\n      iszero\n      tag_39\n      jumpi\n        /* \"--CODEGEN--\":30:31   */\n      0x00\n        /* \"--CODEGEN--\":27:28   */\n      dup1\n        /* \"--CODEGEN--\":20:32   */\n      revert\n        /* \"--CODEGEN--\":5:7   */\n    tag_39:\n        /* \"B4B.CONTRACTS/b4b.sol\":3593:3748  function BookStatus(uint _campaignID) public view returns (bool) {... */\n      pop\n      tag_40\n      0x04\n      dup1\n      calldatasize\n      sub\n        /* \"--CODEGEN--\":13:15   */\n      0x20\n        /* \"--CODEGEN--\":8:11   */\n      dup2\n        /* \"--CODEGEN--\":5:16   */\n      lt\n        /* \"--CODEGEN--\":2:4   */\n      iszero\n      tag_41\n      jumpi\n        /* \"--CODEGEN--\":29:30   */\n      0x00\n        /* \"--CODEGEN--\":26:27   */\n      dup1\n        /* \"--CODEGEN--\":19:31   */\n      revert\n        /* \"--CODEGEN--\":2:4   */\n    tag_41:\n        /* \"B4B.CONTRACTS/b4b.sol\":3593:3748  function BookStatus(uint _campaignID) public view returns (bool) {... */\n      dup2\n      add\n      swap1\n      dup1\n      dup1\n      calldataload\n      swap1\n      0x20\n      add\n      swap1\n      swap3\n      swap2\n      swap1\n      pop\n      pop\n      pop\n      tag_42\n      jump\t// in\n    tag_40:\n      mload(0x40)\n      dup1\n      dup3\n      iszero\n      iszero\n      iszero\n      iszero\n      dup2\n      mstore\n      0x20\n      add\n      swap2\n      pop\n      pop\n      mload(0x40)\n      dup1\n      swap2\n      sub\n      swap1\n      return\n        /* \"B4B.CONTRACTS/b4b.sol\":2330:2813  function CompleteAds (uint _campaignID) public {... */\n    tag_9:\n      callvalue\n        /* \"--CODEGEN--\":8:17   */\n      dup1\n        /* \"--CODEGEN--\":5:7   */\n      iszero\n      tag_43\n      jumpi\n        /* \"--CODEGEN--\":30:31   */\n      0x00\n        /* \"--CODEGEN--\":27:28   */\n      dup1\n        /* \"--CODEGEN--\":20:32   */\n      revert\n        /* \"--CODEGEN--\":5:7   */\n    tag_43:\n        /* \"B4B.CONTRACTS/b4b.sol\":2330:2813  function CompleteAds (uint _campaignID) public {... */\n      pop\n      tag_44\n      0x04\n      dup1\n      calldatasize\n      sub\n        /* \"--CODEGEN--\":13:15   */\n      0x20\n        /* \"--CODEGEN--\":8:11   */\n      dup2\n        /* \"--CODEGEN--\":5:16   */\n      lt\n        /* \"--CODEGEN--\":2:4   */\n      iszero\n      tag_45\n      jumpi\n        /* \"--CODEGEN--\":29:30   */\n      0x00\n        /* \"--CODEGEN--\":26:27   */\n      dup1\n        /* \"--CODEGEN--\":19:31   */\n      revert\n        /* \"--CODEGEN--\":2:4   */\n    tag_45:\n        /* \"B4B.CONTRACTS/b4b.sol\":2330:2813  function CompleteAds (uint _campaignID) public {... */\n      dup2\n      add\n      swap1\n      dup1\n      dup1\n      calldataload\n      swap1\n      0x20\n      add\n      swap1\n      swap3\n      swap2\n      swap1\n      pop\n      pop\n      pop\n      tag_46\n      jump\t// in\n    tag_44:\n      stop\n        /* \"B4B.CONTRACTS/b4b.sol\":4431:4595  function PointsBalance (address _influencer) public view returns (uint256) {... */\n    tag_10:\n      callvalue\n        /* \"--CODEGEN--\":8:17   */\n      dup1\n        /* \"--CODEGEN--\":5:7   */\n      iszero\n      tag_47\n      jumpi\n        /* \"--CODEGEN--\":30:31   */\n      0x00\n        /* \"--CODEGEN--\":27:28   */\n      dup1\n        /* \"--CODEGEN--\":20:32   */\n      revert\n        /* \"--CODEGEN--\":5:7   */\n    tag_47:\n        /* \"B4B.CONTRACTS/b4b.sol\":4431:4595  function PointsBalance (address _influencer) public view returns (uint256) {... */\n      pop\n      tag_48\n      0x04\n      dup1\n      calldatasize\n      sub\n        /* \"--CODEGEN--\":13:15   */\n      0x20\n        /* \"--CODEGEN--\":8:11   */\n      dup2\n        /* \"--CODEGEN--\":5:16   */\n      lt\n        /* \"--CODEGEN--\":2:4   */\n      iszero\n      tag_49\n      jumpi\n        /* \"--CODEGEN--\":29:30   */\n      0x00\n        /* \"--CODEGEN--\":26:27   */\n      dup1\n        /* \"--CODEGEN--\":19:31   */\n      revert\n        /* \"--CODEGEN--\":2:4   */\n    tag_49:\n        /* \"B4B.CONTRACTS/b4b.sol\":4431:4595  function PointsBalance (address _influencer) public view returns (uint256) {... */\n      dup2\n      add\n      swap1\n      dup1\n      dup1\n      calldataload\n      0xffffffffffffffffffffffffffffffffffffffff\n      and\n      swap1\n      0x20\n      add\n      swap1\n      swap3\n      swap2\n      swap1\n      pop\n      pop\n      pop\n      tag_50\n      jump\t// in\n    tag_48:\n      mload(0x40)\n      dup1\n      dup3\n      dup2\n      mstore\n      0x20\n      add\n      swap2\n      pop\n      pop\n      mload(0x40)\n      dup1\n      swap2\n      sub\n      swap1\n      return\n        /* \"B4B.CONTRACTS/b4b.sol\":3174:3587  function ReceiveSalary (uint _campaignID) public {... */\n    tag_11:\n      callvalue\n        /* \"--CODEGEN--\":8:17   */\n      dup1\n        /* \"--CODEGEN--\":5:7   */\n      iszero\n      tag_51\n      jumpi\n        /* \"--CODEGEN--\":30:31   */\n      0x00\n        /* \"--CODEGEN--\":27:28   */\n      dup1\n        /* \"--CODEGEN--\":20:32   */\n      revert\n        /* \"--CODEGEN--\":5:7   */\n    tag_51:\n        /* \"B4B.CONTRACTS/b4b.sol\":3174:3587  function ReceiveSalary (uint _campaignID) public {... */\n      pop\n      tag_52\n      0x04\n      dup1\n      calldatasize\n      sub\n        /* \"--CODEGEN--\":13:15   */\n      0x20\n        /* \"--CODEGEN--\":8:11   */\n      dup2\n        /* \"--CODEGEN--\":5:16   */\n      lt\n        /* \"--CODEGEN--\":2:4   */\n      iszero\n      tag_53\n      jumpi\n        /* \"--CODEGEN--\":29:30   */\n      0x00\n        /* \"--CODEGEN--\":26:27   */\n      dup1\n        /* \"--CODEGEN--\":19:31   */\n      revert\n        /* \"--CODEGEN--\":2:4   */\n    tag_53:\n        /* \"B4B.CONTRACTS/b4b.sol\":3174:3587  function ReceiveSalary (uint _campaignID) public {... */\n      dup2\n      add\n      swap1\n      dup1\n      dup1\n      calldataload\n      swap1\n      0x20\n      add\n      swap1\n      swap3\n      swap2\n      swap1\n      pop\n      pop\n      pop\n      tag_54\n      jump\t// in\n    tag_52:\n      stop\n        /* \"B4B.CONTRACTS/b4b.sol\":1884:2324  function AcceptBooking (uint _campaignID) public {... */\n    tag_12:\n      callvalue\n        /* \"--CODEGEN--\":8:17   */\n      dup1\n        /* \"--CODEGEN--\":5:7   */\n      iszero\n      tag_55\n      jumpi\n        /* \"--CODEGEN--\":30:31   */\n      0x00\n        /* \"--CODEGEN--\":27:28   */\n      dup1\n        /* \"--CODEGEN--\":20:32   */\n      revert\n        /* \"--CODEGEN--\":5:7   */\n    tag_55:\n        /* \"B4B.CONTRACTS/b4b.sol\":1884:2324  function AcceptBooking (uint _campaignID) public {... */\n      pop\n      tag_56\n      0x04\n      dup1\n      calldatasize\n      sub\n        /* \"--CODEGEN--\":13:15   */\n      0x20\n        /* \"--CODEGEN--\":8:11   */\n      dup2\n        /* \"--CODEGEN--\":5:16   */\n      lt\n        /* \"--CODEGEN--\":2:4   */\n      iszero\n      tag_57\n      jumpi\n        /* \"--CODEGEN--\":29:30   */\n      0x00\n        /* \"--CODEGEN--\":26:27   */\n      dup1\n        /* \"--CODEGEN--\":19:31   */\n      revert\n        /* \"--CODEGEN--\":2:4   */\n    tag_57:\n        /* \"B4B.CONTRACTS/b4b.sol\":1884:2324  function AcceptBooking (uint _campaignID) public {... */\n      dup2\n      add\n      swap1\n      dup1\n      dup1\n      calldataload\n      swap1\n      0x20\n      add\n      swap1\n      swap3\n      swap2\n      swap1\n      pop\n      pop\n      pop\n      tag_58\n      jump\t// in\n    tag_56:\n      stop\n        /* \"B4B.CONTRACTS/b4b.sol\":4269:4425  function PaidOnContract (uint _campaignID) public view returns (uint256) {... */\n    tag_13:\n      callvalue\n        /* \"--CODEGEN--\":8:17   */\n      dup1\n        /* \"--CODEGEN--\":5:7   */\n      iszero\n      tag_59\n      jumpi\n        /* \"--CODEGEN--\":30:31   */\n      0x00\n        /* \"--CODEGEN--\":27:28   */\n      dup1\n        /* \"--CODEGEN--\":20:32   */\n      revert\n        /* \"--CODEGEN--\":5:7   */\n    tag_59:\n        /* \"B4B.CONTRACTS/b4b.sol\":4269:4425  function PaidOnContract (uint _campaignID) public view returns (uint256) {... */\n      pop\n      tag_60\n      0x04\n      dup1\n      calldatasize\n      sub\n        /* \"--CODEGEN--\":13:15   */\n      0x20\n        /* \"--CODEGEN--\":8:11   */\n      dup2\n        /* \"--CODEGEN--\":5:16   */\n      lt\n        /* \"--CODEGEN--\":2:4   */\n      iszero\n      tag_61\n      jumpi\n        /* \"--CODEGEN--\":29:30   */\n      0x00\n        /* \"--CODEGEN--\":26:27   */\n      dup1\n        /* \"--CODEGEN--\":19:31   */\n      revert\n        /* \"--CODEGEN--\":2:4   */\n    tag_61:\n        /* \"B4B.CONTRACTS/b4b.sol\":4269:4425  function PaidOnContract (uint _campaignID) public view returns (uint256) {... */\n      dup2\n      add\n      swap1\n      dup1\n      dup1\n      calldataload\n      swap1\n      0x20\n      add\n      swap1\n      swap3\n      swap2\n      swap1\n      pop\n      pop\n      pop\n      tag_62\n      jump\t// in\n    tag_60:\n      mload(0x40)\n      dup1\n      dup3\n      dup2\n      mstore\n      0x20\n      add\n      swap2\n      pop\n      pop\n      mload(0x40)\n      dup1\n      swap2\n      sub\n      swap1\n      return\n        /* \"B4B.CONTRACTS/b4b.sol\":1143:1317  function ChangePrice (uint256 _price) public {... */\n    tag_14:\n      callvalue\n        /* \"--CODEGEN--\":8:17   */\n      dup1\n        /* \"--CODEGEN--\":5:7   */\n      iszero\n      tag_63\n      jumpi\n        /* \"--CODEGEN--\":30:31   */\n      0x00\n        /* \"--CODEGEN--\":27:28   */\n      dup1\n        /* \"--CODEGEN--\":20:32   */\n      revert\n        /* \"--CODEGEN--\":5:7   */\n    tag_63:\n        /* \"B4B.CONTRACTS/b4b.sol\":1143:1317  function ChangePrice (uint256 _price) public {... */\n      pop\n      tag_64\n      0x04\n      dup1\n      calldatasize\n      sub\n        /* \"--CODEGEN--\":13:15   */\n      0x20\n        /* \"--CODEGEN--\":8:11   */\n      dup2\n        /* \"--CODEGEN--\":5:16   */\n      lt\n        /* \"--CODEGEN--\":2:4   */\n      iszero\n      tag_65\n      jumpi\n        /* \"--CODEGEN--\":29:30   */\n      0x00\n        /* \"--CODEGEN--\":26:27   */\n      dup1\n        /* \"--CODEGEN--\":19:31   */\n      revert\n        /* \"--CODEGEN--\":2:4   */\n    tag_65:\n        /* \"B4B.CONTRACTS/b4b.sol\":1143:1317  function ChangePrice (uint256 _price) public {... */\n      dup2\n      add\n      swap1\n      dup1\n      dup1\n      calldataload\n      swap1\n      0x20\n      add\n      swap1\n      swap3\n      swap2\n      swap1\n      pop\n      pop\n      pop\n      tag_66\n      jump\t// in\n    tag_64:\n      stop\n        /* \"B4B.CONTRACTS/b4b.sol\":1323:1878  function NewBooking (address  _influencer/*, uint _date*/) public payable returns (uint campaignID) {... */\n    tag_19:\n        /* \"B4B.CONTRACTS/b4b.sol\":1406:1421  uint campaignID */\n      0x00\n        /* \"B4B.CONTRACTS/b4b.sol\":1433:1453  Influencer storage i */\n      dup1\n        /* \"B4B.CONTRACTS/b4b.sol\":1456:1467  influencers */\n      0x03\n        /* \"B4B.CONTRACTS/b4b.sol\":1456:1480  influencers[_influencer] */\n      0x00\n        /* \"B4B.CONTRACTS/b4b.sol\":1468:1479  _influencer */\n      dup5\n        /* \"B4B.CONTRACTS/b4b.sol\":1456:1480  influencers[_influencer] */\n      0xffffffffffffffffffffffffffffffffffffffff\n      and\n      0xffffffffffffffffffffffffffffffffffffffff\n      and\n      dup2\n      mstore\n      0x20\n      add\n      swap1\n      dup2\n      mstore\n      0x20\n      add\n      0x00\n      keccak256\n        /* \"B4B.CONTRACTS/b4b.sol\":1433:1480  Influencer storage i = influencers[_influencer] */\n      swap1\n      pop\n        /* \"B4B.CONTRACTS/b4b.sol\":1510:1519  msg.value */\n      callvalue\n        /* \"B4B.CONTRACTS/b4b.sol\":1499:1500  i */\n      dup2\n        /* \"B4B.CONTRACTS/b4b.sol\":1499:1506  i.price */\n      0x01\n      add\n      sload\n        /* \"B4B.CONTRACTS/b4b.sol\":1499:1519  i.price == msg.value */\n      eq\n        /* \"B4B.CONTRACTS/b4b.sol\":1490:1520  require (i.price == msg.value) */\n      tag_68\n      jumpi\n      0x00\n      dup1\n      revert\n    tag_68:\n        /* \"B4B.CONTRACTS/b4b.sol\":1542:1554  numCampaigns */\n      0x01\n      0x00\n        /* \"B4B.CONTRACTS/b4b.sol\":1542:1556  numCampaigns++ */\n      dup2\n      sload\n      dup1\n      swap3\n      swap2\n      swap1\n      0x01\n      add\n      swap2\n      swap1\n      pop\n      sstore\n        /* \"B4B.CONTRACTS/b4b.sol\":1531:1556  campaignID=numCampaigns++ */\n      swap2\n      pop\n        /* \"B4B.CONTRACTS/b4b.sol\":1566:1584  Campaign storage c */\n      0x00\n        /* \"B4B.CONTRACTS/b4b.sol\":1587:1596  campaigns */\n      0x02\n        /* \"B4B.CONTRACTS/b4b.sol\":1587:1608  campaigns[campaignID] */\n      0x00\n        /* \"B4B.CONTRACTS/b4b.sol\":1597:1607  campaignID */\n      dup5\n        /* \"B4B.CONTRACTS/b4b.sol\":1587:1608  campaigns[campaignID] */\n      dup2\n      mstore\n      0x20\n      add\n      swap1\n      dup2\n      mstore\n      0x20\n      add\n      0x00\n      keccak256\n        /* \"B4B.CONTRACTS/b4b.sol\":1566:1608  Campaign storage c = campaigns[campaignID] */\n      swap1\n      pop\n        /* \"B4B.CONTRACTS/b4b.sol\":1633:1643  msg.sender */\n      caller\n        /* \"B4B.CONTRACTS/b4b.sol\":1618:1619  c */\n      dup2\n        /* \"B4B.CONTRACTS/b4b.sol\":1618:1630  c.brand_addr */\n      0x00\n      add\n      0x00\n        /* \"B4B.CONTRACTS/b4b.sol\":1618:1643  c.brand_addr = msg.sender */\n      0x0100\n      exp\n      dup2\n      sload\n      dup2\n      0xffffffffffffffffffffffffffffffffffffffff\n      mul\n      not\n      and\n      swap1\n      dup4\n      0xffffffffffffffffffffffffffffffffffffffff\n      and\n      mul\n      or\n      swap1\n      sstore\n      pop\n        /* \"B4B.CONTRACTS/b4b.sol\":1673:1684  _influencer */\n      dup4\n        /* \"B4B.CONTRACTS/b4b.sol\":1653:1654  c */\n      dup2\n        /* \"B4B.CONTRACTS/b4b.sol\":1653:1670  c.influencer_addr */\n      0x01\n      add\n      0x00\n        /* \"B4B.CONTRACTS/b4b.sol\":1653:1684  c.influencer_addr = _influencer */\n      0x0100\n      exp\n      dup2\n      sload\n      dup2\n      0xffffffffffffffffffffffffffffffffffffffff\n      mul\n      not\n      and\n      swap1\n      dup4\n      0xffffffffffffffffffffffffffffffffffffffff\n      and\n      mul\n      or\n      swap1\n      sstore\n      pop\n        /* \"B4B.CONTRACTS/b4b.sol\":1736:1740  true */\n      0x01\n        /* \"B4B.CONTRACTS/b4b.sol\":1720:1721  c */\n      dup2\n        /* \"B4B.CONTRACTS/b4b.sol\":1720:1733  c.book_status */\n      0x03\n      add\n      0x00\n        /* \"B4B.CONTRACTS/b4b.sol\":1720:1740  c.book_status = true */\n      0x0100\n      exp\n      dup2\n      sload\n      dup2\n      0xff\n      mul\n      not\n      and\n      swap1\n      dup4\n      iszero\n      iszero\n      mul\n      or\n      swap1\n      sstore\n      pop\n        /* \"B4B.CONTRACTS/b4b.sol\":1768:1773  false */\n      0x00\n        /* \"B4B.CONTRACTS/b4b.sol\":1750:1751  c */\n      dup2\n        /* \"B4B.CONTRACTS/b4b.sol\":1750:1765  c.accept_status */\n      0x03\n      add\n      0x01\n        /* \"B4B.CONTRACTS/b4b.sol\":1750:1773  c.accept_status = false */\n      0x0100\n      exp\n      dup2\n      sload\n      dup2\n      0xff\n      mul\n      not\n      and\n      swap1\n      dup4\n      iszero\n      iszero\n      mul\n      or\n      swap1\n      sstore\n      pop\n        /* \"B4B.CONTRACTS/b4b.sol\":1803:1808  false */\n      0x00\n        /* \"B4B.CONTRACTS/b4b.sol\":1783:1784  c */\n      dup2\n        /* \"B4B.CONTRACTS/b4b.sol\":1783:1800  c.complete_status */\n      0x03\n      add\n      0x02\n        /* \"B4B.CONTRACTS/b4b.sol\":1783:1808  c.complete_status = false */\n      0x0100\n      exp\n      dup2\n      sload\n      dup2\n      0xff\n      mul\n      not\n      and\n      swap1\n      dup4\n      iszero\n      iszero\n      mul\n      or\n      swap1\n      sstore\n      pop\n        /* \"B4B.CONTRACTS/b4b.sol\":1838:1843  false */\n      0x00\n        /* \"B4B.CONTRACTS/b4b.sol\":1818:1819  c */\n      dup2\n        /* \"B4B.CONTRACTS/b4b.sol\":1818:1835  c.approved_status */\n      0x03\n      add\n      0x03\n        /* \"B4B.CONTRACTS/b4b.sol\":1818:1843  c.approved_status = false */\n      0x0100\n      exp\n      dup2\n      sload\n      dup2\n      0xff\n      mul\n      not\n      and\n      swap1\n      dup4\n      iszero\n      iszero\n      mul\n      or\n      swap1\n      sstore\n      pop\n        /* \"B4B.CONTRACTS/b4b.sol\":1862:1871  msg.value */\n      callvalue\n        /* \"B4B.CONTRACTS/b4b.sol\":1853:1854  c */\n      dup2\n        /* \"B4B.CONTRACTS/b4b.sol\":1853:1859  c.paid */\n      0x04\n      add\n        /* \"B4B.CONTRACTS/b4b.sol\":1853:1871  c.paid = msg.value */\n      dup2\n      swap1\n      sstore\n      pop\n        /* \"B4B.CONTRACTS/b4b.sol\":1323:1878  function NewBooking (address  _influencer/*, uint _date*/) public payable returns (uint campaignID) {... */\n      pop\n      pop\n      swap2\n      swap1\n      pop\n      jump\t// out\n        /* \"B4B.CONTRACTS/b4b.sol\":2819:3168  function ApproveAds (uint _campaignID) public {... */\n    tag_23:\n        /* \"B4B.CONTRACTS/b4b.sol\":2875:2893  Campaign storage c */\n      0x00\n        /* \"B4B.CONTRACTS/b4b.sol\":2896:2905  campaigns */\n      0x02\n        /* \"B4B.CONTRACTS/b4b.sol\":2896:2918  campaigns[_campaignID] */\n      0x00\n        /* \"B4B.CONTRACTS/b4b.sol\":2906:2917  _campaignID */\n      dup4\n        /* \"B4B.CONTRACTS/b4b.sol\":2896:2918  campaigns[_campaignID] */\n      dup2\n      mstore\n      0x20\n      add\n      swap1\n      dup2\n      mstore\n      0x20\n      add\n      0x00\n      keccak256\n        /* \"B4B.CONTRACTS/b4b.sol\":2875:2918  Campaign storage c = campaigns[_campaignID] */\n      swap1\n      pop\n        /* \"B4B.CONTRACTS/b4b.sol\":2951:2961  msg.sender */\n      caller\n        /* \"B4B.CONTRACTS/b4b.sol\":2937:2961  c.brand_addr==msg.sender */\n      0xffffffffffffffffffffffffffffffffffffffff\n      and\n        /* \"B4B.CONTRACTS/b4b.sol\":2937:2938  c */\n      dup2\n        /* \"B4B.CONTRACTS/b4b.sol\":2937:2949  c.brand_addr */\n      0x00\n      add\n      0x00\n      swap1\n      sload\n      swap1\n      0x0100\n      exp\n      swap1\n      div\n      0xffffffffffffffffffffffffffffffffffffffff\n      and\n        /* \"B4B.CONTRACTS/b4b.sol\":2937:2961  c.brand_addr==msg.sender */\n      0xffffffffffffffffffffffffffffffffffffffff\n      and\n      eq\n        /* \"B4B.CONTRACTS/b4b.sol\":2928:2962  require (c.brand_addr==msg.sender) */\n      tag_70\n      jumpi\n      0x00\n      dup1\n      revert\n    tag_70:\n        /* \"B4B.CONTRACTS/b4b.sol\":2996:3000  true */\n      0x01\n        /* \"B4B.CONTRACTS/b4b.sol\":2981:3000  c.book_status==true */\n      iszero\n      iszero\n        /* \"B4B.CONTRACTS/b4b.sol\":2981:2982  c */\n      dup2\n        /* \"B4B.CONTRACTS/b4b.sol\":2981:2994  c.book_status */\n      0x03\n      add\n      0x00\n      swap1\n      sload\n      swap1\n      0x0100\n      exp\n      swap1\n      div\n      0xff\n      and\n        /* \"B4B.CONTRACTS/b4b.sol\":2981:3000  c.book_status==true */\n      iszero\n      iszero\n      eq\n        /* \"B4B.CONTRACTS/b4b.sol\":2972:3001  require (c.book_status==true) */\n      tag_71\n      jumpi\n      0x00\n      dup1\n      revert\n    tag_71:\n        /* \"B4B.CONTRACTS/b4b.sol\":3037:3041  true */\n      0x01\n        /* \"B4B.CONTRACTS/b4b.sol\":3020:3041  c.accept_status==true */\n      iszero\n      iszero\n        /* \"B4B.CONTRACTS/b4b.sol\":3020:3021  c */\n      dup2\n        /* \"B4B.CONTRACTS/b4b.sol\":3020:3035  c.accept_status */\n      0x03\n      add\n      0x01\n      swap1\n      sload\n      swap1\n      0x0100\n      exp\n      swap1\n      div\n      0xff\n      and\n        /* \"B4B.CONTRACTS/b4b.sol\":3020:3041  c.accept_status==true */\n      iszero\n      iszero\n      eq\n        /* \"B4B.CONTRACTS/b4b.sol\":3011:3042  require (c.accept_status==true) */\n      tag_72\n      jumpi\n      0x00\n      dup1\n      revert\n    tag_72:\n        /* \"B4B.CONTRACTS/b4b.sol\":3080:3084  true */\n      0x01\n        /* \"B4B.CONTRACTS/b4b.sol\":3061:3084  c.complete_status==true */\n      iszero\n      iszero\n        /* \"B4B.CONTRACTS/b4b.sol\":3061:3062  c */\n      dup2\n        /* \"B4B.CONTRACTS/b4b.sol\":3061:3078  c.complete_status */\n      0x03\n      add\n      0x02\n      swap1\n      sload\n      swap1\n      0x0100\n      exp\n      swap1\n      div\n      0xff\n      and\n        /* \"B4B.CONTRACTS/b4b.sol\":3061:3084  c.complete_status==true */\n      iszero\n      iszero\n      eq\n        /* \"B4B.CONTRACTS/b4b.sol\":3052:3085  require (c.complete_status==true) */\n      tag_73\n      jumpi\n      0x00\n      dup1\n      revert\n    tag_73:\n        /* \"B4B.CONTRACTS/b4b.sol\":3123:3128  false */\n      0x00\n        /* \"B4B.CONTRACTS/b4b.sol\":3104:3128  c.approved_status==false */\n      iszero\n      iszero\n        /* \"B4B.CONTRACTS/b4b.sol\":3104:3105  c */\n      dup2\n        /* \"B4B.CONTRACTS/b4b.sol\":3104:3121  c.approved_status */\n      0x03\n      add\n      0x03\n      swap1\n      sload\n      swap1\n      0x0100\n      exp\n      swap1\n      div\n      0xff\n      and\n        /* \"B4B.CONTRACTS/b4b.sol\":3104:3128  c.approved_status==false */\n      iszero\n      iszero\n      eq\n        /* \"B4B.CONTRACTS/b4b.sol\":3095:3129  require (c.approved_status==false) */\n      tag_74\n      jumpi\n      0x00\n      dup1\n      revert\n    tag_74:\n        /* \"B4B.CONTRACTS/b4b.sol\":3157:3161  true */\n      0x01\n        /* \"B4B.CONTRACTS/b4b.sol\":3139:3140  c */\n      dup2\n        /* \"B4B.CONTRACTS/b4b.sol\":3139:3156  c.approved_status */\n      0x03\n      add\n      0x03\n        /* \"B4B.CONTRACTS/b4b.sol\":3139:3161  c.approved_status=true */\n      0x0100\n      exp\n      dup2\n      sload\n      dup2\n      0xff\n      mul\n      not\n      and\n      swap1\n      dup4\n      iszero\n      iszero\n      mul\n      or\n      swap1\n      sstore\n      pop\n        /* \"B4B.CONTRACTS/b4b.sol\":2819:3168  function ApproveAds (uint _campaignID) public {... */\n      pop\n      pop\n      jump\t// out\n        /* \"B4B.CONTRACTS/b4b.sol\":4100:4263  function ApprovedStatus(uint _campaignID) public view returns (bool) {... */\n    tag_27:\n        /* \"B4B.CONTRACTS/b4b.sol\":4163:4167  bool */\n      0x00\n        /* \"B4B.CONTRACTS/b4b.sol\":4179:4197  Campaign storage c */\n      dup1\n        /* \"B4B.CONTRACTS/b4b.sol\":4200:4209  campaigns */\n      0x02\n        /* \"B4B.CONTRACTS/b4b.sol\":4200:4222  campaigns[_campaignID] */\n      0x00\n        /* \"B4B.CONTRACTS/b4b.sol\":4210:4221  _campaignID */\n      dup5\n        /* \"B4B.CONTRACTS/b4b.sol\":4200:4222  campaigns[_campaignID] */\n      dup2\n      mstore\n      0x20\n      add\n      swap1\n      dup2\n      mstore\n      0x20\n      add\n      0x00\n      keccak256\n        /* \"B4B.CONTRACTS/b4b.sol\":4179:4222  Campaign storage c = campaigns[_campaignID] */\n      swap1\n      pop\n        /* \"B4B.CONTRACTS/b4b.sol\":4239:4240  c */\n      dup1\n        /* \"B4B.CONTRACTS/b4b.sol\":4239:4256  c.approved_status */\n      0x03\n      add\n      0x03\n      swap1\n      sload\n      swap1\n      0x0100\n      exp\n      swap1\n      div\n      0xff\n      and\n        /* \"B4B.CONTRACTS/b4b.sol\":4232:4256  return c.approved_status */\n      swap2\n      pop\n      pop\n        /* \"B4B.CONTRACTS/b4b.sol\":4100:4263  function ApprovedStatus(uint _campaignID) public view returns (bool) {... */\n      swap2\n      swap1\n      pop\n      jump\t// out\n        /* \"B4B.CONTRACTS/b4b.sol\":4601:4925  function TakeCoins () public returns (uint256) {... */\n    tag_30:\n        /* \"B4B.CONTRACTS/b4b.sol\":4639:4646  uint256 */\n      0x00\n        /* \"B4B.CONTRACTS/b4b.sol\":4682:4689  30 days */\n      0x278d00\n        /* \"B4B.CONTRACTS/b4b.sol\":4671:4681  deployDate */\n      sload(0x00)\n        /* \"B4B.CONTRACTS/b4b.sol\":4667:4670  now */\n      timestamp\n        /* \"B4B.CONTRACTS/b4b.sol\":4667:4681  now-deployDate */\n      sub\n        /* \"B4B.CONTRACTS/b4b.sol\":4667:4689  now-deployDate>30 days */\n      gt\n        /* \"B4B.CONTRACTS/b4b.sol\":4658:4690  require (now-deployDate>30 days) */\n      tag_77\n      jumpi\n      0x00\n      dup1\n      revert\n    tag_77:\n        /* \"B4B.CONTRACTS/b4b.sol\":4709:4729  Influencer storage i */\n      0x00\n        /* \"B4B.CONTRACTS/b4b.sol\":4732:4743  influencers */\n      0x03\n        /* \"B4B.CONTRACTS/b4b.sol\":4732:4755  influencers[msg.sender] */\n      0x00\n        /* \"B4B.CONTRACTS/b4b.sol\":4744:4754  msg.sender */\n      caller\n        /* \"B4B.CONTRACTS/b4b.sol\":4732:4755  influencers[msg.sender] */\n      0xffffffffffffffffffffffffffffffffffffffff\n      and\n      0xffffffffffffffffffffffffffffffffffffffff\n      and\n      dup2\n      mstore\n      0x20\n      add\n      swap1\n      dup2\n      mstore\n      0x20\n      add\n      0x00\n      keccak256\n        /* \"B4B.CONTRACTS/b4b.sol\":4709:4755  Influencer storage i = influencers[msg.sender] */\n      swap1\n      pop\n        /* \"B4B.CONTRACTS/b4b.sol\":4801:4808  30 days */\n      0x278d00\n        /* \"B4B.CONTRACTS/b4b.sol\":4778:4779  i */\n      dup2\n        /* \"B4B.CONTRACTS/b4b.sol\":4778:4800  i.lastDistributionDate */\n      0x04\n      add\n      sload\n        /* \"B4B.CONTRACTS/b4b.sol\":4774:4777  now */\n      timestamp\n        /* \"B4B.CONTRACTS/b4b.sol\":4774:4800  now-i.lastDistributionDate */\n      sub\n        /* \"B4B.CONTRACTS/b4b.sol\":4774:4808  now-i.lastDistributionDate>30 days */\n      gt\n        /* \"B4B.CONTRACTS/b4b.sol\":4765:4809  require (now-i.lastDistributionDate>30 days) */\n      tag_78\n      jumpi\n      0x00\n      dup1\n      revert\n    tag_78:\n        /* \"B4B.CONTRACTS/b4b.sol\":4839:4842  100 */\n      0x64\n        /* \"B4B.CONTRACTS/b4b.sol\":4830:4831  i */\n      dup2\n        /* \"B4B.CONTRACTS/b4b.sol\":4830:4838  i.points */\n      0x02\n      add\n      sload\n        /* \"B4B.CONTRACTS/b4b.sol\":4830:4842  i.points*100 */\n      mul\n        /* \"B4B.CONTRACTS/b4b.sol\":4820:4821  i */\n      dup2\n        /* \"B4B.CONTRACTS/b4b.sol\":4820:4827  i.coins */\n      0x03\n      add\n        /* \"B4B.CONTRACTS/b4b.sol\":4820:4842  i.coins = i.points*100 */\n      dup2\n      swap1\n      sstore\n      pop\n        /* \"B4B.CONTRACTS/b4b.sol\":4878:4885  30 days */\n      0x278d00\n        /* \"B4B.CONTRACTS/b4b.sol\":4853:4854  i */\n      dup2\n        /* \"B4B.CONTRACTS/b4b.sol\":4853:4875  i.lastDistributionDate */\n      0x04\n      add\n      0x00\n        /* \"B4B.CONTRACTS/b4b.sol\":4853:4885  i.lastDistributionDate+= 30 days */\n      dup3\n      dup3\n      sload\n      add\n      swap3\n      pop\n      pop\n      dup2\n      swap1\n      sstore\n      pop\n        /* \"B4B.CONTRACTS/b4b.sol\":4911:4912  i */\n      dup1\n        /* \"B4B.CONTRACTS/b4b.sol\":4911:4918  i.coins */\n      0x03\n      add\n      sload\n        /* \"B4B.CONTRACTS/b4b.sol\":4904:4918  return i.coins */\n      swap2\n      pop\n      pop\n        /* \"B4B.CONTRACTS/b4b.sol\":4601:4925  function TakeCoins () public returns (uint256) {... */\n      swap1\n      jump\t// out\n        /* \"B4B.CONTRACTS/b4b.sol\":3758:3917  function AcceptStatus(uint _campaignID) public view returns (bool) {... */\n    tag_34:\n        /* \"B4B.CONTRACTS/b4b.sol\":3819:3823  bool */\n      0x00\n        /* \"B4B.CONTRACTS/b4b.sol\":3835:3853  Campaign storage c */\n      dup1\n        /* \"B4B.CONTRACTS/b4b.sol\":3856:3865  campaigns */\n      0x02\n        /* \"B4B.CONTRACTS/b4b.sol\":3856:3878  campaigns[_campaignID] */\n      0x00\n        /* \"B4B.CONTRACTS/b4b.sol\":3866:3877  _campaignID */\n      dup5\n        /* \"B4B.CONTRACTS/b4b.sol\":3856:3878  campaigns[_campaignID] */\n      dup2\n      mstore\n      0x20\n      add\n      swap1\n      dup2\n      mstore\n      0x20\n      add\n      0x00\n      keccak256\n        /* \"B4B.CONTRACTS/b4b.sol\":3835:3878  Campaign storage c = campaigns[_campaignID] */\n      swap1\n      pop\n        /* \"B4B.CONTRACTS/b4b.sol\":3895:3896  c */\n      dup1\n        /* \"B4B.CONTRACTS/b4b.sol\":3895:3910  c.accept_status */\n      0x03\n      add\n      0x01\n      swap1\n      sload\n      swap1\n      0x0100\n      exp\n      swap1\n      div\n      0xff\n      and\n        /* \"B4B.CONTRACTS/b4b.sol\":3888:3910  return c.accept_status */\n      swap2\n      pop\n      pop\n        /* \"B4B.CONTRACTS/b4b.sol\":3758:3917  function AcceptStatus(uint _campaignID) public view returns (bool) {... */\n      swap2\n      swap1\n      pop\n      jump\t// out\n        /* \"B4B.CONTRACTS/b4b.sol\":3927:4090  function CompleteStatus(uint _campaignID) public view returns (bool) {... */\n    tag_38:\n        /* \"B4B.CONTRACTS/b4b.sol\":3990:3994  bool */\n      0x00\n        /* \"B4B.CONTRACTS/b4b.sol\":4006:4024  Campaign storage c */\n      dup1\n        /* \"B4B.CONTRACTS/b4b.sol\":4027:4036  campaigns */\n      0x02\n        /* \"B4B.CONTRACTS/b4b.sol\":4027:4049  campaigns[_campaignID] */\n      0x00\n        /* \"B4B.CONTRACTS/b4b.sol\":4037:4048  _campaignID */\n      dup5\n        /* \"B4B.CONTRACTS/b4b.sol\":4027:4049  campaigns[_campaignID] */\n      dup2\n      mstore\n      0x20\n      add\n      swap1\n      dup2\n      mstore\n      0x20\n      add\n      0x00\n      keccak256\n        /* \"B4B.CONTRACTS/b4b.sol\":4006:4049  Campaign storage c = campaigns[_campaignID] */\n      swap1\n      pop\n        /* \"B4B.CONTRACTS/b4b.sol\":4066:4067  c */\n      dup1\n        /* \"B4B.CONTRACTS/b4b.sol\":4066:4083  c.complete_status */\n      0x03\n      add\n      0x02\n      swap1\n      sload\n      swap1\n      0x0100\n      exp\n      swap1\n      div\n      0xff\n      and\n        /* \"B4B.CONTRACTS/b4b.sol\":4059:4083  return c.complete_status */\n      swap2\n      pop\n      pop\n        /* \"B4B.CONTRACTS/b4b.sol\":3927:4090  function CompleteStatus(uint _campaignID) public view returns (bool) {... */\n      swap2\n      swap1\n      pop\n      jump\t// out\n        /* \"B4B.CONTRACTS/b4b.sol\":3593:3748  function BookStatus(uint _campaignID) public view returns (bool) {... */\n    tag_42:\n        /* \"B4B.CONTRACTS/b4b.sol\":3652:3656  bool */\n      0x00\n        /* \"B4B.CONTRACTS/b4b.sol\":3668:3686  Campaign storage c */\n      dup1\n        /* \"B4B.CONTRACTS/b4b.sol\":3689:3698  campaigns */\n      0x02\n        /* \"B4B.CONTRACTS/b4b.sol\":3689:3711  campaigns[_campaignID] */\n      0x00\n        /* \"B4B.CONTRACTS/b4b.sol\":3699:3710  _campaignID */\n      dup5\n        /* \"B4B.CONTRACTS/b4b.sol\":3689:3711  campaigns[_campaignID] */\n      dup2\n      mstore\n      0x20\n      add\n      swap1\n      dup2\n      mstore\n      0x20\n      add\n      0x00\n      keccak256\n        /* \"B4B.CONTRACTS/b4b.sol\":3668:3711  Campaign storage c = campaigns[_campaignID] */\n      swap1\n      pop\n        /* \"B4B.CONTRACTS/b4b.sol\":3728:3729  c */\n      dup1\n        /* \"B4B.CONTRACTS/b4b.sol\":3728:3741  c.book_status */\n      0x03\n      add\n      0x00\n      swap1\n      sload\n      swap1\n      0x0100\n      exp\n      swap1\n      div\n      0xff\n      and\n        /* \"B4B.CONTRACTS/b4b.sol\":3721:3741  return c.book_status */\n      swap2\n      pop\n      pop\n        /* \"B4B.CONTRACTS/b4b.sol\":3593:3748  function BookStatus(uint _campaignID) public view returns (bool) {... */\n      swap2\n      swap1\n      pop\n      jump\t// out\n        /* \"B4B.CONTRACTS/b4b.sol\":2330:2813  function CompleteAds (uint _campaignID) public {... */\n    tag_46:\n        /* \"B4B.CONTRACTS/b4b.sol\":2387:2405  Campaign storage c */\n      0x00\n        /* \"B4B.CONTRACTS/b4b.sol\":2408:2417  campaigns */\n      0x02\n        /* \"B4B.CONTRACTS/b4b.sol\":2408:2430  campaigns[_campaignID] */\n      0x00\n        /* \"B4B.CONTRACTS/b4b.sol\":2418:2429  _campaignID */\n      dup4\n        /* \"B4B.CONTRACTS/b4b.sol\":2408:2430  campaigns[_campaignID] */\n      dup2\n      mstore\n      0x20\n      add\n      swap1\n      dup2\n      mstore\n      0x20\n      add\n      0x00\n      keccak256\n        /* \"B4B.CONTRACTS/b4b.sol\":2387:2430  Campaign storage c = campaigns[_campaignID] */\n      swap1\n      pop\n        /* \"B4B.CONTRACTS/b4b.sol\":2468:2478  msg.sender */\n      caller\n        /* \"B4B.CONTRACTS/b4b.sol\":2449:2478  c.influencer_addr==msg.sender */\n      0xffffffffffffffffffffffffffffffffffffffff\n      and\n        /* \"B4B.CONTRACTS/b4b.sol\":2449:2450  c */\n      dup2\n        /* \"B4B.CONTRACTS/b4b.sol\":2449:2466  c.influencer_addr */\n      0x01\n      add\n      0x00\n      swap1\n      sload\n      swap1\n      0x0100\n      exp\n      swap1\n      div\n      0xffffffffffffffffffffffffffffffffffffffff\n      and\n        /* \"B4B.CONTRACTS/b4b.sol\":2449:2478  c.influencer_addr==msg.sender */\n      0xffffffffffffffffffffffffffffffffffffffff\n      and\n      eq\n        /* \"B4B.CONTRACTS/b4b.sol\":2440:2479  require (c.influencer_addr==msg.sender) */\n      tag_83\n      jumpi\n      0x00\n      dup1\n      revert\n    tag_83:\n        /* \"B4B.CONTRACTS/b4b.sol\":2513:2517  true */\n      0x01\n        /* \"B4B.CONTRACTS/b4b.sol\":2498:2517  c.book_status==true */\n      iszero\n      iszero\n        /* \"B4B.CONTRACTS/b4b.sol\":2498:2499  c */\n      dup2\n        /* \"B4B.CONTRACTS/b4b.sol\":2498:2511  c.book_status */\n      0x03\n      add\n      0x00\n      swap1\n      sload\n      swap1\n      0x0100\n      exp\n      swap1\n      div\n      0xff\n      and\n        /* \"B4B.CONTRACTS/b4b.sol\":2498:2517  c.book_status==true */\n      iszero\n      iszero\n      eq\n        /* \"B4B.CONTRACTS/b4b.sol\":2489:2518  require (c.book_status==true) */\n      tag_84\n      jumpi\n      0x00\n      dup1\n      revert\n    tag_84:\n        /* \"B4B.CONTRACTS/b4b.sol\":2554:2558  true */\n      0x01\n        /* \"B4B.CONTRACTS/b4b.sol\":2537:2558  c.accept_status==true */\n      iszero\n      iszero\n        /* \"B4B.CONTRACTS/b4b.sol\":2537:2538  c */\n      dup2\n        /* \"B4B.CONTRACTS/b4b.sol\":2537:2552  c.accept_status */\n      0x03\n      add\n      0x01\n      swap1\n      sload\n      swap1\n      0x0100\n      exp\n      swap1\n      div\n      0xff\n      and\n        /* \"B4B.CONTRACTS/b4b.sol\":2537:2558  c.accept_status==true */\n      iszero\n      iszero\n      eq\n        /* \"B4B.CONTRACTS/b4b.sol\":2528:2559  require (c.accept_status==true) */\n      tag_85\n      jumpi\n      0x00\n      dup1\n      revert\n    tag_85:\n        /* \"B4B.CONTRACTS/b4b.sol\":2597:2602  false */\n      0x00\n        /* \"B4B.CONTRACTS/b4b.sol\":2578:2602  c.complete_status==false */\n      iszero\n      iszero\n        /* \"B4B.CONTRACTS/b4b.sol\":2578:2579  c */\n      dup2\n        /* \"B4B.CONTRACTS/b4b.sol\":2578:2595  c.complete_status */\n      0x03\n      add\n      0x02\n      swap1\n      sload\n      swap1\n      0x0100\n      exp\n      swap1\n      div\n      0xff\n      and\n        /* \"B4B.CONTRACTS/b4b.sol\":2578:2602  c.complete_status==false */\n      iszero\n      iszero\n      eq\n        /* \"B4B.CONTRACTS/b4b.sol\":2569:2603  require (c.complete_status==false) */\n      tag_86\n      jumpi\n      0x00\n      dup1\n      revert\n    tag_86:\n        /* \"B4B.CONTRACTS/b4b.sol\":2631:2635  true */\n      0x01\n        /* \"B4B.CONTRACTS/b4b.sol\":2613:2614  c */\n      dup2\n        /* \"B4B.CONTRACTS/b4b.sol\":2613:2630  c.complete_status */\n      0x03\n      add\n      0x02\n        /* \"B4B.CONTRACTS/b4b.sol\":2613:2635  c.complete_status=true */\n      0x0100\n      exp\n      dup2\n      sload\n      dup2\n      0xff\n      mul\n      not\n      and\n      swap1\n      dup4\n      iszero\n      iszero\n      mul\n      or\n      swap1\n      sstore\n      pop\n        /* \"B4B.CONTRACTS/b4b.sol\":2693:2713  Influencer storage i */\n      0x00\n        /* \"B4B.CONTRACTS/b4b.sol\":2716:2727  influencers */\n      0x03\n        /* \"B4B.CONTRACTS/b4b.sol\":2716:2739  influencers[msg.sender] */\n      0x00\n        /* \"B4B.CONTRACTS/b4b.sol\":2728:2738  msg.sender */\n      caller\n        /* \"B4B.CONTRACTS/b4b.sol\":2716:2739  influencers[msg.sender] */\n      0xffffffffffffffffffffffffffffffffffffffff\n      and\n      0xffffffffffffffffffffffffffffffffffffffff\n      and\n      dup2\n      mstore\n      0x20\n      add\n      swap1\n      dup2\n      mstore\n      0x20\n      add\n      0x00\n      keccak256\n        /* \"B4B.CONTRACTS/b4b.sol\":2693:2739  Influencer storage i = influencers[msg.sender] */\n      swap1\n      pop\n        /* \"B4B.CONTRACTS/b4b.sol\":2759:2761  10 */\n      0x0a\n        /* \"B4B.CONTRACTS/b4b.sol\":2749:2750  i */\n      dup2\n        /* \"B4B.CONTRACTS/b4b.sol\":2749:2757  i.points */\n      0x02\n      add\n      0x00\n        /* \"B4B.CONTRACTS/b4b.sol\":2749:2761  i.points+=10 */\n      dup3\n      dup3\n      sload\n      add\n      swap3\n      pop\n      pop\n      dup2\n      swap1\n      sstore\n      pop\n        /* \"B4B.CONTRACTS/b4b.sol\":2330:2813  function CompleteAds (uint _campaignID) public {... */\n      pop\n      pop\n      pop\n      jump\t// out\n        /* \"B4B.CONTRACTS/b4b.sol\":4431:4595  function PointsBalance (address _influencer) public view returns (uint256) {... */\n    tag_50:\n        /* \"B4B.CONTRACTS/b4b.sol\":4497:4504  uint256 */\n      0x00\n        /* \"B4B.CONTRACTS/b4b.sol\":4516:4536  Influencer storage i */\n      dup1\n        /* \"B4B.CONTRACTS/b4b.sol\":4539:4550  influencers */\n      0x03\n        /* \"B4B.CONTRACTS/b4b.sol\":4539:4563  influencers[_influencer] */\n      0x00\n        /* \"B4B.CONTRACTS/b4b.sol\":4551:4562  _influencer */\n      dup5\n        /* \"B4B.CONTRACTS/b4b.sol\":4539:4563  influencers[_influencer] */\n      0xffffffffffffffffffffffffffffffffffffffff\n      and\n      0xffffffffffffffffffffffffffffffffffffffff\n      and\n      dup2\n      mstore\n      0x20\n      add\n      swap1\n      dup2\n      mstore\n      0x20\n      add\n      0x00\n      keccak256\n        /* \"B4B.CONTRACTS/b4b.sol\":4516:4563  Influencer storage i = influencers[_influencer] */\n      swap1\n      pop\n        /* \"B4B.CONTRACTS/b4b.sol\":4580:4581  i */\n      dup1\n        /* \"B4B.CONTRACTS/b4b.sol\":4580:4588  i.points */\n      0x02\n      add\n      sload\n        /* \"B4B.CONTRACTS/b4b.sol\":4573:4588  return i.points */\n      swap2\n      pop\n      pop\n        /* \"B4B.CONTRACTS/b4b.sol\":4431:4595  function PointsBalance (address _influencer) public view returns (uint256) {... */\n      swap2\n      swap1\n      pop\n      jump\t// out\n        /* \"B4B.CONTRACTS/b4b.sol\":3174:3587  function ReceiveSalary (uint _campaignID) public {... */\n    tag_54:\n        /* \"B4B.CONTRACTS/b4b.sol\":3233:3251  Campaign storage c */\n      0x00\n        /* \"B4B.CONTRACTS/b4b.sol\":3254:3263  campaigns */\n      0x02\n        /* \"B4B.CONTRACTS/b4b.sol\":3254:3276  campaigns[_campaignID] */\n      0x00\n        /* \"B4B.CONTRACTS/b4b.sol\":3264:3275  _campaignID */\n      dup4\n        /* \"B4B.CONTRACTS/b4b.sol\":3254:3276  campaigns[_campaignID] */\n      dup2\n      mstore\n      0x20\n      add\n      swap1\n      dup2\n      mstore\n      0x20\n      add\n      0x00\n      keccak256\n        /* \"B4B.CONTRACTS/b4b.sol\":3233:3276  Campaign storage c = campaigns[_campaignID] */\n      swap1\n      pop\n        /* \"B4B.CONTRACTS/b4b.sol\":3314:3324  msg.sender */\n      caller\n        /* \"B4B.CONTRACTS/b4b.sol\":3295:3324  c.influencer_addr==msg.sender */\n      0xffffffffffffffffffffffffffffffffffffffff\n      and\n        /* \"B4B.CONTRACTS/b4b.sol\":3295:3296  c */\n      dup2\n        /* \"B4B.CONTRACTS/b4b.sol\":3295:3312  c.influencer_addr */\n      0x01\n      add\n      0x00\n      swap1\n      sload\n      swap1\n      0x0100\n      exp\n      swap1\n      div\n      0xffffffffffffffffffffffffffffffffffffffff\n      and\n        /* \"B4B.CONTRACTS/b4b.sol\":3295:3324  c.influencer_addr==msg.sender */\n      0xffffffffffffffffffffffffffffffffffffffff\n      and\n      eq\n        /* \"B4B.CONTRACTS/b4b.sol\":3286:3325  require (c.influencer_addr==msg.sender) */\n      tag_89\n      jumpi\n      0x00\n      dup1\n      revert\n    tag_89:\n        /* \"B4B.CONTRACTS/b4b.sol\":3359:3363  true */\n      0x01\n        /* \"B4B.CONTRACTS/b4b.sol\":3344:3363  c.book_status==true */\n      iszero\n      iszero\n        /* \"B4B.CONTRACTS/b4b.sol\":3344:3345  c */\n      dup2\n        /* \"B4B.CONTRACTS/b4b.sol\":3344:3357  c.book_status */\n      0x03\n      add\n      0x00\n      swap1\n      sload\n      swap1\n      0x0100\n      exp\n      swap1\n      div\n      0xff\n      and\n        /* \"B4B.CONTRACTS/b4b.sol\":3344:3363  c.book_status==true */\n      iszero\n      iszero\n      eq\n        /* \"B4B.CONTRACTS/b4b.sol\":3335:3364  require (c.book_status==true) */\n      tag_90\n      jumpi\n      0x00\n      dup1\n      revert\n    tag_90:\n        /* \"B4B.CONTRACTS/b4b.sol\":3400:3404  true */\n      0x01\n        /* \"B4B.CONTRACTS/b4b.sol\":3383:3404  c.accept_status==true */\n      iszero\n      iszero\n        /* \"B4B.CONTRACTS/b4b.sol\":3383:3384  c */\n      dup2\n        /* \"B4B.CONTRACTS/b4b.sol\":3383:3398  c.accept_status */\n      0x03\n      add\n      0x01\n      swap1\n      sload\n      swap1\n      0x0100\n      exp\n      swap1\n      div\n      0xff\n      and\n        /* \"B4B.CONTRACTS/b4b.sol\":3383:3404  c.accept_status==true */\n      iszero\n      iszero\n      eq\n        /* \"B4B.CONTRACTS/b4b.sol\":3374:3405  require (c.accept_status==true) */\n      tag_91\n      jumpi\n      0x00\n      dup1\n      revert\n    tag_91:\n        /* \"B4B.CONTRACTS/b4b.sol\":3443:3447  true */\n      0x01\n        /* \"B4B.CONTRACTS/b4b.sol\":3424:3447  c.complete_status==true */\n      iszero\n      iszero\n        /* \"B4B.CONTRACTS/b4b.sol\":3424:3425  c */\n      dup2\n        /* \"B4B.CONTRACTS/b4b.sol\":3424:3441  c.complete_status */\n      0x03\n      add\n      0x02\n      swap1\n      sload\n      swap1\n      0x0100\n      exp\n      swap1\n      div\n      0xff\n      and\n        /* \"B4B.CONTRACTS/b4b.sol\":3424:3447  c.complete_status==true */\n      iszero\n      iszero\n      eq\n        /* \"B4B.CONTRACTS/b4b.sol\":3415:3448  require (c.complete_status==true) */\n      tag_92\n      jumpi\n      0x00\n      dup1\n      revert\n    tag_92:\n        /* \"B4B.CONTRACTS/b4b.sol\":3486:3490  true */\n      0x01\n        /* \"B4B.CONTRACTS/b4b.sol\":3467:3490  c.approved_status==true */\n      iszero\n      iszero\n        /* \"B4B.CONTRACTS/b4b.sol\":3467:3468  c */\n      dup2\n        /* \"B4B.CONTRACTS/b4b.sol\":3467:3484  c.approved_status */\n      0x03\n      add\n      0x03\n      swap1\n      sload\n      swap1\n      0x0100\n      exp\n      swap1\n      div\n      0xff\n      and\n        /* \"B4B.CONTRACTS/b4b.sol\":3467:3490  c.approved_status==true */\n      iszero\n      iszero\n      eq\n        /* \"B4B.CONTRACTS/b4b.sol\":3458:3491  require (c.approved_status==true) */\n      tag_93\n      jumpi\n      0x00\n      dup1\n      revert\n    tag_93:\n        /* \"B4B.CONTRACTS/b4b.sol\":3510:3520  uint256 _d */\n      0x00\n        /* \"B4B.CONTRACTS/b4b.sol\":3523:3524  c */\n      dup2\n        /* \"B4B.CONTRACTS/b4b.sol\":3523:3529  c.paid */\n      0x04\n      add\n      sload\n        /* \"B4B.CONTRACTS/b4b.sol\":3510:3529  uint256 _d = c.paid */\n      swap1\n      pop\n        /* \"B4B.CONTRACTS/b4b.sol\":3539:3549  msg.sender */\n      caller\n        /* \"B4B.CONTRACTS/b4b.sol\":3539:3558  msg.sender.transfer */\n      0xffffffffffffffffffffffffffffffffffffffff\n      and\n        /* \"B4B.CONTRACTS/b4b.sol\":3539:3562  msg.sender.transfer(_d) */\n      0x08fc\n        /* \"B4B.CONTRACTS/b4b.sol\":3559:3561  _d */\n      dup3\n        /* \"B4B.CONTRACTS/b4b.sol\":3539:3562  msg.sender.transfer(_d) */\n      swap1\n      dup2\n      iszero\n      mul\n      swap1\n      mload(0x40)\n      0x00\n      mload(0x40)\n      dup1\n      dup4\n      sub\n      dup2\n      dup6\n      dup9\n      dup9\n      call\n      swap4\n      pop\n      pop\n      pop\n      pop\n      iszero\n        /* \"--CODEGEN--\":8:17   */\n      dup1\n        /* \"--CODEGEN--\":5:7   */\n      iszero\n      tag_94\n      jumpi\n        /* \"--CODEGEN--\":45:61   */\n      returndatasize\n        /* \"--CODEGEN--\":42:43   */\n      0x00\n        /* \"--CODEGEN--\":39:40   */\n      dup1\n        /* \"--CODEGEN--\":24:62   */\n      returndatacopy\n        /* \"--CODEGEN--\":77:93   */\n      returndatasize\n        /* \"--CODEGEN--\":74:75   */\n      0x00\n        /* \"--CODEGEN--\":67:94   */\n      revert\n        /* \"--CODEGEN--\":5:7   */\n    tag_94:\n        /* \"B4B.CONTRACTS/b4b.sol\":3539:3562  msg.sender.transfer(_d) */\n      pop\n        /* \"B4B.CONTRACTS/b4b.sol\":3579:3580  0 */\n      0x00\n        /* \"B4B.CONTRACTS/b4b.sol\":3572:3573  c */\n      dup3\n        /* \"B4B.CONTRACTS/b4b.sol\":3572:3578  c.paid */\n      0x04\n      add\n        /* \"B4B.CONTRACTS/b4b.sol\":3572:3580  c.paid=0 */\n      dup2\n      swap1\n      sstore\n      pop\n        /* \"B4B.CONTRACTS/b4b.sol\":3174:3587  function ReceiveSalary (uint _campaignID) public {... */\n      pop\n      pop\n      pop\n      jump\t// out\n        /* \"B4B.CONTRACTS/b4b.sol\":1884:2324  function AcceptBooking (uint _campaignID) public {... */\n    tag_58:\n        /* \"B4B.CONTRACTS/b4b.sol\":1943:1961  Campaign storage c */\n      0x00\n        /* \"B4B.CONTRACTS/b4b.sol\":1964:1973  campaigns */\n      0x02\n        /* \"B4B.CONTRACTS/b4b.sol\":1964:1986  campaigns[_campaignID] */\n      0x00\n        /* \"B4B.CONTRACTS/b4b.sol\":1974:1985  _campaignID */\n      dup4\n        /* \"B4B.CONTRACTS/b4b.sol\":1964:1986  campaigns[_campaignID] */\n      dup2\n      mstore\n      0x20\n      add\n      swap1\n      dup2\n      mstore\n      0x20\n      add\n      0x00\n      keccak256\n        /* \"B4B.CONTRACTS/b4b.sol\":1943:1986  Campaign storage c = campaigns[_campaignID] */\n      swap1\n      pop\n        /* \"B4B.CONTRACTS/b4b.sol\":2024:2034  msg.sender */\n      caller\n        /* \"B4B.CONTRACTS/b4b.sol\":2005:2034  c.influencer_addr==msg.sender */\n      0xffffffffffffffffffffffffffffffffffffffff\n      and\n        /* \"B4B.CONTRACTS/b4b.sol\":2005:2006  c */\n      dup2\n        /* \"B4B.CONTRACTS/b4b.sol\":2005:2022  c.influencer_addr */\n      0x01\n      add\n      0x00\n      swap1\n      sload\n      swap1\n      0x0100\n      exp\n      swap1\n      div\n      0xffffffffffffffffffffffffffffffffffffffff\n      and\n        /* \"B4B.CONTRACTS/b4b.sol\":2005:2034  c.influencer_addr==msg.sender */\n      0xffffffffffffffffffffffffffffffffffffffff\n      and\n      eq\n        /* \"B4B.CONTRACTS/b4b.sol\":1996:2035  require (c.influencer_addr==msg.sender) */\n      tag_96\n      jumpi\n      0x00\n      dup1\n      revert\n    tag_96:\n        /* \"B4B.CONTRACTS/b4b.sol\":2069:2073  true */\n      0x01\n        /* \"B4B.CONTRACTS/b4b.sol\":2054:2073  c.book_status==true */\n      iszero\n      iszero\n        /* \"B4B.CONTRACTS/b4b.sol\":2054:2055  c */\n      dup2\n        /* \"B4B.CONTRACTS/b4b.sol\":2054:2067  c.book_status */\n      0x03\n      add\n      0x00\n      swap1\n      sload\n      swap1\n      0x0100\n      exp\n      swap1\n      div\n      0xff\n      and\n        /* \"B4B.CONTRACTS/b4b.sol\":2054:2073  c.book_status==true */\n      iszero\n      iszero\n      eq\n        /* \"B4B.CONTRACTS/b4b.sol\":2045:2074  require (c.book_status==true) */\n      tag_97\n      jumpi\n      0x00\n      dup1\n      revert\n    tag_97:\n        /* \"B4B.CONTRACTS/b4b.sol\":2110:2115  false */\n      0x00\n        /* \"B4B.CONTRACTS/b4b.sol\":2093:2115  c.accept_status==false */\n      iszero\n      iszero\n        /* \"B4B.CONTRACTS/b4b.sol\":2093:2094  c */\n      dup2\n        /* \"B4B.CONTRACTS/b4b.sol\":2093:2108  c.accept_status */\n      0x03\n      add\n      0x01\n      swap1\n      sload\n      swap1\n      0x0100\n      exp\n      swap1\n      div\n      0xff\n      and\n        /* \"B4B.CONTRACTS/b4b.sol\":2093:2115  c.accept_status==false */\n      iszero\n      iszero\n      eq\n        /* \"B4B.CONTRACTS/b4b.sol\":2084:2116  require (c.accept_status==false) */\n      tag_98\n      jumpi\n      0x00\n      dup1\n      revert\n    tag_98:\n        /* \"B4B.CONTRACTS/b4b.sol\":2142:2146  true */\n      0x01\n        /* \"B4B.CONTRACTS/b4b.sol\":2126:2127  c */\n      dup2\n        /* \"B4B.CONTRACTS/b4b.sol\":2126:2141  c.accept_status */\n      0x03\n      add\n      0x01\n        /* \"B4B.CONTRACTS/b4b.sol\":2126:2146  c.accept_status=true */\n      0x0100\n      exp\n      dup2\n      sload\n      dup2\n      0xff\n      mul\n      not\n      and\n      swap1\n      dup4\n      iszero\n      iszero\n      mul\n      or\n      swap1\n      sstore\n      pop\n        /* \"B4B.CONTRACTS/b4b.sol\":2196:2216  Influencer storage i */\n      0x00\n        /* \"B4B.CONTRACTS/b4b.sol\":2219:2230  influencers */\n      0x03\n        /* \"B4B.CONTRACTS/b4b.sol\":2219:2242  influencers[msg.sender] */\n      0x00\n        /* \"B4B.CONTRACTS/b4b.sol\":2231:2241  msg.sender */\n      caller\n        /* \"B4B.CONTRACTS/b4b.sol\":2219:2242  influencers[msg.sender] */\n      0xffffffffffffffffffffffffffffffffffffffff\n      and\n      0xffffffffffffffffffffffffffffffffffffffff\n      and\n      dup2\n      mstore\n      0x20\n      add\n      swap1\n      dup2\n      mstore\n      0x20\n      add\n      0x00\n      keccak256\n        /* \"B4B.CONTRACTS/b4b.sol\":2196:2242  Influencer storage i = influencers[msg.sender] */\n      swap1\n      pop\n        /* \"B4B.CONTRACTS/b4b.sol\":2262:2264  10 */\n      0x0a\n        /* \"B4B.CONTRACTS/b4b.sol\":2252:2253  i */\n      dup2\n        /* \"B4B.CONTRACTS/b4b.sol\":2252:2260  i.points */\n      0x02\n      add\n      0x00\n        /* \"B4B.CONTRACTS/b4b.sol\":2252:2264  i.points+=10 */\n      dup3\n      dup3\n      sload\n      add\n      swap3\n      pop\n      pop\n      dup2\n      swap1\n      sstore\n      pop\n        /* \"B4B.CONTRACTS/b4b.sol\":1884:2324  function AcceptBooking (uint _campaignID) public {... */\n      pop\n      pop\n      pop\n      jump\t// out\n        /* \"B4B.CONTRACTS/b4b.sol\":4269:4425  function PaidOnContract (uint _campaignID) public view returns (uint256) {... */\n    tag_62:\n        /* \"B4B.CONTRACTS/b4b.sol\":4333:4340  uint256 */\n      0x00\n        /* \"B4B.CONTRACTS/b4b.sol\":4352:4370  Campaign storage c */\n      dup1\n        /* \"B4B.CONTRACTS/b4b.sol\":4373:4382  campaigns */\n      0x02\n        /* \"B4B.CONTRACTS/b4b.sol\":4373:4395  campaigns[_campaignID] */\n      0x00\n        /* \"B4B.CONTRACTS/b4b.sol\":4383:4394  _campaignID */\n      dup5\n        /* \"B4B.CONTRACTS/b4b.sol\":4373:4395  campaigns[_campaignID] */\n      dup2\n      mstore\n      0x20\n      add\n      swap1\n      dup2\n      mstore\n      0x20\n      add\n      0x00\n      keccak256\n        /* \"B4B.CONTRACTS/b4b.sol\":4352:4395  Campaign storage c = campaigns[_campaignID] */\n      swap1\n      pop\n        /* \"B4B.CONTRACTS/b4b.sol\":4412:4413  c */\n      dup1\n        /* \"B4B.CONTRACTS/b4b.sol\":4412:4418  c.paid */\n      0x04\n      add\n      sload\n        /* \"B4B.CONTRACTS/b4b.sol\":4405:4418  return c.paid */\n      swap2\n      pop\n      pop\n        /* \"B4B.CONTRACTS/b4b.sol\":4269:4425  function PaidOnContract (uint _campaignID) public view returns (uint256) {... */\n      swap2\n      swap1\n      pop\n      jump\t// out\n        /* \"B4B.CONTRACTS/b4b.sol\":1143:1317  function ChangePrice (uint256 _price) public {... */\n    tag_66:\n        /* \"B4B.CONTRACTS/b4b.sol\":1198:1218  Influencer storage i */\n      0x00\n        /* \"B4B.CONTRACTS/b4b.sol\":1221:1232  influencers */\n      0x03\n        /* \"B4B.CONTRACTS/b4b.sol\":1221:1244  influencers[msg.sender] */\n      0x00\n        /* \"B4B.CONTRACTS/b4b.sol\":1233:1243  msg.sender */\n      caller\n        /* \"B4B.CONTRACTS/b4b.sol\":1221:1244  influencers[msg.sender] */\n      0xffffffffffffffffffffffffffffffffffffffff\n      and\n      0xffffffffffffffffffffffffffffffffffffffff\n      and\n      dup2\n      mstore\n      0x20\n      add\n      swap1\n      dup2\n      mstore\n      0x20\n      add\n      0x00\n      keccak256\n        /* \"B4B.CONTRACTS/b4b.sol\":1198:1244  Influencer storage i = influencers[msg.sender] */\n      swap1\n      pop\n        /* \"B4B.CONTRACTS/b4b.sol\":1274:1284  msg.sender */\n      caller\n        /* \"B4B.CONTRACTS/b4b.sol\":1254:1255  i */\n      dup2\n        /* \"B4B.CONTRACTS/b4b.sol\":1254:1271  i.influencer_addr */\n      0x00\n      add\n      0x00\n        /* \"B4B.CONTRACTS/b4b.sol\":1254:1284  i.influencer_addr = msg.sender */\n      0x0100\n      exp\n      dup2\n      sload\n      dup2\n      0xffffffffffffffffffffffffffffffffffffffff\n      mul\n      not\n      and\n      swap1\n      dup4\n      0xffffffffffffffffffffffffffffffffffffffff\n      and\n      mul\n      or\n      swap1\n      sstore\n      pop\n        /* \"B4B.CONTRACTS/b4b.sol\":1304:1310  _price */\n      dup2\n        /* \"B4B.CONTRACTS/b4b.sol\":1294:1295  i */\n      dup2\n        /* \"B4B.CONTRACTS/b4b.sol\":1294:1301  i.price */\n      0x01\n      add\n        /* \"B4B.CONTRACTS/b4b.sol\":1294:1310  i.price = _price */\n      dup2\n      swap1\n      sstore\n      pop\n        /* \"B4B.CONTRACTS/b4b.sol\":1143:1317  function ChangePrice (uint256 _price) public {... */\n      pop\n      pop\n      jump\t// out\n\n    auxdata: 0xa265627a7a72315820a5fe65312bbfa95dad886b36e2bbfa1ad55be55d49f0011701a518ac26ae272e64736f6c63430005110032\n}\n",
				"bytecode": {
					"linkReferences": {},
					"object": "608060405234801561001057600080fd5b5042600081905550610d92806100276000396000f3fe6080604052600436106100c25760003560e01c80639ddac05e1161007f578063e0e1bd8411610059578063e0e1bd8414610371578063e352893e146103ac578063e6bf297b146103e7578063fb92488b14610436576100c2565b80639ddac05e1461027e578063a07c81f0146102d1578063a6602d5f1461030c576100c2565b80631172cde8146100c75780631eb398af1461011f578063318d61781461015a5780634f6109d6146101ad5780638712c66e146101d857806397190fae1461022b575b600080fd5b610109600480360360208110156100dd57600080fd5b81019080803573ffffffffffffffffffffffffffffffffffffffff169060200190929190505050610471565b6040518082815260200191505060405180910390f35b34801561012b57600080fd5b506101586004803603602081101561014257600080fd5b81019080803590602001909291905050506105f9565b005b34801561016657600080fd5b506101936004803603602081101561017d57600080fd5b8101908080359060200190929190505050610715565b604051808215151515815260200191505060405180910390f35b3480156101b957600080fd5b506101c2610747565b6040518082815260200191505060405180910390f35b3480156101e457600080fd5b50610211600480360360208110156101fb57600080fd5b81019080803590602001909291905050506107e4565b604051808215151515815260200191505060405180910390f35b34801561023757600080fd5b506102646004803603602081101561024e57600080fd5b8101908080359060200190929190505050610816565b604051808215151515815260200191505060405180910390f35b34801561028a57600080fd5b506102b7600480360360208110156102a157600080fd5b8101908080359060200190929190505050610848565b604051808215151515815260200191505060405180910390f35b3480156102dd57600080fd5b5061030a600480360360208110156102f457600080fd5b810190808035906020019092919050505061087a565b005b34801561031857600080fd5b5061035b6004803603602081101561032f57600080fd5b81019080803573ffffffffffffffffffffffffffffffffffffffff1690602001909291905050506109cb565b6040518082815260200191505060405180910390f35b34801561037d57600080fd5b506103aa6004803603602081101561039457600080fd5b8101908080359060200190929190505050610a1c565b005b3480156103b857600080fd5b506103e5600480360360208110156103cf57600080fd5b8101908080359060200190929190505050610b76565b005b3480156103f357600080fd5b506104206004803603602081101561040a57600080fd5b8101908080359060200190929190505050610ca5565b6040518082815260200191505060405180910390f35b34801561044257600080fd5b5061046f6004803603602081101561045957600080fd5b8101908080359060200190929190505050610cca565b005b600080600360008473ffffffffffffffffffffffffffffffffffffffff1673ffffffffffffffffffffffffffffffffffffffff1681526020019081526020016000209050348160010154146104c557600080fd5b600160008154809291906001019190505591506000600260008481526020019081526020016000209050338160000160006101000a81548173ffffffffffffffffffffffffffffffffffffffff021916908373ffffffffffffffffffffffffffffffffffffffff160217905550838160010160006101000a81548173ffffffffffffffffffffffffffffffffffffffff021916908373ffffffffffffffffffffffffffffffffffffffff16021790555060018160030160006101000a81548160ff02191690831515021790555060008160030160016101000a81548160ff02191690831515021790555060008160030160026101000a81548160ff02191690831515021790555060008160030160036101000a81548160ff0219169083151502179055503481600401819055505050919050565b60006002600083815260200190815260200160002090503373ffffffffffffffffffffffffffffffffffffffff168160000160009054906101000a900473ffffffffffffffffffffffffffffffffffffffff1673ffffffffffffffffffffffffffffffffffffffff161461066c57600080fd5b600115158160030160009054906101000a900460ff1615151461068e57600080fd5b600115158160030160019054906101000a900460ff161515146106b057600080fd5b600115158160030160029054906101000a900460ff161515146106d257600080fd5b600015158160030160039054906101000a900460ff161515146106f457600080fd5b60018160030160036101000a81548160ff0219169083151502179055505050565b6000806002600084815260200190815260200160002090508060030160039054906101000a900460ff16915050919050565b600062278d0060005442031161075c57600080fd5b6000600360003373ffffffffffffffffffffffffffffffffffffffff1673ffffffffffffffffffffffffffffffffffffffff168152602001908152602001600020905062278d0081600401544203116107b457600080fd5b6064816002015402816003018190555062278d008160040160008282540192505081905550806003015491505090565b6000806002600084815260200190815260200160002090508060030160019054906101000a900460ff16915050919050565b6000806002600084815260200190815260200160002090508060030160029054906101000a900460ff16915050919050565b6000806002600084815260200190815260200160002090508060030160009054906101000a900460ff16915050919050565b60006002600083815260200190815260200160002090503373ffffffffffffffffffffffffffffffffffffffff168160010160009054906101000a900473ffffffffffffffffffffffffffffffffffffffff1673ffffffffffffffffffffffffffffffffffffffff16146108ed57600080fd5b600115158160030160009054906101000a900460ff1615151461090f57600080fd5b600115158160030160019054906101000a900460ff1615151461093157600080fd5b600015158160030160029054906101000a900460ff1615151461095357600080fd5b60018160030160026101000a81548160ff0219169083151502179055506000600360003373ffffffffffffffffffffffffffffffffffffffff1673ffffffffffffffffffffffffffffffffffffffff1681526020019081526020016000209050600a8160020160008282540192505081905550505050565b600080600360008473ffffffffffffffffffffffffffffffffffffffff1673ffffffffffffffffffffffffffffffffffffffff16815260200190815260200160002090508060020154915050919050565b60006002600083815260200190815260200160002090503373ffffffffffffffffffffffffffffffffffffffff168160010160009054906101000a900473ffffffffffffffffffffffffffffffffffffffff1673ffffffffffffffffffffffffffffffffffffffff1614610a8f57600080fd5b600115158160030160009054906101000a900460ff16151514610ab157600080fd5b600115158160030160019054906101000a900460ff16151514610ad357600080fd5b600115158160030160029054906101000a900460ff16151514610af557600080fd5b600115158160030160039054906101000a900460ff16151514610b1757600080fd5b6000816004015490503373ffffffffffffffffffffffffffffffffffffffff166108fc829081150290604051600060405180830381858888f19350505050158015610b66573d6000803e3d6000fd5b5060008260040181905550505050565b60006002600083815260200190815260200160002090503373ffffffffffffffffffffffffffffffffffffffff168160010160009054906101000a900473ffffffffffffffffffffffffffffffffffffffff1673ffffffffffffffffffffffffffffffffffffffff1614610be957600080fd5b600115158160030160009054906101000a900460ff16151514610c0b57600080fd5b600015158160030160019054906101000a900460ff16151514610c2d57600080fd5b60018160030160016101000a81548160ff0219169083151502179055506000600360003373ffffffffffffffffffffffffffffffffffffffff1673ffffffffffffffffffffffffffffffffffffffff1681526020019081526020016000209050600a8160020160008282540192505081905550505050565b6000806002600084815260200190815260200160002090508060040154915050919050565b6000600360003373ffffffffffffffffffffffffffffffffffffffff1673ffffffffffffffffffffffffffffffffffffffff1681526020019081526020016000209050338160000160006101000a81548173ffffffffffffffffffffffffffffffffffffffff021916908373ffffffffffffffffffffffffffffffffffffffff160217905550818160010181905550505056fea265627a7a72315820a5fe65312bbfa95dad886b36e2bbfa1ad55be55d49f0011701a518ac26ae272e64736f6c63430005110032",
					"opcodes": "PUSH1 0x80 PUSH1 0x40 MSTORE CALLVALUE DUP1 ISZERO PUSH2 0x10 JUMPI PUSH1 0x0 DUP1 REVERT JUMPDEST POP TIMESTAMP PUSH1 0x0 DUP2 SWAP1 SSTORE POP PUSH2 0xD92 DUP1 PUSH2 0x27 PUSH1 0x0 CODECOPY PUSH1 0x0 RETURN INVALID PUSH1 0x80 PUSH1 0x40 MSTORE PUSH1 0x4 CALLDATASIZE LT PUSH2 0xC2 JUMPI PUSH1 0x0 CALLDATALOAD PUSH1 0xE0 SHR DUP1 PUSH4 0x9DDAC05E GT PUSH2 0x7F JUMPI DUP1 PUSH4 0xE0E1BD84 GT PUSH2 0x59 JUMPI DUP1 PUSH4 0xE0E1BD84 EQ PUSH2 0x371 JUMPI DUP1 PUSH4 0xE352893E EQ PUSH2 0x3AC JUMPI DUP1 PUSH4 0xE6BF297B EQ PUSH2 0x3E7 JUMPI DUP1 PUSH4 0xFB92488B EQ PUSH2 0x436 JUMPI PUSH2 0xC2 JUMP JUMPDEST DUP1 PUSH4 0x9DDAC05E EQ PUSH2 0x27E JUMPI DUP1 PUSH4 0xA07C81F0 EQ PUSH2 0x2D1 JUMPI DUP1 PUSH4 0xA6602D5F EQ PUSH2 0x30C JUMPI PUSH2 0xC2 JUMP JUMPDEST DUP1 PUSH4 0x1172CDE8 EQ PUSH2 0xC7 JUMPI DUP1 PUSH4 0x1EB398AF EQ PUSH2 0x11F JUMPI DUP1 PUSH4 0x318D6178 EQ PUSH2 0x15A JUMPI DUP1 PUSH4 0x4F6109D6 EQ PUSH2 0x1AD JUMPI DUP1 PUSH4 0x8712C66E EQ PUSH2 0x1D8 JUMPI DUP1 PUSH4 0x97190FAE EQ PUSH2 0x22B JUMPI JUMPDEST PUSH1 0x0 DUP1 REVERT JUMPDEST PUSH2 0x109 PUSH1 0x4 DUP1 CALLDATASIZE SUB PUSH1 0x20 DUP2 LT ISZERO PUSH2 0xDD JUMPI PUSH1 0x0 DUP1 REVERT JUMPDEST DUP2 ADD SWAP1 DUP1 DUP1 CALLDATALOAD PUSH20 0xFFFFFFFFFFFFFFFFFFFFFFFFFFFFFFFFFFFFFFFF AND SWAP1 PUSH1 0x20 ADD SWAP1 SWAP3 SWAP2 SWAP1 POP POP POP PUSH2 0x471 JUMP JUMPDEST PUSH1 0x40 MLOAD DUP1 DUP3 DUP2 MSTORE PUSH1 0x20 ADD SWAP2 POP POP PUSH1 0x40 MLOAD DUP1 SWAP2 SUB SWAP1 RETURN JUMPDEST CALLVALUE DUP1 ISZERO PUSH2 0x12B JUMPI PUSH1 0x0 DUP1 REVERT JUMPDEST POP PUSH2 0x158 PUSH1 0x4 DUP1 CALLDATASIZE SUB PUSH1 0x20 DUP2 LT ISZERO PUSH2 0x142 JUMPI PUSH1 0x0 DUP1 REVERT JUMPDEST DUP2 ADD SWAP1 DUP1 DUP1 CALLDATALOAD SWAP1 PUSH1 0x20 ADD SWAP1 SWAP3 SWAP2 SWAP1 POP POP POP PUSH2 0x5F9 JUMP JUMPDEST STOP JUMPDEST CALLVALUE DUP1 ISZERO PUSH2 0x166 JUMPI PUSH1 0x0 DUP1 REVERT JUMPDEST POP PUSH2 0x193 PUSH1 0x4 DUP1 CALLDATASIZE SUB PUSH1 0x20 DUP2 LT ISZERO PUSH2 0x17D JUMPI PUSH1 0x0 DUP1 REVERT JUMPDEST DUP2 ADD SWAP1 DUP1 DUP1 CALLDATALOAD SWAP1 PUSH1 0x20 ADD SWAP1 SWAP3 SWAP2 SWAP1 POP POP POP PUSH2 0x715 JUMP JUMPDEST PUSH1 0x40 MLOAD DUP1 DUP3 ISZERO ISZERO ISZERO ISZERO DUP2 MSTORE PUSH1 0x20 ADD SWAP2 POP POP PUSH1 0x40 MLOAD DUP1 SWAP2 SUB SWAP1 RETURN JUMPDEST CALLVALUE DUP1 ISZERO PUSH2 0x1B9 JUMPI PUSH1 0x0 DUP1 REVERT JUMPDEST POP PUSH2 0x1C2 PUSH2 0x747 JUMP JUMPDEST PUSH1 0x40 MLOAD DUP1 DUP3 DUP2 MSTORE PUSH1 0x20 ADD SWAP2 POP POP PUSH1 0x40 MLOAD DUP1 SWAP2 SUB SWAP1 RETURN JUMPDEST CALLVALUE DUP1 ISZERO PUSH2 0x1E4 JUMPI PUSH1 0x0 DUP1 REVERT JUMPDEST POP PUSH2 0x211 PUSH1 0x4 DUP1 CALLDATASIZE SUB PUSH1 0x20 DUP2 LT ISZERO PUSH2 0x1FB JUMPI PUSH1 0x0 DUP1 REVERT JUMPDEST DUP2 ADD SWAP1 DUP1 DUP1 CALLDATALOAD SWAP1 PUSH1 0x20 ADD SWAP1 SWAP3 SWAP2 SWAP1 POP POP POP PUSH2 0x7E4 JUMP JUMPDEST PUSH1 0x40 MLOAD DUP1 DUP3 ISZERO ISZERO ISZERO ISZERO DUP2 MSTORE PUSH1 0x20 ADD SWAP2 POP POP PUSH1 0x40 MLOAD DUP1 SWAP2 SUB SWAP1 RETURN JUMPDEST CALLVALUE DUP1 ISZERO PUSH2 0x237 JUMPI PUSH1 0x0 DUP1 REVERT JUMPDEST POP PUSH2 0x264 PUSH1 0x4 DUP1 CALLDATASIZE SUB PUSH1 0x20 DUP2 LT ISZERO PUSH2 0x24E JUMPI PUSH1 0x0 DUP1 REVERT JUMPDEST DUP2 ADD SWAP1 DUP1 DUP1 CALLDATALOAD SWAP1 PUSH1 0x20 ADD SWAP1 SWAP3 SWAP2 SWAP1 POP POP POP PUSH2 0x816 JUMP JUMPDEST PUSH1 0x40 MLOAD DUP1 DUP3 ISZERO ISZERO ISZERO ISZERO DUP2 MSTORE PUSH1 0x20 ADD SWAP2 POP POP PUSH1 0x40 MLOAD DUP1 SWAP2 SUB SWAP1 RETURN JUMPDEST CALLVALUE DUP1 ISZERO PUSH2 0x28A JUMPI PUSH1 0x0 DUP1 REVERT JUMPDEST POP PUSH2 0x2B7 PUSH1 0x4 DUP1 CALLDATASIZE SUB PUSH1 0x20 DUP2 LT ISZERO PUSH2 0x2A1 JUMPI PUSH1 0x0 DUP1 REVERT JUMPDEST DUP2 ADD SWAP1 DUP1 DUP1 CALLDATALOAD SWAP1 PUSH1 0x20 ADD SWAP1 SWAP3 SWAP2 SWAP1 POP POP POP PUSH2 0x848 JUMP JUMPDEST PUSH1 0x40 MLOAD DUP1 DUP3 ISZERO ISZERO ISZERO ISZERO DUP2 MSTORE PUSH1 0x20 ADD SWAP2 POP POP PUSH1 0x40 MLOAD DUP1 SWAP2 SUB SWAP1 RETURN JUMPDEST CALLVALUE DUP1 ISZERO PUSH2 0x2DD JUMPI PUSH1 0x0 DUP1 REVERT JUMPDEST POP PUSH2 0x30A PUSH1 0x4 DUP1 CALLDATASIZE SUB PUSH1 0x20 DUP2 LT ISZERO PUSH2 0x2F4 JUMPI PUSH1 0x0 DUP1 REVERT JUMPDEST DUP2 ADD SWAP1 DUP1 DUP1 CALLDATALOAD SWAP1 PUSH1 0x20 ADD SWAP1 SWAP3 SWAP2 SWAP1 POP POP POP PUSH2 0x87A JUMP JUMPDEST STOP JUMPDEST CALLVALUE DUP1 ISZERO PUSH2 0x318 JUMPI PUSH1 0x0 DUP1 REVERT JUMPDEST POP PUSH2 0x35B PUSH1 0x4 DUP1 CALLDATASIZE SUB PUSH1 0x20 DUP2 LT ISZERO PUSH2 0x32F JUMPI PUSH1 0x0 DUP1 REVERT JUMPDEST DUP2 ADD SWAP1 DUP1 DUP1 CALLDATALOAD PUSH20 0xFFFFFFFFFFFFFFFFFFFFFFFFFFFFFFFFFFFFFFFF AND SWAP1 PUSH1 0x20 ADD SWAP1 SWAP3 SWAP2 SWAP1 POP POP POP PUSH2 0x9CB JUMP JUMPDEST PUSH1 0x40 MLOAD DUP1 DUP3 DUP2 MSTORE PUSH1 0x20 ADD SWAP2 POP POP PUSH1 0x40 MLOAD DUP1 SWAP2 SUB SWAP1 RETURN JUMPDEST CALLVALUE DUP1 ISZERO PUSH2 0x37D JUMPI PUSH1 0x0 DUP1 REVERT JUMPDEST POP PUSH2 0x3AA PUSH1 0x4 DUP1 CALLDATASIZE SUB PUSH1 0x20 DUP2 LT ISZERO PUSH2 0x394 JUMPI PUSH1 0x0 DUP1 REVERT JUMPDEST DUP2 ADD SWAP1 DUP1 DUP1 CALLDATALOAD SWAP1 PUSH1 0x20 ADD SWAP1 SWAP3 SWAP2 SWAP1 POP POP POP PUSH2 0xA1C JUMP JUMPDEST STOP JUMPDEST CALLVALUE DUP1 ISZERO PUSH2 0x3B8 JUMPI PUSH1 0x0 DUP1 REVERT JUMPDEST POP PUSH2 0x3E5 PUSH1 0x4 DUP1 CALLDATASIZE SUB PUSH1 0x20 DUP2 LT ISZERO PUSH2 0x3CF JUMPI PUSH1 0x0 DUP1 REVERT JUMPDEST DUP2 ADD SWAP1 DUP1 DUP1 CALLDATALOAD SWAP1 PUSH1 0x20 ADD SWAP1 SWAP3 SWAP2 SWAP1 POP POP POP PUSH2 0xB76 JUMP JUMPDEST STOP JUMPDEST CALLVALUE DUP1 ISZERO PUSH2 0x3F3 JUMPI PUSH1 0x0 DUP1 REVERT JUMPDEST POP PUSH2 0x420 PUSH1 0x4 DUP1 CALLDATASIZE SUB PUSH1 0x20 DUP2 LT ISZERO PUSH2 0x40A JUMPI PUSH1 0x0 DUP1 REVERT JUMPDEST DUP2 ADD SWAP1 DUP1 DUP1 CALLDATALOAD SWAP1 PUSH1 0x20 ADD SWAP1 SWAP3 SWAP2 SWAP1 POP POP POP PUSH2 0xCA5 JUMP JUMPDEST PUSH1 0x40 MLOAD DUP1 DUP3 DUP2 MSTORE PUSH1 0x20 ADD SWAP2 POP POP PUSH1 0x40 MLOAD DUP1 SWAP2 SUB SWAP1 RETURN JUMPDEST CALLVALUE DUP1 ISZERO PUSH2 0x442 JUMPI PUSH1 0x0 DUP1 REVERT JUMPDEST POP PUSH2 0x46F PUSH1 0x4 DUP1 CALLDATASIZE SUB PUSH1 0x20 DUP2 LT ISZERO PUSH2 0x459 JUMPI PUSH1 0x0 DUP1 REVERT JUMPDEST DUP2 ADD SWAP1 DUP1 DUP1 CALLDATALOAD SWAP1 PUSH1 0x20 ADD SWAP1 SWAP3 SWAP2 SWAP1 POP POP POP PUSH2 0xCCA JUMP JUMPDEST STOP JUMPDEST PUSH1 0x0 DUP1 PUSH1 0x3 PUSH1 0x0 DUP5 PUSH20 0xFFFFFFFFFFFFFFFFFFFFFFFFFFFFFFFFFFFFFFFF AND PUSH20 0xFFFFFFFFFFFFFFFFFFFFFFFFFFFFFFFFFFFFFFFF AND DUP2 MSTORE PUSH1 0x20 ADD SWAP1 DUP2 MSTORE PUSH1 0x20 ADD PUSH1 0x0 KECCAK256 SWAP1 POP CALLVALUE DUP2 PUSH1 0x1 ADD SLOAD EQ PUSH2 0x4C5 JUMPI PUSH1 0x0 DUP1 REVERT JUMPDEST PUSH1 0x1 PUSH1 0x0 DUP2 SLOAD DUP1 SWAP3 SWAP2 SWAP1 PUSH1 0x1 ADD SWAP2 SWAP1 POP SSTORE SWAP2 POP PUSH1 0x0 PUSH1 0x2 PUSH1 0x0 DUP5 DUP2 MSTORE PUSH1 0x20 ADD SWAP1 DUP2 MSTORE PUSH1 0x20 ADD PUSH1 0x0 KECCAK256 SWAP1 POP CALLER DUP2 PUSH1 0x0 ADD PUSH1 0x0 PUSH2 0x100 EXP DUP2 SLOAD DUP2 PUSH20 0xFFFFFFFFFFFFFFFFFFFFFFFFFFFFFFFFFFFFFFFF MUL NOT AND SWAP1 DUP4 PUSH20 0xFFFFFFFFFFFFFFFFFFFFFFFFFFFFFFFFFFFFFFFF AND MUL OR SWAP1 SSTORE POP DUP4 DUP2 PUSH1 0x1 ADD PUSH1 0x0 PUSH2 0x100 EXP DUP2 SLOAD DUP2 PUSH20 0xFFFFFFFFFFFFFFFFFFFFFFFFFFFFFFFFFFFFFFFF MUL NOT AND SWAP1 DUP4 PUSH20 0xFFFFFFFFFFFFFFFFFFFFFFFFFFFFFFFFFFFFFFFF AND MUL OR SWAP1 SSTORE POP PUSH1 0x1 DUP2 PUSH1 0x3 ADD PUSH1 0x0 PUSH2 0x100 EXP DUP2 SLOAD DUP2 PUSH1 0xFF MUL NOT AND SWAP1 DUP4 ISZERO ISZERO MUL OR SWAP1 SSTORE POP PUSH1 0x0 DUP2 PUSH1 0x3 ADD PUSH1 0x1 PUSH2 0x100 EXP DUP2 SLOAD DUP2 PUSH1 0xFF MUL NOT AND SWAP1 DUP4 ISZERO ISZERO MUL OR SWAP1 SSTORE POP PUSH1 0x0 DUP2 PUSH1 0x3 ADD PUSH1 0x2 PUSH2 0x100 EXP DUP2 SLOAD DUP2 PUSH1 0xFF MUL NOT AND SWAP1 DUP4 ISZERO ISZERO MUL OR SWAP1 SSTORE POP PUSH1 0x0 DUP2 PUSH1 0x3 ADD PUSH1 0x3 PUSH2 0x100 EXP DUP2 SLOAD DUP2 PUSH1 0xFF MUL NOT AND SWAP1 DUP4 ISZERO ISZERO MUL OR SWAP1 SSTORE POP CALLVALUE DUP2 PUSH1 0x4 ADD DUP2 SWAP1 SSTORE POP POP POP SWAP2 SWAP1 POP JUMP JUMPDEST PUSH1 0x0 PUSH1 0x2 PUSH1 0x0 DUP4 DUP2 MSTORE PUSH1 0x20 ADD SWAP1 DUP2 MSTORE PUSH1 0x20 ADD PUSH1 0x0 KECCAK256 SWAP1 POP CALLER PUSH20 0xFFFFFFFFFFFFFFFFFFFFFFFFFFFFFFFFFFFFFFFF AND DUP2 PUSH1 0x0 ADD PUSH1 0x0 SWAP1 SLOAD SWAP1 PUSH2 0x100 EXP SWAP1 DIV PUSH20 0xFFFFFFFFFFFFFFFFFFFFFFFFFFFFFFFFFFFFFFFF AND PUSH20 0xFFFFFFFFFFFFFFFFFFFFFFFFFFFFFFFFFFFFFFFF AND EQ PUSH2 0x66C JUMPI PUSH1 0x0 DUP1 REVERT JUMPDEST PUSH1 0x1 ISZERO ISZERO DUP2 PUSH1 0x3 ADD PUSH1 0x0 SWAP1 SLOAD SWAP1 PUSH2 0x100 EXP SWAP1 DIV PUSH1 0xFF AND ISZERO ISZERO EQ PUSH2 0x68E JUMPI PUSH1 0x0 DUP1 REVERT JUMPDEST PUSH1 0x1 ISZERO ISZERO DUP2 PUSH1 0x3 ADD PUSH1 0x1 SWAP1 SLOAD SWAP1 PUSH2 0x100 EXP SWAP1 DIV PUSH1 0xFF AND ISZERO ISZERO EQ PUSH2 0x6B0 JUMPI PUSH1 0x0 DUP1 REVERT JUMPDEST PUSH1 0x1 ISZERO ISZERO DUP2 PUSH1 0x3 ADD PUSH1 0x2 SWAP1 SLOAD SWAP1 PUSH2 0x100 EXP SWAP1 DIV PUSH1 0xFF AND ISZERO ISZERO EQ PUSH2 0x6D2 JUMPI PUSH1 0x0 DUP1 REVERT JUMPDEST PUSH1 0x0 ISZERO ISZERO DUP2 PUSH1 0x3 ADD PUSH1 0x3 SWAP1 SLOAD SWAP1 PUSH2 0x100 EXP SWAP1 DIV PUSH1 0xFF AND ISZERO ISZERO EQ PUSH2 0x6F4 JUMPI PUSH1 0x0 DUP1 REVERT JUMPDEST PUSH1 0x1 DUP2 PUSH1 0x3 ADD PUSH1 0x3 PUSH2 0x100 EXP DUP2 SLOAD DUP2 PUSH1 0xFF MUL NOT AND SWAP1 DUP4 ISZERO ISZERO MUL OR SWAP1 SSTORE POP POP POP JUMP JUMPDEST PUSH1 0x0 DUP1 PUSH1 0x2 PUSH1 0x0 DUP5 DUP2 MSTORE PUSH1 0x20 ADD SWAP1 DUP2 MSTORE PUSH1 0x20 ADD PUSH1 0x0 KECCAK256 SWAP1 POP DUP1 PUSH1 0x3 ADD PUSH1 0x3 SWAP1 SLOAD SWAP1 PUSH2 0x100 EXP SWAP1 DIV PUSH1 0xFF AND SWAP2 POP POP SWAP2 SWAP1 POP JUMP JUMPDEST PUSH1 0x0 PUSH3 0x278D00 PUSH1 0x0 SLOAD TIMESTAMP SUB GT PUSH2 0x75C JUMPI PUSH1 0x0 DUP1 REVERT JUMPDEST PUSH1 0x0 PUSH1 0x3 PUSH1 0x0 CALLER PUSH20 0xFFFFFFFFFFFFFFFFFFFFFFFFFFFFFFFFFFFFFFFF AND PUSH20 0xFFFFFFFFFFFFFFFFFFFFFFFFFFFFFFFFFFFFFFFF AND DUP2 MSTORE PUSH1 0x20 ADD SWAP1 DUP2 MSTORE PUSH1 0x20 ADD PUSH1 0x0 KECCAK256 SWAP1 POP PUSH3 0x278D00 DUP2 PUSH1 0x4 ADD SLOAD TIMESTAMP SUB GT PUSH2 0x7B4 JUMPI PUSH1 0x0 DUP1 REVERT JUMPDEST PUSH1 0x64 DUP2 PUSH1 0x2 ADD SLOAD MUL DUP2 PUSH1 0x3 ADD DUP2 SWAP1 SSTORE POP PUSH3 0x278D00 DUP2 PUSH1 0x4 ADD PUSH1 0x0 DUP3 DUP3 SLOAD ADD SWAP3 POP POP DUP2 SWAP1 SSTORE POP DUP1 PUSH1 0x3 ADD SLOAD SWAP2 POP POP SWAP1 JUMP JUMPDEST PUSH1 0x0 DUP1 PUSH1 0x2 PUSH1 0x0 DUP5 DUP2 MSTORE PUSH1 0x20 ADD SWAP1 DUP2 MSTORE PUSH1 0x20 ADD PUSH1 0x0 KECCAK256 SWAP1 POP DUP1 PUSH1 0x3 ADD PUSH1 0x1 SWAP1 SLOAD SWAP1 PUSH2 0x100 EXP SWAP1 DIV PUSH1 0xFF AND SWAP2 POP POP SWAP2 SWAP1 POP JUMP JUMPDEST PUSH1 0x0 DUP1 PUSH1 0x2 PUSH1 0x0 DUP5 DUP2 MSTORE PUSH1 0x20 ADD SWAP1 DUP2 MSTORE PUSH1 0x20 ADD PUSH1 0x0 KECCAK256 SWAP1 POP DUP1 PUSH1 0x3 ADD PUSH1 0x2 SWAP1 SLOAD SWAP1 PUSH2 0x100 EXP SWAP1 DIV PUSH1 0xFF AND SWAP2 POP POP SWAP2 SWAP1 POP JUMP JUMPDEST PUSH1 0x0 DUP1 PUSH1 0x2 PUSH1 0x0 DUP5 DUP2 MSTORE PUSH1 0x20 ADD SWAP1 DUP2 MSTORE PUSH1 0x20 ADD PUSH1 0x0 KECCAK256 SWAP1 POP DUP1 PUSH1 0x3 ADD PUSH1 0x0 SWAP1 SLOAD SWAP1 PUSH2 0x100 EXP SWAP1 DIV PUSH1 0xFF AND SWAP2 POP POP SWAP2 SWAP1 POP JUMP JUMPDEST PUSH1 0x0 PUSH1 0x2 PUSH1 0x0 DUP4 DUP2 MSTORE PUSH1 0x20 ADD SWAP1 DUP2 MSTORE PUSH1 0x20 ADD PUSH1 0x0 KECCAK256 SWAP1 POP CALLER PUSH20 0xFFFFFFFFFFFFFFFFFFFFFFFFFFFFFFFFFFFFFFFF AND DUP2 PUSH1 0x1 ADD PUSH1 0x0 SWAP1 SLOAD SWAP1 PUSH2 0x100 EXP SWAP1 DIV PUSH20 0xFFFFFFFFFFFFFFFFFFFFFFFFFFFFFFFFFFFFFFFF AND PUSH20 0xFFFFFFFFFFFFFFFFFFFFFFFFFFFFFFFFFFFFFFFF AND EQ PUSH2 0x8ED JUMPI PUSH1 0x0 DUP1 REVERT JUMPDEST PUSH1 0x1 ISZERO ISZERO DUP2 PUSH1 0x3 ADD PUSH1 0x0 SWAP1 SLOAD SWAP1 PUSH2 0x100 EXP SWAP1 DIV PUSH1 0xFF AND ISZERO ISZERO EQ PUSH2 0x90F JUMPI PUSH1 0x0 DUP1 REVERT JUMPDEST PUSH1 0x1 ISZERO ISZERO DUP2 PUSH1 0x3 ADD PUSH1 0x1 SWAP1 SLOAD SWAP1 PUSH2 0x100 EXP SWAP1 DIV PUSH1 0xFF AND ISZERO ISZERO EQ PUSH2 0x931 JUMPI PUSH1 0x0 DUP1 REVERT JUMPDEST PUSH1 0x0 ISZERO ISZERO DUP2 PUSH1 0x3 ADD PUSH1 0x2 SWAP1 SLOAD SWAP1 PUSH2 0x100 EXP SWAP1 DIV PUSH1 0xFF AND ISZERO ISZERO EQ PUSH2 0x953 JUMPI PUSH1 0x0 DUP1 REVERT JUMPDEST PUSH1 0x1 DUP2 PUSH1 0x3 ADD PUSH1 0x2 PUSH2 0x100 EXP DUP2 SLOAD DUP2 PUSH1 0xFF MUL NOT AND SWAP1 DUP4 ISZERO ISZERO MUL OR SWAP1 SSTORE POP PUSH1 0x0 PUSH1 0x3 PUSH1 0x0 CALLER PUSH20 0xFFFFFFFFFFFFFFFFFFFFFFFFFFFFFFFFFFFFFFFF AND PUSH20 0xFFFFFFFFFFFFFFFFFFFFFFFFFFFFFFFFFFFFFFFF AND DUP2 MSTORE PUSH1 0x20 ADD SWAP1 DUP2 MSTORE PUSH1 0x20 ADD PUSH1 0x0 KECCAK256 SWAP1 POP PUSH1 0xA DUP2 PUSH1 0x2 ADD PUSH1 0x0 DUP3 DUP3 SLOAD ADD SWAP3 POP POP DUP2 SWAP1 SSTORE POP POP POP POP JUMP JUMPDEST PUSH1 0x0 DUP1 PUSH1 0x3 PUSH1 0x0 DUP5 PUSH20 0xFFFFFFFFFFFFFFFFFFFFFFFFFFFFFFFFFFFFFFFF AND PUSH20 0xFFFFFFFFFFFFFFFFFFFFFFFFFFFFFFFFFFFFFFFF AND DUP2 MSTORE PUSH1 0x20 ADD SWAP1 DUP2 MSTORE PUSH1 0x20 ADD PUSH1 0x0 KECCAK256 SWAP1 POP DUP1 PUSH1 0x2 ADD SLOAD SWAP2 POP POP SWAP2 SWAP1 POP JUMP JUMPDEST PUSH1 0x0 PUSH1 0x2 PUSH1 0x0 DUP4 DUP2 MSTORE PUSH1 0x20 ADD SWAP1 DUP2 MSTORE PUSH1 0x20 ADD PUSH1 0x0 KECCAK256 SWAP1 POP CALLER PUSH20 0xFFFFFFFFFFFFFFFFFFFFFFFFFFFFFFFFFFFFFFFF AND DUP2 PUSH1 0x1 ADD PUSH1 0x0 SWAP1 SLOAD SWAP1 PUSH2 0x100 EXP SWAP1 DIV PUSH20 0xFFFFFFFFFFFFFFFFFFFFFFFFFFFFFFFFFFFFFFFF AND PUSH20 0xFFFFFFFFFFFFFFFFFFFFFFFFFFFFFFFFFFFFFFFF AND EQ PUSH2 0xA8F JUMPI PUSH1 0x0 DUP1 REVERT JUMPDEST PUSH1 0x1 ISZERO ISZERO DUP2 PUSH1 0x3 ADD PUSH1 0x0 SWAP1 SLOAD SWAP1 PUSH2 0x100 EXP SWAP1 DIV PUSH1 0xFF AND ISZERO ISZERO EQ PUSH2 0xAB1 JUMPI PUSH1 0x0 DUP1 REVERT JUMPDEST PUSH1 0x1 ISZERO ISZERO DUP2 PUSH1 0x3 ADD PUSH1 0x1 SWAP1 SLOAD SWAP1 PUSH2 0x100 EXP SWAP1 DIV PUSH1 0xFF AND ISZERO ISZERO EQ PUSH2 0xAD3 JUMPI PUSH1 0x0 DUP1 REVERT JUMPDEST PUSH1 0x1 ISZERO ISZERO DUP2 PUSH1 0x3 ADD PUSH1 0x2 SWAP1 SLOAD SWAP1 PUSH2 0x100 EXP SWAP1 DIV PUSH1 0xFF AND ISZERO ISZERO EQ PUSH2 0xAF5 JUMPI PUSH1 0x0 DUP1 REVERT JUMPDEST PUSH1 0x1 ISZERO ISZERO DUP2 PUSH1 0x3 ADD PUSH1 0x3 SWAP1 SLOAD SWAP1 PUSH2 0x100 EXP SWAP1 DIV PUSH1 0xFF AND ISZERO ISZERO EQ PUSH2 0xB17 JUMPI PUSH1 0x0 DUP1 REVERT JUMPDEST PUSH1 0x0 DUP2 PUSH1 0x4 ADD SLOAD SWAP1 POP CALLER PUSH20 0xFFFFFFFFFFFFFFFFFFFFFFFFFFFFFFFFFFFFFFFF AND PUSH2 0x8FC DUP3 SWAP1 DUP2 ISZERO MUL SWAP1 PUSH1 0x40 MLOAD PUSH1 0x0 PUSH1 0x40 MLOAD DUP1 DUP4 SUB DUP2 DUP6 DUP9 DUP9 CALL SWAP4 POP POP POP POP ISZERO DUP1 ISZERO PUSH2 0xB66 JUMPI RETURNDATASIZE PUSH1 0x0 DUP1 RETURNDATACOPY RETURNDATASIZE PUSH1 0x0 REVERT JUMPDEST POP PUSH1 0x0 DUP3 PUSH1 0x4 ADD DUP2 SWAP1 SSTORE POP POP POP POP JUMP JUMPDEST PUSH1 0x0 PUSH1 0x2 PUSH1 0x0 DUP4 DUP2 MSTORE PUSH1 0x20 ADD SWAP1 DUP2 MSTORE PUSH1 0x20 ADD PUSH1 0x0 KECCAK256 SWAP1 POP CALLER PUSH20 0xFFFFFFFFFFFFFFFFFFFFFFFFFFFFFFFFFFFFFFFF AND DUP2 PUSH1 0x1 ADD PUSH1 0x0 SWAP1 SLOAD SWAP1 PUSH2 0x100 EXP SWAP1 DIV PUSH20 0xFFFFFFFFFFFFFFFFFFFFFFFFFFFFFFFFFFFFFFFF AND PUSH20 0xFFFFFFFFFFFFFFFFFFFFFFFFFFFFFFFFFFFFFFFF AND EQ PUSH2 0xBE9 JUMPI PUSH1 0x0 DUP1 REVERT JUMPDEST PUSH1 0x1 ISZERO ISZERO DUP2 PUSH1 0x3 ADD PUSH1 0x0 SWAP1 SLOAD SWAP1 PUSH2 0x100 EXP SWAP1 DIV PUSH1 0xFF AND ISZERO ISZERO EQ PUSH2 0xC0B JUMPI PUSH1 0x0 DUP1 REVERT JUMPDEST PUSH1 0x0 ISZERO ISZERO DUP2 PUSH1 0x3 ADD PUSH1 0x1 SWAP1 SLOAD SWAP1 PUSH2 0x100 EXP SWAP1 DIV PUSH1 0xFF AND ISZERO ISZERO EQ PUSH2 0xC2D JUMPI PUSH1 0x0 DUP1 REVERT JUMPDEST PUSH1 0x1 DUP2 PUSH1 0x3 ADD PUSH1 0x1 PUSH2 0x100 EXP DUP2 SLOAD DUP2 PUSH1 0xFF MUL NOT AND SWAP1 DUP4 ISZERO ISZERO MUL OR SWAP1 SSTORE POP PUSH1 0x0 PUSH1 0x3 PUSH1 0x0 CALLER PUSH20 0xFFFFFFFFFFFFFFFFFFFFFFFFFFFFFFFFFFFFFFFF AND PUSH20 0xFFFFFFFFFFFFFFFFFFFFFFFFFFFFFFFFFFFFFFFF AND DUP2 MSTORE PUSH1 0x20 ADD SWAP1 DUP2 MSTORE PUSH1 0x20 ADD PUSH1 0x0 KECCAK256 SWAP1 POP PUSH1 0xA DUP2 PUSH1 0x2 ADD PUSH1 0x0 DUP3 DUP3 SLOAD ADD SWAP3 POP POP DUP2 SWAP1 SSTORE POP POP POP POP JUMP JUMPDEST PUSH1 0x0 DUP1 PUSH1 0x2 PUSH1 0x0 DUP5 DUP2 MSTORE PUSH1 0x20 ADD SWAP1 DUP2 MSTORE PUSH1 0x20 ADD PUSH1 0x0 KECCAK256 SWAP1 POP DUP1 PUSH1 0x4 ADD SLOAD SWAP2 POP POP SWAP2 SWAP1 POP JUMP JUMPDEST PUSH1 0x0 PUSH1 0x3 PUSH1 0x0 CALLER PUSH20 0xFFFFFFFFFFFFFFFFFFFFFFFFFFFFFFFFFFFFFFFF AND PUSH20 0xFFFFFFFFFFFFFFFFFFFFFFFFFFFFFFFFFFFFFFFF AND DUP2 MSTORE PUSH1 0x20 ADD SWAP1 DUP2 MSTORE PUSH1 0x20 ADD PUSH1 0x0 KECCAK256 SWAP1 POP CALLER DUP2 PUSH1 0x0 ADD PUSH1 0x0 PUSH2 0x100 EXP DUP2 SLOAD DUP2 PUSH20 0xFFFFFFFFFFFFFFFFFFFFFFFFFFFFFFFFFFFFFFFF MUL NOT AND SWAP1 DUP4 PUSH20 0xFFFFFFFFFFFFFFFFFFFFFFFFFFFFFFFFFFFFFFFF AND MUL OR SWAP1 SSTORE POP DUP2 DUP2 PUSH1 0x1 ADD DUP2 SWAP1 SSTORE POP POP POP JUMP INVALID LOG2 PUSH6 0x627A7A723158 KECCAK256 0xA5 INVALID PUSH6 0x312BBFA95DAD DUP9 PUSH12 0x36E2BBFA1AD55BE55D49F001 OR ADD 0xA5 XOR 0xAC 0x26 0xAE 0x27 0x2E PUSH5 0x736F6C6343 STOP SDIV GT STOP ORIGIN "
				},
				"gasEstimates": {
					"creation": {
						"codeDepositCost": "694800",
						"executionCost": "20741",
						"totalCost": "715541"
					},
					"external": {
						"AcceptBooking(uint256)": "44907",
						"AcceptStatus(uint256)": "1384",
						"ApproveAds(uint256)": "25799",
						"ApprovedStatus(uint256)": "1340",
						"BookStatus(uint256)": "1268",
						"ChangePrice(uint256)": "41310",
						"CompleteAds(uint256)": "45835",
						"CompleteStatus(uint256)": "1406",
						"NewBooking(address)": "167543",
						"PaidOnContract(uint256)": "1263",
						"PointsBalance(address)": "1282",
						"ReceiveSalary(uint256)": "infinite",
						"TakeCoins()": "44523"
					}
				},
				"methodIdentifiers": {
					"AcceptBooking(uint256)": "e352893e",
					"AcceptStatus(uint256)": "8712c66e",
					"ApproveAds(uint256)": "1eb398af",
					"ApprovedStatus(uint256)": "318d6178",
					"BookStatus(uint256)": "9ddac05e",
					"ChangePrice(uint256)": "fb92488b",
					"CompleteAds(uint256)": "a07c81f0",
					"CompleteStatus(uint256)": "97190fae",
					"NewBooking(address)": "1172cde8",
					"PaidOnContract(uint256)": "e6bf297b",
					"PointsBalance(address)": "a6602d5f",
					"ReceiveSalary(uint256)": "e0e1bd84",
					"TakeCoins()": "4f6109d6"
				}
			},
			"storageLayout": {
				"storage": [
					{
						"astId": 3,
						"contract": "B4B.CONTRACTS/b4b.sol:B4B",
						"label": "deployDate",
						"offset": 0,
						"slot": "0",
						"type": "t_uint256"
					},
					{
						"astId": 30,
						"contract": "B4B.CONTRACTS/b4b.sol:B4B",
						"label": "numCampaigns",
						"offset": 0,
						"slot": "1",
						"type": "t_uint256"
					},
					{
						"astId": 34,
						"contract": "B4B.CONTRACTS/b4b.sol:B4B",
						"label": "campaigns",
						"offset": 0,
						"slot": "2",
						"type": "t_mapping(t_uint256,t_struct(Campaign)28_storage)"
					},
					{
						"astId": 49,
						"contract": "B4B.CONTRACTS/b4b.sol:B4B",
						"label": "influencers",
						"offset": 0,
						"slot": "3",
						"type": "t_mapping(t_address,t_struct(Influencer)45_storage)"
					}
				],
				"types": {
					"t_address": {
						"encoding": "inplace",
						"label": "address",
						"numberOfBytes": "20"
					},
					"t_bool": {
						"encoding": "inplace",
						"label": "bool",
						"numberOfBytes": "1"
					},
					"t_mapping(t_address,t_struct(Influencer)45_storage)": {
						"encoding": "mapping",
						"key": "t_address",
						"label": "mapping(address => struct B4B.Influencer)",
						"numberOfBytes": "32",
						"value": "t_struct(Influencer)45_storage"
					},
					"t_mapping(t_uint256,t_struct(Campaign)28_storage)": {
						"encoding": "mapping",
						"key": "t_uint256",
						"label": "mapping(uint256 => struct B4B.Campaign)",
						"numberOfBytes": "32",
						"value": "t_struct(Campaign)28_storage"
					},
					"t_struct(Campaign)28_storage": {
						"encoding": "inplace",
						"label": "struct B4B.Campaign",
						"members": [
							{
								"astId": 13,
								"contract": "B4B.CONTRACTS/b4b.sol:B4B",
								"label": "brand_addr",
								"offset": 0,
								"slot": "0",
								"type": "t_address"
							},
							{
								"astId": 15,
								"contract": "B4B.CONTRACTS/b4b.sol:B4B",
								"label": "influencer_addr",
								"offset": 0,
								"slot": "1",
								"type": "t_address"
							},
							{
								"astId": 17,
								"contract": "B4B.CONTRACTS/b4b.sol:B4B",
								"label": "date",
								"offset": 0,
								"slot": "2",
								"type": "t_uint256"
							},
							{
								"astId": 19,
								"contract": "B4B.CONTRACTS/b4b.sol:B4B",
								"label": "book_status",
								"offset": 0,
								"slot": "3",
								"type": "t_bool"
							},
							{
								"astId": 21,
								"contract": "B4B.CONTRACTS/b4b.sol:B4B",
								"label": "accept_status",
								"offset": 1,
								"slot": "3",
								"type": "t_bool"
							},
							{
								"astId": 23,
								"contract": "B4B.CONTRACTS/b4b.sol:B4B",
								"label": "complete_status",
								"offset": 2,
								"slot": "3",
								"type": "t_bool"
							},
							{
								"astId": 25,
								"contract": "B4B.CONTRACTS/b4b.sol:B4B",
								"label": "approved_status",
								"offset": 3,
								"slot": "3",
								"type": "t_bool"
							},
							{
								"astId": 27,
								"contract": "B4B.CONTRACTS/b4b.sol:B4B",
								"label": "paid",
								"offset": 0,
								"slot": "4",
								"type": "t_uint256"
							}
						],
						"numberOfBytes": "160"
					},
					"t_struct(Influencer)45_storage": {
						"encoding": "inplace",
						"label": "struct B4B.Influencer",
						"members": [
							{
								"astId": 36,
								"contract": "B4B.CONTRACTS/b4b.sol:B4B",
								"label": "influencer_addr",
								"offset": 0,
								"slot": "0",
								"type": "t_address"
							},
							{
								"astId": 38,
								"contract": "B4B.CONTRACTS/b4b.sol:B4B",
								"label": "price",
								"offset": 0,
								"slot": "1",
								"type": "t_uint256"
							},
							{
								"astId": 40,
								"contract": "B4B.CONTRACTS/b4b.sol:B4B",
								"label": "points",
								"offset": 0,
								"slot": "2",
								"type": "t_uint256"
							},
							{
								"astId": 42,
								"contract": "B4B.CONTRACTS/b4b.sol:B4B",
								"label": "coins",
								"offset": 0,
								"slot": "3",
								"type": "t_uint256"
							},
							{
								"astId": 44,
								"contract": "B4B.CONTRACTS/b4b.sol:B4B",
								"label": "lastDistributionDate",
								"offset": 0,
								"slot": "4",
								"type": "t_uint256"
							}
						],
						"numberOfBytes": "160"
					},
					"t_uint256": {
						"encoding": "inplace",
						"label": "uint256",
						"numberOfBytes": "32"
					}
				}
			},
			"userdoc": {
				"methods": {}
			}
		}
	}
}