{
	"B4B.CONTRACTS/b4b.sol": {
		"B4B": {
			"abi": [
				{
					"inputs": [],
					"payable": false,
					"stateMutability": "nonpayable",
					"type": "constructor"
				},
				{
					"constant": false,
					"inputs": [
						{
							"internalType": "uint256",
							"name": "_campaignID",
							"type": "uint256"
						}
					],
					"name": "AcceptBooking",
					"outputs": [],
					"payable": false,
					"stateMutability": "nonpayable",
					"type": "function"
				},
				{
					"constant": true,
					"inputs": [
						{
							"internalType": "uint256",
							"name": "_campaignID",
							"type": "uint256"
						}
					],
					"name": "AcceptStatus",
					"outputs": [
						{
							"internalType": "bool",
							"name": "",
							"type": "bool"
						}
					],
					"payable": false,
					"stateMutability": "view",
					"type": "function"
				},
				{
					"constant": false,
					"inputs": [
						{
							"internalType": "uint256",
							"name": "_campaignID",
							"type": "uint256"
						}
					],
					"name": "ApproveAds",
					"outputs": [],
					"payable": false,
					"stateMutability": "nonpayable",
					"type": "function"
				},
				{
					"constant": true,
					"inputs": [
						{
							"internalType": "uint256",
							"name": "_campaignID",
							"type": "uint256"
						}
					],
					"name": "ApprovedStatus",
					"outputs": [
						{
							"internalType": "bool",
							"name": "",
							"type": "bool"
						}
					],
					"payable": false,
					"stateMutability": "view",
					"type": "function"
				},
				{
					"constant": true,
					"inputs": [
						{
							"internalType": "uint256",
							"name": "_campaignID",
							"type": "uint256"
						}
					],
					"name": "BookStatus",
					"outputs": [
						{
							"internalType": "bool",
							"name": "",
							"type": "bool"
						}
					],
					"payable": false,
					"stateMutability": "view",
					"type": "function"
				},
				{
					"constant": false,
					"inputs": [
						{
							"internalType": "uint256",
							"name": "_price",
							"type": "uint256"
						}
					],
					"name": "ChangePrice",
					"outputs": [],
					"payable": false,
					"stateMutability": "nonpayable",
					"type": "function"
				},
				{
					"constant": false,
					"inputs": [
						{
							"internalType": "uint256",
							"name": "_campaignID",
							"type": "uint256"
						}
					],
					"name": "CompleteAds",
					"outputs": [],
					"payable": false,
					"stateMutability": "nonpayable",
					"type": "function"
				},
				{
					"constant": true,
					"inputs": [
						{
							"internalType": "uint256",
							"name": "_campaignID",
							"type": "uint256"
						}
					],
					"name": "CompleteStatus",
					"outputs": [
						{
							"internalType": "bool",
							"name": "",
							"type": "bool"
						}
					],
					"payable": false,
					"stateMutability": "view",
					"type": "function"
				},
				{
					"constant": false,
					"inputs": [
						{
							"internalType": "address",
							"name": "_influencer",
							"type": "address"
						},
						{
							"internalType": "uint256",
							"name": "_date",
							"type": "uint256"
						}
					],
					"name": "NewBooking",
					"outputs": [
						{
							"internalType": "uint256",
							"name": "campaignID",
							"type": "uint256"
						}
					],
					"payable": true,
					"stateMutability": "payable",
					"type": "function"
				},
				{
					"constant": true,
					"inputs": [
						{
							"internalType": "uint256",
							"name": "_campaignID",
							"type": "uint256"
						}
					],
					"name": "PaidOnContract",
					"outputs": [
						{
							"internalType": "uint256",
							"name": "",
							"type": "uint256"
						}
					],
					"payable": false,
					"stateMutability": "view",
					"type": "function"
				},
				{
					"constant": true,
					"inputs": [
						{
							"internalType": "address",
							"name": "_influencer",
							"type": "address"
						}
					],
					"name": "PointsBalance",
					"outputs": [
						{
							"internalType": "uint256",
							"name": "",
							"type": "uint256"
						}
					],
					"payable": false,
					"stateMutability": "view",
					"type": "function"
				},
				{
					"constant": false,
					"inputs": [
						{
							"internalType": "uint256",
							"name": "_campaignID",
							"type": "uint256"
						}
					],
					"name": "ReceiveSalary",
					"outputs": [],
					"payable": false,
					"stateMutability": "nonpayable",
					"type": "function"
				},
				{
					"constant": false,
					"inputs": [],
					"name": "TakeCoins",
					"outputs": [
						{
							"internalType": "uint256",
							"name": "",
							"type": "uint256"
						}
					],
					"payable": false,
					"stateMutability": "nonpayable",
					"type": "function"
				}
			],
			"devdoc": {
				"methods": {}
			},
			"evm": {
				"assembly": "    /* \"B4B.CONTRACTS/b4b.sol\":24:4926  contract B4B {... */\n  mstore(0x40, 0x80)\n    /* \"B4B.CONTRACTS/b4b.sol\":150:160  deployDate */\n  sload(0x00)\n    /* \"B4B.CONTRACTS/b4b.sol\":122:160  uint lastDistributionDate = deployDate */\n  0x01\n  sstore\n    /* \"B4B.CONTRACTS/b4b.sol\":66:116  constructor() public {... */\n  callvalue\n    /* \"--CODEGEN--\":8:17   */\n  dup1\n    /* \"--CODEGEN--\":5:7   */\n  iszero\n  tag_1\n  jumpi\n    /* \"--CODEGEN--\":30:31   */\n  0x00\n    /* \"--CODEGEN--\":27:28   */\n  dup1\n    /* \"--CODEGEN--\":20:32   */\n  revert\n    /* \"--CODEGEN--\":5:7   */\ntag_1:\n    /* \"B4B.CONTRACTS/b4b.sol\":66:116  constructor() public {... */\n  pop\n    /* \"B4B.CONTRACTS/b4b.sol\":106:109  now */\n  timestamp\n    /* \"B4B.CONTRACTS/b4b.sol\":93:103  deployDate */\n  0x00\n    /* \"B4B.CONTRACTS/b4b.sol\":93:109  deployDate = now */\n  dup2\n  swap1\n  sstore\n  pop\n    /* \"B4B.CONTRACTS/b4b.sol\":24:4926  contract B4B {... */\n  dataSize(sub_0)\n  dup1\n  dataOffset(sub_0)\n  0x00\n  codecopy\n  0x00\n  return\nstop\n\nsub_0: assembly {\n        /* \"B4B.CONTRACTS/b4b.sol\":24:4926  contract B4B {... */\n      mstore(0x40, 0x80)\n      jumpi(tag_1, lt(calldatasize, 0x04))\n      shr(0xe0, calldataload(0x00))\n      dup1\n      0x9ddac05e\n      gt\n      tag_15\n      jumpi\n      dup1\n      0xe0e1bd84\n      gt\n      tag_16\n      jumpi\n      dup1\n      0xe0e1bd84\n      eq\n      tag_11\n      jumpi\n      dup1\n      0xe352893e\n      eq\n      tag_12\n      jumpi\n      dup1\n      0xe6bf297b\n      eq\n      tag_13\n      jumpi\n      dup1\n      0xfb92488b\n      eq\n      tag_14\n      jumpi\n      jump(tag_1)\n    tag_16:\n      dup1\n      0x9ddac05e\n      eq\n      tag_8\n      jumpi\n      dup1\n      0xa07c81f0\n      eq\n      tag_9\n      jumpi\n      dup1\n      0xa6602d5f\n      eq\n      tag_10\n      jumpi\n      jump(tag_1)\n    tag_15:\n      dup1\n      0x1eb398af\n      eq\n      tag_2\n      jumpi\n      dup1\n      0x318d6178\n      eq\n      tag_3\n      jumpi\n      dup1\n      0x4f6109d6\n      eq\n      tag_4\n      jumpi\n      dup1\n      0x5bbf3050\n      eq\n      tag_5\n      jumpi\n      dup1\n      0x8712c66e\n      eq\n      tag_6\n      jumpi\n      dup1\n      0x97190fae\n      eq\n      tag_7\n      jumpi\n    tag_1:\n      0x00\n      dup1\n      revert\n        /* \"B4B.CONTRACTS/b4b.sol\":2822:3171  function ApproveAds (uint _campaignID) public {... */\n    tag_2:\n      callvalue\n        /* \"--CODEGEN--\":8:17   */\n      dup1\n        /* \"--CODEGEN--\":5:7   */\n      iszero\n      tag_17\n      jumpi\n        /* \"--CODEGEN--\":30:31   */\n      0x00\n        /* \"--CODEGEN--\":27:28   */\n      dup1\n        /* \"--CODEGEN--\":20:32   */\n      revert\n        /* \"--CODEGEN--\":5:7   */\n    tag_17:\n        /* \"B4B.CONTRACTS/b4b.sol\":2822:3171  function ApproveAds (uint _campaignID) public {... */\n      pop\n      tag_18\n      0x04\n      dup1\n      calldatasize\n      sub\n        /* \"--CODEGEN--\":13:15   */\n      0x20\n        /* \"--CODEGEN--\":8:11   */\n      dup2\n        /* \"--CODEGEN--\":5:16   */\n      lt\n        /* \"--CODEGEN--\":2:4   */\n      iszero\n      tag_19\n      jumpi\n        /* \"--CODEGEN--\":29:30   */\n      0x00\n        /* \"--CODEGEN--\":26:27   */\n      dup1\n        /* \"--CODEGEN--\":19:31   */\n      revert\n        /* \"--CODEGEN--\":2:4   */\n    tag_19:\n        /* \"B4B.CONTRACTS/b4b.sol\":2822:3171  function ApproveAds (uint _campaignID) public {... */\n      dup2\n      add\n      swap1\n      dup1\n      dup1\n      calldataload\n      swap1\n      0x20\n      add\n      swap1\n      swap3\n      swap2\n      swap1\n      pop\n      pop\n      pop\n      tag_20\n      jump\t// in\n    tag_18:\n      stop\n        /* \"B4B.CONTRACTS/b4b.sol\":4103:4266  function ApprovedStatus(uint _campaignID) public view returns (bool) {... */\n    tag_3:\n      callvalue\n        /* \"--CODEGEN--\":8:17   */\n      dup1\n        /* \"--CODEGEN--\":5:7   */\n      iszero\n      tag_21\n      jumpi\n        /* \"--CODEGEN--\":30:31   */\n      0x00\n        /* \"--CODEGEN--\":27:28   */\n      dup1\n        /* \"--CODEGEN--\":20:32   */\n      revert\n        /* \"--CODEGEN--\":5:7   */\n    tag_21:\n        /* \"B4B.CONTRACTS/b4b.sol\":4103:4266  function ApprovedStatus(uint _campaignID) public view returns (bool) {... */\n      pop\n      tag_22\n      0x04\n      dup1\n      calldatasize\n      sub\n        /* \"--CODEGEN--\":13:15   */\n      0x20\n        /* \"--CODEGEN--\":8:11   */\n      dup2\n        /* \"--CODEGEN--\":5:16   */\n      lt\n        /* \"--CODEGEN--\":2:4   */\n      iszero\n      tag_23\n      jumpi\n        /* \"--CODEGEN--\":29:30   */\n      0x00\n        /* \"--CODEGEN--\":26:27   */\n      dup1\n        /* \"--CODEGEN--\":19:31   */\n      revert\n        /* \"--CODEGEN--\":2:4   */\n    tag_23:\n        /* \"B4B.CONTRACTS/b4b.sol\":4103:4266  function ApprovedStatus(uint _campaignID) public view returns (bool) {... */\n      dup2\n      add\n      swap1\n      dup1\n      dup1\n      calldataload\n      swap1\n      0x20\n      add\n      swap1\n      swap3\n      swap2\n      swap1\n      pop\n      pop\n      pop\n      tag_24\n      jump\t// in\n    tag_22:\n      mload(0x40)\n      dup1\n      dup3\n      iszero\n      iszero\n      iszero\n      iszero\n      dup2\n      mstore\n      0x20\n      add\n      swap2\n      pop\n      pop\n      mload(0x40)\n      dup1\n      swap2\n      sub\n      swap1\n      return\n        /* \"B4B.CONTRACTS/b4b.sol\":4604:4924  function TakeCoins () public returns (uint256) {... */\n    tag_4:\n      callvalue\n        /* \"--CODEGEN--\":8:17   */\n      dup1\n        /* \"--CODEGEN--\":5:7   */\n      iszero\n      tag_25\n      jumpi\n        /* \"--CODEGEN--\":30:31   */\n      0x00\n        /* \"--CODEGEN--\":27:28   */\n      dup1\n        /* \"--CODEGEN--\":20:32   */\n      revert\n        /* \"--CODEGEN--\":5:7   */\n    tag_25:\n        /* \"B4B.CONTRACTS/b4b.sol\":4604:4924  function TakeCoins () public returns (uint256) {... */\n      pop\n      tag_26\n      tag_27\n      jump\t// in\n    tag_26:\n      mload(0x40)\n      dup1\n      dup3\n      dup2\n      mstore\n      0x20\n      add\n      swap2\n      pop\n      pop\n      mload(0x40)\n      dup1\n      swap2\n      sub\n      swap1\n      return\n        /* \"B4B.CONTRACTS/b4b.sol\":1332:1881  function NewBooking (address  _influencer, uint _date) public payable returns (uint campaignID) {... */\n    tag_5:\n      tag_28\n      0x04\n      dup1\n      calldatasize\n      sub\n        /* \"--CODEGEN--\":13:15   */\n      0x40\n        /* \"--CODEGEN--\":8:11   */\n      dup2\n        /* \"--CODEGEN--\":5:16   */\n      lt\n        /* \"--CODEGEN--\":2:4   */\n      iszero\n      tag_29\n      jumpi\n        /* \"--CODEGEN--\":29:30   */\n      0x00\n        /* \"--CODEGEN--\":26:27   */\n      dup1\n        /* \"--CODEGEN--\":19:31   */\n      revert\n        /* \"--CODEGEN--\":2:4   */\n    tag_29:\n        /* \"B4B.CONTRACTS/b4b.sol\":1332:1881  function NewBooking (address  _influencer, uint _date) public payable returns (uint campaignID) {... */\n      dup2\n      add\n      swap1\n      dup1\n      dup1\n      calldataload\n      0xffffffffffffffffffffffffffffffffffffffff\n      and\n      swap1\n      0x20\n      add\n      swap1\n      swap3\n      swap2\n      swap1\n      dup1\n      calldataload\n      swap1\n      0x20\n      add\n      swap1\n      swap3\n      swap2\n      swap1\n      pop\n      pop\n      pop\n      tag_30\n      jump\t// in\n    tag_28:\n      mload(0x40)\n      dup1\n      dup3\n      dup2\n      mstore\n      0x20\n      add\n      swap2\n      pop\n      pop\n      mload(0x40)\n      dup1\n      swap2\n      sub\n      swap1\n      return\n        /* \"B4B.CONTRACTS/b4b.sol\":3761:3920  function AcceptStatus(uint _campaignID) public view returns (bool) {... */\n    tag_6:\n      callvalue\n        /* \"--CODEGEN--\":8:17   */\n      dup1\n        /* \"--CODEGEN--\":5:7   */\n      iszero\n      tag_31\n      jumpi\n        /* \"--CODEGEN--\":30:31   */\n      0x00\n        /* \"--CODEGEN--\":27:28   */\n      dup1\n        /* \"--CODEGEN--\":20:32   */\n      revert\n        /* \"--CODEGEN--\":5:7   */\n    tag_31:\n        /* \"B4B.CONTRACTS/b4b.sol\":3761:3920  function AcceptStatus(uint _campaignID) public view returns (bool) {... */\n      pop\n      tag_32\n      0x04\n      dup1\n      calldatasize\n      sub\n        /* \"--CODEGEN--\":13:15   */\n      0x20\n        /* \"--CODEGEN--\":8:11   */\n      dup2\n        /* \"--CODEGEN--\":5:16   */\n      lt\n        /* \"--CODEGEN--\":2:4   */\n      iszero\n      tag_33\n      jumpi\n        /* \"--CODEGEN--\":29:30   */\n      0x00\n        /* \"--CODEGEN--\":26:27   */\n      dup1\n        /* \"--CODEGEN--\":19:31   */\n      revert\n        /* \"--CODEGEN--\":2:4   */\n    tag_33:\n        /* \"B4B.CONTRACTS/b4b.sol\":3761:3920  function AcceptStatus(uint _campaignID) public view returns (bool) {... */\n      dup2\n      add\n      swap1\n      dup1\n      dup1\n      calldataload\n      swap1\n      0x20\n      add\n      swap1\n      swap3\n      swap2\n      swap1\n      pop\n      pop\n      pop\n      tag_34\n      jump\t// in\n    tag_32:\n      mload(0x40)\n      dup1\n      dup3\n      iszero\n      iszero\n      iszero\n      iszero\n      dup2\n      mstore\n      0x20\n      add\n      swap2\n      pop\n      pop\n      mload(0x40)\n      dup1\n      swap2\n      sub\n      swap1\n      return\n        /* \"B4B.CONTRACTS/b4b.sol\":3930:4093  function CompleteStatus(uint _campaignID) public view returns (bool) {... */\n    tag_7:\n      callvalue\n        /* \"--CODEGEN--\":8:17   */\n      dup1\n        /* \"--CODEGEN--\":5:7   */\n      iszero\n      tag_35\n      jumpi\n        /* \"--CODEGEN--\":30:31   */\n      0x00\n        /* \"--CODEGEN--\":27:28   */\n      dup1\n        /* \"--CODEGEN--\":20:32   */\n      revert\n        /* \"--CODEGEN--\":5:7   */\n    tag_35:\n        /* \"B4B.CONTRACTS/b4b.sol\":3930:4093  function CompleteStatus(uint _campaignID) public view returns (bool) {... */\n      pop\n      tag_36\n      0x04\n      dup1\n      calldatasize\n      sub\n        /* \"--CODEGEN--\":13:15   */\n      0x20\n        /* \"--CODEGEN--\":8:11   */\n      dup2\n        /* \"--CODEGEN--\":5:16   */\n      lt\n        /* \"--CODEGEN--\":2:4   */\n      iszero\n      tag_37\n      jumpi\n        /* \"--CODEGEN--\":29:30   */\n      0x00\n        /* \"--CODEGEN--\":26:27   */\n      dup1\n        /* \"--CODEGEN--\":19:31   */\n      revert\n        /* \"--CODEGEN--\":2:4   */\n    tag_37:\n        /* \"B4B.CONTRACTS/b4b.sol\":3930:4093  function CompleteStatus(uint _campaignID) public view returns (bool) {... */\n      dup2\n      add\n      swap1\n      dup1\n      dup1\n      calldataload\n      swap1\n      0x20\n      add\n      swap1\n      swap3\n      swap2\n      swap1\n      pop\n      pop\n      pop\n      tag_38\n      jump\t// in\n    tag_36:\n      mload(0x40)\n      dup1\n      dup3\n      iszero\n      iszero\n      iszero\n      iszero\n      dup2\n      mstore\n      0x20\n      add\n      swap2\n      pop\n      pop\n      mload(0x40)\n      dup1\n      swap2\n      sub\n      swap1\n      return\n        /* \"B4B.CONTRACTS/b4b.sol\":3596:3751  function BookStatus(uint _campaignID) public view returns (bool) {... */\n    tag_8:\n      callvalue\n        /* \"--CODEGEN--\":8:17   */\n      dup1\n        /* \"--CODEGEN--\":5:7   */\n      iszero\n      tag_39\n      jumpi\n        /* \"--CODEGEN--\":30:31   */\n      0x00\n        /* \"--CODEGEN--\":27:28   */\n      dup1\n        /* \"--CODEGEN--\":20:32   */\n      revert\n        /* \"--CODEGEN--\":5:7   */\n    tag_39:\n        /* \"B4B.CONTRACTS/b4b.sol\":3596:3751  function BookStatus(uint _campaignID) public view returns (bool) {... */\n      pop\n      tag_40\n      0x04\n      dup1\n      calldatasize\n      sub\n        /* \"--CODEGEN--\":13:15   */\n      0x20\n        /* \"--CODEGEN--\":8:11   */\n      dup2\n        /* \"--CODEGEN--\":5:16   */\n      lt\n        /* \"--CODEGEN--\":2:4   */\n      iszero\n      tag_41\n      jumpi\n        /* \"--CODEGEN--\":29:30   */\n      0x00\n        /* \"--CODEGEN--\":26:27   */\n      dup1\n        /* \"--CODEGEN--\":19:31   */\n      revert\n        /* \"--CODEGEN--\":2:4   */\n    tag_41:\n        /* \"B4B.CONTRACTS/b4b.sol\":3596:3751  function BookStatus(uint _campaignID) public view returns (bool) {... */\n      dup2\n      add\n      swap1\n      dup1\n      dup1\n      calldataload\n      swap1\n      0x20\n      add\n      swap1\n      swap3\n      swap2\n      swap1\n      pop\n      pop\n      pop\n      tag_42\n      jump\t// in\n    tag_40:\n      mload(0x40)\n      dup1\n      dup3\n      iszero\n      iszero\n      iszero\n      iszero\n      dup2\n      mstore\n      0x20\n      add\n      swap2\n      pop\n      pop\n      mload(0x40)\n      dup1\n      swap2\n      sub\n      swap1\n      return\n        /* \"B4B.CONTRACTS/b4b.sol\":2333:2816  function CompleteAds (uint _campaignID) public {... */\n    tag_9:\n      callvalue\n        /* \"--CODEGEN--\":8:17   */\n      dup1\n        /* \"--CODEGEN--\":5:7   */\n      iszero\n      tag_43\n      jumpi\n        /* \"--CODEGEN--\":30:31   */\n      0x00\n        /* \"--CODEGEN--\":27:28   */\n      dup1\n        /* \"--CODEGEN--\":20:32   */\n      revert\n        /* \"--CODEGEN--\":5:7   */\n    tag_43:\n        /* \"B4B.CONTRACTS/b4b.sol\":2333:2816  function CompleteAds (uint _campaignID) public {... */\n      pop\n      tag_44\n      0x04\n      dup1\n      calldatasize\n      sub\n        /* \"--CODEGEN--\":13:15   */\n      0x20\n        /* \"--CODEGEN--\":8:11   */\n      dup2\n        /* \"--CODEGEN--\":5:16   */\n      lt\n        /* \"--CODEGEN--\":2:4   */\n      iszero\n      tag_45\n      jumpi\n        /* \"--CODEGEN--\":29:30   */\n      0x00\n        /* \"--CODEGEN--\":26:27   */\n      dup1\n        /* \"--CODEGEN--\":19:31   */\n      revert\n        /* \"--CODEGEN--\":2:4   */\n    tag_45:\n        /* \"B4B.CONTRACTS/b4b.sol\":2333:2816  function CompleteAds (uint _campaignID) public {... */\n      dup2\n      add\n      swap1\n      dup1\n      dup1\n      calldataload\n      swap1\n      0x20\n      add\n      swap1\n      swap3\n      swap2\n      swap1\n      pop\n      pop\n      pop\n      tag_46\n      jump\t// in\n    tag_44:\n      stop\n        /* \"B4B.CONTRACTS/b4b.sol\":4434:4598  function PointsBalance (address _influencer) public view returns (uint256) {... */\n    tag_10:\n      callvalue\n        /* \"--CODEGEN--\":8:17   */\n      dup1\n        /* \"--CODEGEN--\":5:7   */\n      iszero\n      tag_47\n      jumpi\n        /* \"--CODEGEN--\":30:31   */\n      0x00\n        /* \"--CODEGEN--\":27:28   */\n      dup1\n        /* \"--CODEGEN--\":20:32   */\n      revert\n        /* \"--CODEGEN--\":5:7   */\n    tag_47:\n        /* \"B4B.CONTRACTS/b4b.sol\":4434:4598  function PointsBalance (address _influencer) public view returns (uint256) {... */\n      pop\n      tag_48\n      0x04\n      dup1\n      calldatasize\n      sub\n        /* \"--CODEGEN--\":13:15   */\n      0x20\n        /* \"--CODEGEN--\":8:11   */\n      dup2\n        /* \"--CODEGEN--\":5:16   */\n      lt\n        /* \"--CODEGEN--\":2:4   */\n      iszero\n      tag_49\n      jumpi\n        /* \"--CODEGEN--\":29:30   */\n      0x00\n        /* \"--CODEGEN--\":26:27   */\n      dup1\n        /* \"--CODEGEN--\":19:31   */\n      revert\n        /* \"--CODEGEN--\":2:4   */\n    tag_49:\n        /* \"B4B.CONTRACTS/b4b.sol\":4434:4598  function PointsBalance (address _influencer) public view returns (uint256) {... */\n      dup2\n      add\n      swap1\n      dup1\n      dup1\n      calldataload\n      0xffffffffffffffffffffffffffffffffffffffff\n      and\n      swap1\n      0x20\n      add\n      swap1\n      swap3\n      swap2\n      swap1\n      pop\n      pop\n      pop\n      tag_50\n      jump\t// in\n    tag_48:\n      mload(0x40)\n      dup1\n      dup3\n      dup2\n      mstore\n      0x20\n      add\n      swap2\n      pop\n      pop\n      mload(0x40)\n      dup1\n      swap2\n      sub\n      swap1\n      return\n        /* \"B4B.CONTRACTS/b4b.sol\":3177:3590  function ReceiveSalary (uint _campaignID) public {... */\n    tag_11:\n      callvalue\n        /* \"--CODEGEN--\":8:17   */\n      dup1\n        /* \"--CODEGEN--\":5:7   */\n      iszero\n      tag_51\n      jumpi\n        /* \"--CODEGEN--\":30:31   */\n      0x00\n        /* \"--CODEGEN--\":27:28   */\n      dup1\n        /* \"--CODEGEN--\":20:32   */\n      revert\n        /* \"--CODEGEN--\":5:7   */\n    tag_51:\n        /* \"B4B.CONTRACTS/b4b.sol\":3177:3590  function ReceiveSalary (uint _campaignID) public {... */\n      pop\n      tag_52\n      0x04\n      dup1\n      calldatasize\n      sub\n        /* \"--CODEGEN--\":13:15   */\n      0x20\n        /* \"--CODEGEN--\":8:11   */\n      dup2\n        /* \"--CODEGEN--\":5:16   */\n      lt\n        /* \"--CODEGEN--\":2:4   */\n      iszero\n      tag_53\n      jumpi\n        /* \"--CODEGEN--\":29:30   */\n      0x00\n        /* \"--CODEGEN--\":26:27   */\n      dup1\n        /* \"--CODEGEN--\":19:31   */\n      revert\n        /* \"--CODEGEN--\":2:4   */\n    tag_53:\n        /* \"B4B.CONTRACTS/b4b.sol\":3177:3590  function ReceiveSalary (uint _campaignID) public {... */\n      dup2\n      add\n      swap1\n      dup1\n      dup1\n      calldataload\n      swap1\n      0x20\n      add\n      swap1\n      swap3\n      swap2\n      swap1\n      pop\n      pop\n      pop\n      tag_54\n      jump\t// in\n    tag_52:\n      stop\n        /* \"B4B.CONTRACTS/b4b.sol\":1887:2327  function AcceptBooking (uint _campaignID) public {... */\n    tag_12:\n      callvalue\n        /* \"--CODEGEN--\":8:17   */\n      dup1\n        /* \"--CODEGEN--\":5:7   */\n      iszero\n      tag_55\n      jumpi\n        /* \"--CODEGEN--\":30:31   */\n      0x00\n        /* \"--CODEGEN--\":27:28   */\n      dup1\n        /* \"--CODEGEN--\":20:32   */\n      revert\n        /* \"--CODEGEN--\":5:7   */\n    tag_55:\n        /* \"B4B.CONTRACTS/b4b.sol\":1887:2327  function AcceptBooking (uint _campaignID) public {... */\n      pop\n      tag_56\n      0x04\n      dup1\n      calldatasize\n      sub\n        /* \"--CODEGEN--\":13:15   */\n      0x20\n        /* \"--CODEGEN--\":8:11   */\n      dup2\n        /* \"--CODEGEN--\":5:16   */\n      lt\n        /* \"--CODEGEN--\":2:4   */\n      iszero\n      tag_57\n      jumpi\n        /* \"--CODEGEN--\":29:30   */\n      0x00\n        /* \"--CODEGEN--\":26:27   */\n      dup1\n        /* \"--CODEGEN--\":19:31   */\n      revert\n        /* \"--CODEGEN--\":2:4   */\n    tag_57:\n        /* \"B4B.CONTRACTS/b4b.sol\":1887:2327  function AcceptBooking (uint _campaignID) public {... */\n      dup2\n      add\n      swap1\n      dup1\n      dup1\n      calldataload\n      swap1\n      0x20\n      add\n      swap1\n      swap3\n      swap2\n      swap1\n      pop\n      pop\n      pop\n      tag_58\n      jump\t// in\n    tag_56:\n      stop\n        /* \"B4B.CONTRACTS/b4b.sol\":4272:4428  function PaidOnContract (uint _campaignID) public view returns (uint256) {... */\n    tag_13:\n      callvalue\n        /* \"--CODEGEN--\":8:17   */\n      dup1\n        /* \"--CODEGEN--\":5:7   */\n      iszero\n      tag_59\n      jumpi\n        /* \"--CODEGEN--\":30:31   */\n      0x00\n        /* \"--CODEGEN--\":27:28   */\n      dup1\n        /* \"--CODEGEN--\":20:32   */\n      revert\n        /* \"--CODEGEN--\":5:7   */\n    tag_59:\n        /* \"B4B.CONTRACTS/b4b.sol\":4272:4428  function PaidOnContract (uint _campaignID) public view returns (uint256) {... */\n      pop\n      tag_60\n      0x04\n      dup1\n      calldatasize\n      sub\n        /* \"--CODEGEN--\":13:15   */\n      0x20\n        /* \"--CODEGEN--\":8:11   */\n      dup2\n        /* \"--CODEGEN--\":5:16   */\n      lt\n        /* \"--CODEGEN--\":2:4   */\n      iszero\n      tag_61\n      jumpi\n        /* \"--CODEGEN--\":29:30   */\n      0x00\n        /* \"--CODEGEN--\":26:27   */\n      dup1\n        /* \"--CODEGEN--\":19:31   */\n      revert\n        /* \"--CODEGEN--\":2:4   */\n    tag_61:\n        /* \"B4B.CONTRACTS/b4b.sol\":4272:4428  function PaidOnContract (uint _campaignID) public view returns (uint256) {... */\n      dup2\n      add\n      swap1\n      dup1\n      dup1\n      calldataload\n      swap1\n      0x20\n      add\n      swap1\n      swap3\n      swap2\n      swap1\n      pop\n      pop\n      pop\n      tag_62\n      jump\t// in\n    tag_60:\n      mload(0x40)\n      dup1\n      dup3\n      dup2\n      mstore\n      0x20\n      add\n      swap2\n      pop\n      pop\n      mload(0x40)\n      dup1\n      swap2\n      sub\n      swap1\n      return\n        /* \"B4B.CONTRACTS/b4b.sol\":1152:1326  function ChangePrice (uint256 _price) public {... */\n    tag_14:\n      callvalue\n        /* \"--CODEGEN--\":8:17   */\n      dup1\n        /* \"--CODEGEN--\":5:7   */\n      iszero\n      tag_63\n      jumpi\n        /* \"--CODEGEN--\":30:31   */\n      0x00\n        /* \"--CODEGEN--\":27:28   */\n      dup1\n        /* \"--CODEGEN--\":20:32   */\n      revert\n        /* \"--CODEGEN--\":5:7   */\n    tag_63:\n        /* \"B4B.CONTRACTS/b4b.sol\":1152:1326  function ChangePrice (uint256 _price) public {... */\n      pop\n      tag_64\n      0x04\n      dup1\n      calldatasize\n      sub\n        /* \"--CODEGEN--\":13:15   */\n      0x20\n        /* \"--CODEGEN--\":8:11   */\n      dup2\n        /* \"--CODEGEN--\":5:16   */\n      lt\n        /* \"--CODEGEN--\":2:4   */\n      iszero\n      tag_65\n      jumpi\n        /* \"--CODEGEN--\":29:30   */\n      0x00\n        /* \"--CODEGEN--\":26:27   */\n      dup1\n        /* \"--CODEGEN--\":19:31   */\n      revert\n        /* \"--CODEGEN--\":2:4   */\n    tag_65:\n        /* \"B4B.CONTRACTS/b4b.sol\":1152:1326  function ChangePrice (uint256 _price) public {... */\n      dup2\n      add\n      swap1\n      dup1\n      dup1\n      calldataload\n      swap1\n      0x20\n      add\n      swap1\n      swap3\n      swap2\n      swap1\n      pop\n      pop\n      pop\n      tag_66\n      jump\t// in\n    tag_64:\n      stop\n        /* \"B4B.CONTRACTS/b4b.sol\":2822:3171  function ApproveAds (uint _campaignID) public {... */\n    tag_20:\n        /* \"B4B.CONTRACTS/b4b.sol\":2878:2896  Campaign storage c */\n      0x00\n        /* \"B4B.CONTRACTS/b4b.sol\":2899:2908  campaigns */\n      0x03\n        /* \"B4B.CONTRACTS/b4b.sol\":2899:2921  campaigns[_campaignID] */\n      0x00\n        /* \"B4B.CONTRACTS/b4b.sol\":2909:2920  _campaignID */\n      dup4\n        /* \"B4B.CONTRACTS/b4b.sol\":2899:2921  campaigns[_campaignID] */\n      dup2\n      mstore\n      0x20\n      add\n      swap1\n      dup2\n      mstore\n      0x20\n      add\n      0x00\n      keccak256\n        /* \"B4B.CONTRACTS/b4b.sol\":2878:2921  Campaign storage c = campaigns[_campaignID] */\n      swap1\n      pop\n        /* \"B4B.CONTRACTS/b4b.sol\":2954:2964  msg.sender */\n      caller\n        /* \"B4B.CONTRACTS/b4b.sol\":2940:2964  c.brand_addr==msg.sender */\n      0xffffffffffffffffffffffffffffffffffffffff\n      and\n        /* \"B4B.CONTRACTS/b4b.sol\":2940:2941  c */\n      dup2\n        /* \"B4B.CONTRACTS/b4b.sol\":2940:2952  c.brand_addr */\n      0x00\n      add\n      0x00\n      swap1\n      sload\n      swap1\n      0x0100\n      exp\n      swap1\n      div\n      0xffffffffffffffffffffffffffffffffffffffff\n      and\n        /* \"B4B.CONTRACTS/b4b.sol\":2940:2964  c.brand_addr==msg.sender */\n      0xffffffffffffffffffffffffffffffffffffffff\n      and\n      eq\n        /* \"B4B.CONTRACTS/b4b.sol\":2931:2965  require (c.brand_addr==msg.sender) */\n      tag_68\n      jumpi\n      0x00\n      dup1\n      revert\n    tag_68:\n        /* \"B4B.CONTRACTS/b4b.sol\":2999:3003  true */\n      0x01\n        /* \"B4B.CONTRACTS/b4b.sol\":2984:3003  c.book_status==true */\n      iszero\n      iszero\n        /* \"B4B.CONTRACTS/b4b.sol\":2984:2985  c */\n      dup2\n        /* \"B4B.CONTRACTS/b4b.sol\":2984:2997  c.book_status */\n      0x03\n      add\n      0x00\n      swap1\n      sload\n      swap1\n      0x0100\n      exp\n      swap1\n      div\n      0xff\n      and\n        /* \"B4B.CONTRACTS/b4b.sol\":2984:3003  c.book_status==true */\n      iszero\n      iszero\n      eq\n        /* \"B4B.CONTRACTS/b4b.sol\":2975:3004  require (c.book_status==true) */\n      tag_69\n      jumpi\n      0x00\n      dup1\n      revert\n    tag_69:\n        /* \"B4B.CONTRACTS/b4b.sol\":3040:3044  true */\n      0x01\n        /* \"B4B.CONTRACTS/b4b.sol\":3023:3044  c.accept_status==true */\n      iszero\n      iszero\n        /* \"B4B.CONTRACTS/b4b.sol\":3023:3024  c */\n      dup2\n        /* \"B4B.CONTRACTS/b4b.sol\":3023:3038  c.accept_status */\n      0x03\n      add\n      0x01\n      swap1\n      sload\n      swap1\n      0x0100\n      exp\n      swap1\n      div\n      0xff\n      and\n        /* \"B4B.CONTRACTS/b4b.sol\":3023:3044  c.accept_status==true */\n      iszero\n      iszero\n      eq\n        /* \"B4B.CONTRACTS/b4b.sol\":3014:3045  require (c.accept_status==true) */\n      tag_70\n      jumpi\n      0x00\n      dup1\n      revert\n    tag_70:\n        /* \"B4B.CONTRACTS/b4b.sol\":3083:3087  true */\n      0x01\n        /* \"B4B.CONTRACTS/b4b.sol\":3064:3087  c.complete_status==true */\n      iszero\n      iszero\n        /* \"B4B.CONTRACTS/b4b.sol\":3064:3065  c */\n      dup2\n        /* \"B4B.CONTRACTS/b4b.sol\":3064:3081  c.complete_status */\n      0x03\n      add\n      0x02\n      swap1\n      sload\n      swap1\n      0x0100\n      exp\n      swap1\n      div\n      0xff\n      and\n        /* \"B4B.CONTRACTS/b4b.sol\":3064:3087  c.complete_status==true */\n      iszero\n      iszero\n      eq\n        /* \"B4B.CONTRACTS/b4b.sol\":3055:3088  require (c.complete_status==true) */\n      tag_71\n      jumpi\n      0x00\n      dup1\n      revert\n    tag_71:\n        /* \"B4B.CONTRACTS/b4b.sol\":3126:3131  false */\n      0x00\n        /* \"B4B.CONTRACTS/b4b.sol\":3107:3131  c.approved_status==false */\n      iszero\n      iszero\n        /* \"B4B.CONTRACTS/b4b.sol\":3107:3108  c */\n      dup2\n        /* \"B4B.CONTRACTS/b4b.sol\":3107:3124  c.approved_status */\n      0x03\n      add\n      0x03\n      swap1\n      sload\n      swap1\n      0x0100\n      exp\n      swap1\n      div\n      0xff\n      and\n        /* \"B4B.CONTRACTS/b4b.sol\":3107:3131  c.approved_status==false */\n      iszero\n      iszero\n      eq\n        /* \"B4B.CONTRACTS/b4b.sol\":3098:3132  require (c.approved_status==false) */\n      tag_72\n      jumpi\n      0x00\n      dup1\n      revert\n    tag_72:\n        /* \"B4B.CONTRACTS/b4b.sol\":3160:3164  true */\n      0x01\n        /* \"B4B.CONTRACTS/b4b.sol\":3142:3143  c */\n      dup2\n        /* \"B4B.CONTRACTS/b4b.sol\":3142:3159  c.approved_status */\n      0x03\n      add\n      0x03\n        /* \"B4B.CONTRACTS/b4b.sol\":3142:3164  c.approved_status=true */\n      0x0100\n      exp\n      dup2\n      sload\n      dup2\n      0xff\n      mul\n      not\n      and\n      swap1\n      dup4\n      iszero\n      iszero\n      mul\n      or\n      swap1\n      sstore\n      pop\n        /* \"B4B.CONTRACTS/b4b.sol\":2822:3171  function ApproveAds (uint _campaignID) public {... */\n      pop\n      pop\n      jump\t// out\n        /* \"B4B.CONTRACTS/b4b.sol\":4103:4266  function ApprovedStatus(uint _campaignID) public view returns (bool) {... */\n    tag_24:\n        /* \"B4B.CONTRACTS/b4b.sol\":4166:4170  bool */\n      0x00\n        /* \"B4B.CONTRACTS/b4b.sol\":4182:4200  Campaign storage c */\n      dup1\n        /* \"B4B.CONTRACTS/b4b.sol\":4203:4212  campaigns */\n      0x03\n        /* \"B4B.CONTRACTS/b4b.sol\":4203:4225  campaigns[_campaignID] */\n      0x00\n        /* \"B4B.CONTRACTS/b4b.sol\":4213:4224  _campaignID */\n      dup5\n        /* \"B4B.CONTRACTS/b4b.sol\":4203:4225  campaigns[_campaignID] */\n      dup2\n      mstore\n      0x20\n      add\n      swap1\n      dup2\n      mstore\n      0x20\n      add\n      0x00\n      keccak256\n        /* \"B4B.CONTRACTS/b4b.sol\":4182:4225  Campaign storage c = campaigns[_campaignID] */\n      swap1\n      pop\n        /* \"B4B.CONTRACTS/b4b.sol\":4242:4243  c */\n      dup1\n        /* \"B4B.CONTRACTS/b4b.sol\":4242:4259  c.approved_status */\n      0x03\n      add\n      0x03\n      swap1\n      sload\n      swap1\n      0x0100\n      exp\n      swap1\n      div\n      0xff\n      and\n        /* \"B4B.CONTRACTS/b4b.sol\":4235:4259  return c.approved_status */\n      swap2\n      pop\n      pop\n        /* \"B4B.CONTRACTS/b4b.sol\":4103:4266  function ApprovedStatus(uint _campaignID) public view returns (bool) {... */\n      swap2\n      swap1\n      pop\n      jump\t// out\n        /* \"B4B.CONTRACTS/b4b.sol\":4604:4924  function TakeCoins () public returns (uint256) {... */\n    tag_27:\n        /* \"B4B.CONTRACTS/b4b.sol\":4642:4649  uint256 */\n      0x00\n        /* \"B4B.CONTRACTS/b4b.sol\":4685:4692  30 days */\n      0x278d00\n        /* \"B4B.CONTRACTS/b4b.sol\":4674:4684  deployDate */\n      sload(0x00)\n        /* \"B4B.CONTRACTS/b4b.sol\":4670:4673  now */\n      timestamp\n        /* \"B4B.CONTRACTS/b4b.sol\":4670:4684  now-deployDate */\n      sub\n        /* \"B4B.CONTRACTS/b4b.sol\":4670:4692  now-deployDate>30 days */\n      gt\n        /* \"B4B.CONTRACTS/b4b.sol\":4661:4693  require (now-deployDate>30 days) */\n      tag_75\n      jumpi\n      0x00\n      dup1\n      revert\n    tag_75:\n        /* \"B4B.CONTRACTS/b4b.sol\":4712:4732  Influencer storage i */\n      0x00\n        /* \"B4B.CONTRACTS/b4b.sol\":4735:4746  influencers */\n      0x04\n        /* \"B4B.CONTRACTS/b4b.sol\":4735:4758  influencers[msg.sender] */\n      0x00\n        /* \"B4B.CONTRACTS/b4b.sol\":4747:4757  msg.sender */\n      caller\n        /* \"B4B.CONTRACTS/b4b.sol\":4735:4758  influencers[msg.sender] */\n      0xffffffffffffffffffffffffffffffffffffffff\n      and\n      0xffffffffffffffffffffffffffffffffffffffff\n      and\n      dup2\n      mstore\n      0x20\n      add\n      swap1\n      dup2\n      mstore\n      0x20\n      add\n      0x00\n      keccak256\n        /* \"B4B.CONTRACTS/b4b.sol\":4712:4758  Influencer storage i = influencers[msg.sender] */\n      swap1\n      pop\n        /* \"B4B.CONTRACTS/b4b.sol\":4802:4809  30 days */\n      0x278d00\n        /* \"B4B.CONTRACTS/b4b.sol\":4781:4801  lastDistributionDate */\n      sload(0x01)\n        /* \"B4B.CONTRACTS/b4b.sol\":4777:4780  now */\n      timestamp\n        /* \"B4B.CONTRACTS/b4b.sol\":4777:4801  now-lastDistributionDate */\n      sub\n        /* \"B4B.CONTRACTS/b4b.sol\":4777:4809  now-lastDistributionDate>30 days */\n      gt\n        /* \"B4B.CONTRACTS/b4b.sol\":4768:4810  require (now-lastDistributionDate>30 days) */\n      tag_76\n      jumpi\n      0x00\n      dup1\n      revert\n    tag_76:\n        /* \"B4B.CONTRACTS/b4b.sol\":4840:4843  100 */\n      0x64\n        /* \"B4B.CONTRACTS/b4b.sol\":4831:4832  i */\n      dup2\n        /* \"B4B.CONTRACTS/b4b.sol\":4831:4839  i.points */\n      0x02\n      add\n      sload\n        /* \"B4B.CONTRACTS/b4b.sol\":4831:4843  i.points*100 */\n      mul\n        /* \"B4B.CONTRACTS/b4b.sol\":4821:4822  i */\n      dup2\n        /* \"B4B.CONTRACTS/b4b.sol\":4821:4828  i.coins */\n      0x03\n      add\n        /* \"B4B.CONTRACTS/b4b.sol\":4821:4843  i.coins = i.points*100 */\n      dup2\n      swap1\n      sstore\n      pop\n        /* \"B4B.CONTRACTS/b4b.sol\":4877:4884  30 days */\n      0x278d00\n        /* \"B4B.CONTRACTS/b4b.sol\":4854:4874  lastDistributionDate */\n      0x01\n      0x00\n        /* \"B4B.CONTRACTS/b4b.sol\":4854:4884  lastDistributionDate+= 30 days */\n      dup3\n      dup3\n      sload\n      add\n      swap3\n      pop\n      pop\n      dup2\n      swap1\n      sstore\n      pop\n        /* \"B4B.CONTRACTS/b4b.sol\":4910:4911  i */\n      dup1\n        /* \"B4B.CONTRACTS/b4b.sol\":4910:4917  i.coins */\n      0x03\n      add\n      sload\n        /* \"B4B.CONTRACTS/b4b.sol\":4903:4917  return i.coins */\n      swap2\n      pop\n      pop\n        /* \"B4B.CONTRACTS/b4b.sol\":4604:4924  function TakeCoins () public returns (uint256) {... */\n      swap1\n      jump\t// out\n        /* \"B4B.CONTRACTS/b4b.sol\":1332:1881  function NewBooking (address  _influencer, uint _date) public payable returns (uint campaignID) {... */\n    tag_30:\n        /* \"B4B.CONTRACTS/b4b.sol\":1411:1426  uint campaignID */\n      0x00\n        /* \"B4B.CONTRACTS/b4b.sol\":1438:1458  Influencer storage i */\n      dup1\n        /* \"B4B.CONTRACTS/b4b.sol\":1461:1472  influencers */\n      0x04\n        /* \"B4B.CONTRACTS/b4b.sol\":1461:1485  influencers[_influencer] */\n      0x00\n        /* \"B4B.CONTRACTS/b4b.sol\":1473:1484  _influencer */\n      dup6\n        /* \"B4B.CONTRACTS/b4b.sol\":1461:1485  influencers[_influencer] */\n      0xffffffffffffffffffffffffffffffffffffffff\n      and\n      0xffffffffffffffffffffffffffffffffffffffff\n      and\n      dup2\n      mstore\n      0x20\n      add\n      swap1\n      dup2\n      mstore\n      0x20\n      add\n      0x00\n      keccak256\n        /* \"B4B.CONTRACTS/b4b.sol\":1438:1485  Influencer storage i = influencers[_influencer] */\n      swap1\n      pop\n        /* \"B4B.CONTRACTS/b4b.sol\":1515:1524  msg.value */\n      callvalue\n        /* \"B4B.CONTRACTS/b4b.sol\":1504:1505  i */\n      dup2\n        /* \"B4B.CONTRACTS/b4b.sol\":1504:1511  i.price */\n      0x01\n      add\n      sload\n        /* \"B4B.CONTRACTS/b4b.sol\":1504:1524  i.price == msg.value */\n      eq\n        /* \"B4B.CONTRACTS/b4b.sol\":1495:1525  require (i.price == msg.value) */\n      tag_78\n      jumpi\n      0x00\n      dup1\n      revert\n    tag_78:\n        /* \"B4B.CONTRACTS/b4b.sol\":1547:1559  numCampaigns */\n      0x02\n      0x00\n        /* \"B4B.CONTRACTS/b4b.sol\":1547:1561  numCampaigns++ */\n      dup2\n      sload\n      dup1\n      swap3\n      swap2\n      swap1\n      0x01\n      add\n      swap2\n      swap1\n      pop\n      sstore\n        /* \"B4B.CONTRACTS/b4b.sol\":1536:1561  campaignID=numCampaigns++ */\n      swap2\n      pop\n        /* \"B4B.CONTRACTS/b4b.sol\":1571:1589  Campaign storage c */\n      0x00\n        /* \"B4B.CONTRACTS/b4b.sol\":1592:1601  campaigns */\n      0x03\n        /* \"B4B.CONTRACTS/b4b.sol\":1592:1613  campaigns[campaignID] */\n      0x00\n        /* \"B4B.CONTRACTS/b4b.sol\":1602:1612  campaignID */\n      dup5\n        /* \"B4B.CONTRACTS/b4b.sol\":1592:1613  campaigns[campaignID] */\n      dup2\n      mstore\n      0x20\n      add\n      swap1\n      dup2\n      mstore\n      0x20\n      add\n      0x00\n      keccak256\n        /* \"B4B.CONTRACTS/b4b.sol\":1571:1613  Campaign storage c = campaigns[campaignID] */\n      swap1\n      pop\n        /* \"B4B.CONTRACTS/b4b.sol\":1638:1648  msg.sender */\n      caller\n        /* \"B4B.CONTRACTS/b4b.sol\":1623:1624  c */\n      dup2\n        /* \"B4B.CONTRACTS/b4b.sol\":1623:1635  c.brand_addr */\n      0x00\n      add\n      0x00\n        /* \"B4B.CONTRACTS/b4b.sol\":1623:1648  c.brand_addr = msg.sender */\n      0x0100\n      exp\n      dup2\n      sload\n      dup2\n      0xffffffffffffffffffffffffffffffffffffffff\n      mul\n      not\n      and\n      swap1\n      dup4\n      0xffffffffffffffffffffffffffffffffffffffff\n      and\n      mul\n      or\n      swap1\n      sstore\n      pop\n        /* \"B4B.CONTRACTS/b4b.sol\":1678:1689  _influencer */\n      dup5\n        /* \"B4B.CONTRACTS/b4b.sol\":1658:1659  c */\n      dup2\n        /* \"B4B.CONTRACTS/b4b.sol\":1658:1675  c.influencer_addr */\n      0x01\n      add\n      0x00\n        /* \"B4B.CONTRACTS/b4b.sol\":1658:1689  c.influencer_addr = _influencer */\n      0x0100\n      exp\n      dup2\n      sload\n      dup2\n      0xffffffffffffffffffffffffffffffffffffffff\n      mul\n      not\n      and\n      swap1\n      dup4\n      0xffffffffffffffffffffffffffffffffffffffff\n      and\n      mul\n      or\n      swap1\n      sstore\n      pop\n        /* \"B4B.CONTRACTS/b4b.sol\":1708:1713  _date */\n      dup4\n        /* \"B4B.CONTRACTS/b4b.sol\":1699:1700  c */\n      dup2\n        /* \"B4B.CONTRACTS/b4b.sol\":1699:1705  c.date */\n      0x02\n      add\n        /* \"B4B.CONTRACTS/b4b.sol\":1699:1713  c.date = _date */\n      dup2\n      swap1\n      sstore\n      pop\n        /* \"B4B.CONTRACTS/b4b.sol\":1739:1743  true */\n      0x01\n        /* \"B4B.CONTRACTS/b4b.sol\":1723:1724  c */\n      dup2\n        /* \"B4B.CONTRACTS/b4b.sol\":1723:1736  c.book_status */\n      0x03\n      add\n      0x00\n        /* \"B4B.CONTRACTS/b4b.sol\":1723:1743  c.book_status = true */\n      0x0100\n      exp\n      dup2\n      sload\n      dup2\n      0xff\n      mul\n      not\n      and\n      swap1\n      dup4\n      iszero\n      iszero\n      mul\n      or\n      swap1\n      sstore\n      pop\n        /* \"B4B.CONTRACTS/b4b.sol\":1771:1776  false */\n      0x00\n        /* \"B4B.CONTRACTS/b4b.sol\":1753:1754  c */\n      dup2\n        /* \"B4B.CONTRACTS/b4b.sol\":1753:1768  c.accept_status */\n      0x03\n      add\n      0x01\n        /* \"B4B.CONTRACTS/b4b.sol\":1753:1776  c.accept_status = false */\n      0x0100\n      exp\n      dup2\n      sload\n      dup2\n      0xff\n      mul\n      not\n      and\n      swap1\n      dup4\n      iszero\n      iszero\n      mul\n      or\n      swap1\n      sstore\n      pop\n        /* \"B4B.CONTRACTS/b4b.sol\":1806:1811  false */\n      0x00\n        /* \"B4B.CONTRACTS/b4b.sol\":1786:1787  c */\n      dup2\n        /* \"B4B.CONTRACTS/b4b.sol\":1786:1803  c.complete_status */\n      0x03\n      add\n      0x02\n        /* \"B4B.CONTRACTS/b4b.sol\":1786:1811  c.complete_status = false */\n      0x0100\n      exp\n      dup2\n      sload\n      dup2\n      0xff\n      mul\n      not\n      and\n      swap1\n      dup4\n      iszero\n      iszero\n      mul\n      or\n      swap1\n      sstore\n      pop\n        /* \"B4B.CONTRACTS/b4b.sol\":1841:1846  false */\n      0x00\n        /* \"B4B.CONTRACTS/b4b.sol\":1821:1822  c */\n      dup2\n        /* \"B4B.CONTRACTS/b4b.sol\":1821:1838  c.approved_status */\n      0x03\n      add\n      0x03\n        /* \"B4B.CONTRACTS/b4b.sol\":1821:1846  c.approved_status = false */\n      0x0100\n      exp\n      dup2\n      sload\n      dup2\n      0xff\n      mul\n      not\n      and\n      swap1\n      dup4\n      iszero\n      iszero\n      mul\n      or\n      swap1\n      sstore\n      pop\n        /* \"B4B.CONTRACTS/b4b.sol\":1865:1874  msg.value */\n      callvalue\n        /* \"B4B.CONTRACTS/b4b.sol\":1856:1857  c */\n      dup2\n        /* \"B4B.CONTRACTS/b4b.sol\":1856:1862  c.paid */\n      0x04\n      add\n        /* \"B4B.CONTRACTS/b4b.sol\":1856:1874  c.paid = msg.value */\n      dup2\n      swap1\n      sstore\n      pop\n        /* \"B4B.CONTRACTS/b4b.sol\":1332:1881  function NewBooking (address  _influencer, uint _date) public payable returns (uint campaignID) {... */\n      pop\n      pop\n      swap3\n      swap2\n      pop\n      pop\n      jump\t// out\n        /* \"B4B.CONTRACTS/b4b.sol\":3761:3920  function AcceptStatus(uint _campaignID) public view returns (bool) {... */\n    tag_34:\n        /* \"B4B.CONTRACTS/b4b.sol\":3822:3826  bool */\n      0x00\n        /* \"B4B.CONTRACTS/b4b.sol\":3838:3856  Campaign storage c */\n      dup1\n        /* \"B4B.CONTRACTS/b4b.sol\":3859:3868  campaigns */\n      0x03\n        /* \"B4B.CONTRACTS/b4b.sol\":3859:3881  campaigns[_campaignID] */\n      0x00\n        /* \"B4B.CONTRACTS/b4b.sol\":3869:3880  _campaignID */\n      dup5\n        /* \"B4B.CONTRACTS/b4b.sol\":3859:3881  campaigns[_campaignID] */\n      dup2\n      mstore\n      0x20\n      add\n      swap1\n      dup2\n      mstore\n      0x20\n      add\n      0x00\n      keccak256\n        /* \"B4B.CONTRACTS/b4b.sol\":3838:3881  Campaign storage c = campaigns[_campaignID] */\n      swap1\n      pop\n        /* \"B4B.CONTRACTS/b4b.sol\":3898:3899  c */\n      dup1\n        /* \"B4B.CONTRACTS/b4b.sol\":3898:3913  c.accept_status */\n      0x03\n      add\n      0x01\n      swap1\n      sload\n      swap1\n      0x0100\n      exp\n      swap1\n      div\n      0xff\n      and\n        /* \"B4B.CONTRACTS/b4b.sol\":3891:3913  return c.accept_status */\n      swap2\n      pop\n      pop\n        /* \"B4B.CONTRACTS/b4b.sol\":3761:3920  function AcceptStatus(uint _campaignID) public view returns (bool) {... */\n      swap2\n      swap1\n      pop\n      jump\t// out\n        /* \"B4B.CONTRACTS/b4b.sol\":3930:4093  function CompleteStatus(uint _campaignID) public view returns (bool) {... */\n    tag_38:\n        /* \"B4B.CONTRACTS/b4b.sol\":3993:3997  bool */\n      0x00\n        /* \"B4B.CONTRACTS/b4b.sol\":4009:4027  Campaign storage c */\n      dup1\n        /* \"B4B.CONTRACTS/b4b.sol\":4030:4039  campaigns */\n      0x03\n        /* \"B4B.CONTRACTS/b4b.sol\":4030:4052  campaigns[_campaignID] */\n      0x00\n        /* \"B4B.CONTRACTS/b4b.sol\":4040:4051  _campaignID */\n      dup5\n        /* \"B4B.CONTRACTS/b4b.sol\":4030:4052  campaigns[_campaignID] */\n      dup2\n      mstore\n      0x20\n      add\n      swap1\n      dup2\n      mstore\n      0x20\n      add\n      0x00\n      keccak256\n        /* \"B4B.CONTRACTS/b4b.sol\":4009:4052  Campaign storage c = campaigns[_campaignID] */\n      swap1\n      pop\n        /* \"B4B.CONTRACTS/b4b.sol\":4069:4070  c */\n      dup1\n        /* \"B4B.CONTRACTS/b4b.sol\":4069:4086  c.complete_status */\n      0x03\n      add\n      0x02\n      swap1\n      sload\n      swap1\n      0x0100\n      exp\n      swap1\n      div\n      0xff\n      and\n        /* \"B4B.CONTRACTS/b4b.sol\":4062:4086  return c.complete_status */\n      swap2\n      pop\n      pop\n        /* \"B4B.CONTRACTS/b4b.sol\":3930:4093  function CompleteStatus(uint _campaignID) public view returns (bool) {... */\n      swap2\n      swap1\n      pop\n      jump\t// out\n        /* \"B4B.CONTRACTS/b4b.sol\":3596:3751  function BookStatus(uint _campaignID) public view returns (bool) {... */\n    tag_42:\n        /* \"B4B.CONTRACTS/b4b.sol\":3655:3659  bool */\n      0x00\n        /* \"B4B.CONTRACTS/b4b.sol\":3671:3689  Campaign storage c */\n      dup1\n        /* \"B4B.CONTRACTS/b4b.sol\":3692:3701  campaigns */\n      0x03\n        /* \"B4B.CONTRACTS/b4b.sol\":3692:3714  campaigns[_campaignID] */\n      0x00\n        /* \"B4B.CONTRACTS/b4b.sol\":3702:3713  _campaignID */\n      dup5\n        /* \"B4B.CONTRACTS/b4b.sol\":3692:3714  campaigns[_campaignID] */\n      dup2\n      mstore\n      0x20\n      add\n      swap1\n      dup2\n      mstore\n      0x20\n      add\n      0x00\n      keccak256\n        /* \"B4B.CONTRACTS/b4b.sol\":3671:3714  Campaign storage c = campaigns[_campaignID] */\n      swap1\n      pop\n        /* \"B4B.CONTRACTS/b4b.sol\":3731:3732  c */\n      dup1\n        /* \"B4B.CONTRACTS/b4b.sol\":3731:3744  c.book_status */\n      0x03\n      add\n      0x00\n      swap1\n      sload\n      swap1\n      0x0100\n      exp\n      swap1\n      div\n      0xff\n      and\n        /* \"B4B.CONTRACTS/b4b.sol\":3724:3744  return c.book_status */\n      swap2\n      pop\n      pop\n        /* \"B4B.CONTRACTS/b4b.sol\":3596:3751  function BookStatus(uint _campaignID) public view returns (bool) {... */\n      swap2\n      swap1\n      pop\n      jump\t// out\n        /* \"B4B.CONTRACTS/b4b.sol\":2333:2816  function CompleteAds (uint _campaignID) public {... */\n    tag_46:\n        /* \"B4B.CONTRACTS/b4b.sol\":2390:2408  Campaign storage c */\n      0x00\n        /* \"B4B.CONTRACTS/b4b.sol\":2411:2420  campaigns */\n      0x03\n        /* \"B4B.CONTRACTS/b4b.sol\":2411:2433  campaigns[_campaignID] */\n      0x00\n        /* \"B4B.CONTRACTS/b4b.sol\":2421:2432  _campaignID */\n      dup4\n        /* \"B4B.CONTRACTS/b4b.sol\":2411:2433  campaigns[_campaignID] */\n      dup2\n      mstore\n      0x20\n      add\n      swap1\n      dup2\n      mstore\n      0x20\n      add\n      0x00\n      keccak256\n        /* \"B4B.CONTRACTS/b4b.sol\":2390:2433  Campaign storage c = campaigns[_campaignID] */\n      swap1\n      pop\n        /* \"B4B.CONTRACTS/b4b.sol\":2471:2481  msg.sender */\n      caller\n        /* \"B4B.CONTRACTS/b4b.sol\":2452:2481  c.influencer_addr==msg.sender */\n      0xffffffffffffffffffffffffffffffffffffffff\n      and\n        /* \"B4B.CONTRACTS/b4b.sol\":2452:2453  c */\n      dup2\n        /* \"B4B.CONTRACTS/b4b.sol\":2452:2469  c.influencer_addr */\n      0x01\n      add\n      0x00\n      swap1\n      sload\n      swap1\n      0x0100\n      exp\n      swap1\n      div\n      0xffffffffffffffffffffffffffffffffffffffff\n      and\n        /* \"B4B.CONTRACTS/b4b.sol\":2452:2481  c.influencer_addr==msg.sender */\n      0xffffffffffffffffffffffffffffffffffffffff\n      and\n      eq\n        /* \"B4B.CONTRACTS/b4b.sol\":2443:2482  require (c.influencer_addr==msg.sender) */\n      tag_83\n      jumpi\n      0x00\n      dup1\n      revert\n    tag_83:\n        /* \"B4B.CONTRACTS/b4b.sol\":2516:2520  true */\n      0x01\n        /* \"B4B.CONTRACTS/b4b.sol\":2501:2520  c.book_status==true */\n      iszero\n      iszero\n        /* \"B4B.CONTRACTS/b4b.sol\":2501:2502  c */\n      dup2\n        /* \"B4B.CONTRACTS/b4b.sol\":2501:2514  c.book_status */\n      0x03\n      add\n      0x00\n      swap1\n      sload\n      swap1\n      0x0100\n      exp\n      swap1\n      div\n      0xff\n      and\n        /* \"B4B.CONTRACTS/b4b.sol\":2501:2520  c.book_status==true */\n      iszero\n      iszero\n      eq\n        /* \"B4B.CONTRACTS/b4b.sol\":2492:2521  require (c.book_status==true) */\n      tag_84\n      jumpi\n      0x00\n      dup1\n      revert\n    tag_84:\n        /* \"B4B.CONTRACTS/b4b.sol\":2557:2561  true */\n      0x01\n        /* \"B4B.CONTRACTS/b4b.sol\":2540:2561  c.accept_status==true */\n      iszero\n      iszero\n        /* \"B4B.CONTRACTS/b4b.sol\":2540:2541  c */\n      dup2\n        /* \"B4B.CONTRACTS/b4b.sol\":2540:2555  c.accept_status */\n      0x03\n      add\n      0x01\n      swap1\n      sload\n      swap1\n      0x0100\n      exp\n      swap1\n      div\n      0xff\n      and\n        /* \"B4B.CONTRACTS/b4b.sol\":2540:2561  c.accept_status==true */\n      iszero\n      iszero\n      eq\n        /* \"B4B.CONTRACTS/b4b.sol\":2531:2562  require (c.accept_status==true) */\n      tag_85\n      jumpi\n      0x00\n      dup1\n      revert\n    tag_85:\n        /* \"B4B.CONTRACTS/b4b.sol\":2600:2605  false */\n      0x00\n        /* \"B4B.CONTRACTS/b4b.sol\":2581:2605  c.complete_status==false */\n      iszero\n      iszero\n        /* \"B4B.CONTRACTS/b4b.sol\":2581:2582  c */\n      dup2\n        /* \"B4B.CONTRACTS/b4b.sol\":2581:2598  c.complete_status */\n      0x03\n      add\n      0x02\n      swap1\n      sload\n      swap1\n      0x0100\n      exp\n      swap1\n      div\n      0xff\n      and\n        /* \"B4B.CONTRACTS/b4b.sol\":2581:2605  c.complete_status==false */\n      iszero\n      iszero\n      eq\n        /* \"B4B.CONTRACTS/b4b.sol\":2572:2606  require (c.complete_status==false) */\n      tag_86\n      jumpi\n      0x00\n      dup1\n      revert\n    tag_86:\n        /* \"B4B.CONTRACTS/b4b.sol\":2634:2638  true */\n      0x01\n        /* \"B4B.CONTRACTS/b4b.sol\":2616:2617  c */\n      dup2\n        /* \"B4B.CONTRACTS/b4b.sol\":2616:2633  c.complete_status */\n      0x03\n      add\n      0x02\n        /* \"B4B.CONTRACTS/b4b.sol\":2616:2638  c.complete_status=true */\n      0x0100\n      exp\n      dup2\n      sload\n      dup2\n      0xff\n      mul\n      not\n      and\n      swap1\n      dup4\n      iszero\n      iszero\n      mul\n      or\n      swap1\n      sstore\n      pop\n        /* \"B4B.CONTRACTS/b4b.sol\":2696:2716  Influencer storage i */\n      0x00\n        /* \"B4B.CONTRACTS/b4b.sol\":2719:2730  influencers */\n      0x04\n        /* \"B4B.CONTRACTS/b4b.sol\":2719:2742  influencers[msg.sender] */\n      0x00\n        /* \"B4B.CONTRACTS/b4b.sol\":2731:2741  msg.sender */\n      caller\n        /* \"B4B.CONTRACTS/b4b.sol\":2719:2742  influencers[msg.sender] */\n      0xffffffffffffffffffffffffffffffffffffffff\n      and\n      0xffffffffffffffffffffffffffffffffffffffff\n      and\n      dup2\n      mstore\n      0x20\n      add\n      swap1\n      dup2\n      mstore\n      0x20\n      add\n      0x00\n      keccak256\n        /* \"B4B.CONTRACTS/b4b.sol\":2696:2742  Influencer storage i = influencers[msg.sender] */\n      swap1\n      pop\n        /* \"B4B.CONTRACTS/b4b.sol\":2762:2764  10 */\n      0x0a\n        /* \"B4B.CONTRACTS/b4b.sol\":2752:2753  i */\n      dup2\n        /* \"B4B.CONTRACTS/b4b.sol\":2752:2760  i.points */\n      0x02\n      add\n      0x00\n        /* \"B4B.CONTRACTS/b4b.sol\":2752:2764  i.points+=10 */\n      dup3\n      dup3\n      sload\n      add\n      swap3\n      pop\n      pop\n      dup2\n      swap1\n      sstore\n      pop\n        /* \"B4B.CONTRACTS/b4b.sol\":2333:2816  function CompleteAds (uint _campaignID) public {... */\n      pop\n      pop\n      pop\n      jump\t// out\n        /* \"B4B.CONTRACTS/b4b.sol\":4434:4598  function PointsBalance (address _influencer) public view returns (uint256) {... */\n    tag_50:\n        /* \"B4B.CONTRACTS/b4b.sol\":4500:4507  uint256 */\n      0x00\n        /* \"B4B.CONTRACTS/b4b.sol\":4519:4539  Influencer storage i */\n      dup1\n        /* \"B4B.CONTRACTS/b4b.sol\":4542:4553  influencers */\n      0x04\n        /* \"B4B.CONTRACTS/b4b.sol\":4542:4566  influencers[_influencer] */\n      0x00\n        /* \"B4B.CONTRACTS/b4b.sol\":4554:4565  _influencer */\n      dup5\n        /* \"B4B.CONTRACTS/b4b.sol\":4542:4566  influencers[_influencer] */\n      0xffffffffffffffffffffffffffffffffffffffff\n      and\n      0xffffffffffffffffffffffffffffffffffffffff\n      and\n      dup2\n      mstore\n      0x20\n      add\n      swap1\n      dup2\n      mstore\n      0x20\n      add\n      0x00\n      keccak256\n        /* \"B4B.CONTRACTS/b4b.sol\":4519:4566  Influencer storage i = influencers[_influencer] */\n      swap1\n      pop\n        /* \"B4B.CONTRACTS/b4b.sol\":4583:4584  i */\n      dup1\n        /* \"B4B.CONTRACTS/b4b.sol\":4583:4591  i.points */\n      0x02\n      add\n      sload\n        /* \"B4B.CONTRACTS/b4b.sol\":4576:4591  return i.points */\n      swap2\n      pop\n      pop\n        /* \"B4B.CONTRACTS/b4b.sol\":4434:4598  function PointsBalance (address _influencer) public view returns (uint256) {... */\n      swap2\n      swap1\n      pop\n      jump\t// out\n        /* \"B4B.CONTRACTS/b4b.sol\":3177:3590  function ReceiveSalary (uint _campaignID) public {... */\n    tag_54:\n        /* \"B4B.CONTRACTS/b4b.sol\":3236:3254  Campaign storage c */\n      0x00\n        /* \"B4B.CONTRACTS/b4b.sol\":3257:3266  campaigns */\n      0x03\n        /* \"B4B.CONTRACTS/b4b.sol\":3257:3279  campaigns[_campaignID] */\n      0x00\n        /* \"B4B.CONTRACTS/b4b.sol\":3267:3278  _campaignID */\n      dup4\n        /* \"B4B.CONTRACTS/b4b.sol\":3257:3279  campaigns[_campaignID] */\n      dup2\n      mstore\n      0x20\n      add\n      swap1\n      dup2\n      mstore\n      0x20\n      add\n      0x00\n      keccak256\n        /* \"B4B.CONTRACTS/b4b.sol\":3236:3279  Campaign storage c = campaigns[_campaignID] */\n      swap1\n      pop\n        /* \"B4B.CONTRACTS/b4b.sol\":3317:3327  msg.sender */\n      caller\n        /* \"B4B.CONTRACTS/b4b.sol\":3298:3327  c.influencer_addr==msg.sender */\n      0xffffffffffffffffffffffffffffffffffffffff\n      and\n        /* \"B4B.CONTRACTS/b4b.sol\":3298:3299  c */\n      dup2\n        /* \"B4B.CONTRACTS/b4b.sol\":3298:3315  c.influencer_addr */\n      0x01\n      add\n      0x00\n      swap1\n      sload\n      swap1\n      0x0100\n      exp\n      swap1\n      div\n      0xffffffffffffffffffffffffffffffffffffffff\n      and\n        /* \"B4B.CONTRACTS/b4b.sol\":3298:3327  c.influencer_addr==msg.sender */\n      0xffffffffffffffffffffffffffffffffffffffff\n      and\n      eq\n        /* \"B4B.CONTRACTS/b4b.sol\":3289:3328  require (c.influencer_addr==msg.sender) */\n      tag_89\n      jumpi\n      0x00\n      dup1\n      revert\n    tag_89:\n        /* \"B4B.CONTRACTS/b4b.sol\":3362:3366  true */\n      0x01\n        /* \"B4B.CONTRACTS/b4b.sol\":3347:3366  c.book_status==true */\n      iszero\n      iszero\n        /* \"B4B.CONTRACTS/b4b.sol\":3347:3348  c */\n      dup2\n        /* \"B4B.CONTRACTS/b4b.sol\":3347:3360  c.book_status */\n      0x03\n      add\n      0x00\n      swap1\n      sload\n      swap1\n      0x0100\n      exp\n      swap1\n      div\n      0xff\n      and\n        /* \"B4B.CONTRACTS/b4b.sol\":3347:3366  c.book_status==true */\n      iszero\n      iszero\n      eq\n        /* \"B4B.CONTRACTS/b4b.sol\":3338:3367  require (c.book_status==true) */\n      tag_90\n      jumpi\n      0x00\n      dup1\n      revert\n    tag_90:\n        /* \"B4B.CONTRACTS/b4b.sol\":3403:3407  true */\n      0x01\n        /* \"B4B.CONTRACTS/b4b.sol\":3386:3407  c.accept_status==true */\n      iszero\n      iszero\n        /* \"B4B.CONTRACTS/b4b.sol\":3386:3387  c */\n      dup2\n        /* \"B4B.CONTRACTS/b4b.sol\":3386:3401  c.accept_status */\n      0x03\n      add\n      0x01\n      swap1\n      sload\n      swap1\n      0x0100\n      exp\n      swap1\n      div\n      0xff\n      and\n        /* \"B4B.CONTRACTS/b4b.sol\":3386:3407  c.accept_status==true */\n      iszero\n      iszero\n      eq\n        /* \"B4B.CONTRACTS/b4b.sol\":3377:3408  require (c.accept_status==true) */\n      tag_91\n      jumpi\n      0x00\n      dup1\n      revert\n    tag_91:\n        /* \"B4B.CONTRACTS/b4b.sol\":3446:3450  true */\n      0x01\n        /* \"B4B.CONTRACTS/b4b.sol\":3427:3450  c.complete_status==true */\n      iszero\n      iszero\n        /* \"B4B.CONTRACTS/b4b.sol\":3427:3428  c */\n      dup2\n        /* \"B4B.CONTRACTS/b4b.sol\":3427:3444  c.complete_status */\n      0x03\n      add\n      0x02\n      swap1\n      sload\n      swap1\n      0x0100\n      exp\n      swap1\n      div\n      0xff\n      and\n        /* \"B4B.CONTRACTS/b4b.sol\":3427:3450  c.complete_status==true */\n      iszero\n      iszero\n      eq\n        /* \"B4B.CONTRACTS/b4b.sol\":3418:3451  require (c.complete_status==true) */\n      tag_92\n      jumpi\n      0x00\n      dup1\n      revert\n    tag_92:\n        /* \"B4B.CONTRACTS/b4b.sol\":3489:3493  true */\n      0x01\n        /* \"B4B.CONTRACTS/b4b.sol\":3470:3493  c.approved_status==true */\n      iszero\n      iszero\n        /* \"B4B.CONTRACTS/b4b.sol\":3470:3471  c */\n      dup2\n        /* \"B4B.CONTRACTS/b4b.sol\":3470:3487  c.approved_status */\n      0x03\n      add\n      0x03\n      swap1\n      sload\n      swap1\n      0x0100\n      exp\n      swap1\n      div\n      0xff\n      and\n        /* \"B4B.CONTRACTS/b4b.sol\":3470:3493  c.approved_status==true */\n      iszero\n      iszero\n      eq\n        /* \"B4B.CONTRACTS/b4b.sol\":3461:3494  require (c.approved_status==true) */\n      tag_93\n      jumpi\n      0x00\n      dup1\n      revert\n    tag_93:\n        /* \"B4B.CONTRACTS/b4b.sol\":3513:3523  uint256 _d */\n      0x00\n        /* \"B4B.CONTRACTS/b4b.sol\":3526:3527  c */\n      dup2\n        /* \"B4B.CONTRACTS/b4b.sol\":3526:3532  c.paid */\n      0x04\n      add\n      sload\n        /* \"B4B.CONTRACTS/b4b.sol\":3513:3532  uint256 _d = c.paid */\n      swap1\n      pop\n        /* \"B4B.CONTRACTS/b4b.sol\":3542:3552  msg.sender */\n      caller\n        /* \"B4B.CONTRACTS/b4b.sol\":3542:3561  msg.sender.transfer */\n      0xffffffffffffffffffffffffffffffffffffffff\n      and\n        /* \"B4B.CONTRACTS/b4b.sol\":3542:3565  msg.sender.transfer(_d) */\n      0x08fc\n        /* \"B4B.CONTRACTS/b4b.sol\":3562:3564  _d */\n      dup3\n        /* \"B4B.CONTRACTS/b4b.sol\":3542:3565  msg.sender.transfer(_d) */\n      swap1\n      dup2\n      iszero\n      mul\n      swap1\n      mload(0x40)\n      0x00\n      mload(0x40)\n      dup1\n      dup4\n      sub\n      dup2\n      dup6\n      dup9\n      dup9\n      call\n      swap4\n      pop\n      pop\n      pop\n      pop\n      iszero\n        /* \"--CODEGEN--\":8:17   */\n      dup1\n        /* \"--CODEGEN--\":5:7   */\n      iszero\n      tag_94\n      jumpi\n        /* \"--CODEGEN--\":45:61   */\n      returndatasize\n        /* \"--CODEGEN--\":42:43   */\n      0x00\n        /* \"--CODEGEN--\":39:40   */\n      dup1\n        /* \"--CODEGEN--\":24:62   */\n      returndatacopy\n        /* \"--CODEGEN--\":77:93   */\n      returndatasize\n        /* \"--CODEGEN--\":74:75   */\n      0x00\n        /* \"--CODEGEN--\":67:94   */\n      revert\n        /* \"--CODEGEN--\":5:7   */\n    tag_94:\n        /* \"B4B.CONTRACTS/b4b.sol\":3542:3565  msg.sender.transfer(_d) */\n      pop\n        /* \"B4B.CONTRACTS/b4b.sol\":3582:3583  0 */\n      0x00\n        /* \"B4B.CONTRACTS/b4b.sol\":3575:3576  c */\n      dup3\n        /* \"B4B.CONTRACTS/b4b.sol\":3575:3581  c.paid */\n      0x04\n      add\n        /* \"B4B.CONTRACTS/b4b.sol\":3575:3583  c.paid=0 */\n      dup2\n      swap1\n      sstore\n      pop\n        /* \"B4B.CONTRACTS/b4b.sol\":3177:3590  function ReceiveSalary (uint _campaignID) public {... */\n      pop\n      pop\n      pop\n      jump\t// out\n        /* \"B4B.CONTRACTS/b4b.sol\":1887:2327  function AcceptBooking (uint _campaignID) public {... */\n    tag_58:\n        /* \"B4B.CONTRACTS/b4b.sol\":1946:1964  Campaign storage c */\n      0x00\n        /* \"B4B.CONTRACTS/b4b.sol\":1967:1976  campaigns */\n      0x03\n        /* \"B4B.CONTRACTS/b4b.sol\":1967:1989  campaigns[_campaignID] */\n      0x00\n        /* \"B4B.CONTRACTS/b4b.sol\":1977:1988  _campaignID */\n      dup4\n        /* \"B4B.CONTRACTS/b4b.sol\":1967:1989  campaigns[_campaignID] */\n      dup2\n      mstore\n      0x20\n      add\n      swap1\n      dup2\n      mstore\n      0x20\n      add\n      0x00\n      keccak256\n        /* \"B4B.CONTRACTS/b4b.sol\":1946:1989  Campaign storage c = campaigns[_campaignID] */\n      swap1\n      pop\n        /* \"B4B.CONTRACTS/b4b.sol\":2027:2037  msg.sender */\n      caller\n        /* \"B4B.CONTRACTS/b4b.sol\":2008:2037  c.influencer_addr==msg.sender */\n      0xffffffffffffffffffffffffffffffffffffffff\n      and\n        /* \"B4B.CONTRACTS/b4b.sol\":2008:2009  c */\n      dup2\n        /* \"B4B.CONTRACTS/b4b.sol\":2008:2025  c.influencer_addr */\n      0x01\n      add\n      0x00\n      swap1\n      sload\n      swap1\n      0x0100\n      exp\n      swap1\n      div\n      0xffffffffffffffffffffffffffffffffffffffff\n      and\n        /* \"B4B.CONTRACTS/b4b.sol\":2008:2037  c.influencer_addr==msg.sender */\n      0xffffffffffffffffffffffffffffffffffffffff\n      and\n      eq\n        /* \"B4B.CONTRACTS/b4b.sol\":1999:2038  require (c.influencer_addr==msg.sender) */\n      tag_96\n      jumpi\n      0x00\n      dup1\n      revert\n    tag_96:\n        /* \"B4B.CONTRACTS/b4b.sol\":2072:2076  true */\n      0x01\n        /* \"B4B.CONTRACTS/b4b.sol\":2057:2076  c.book_status==true */\n      iszero\n      iszero\n        /* \"B4B.CONTRACTS/b4b.sol\":2057:2058  c */\n      dup2\n        /* \"B4B.CONTRACTS/b4b.sol\":2057:2070  c.book_status */\n      0x03\n      add\n      0x00\n      swap1\n      sload\n      swap1\n      0x0100\n      exp\n      swap1\n      div\n      0xff\n      and\n        /* \"B4B.CONTRACTS/b4b.sol\":2057:2076  c.book_status==true */\n      iszero\n      iszero\n      eq\n        /* \"B4B.CONTRACTS/b4b.sol\":2048:2077  require (c.book_status==true) */\n      tag_97\n      jumpi\n      0x00\n      dup1\n      revert\n    tag_97:\n        /* \"B4B.CONTRACTS/b4b.sol\":2113:2118  false */\n      0x00\n        /* \"B4B.CONTRACTS/b4b.sol\":2096:2118  c.accept_status==false */\n      iszero\n      iszero\n        /* \"B4B.CONTRACTS/b4b.sol\":2096:2097  c */\n      dup2\n        /* \"B4B.CONTRACTS/b4b.sol\":2096:2111  c.accept_status */\n      0x03\n      add\n      0x01\n      swap1\n      sload\n      swap1\n      0x0100\n      exp\n      swap1\n      div\n      0xff\n      and\n        /* \"B4B.CONTRACTS/b4b.sol\":2096:2118  c.accept_status==false */\n      iszero\n      iszero\n      eq\n        /* \"B4B.CONTRACTS/b4b.sol\":2087:2119  require (c.accept_status==false) */\n      tag_98\n      jumpi\n      0x00\n      dup1\n      revert\n    tag_98:\n        /* \"B4B.CONTRACTS/b4b.sol\":2145:2149  true */\n      0x01\n        /* \"B4B.CONTRACTS/b4b.sol\":2129:2130  c */\n      dup2\n        /* \"B4B.CONTRACTS/b4b.sol\":2129:2144  c.accept_status */\n      0x03\n      add\n      0x01\n        /* \"B4B.CONTRACTS/b4b.sol\":2129:2149  c.accept_status=true */\n      0x0100\n      exp\n      dup2\n      sload\n      dup2\n      0xff\n      mul\n      not\n      and\n      swap1\n      dup4\n      iszero\n      iszero\n      mul\n      or\n      swap1\n      sstore\n      pop\n        /* \"B4B.CONTRACTS/b4b.sol\":2199:2219  Influencer storage i */\n      0x00\n        /* \"B4B.CONTRACTS/b4b.sol\":2222:2233  influencers */\n      0x04\n        /* \"B4B.CONTRACTS/b4b.sol\":2222:2245  influencers[msg.sender] */\n      0x00\n        /* \"B4B.CONTRACTS/b4b.sol\":2234:2244  msg.sender */\n      caller\n        /* \"B4B.CONTRACTS/b4b.sol\":2222:2245  influencers[msg.sender] */\n      0xffffffffffffffffffffffffffffffffffffffff\n      and\n      0xffffffffffffffffffffffffffffffffffffffff\n      and\n      dup2\n      mstore\n      0x20\n      add\n      swap1\n      dup2\n      mstore\n      0x20\n      add\n      0x00\n      keccak256\n        /* \"B4B.CONTRACTS/b4b.sol\":2199:2245  Influencer storage i = influencers[msg.sender] */\n      swap1\n      pop\n        /* \"B4B.CONTRACTS/b4b.sol\":2265:2267  10 */\n      0x0a\n        /* \"B4B.CONTRACTS/b4b.sol\":2255:2256  i */\n      dup2\n        /* \"B4B.CONTRACTS/b4b.sol\":2255:2263  i.points */\n      0x02\n      add\n      0x00\n        /* \"B4B.CONTRACTS/b4b.sol\":2255:2267  i.points+=10 */\n      dup3\n      dup3\n      sload\n      add\n      swap3\n      pop\n      pop\n      dup2\n      swap1\n      sstore\n      pop\n        /* \"B4B.CONTRACTS/b4b.sol\":1887:2327  function AcceptBooking (uint _campaignID) public {... */\n      pop\n      pop\n      pop\n      jump\t// out\n        /* \"B4B.CONTRACTS/b4b.sol\":4272:4428  function PaidOnContract (uint _campaignID) public view returns (uint256) {... */\n    tag_62:\n        /* \"B4B.CONTRACTS/b4b.sol\":4336:4343  uint256 */\n      0x00\n        /* \"B4B.CONTRACTS/b4b.sol\":4355:4373  Campaign storage c */\n      dup1\n        /* \"B4B.CONTRACTS/b4b.sol\":4376:4385  campaigns */\n      0x03\n        /* \"B4B.CONTRACTS/b4b.sol\":4376:4398  campaigns[_campaignID] */\n      0x00\n        /* \"B4B.CONTRACTS/b4b.sol\":4386:4397  _campaignID */\n      dup5\n        /* \"B4B.CONTRACTS/b4b.sol\":4376:4398  campaigns[_campaignID] */\n      dup2\n      mstore\n      0x20\n      add\n      swap1\n      dup2\n      mstore\n      0x20\n      add\n      0x00\n      keccak256\n        /* \"B4B.CONTRACTS/b4b.sol\":4355:4398  Campaign storage c = campaigns[_campaignID] */\n      swap1\n      pop\n        /* \"B4B.CONTRACTS/b4b.sol\":4415:4416  c */\n      dup1\n        /* \"B4B.CONTRACTS/b4b.sol\":4415:4421  c.paid */\n      0x04\n      add\n      sload\n        /* \"B4B.CONTRACTS/b4b.sol\":4408:4421  return c.paid */\n      swap2\n      pop\n      pop\n        /* \"B4B.CONTRACTS/b4b.sol\":4272:4428  function PaidOnContract (uint _campaignID) public view returns (uint256) {... */\n      swap2\n      swap1\n      pop\n      jump\t// out\n        /* \"B4B.CONTRACTS/b4b.sol\":1152:1326  function ChangePrice (uint256 _price) public {... */\n    tag_66:\n        /* \"B4B.CONTRACTS/b4b.sol\":1207:1227  Influencer storage i */\n      0x00\n        /* \"B4B.CONTRACTS/b4b.sol\":1230:1241  influencers */\n      0x04\n        /* \"B4B.CONTRACTS/b4b.sol\":1230:1253  influencers[msg.sender] */\n      0x00\n        /* \"B4B.CONTRACTS/b4b.sol\":1242:1252  msg.sender */\n      caller\n        /* \"B4B.CONTRACTS/b4b.sol\":1230:1253  influencers[msg.sender] */\n      0xffffffffffffffffffffffffffffffffffffffff\n      and\n      0xffffffffffffffffffffffffffffffffffffffff\n      and\n      dup2\n      mstore\n      0x20\n      add\n      swap1\n      dup2\n      mstore\n      0x20\n      add\n      0x00\n      keccak256\n        /* \"B4B.CONTRACTS/b4b.sol\":1207:1253  Influencer storage i = influencers[msg.sender] */\n      swap1\n      pop\n        /* \"B4B.CONTRACTS/b4b.sol\":1283:1293  msg.sender */\n      caller\n        /* \"B4B.CONTRACTS/b4b.sol\":1263:1264  i */\n      dup2\n        /* \"B4B.CONTRACTS/b4b.sol\":1263:1280  i.influencer_addr */\n      0x00\n      add\n      0x00\n        /* \"B4B.CONTRACTS/b4b.sol\":1263:1293  i.influencer_addr = msg.sender */\n      0x0100\n      exp\n      dup2\n      sload\n      dup2\n      0xffffffffffffffffffffffffffffffffffffffff\n      mul\n      not\n      and\n      swap1\n      dup4\n      0xffffffffffffffffffffffffffffffffffffffff\n      and\n      mul\n      or\n      swap1\n      sstore\n      pop\n        /* \"B4B.CONTRACTS/b4b.sol\":1313:1319  _price */\n      dup2\n        /* \"B4B.CONTRACTS/b4b.sol\":1303:1304  i */\n      dup2\n        /* \"B4B.CONTRACTS/b4b.sol\":1303:1310  i.price */\n      0x01\n      add\n        /* \"B4B.CONTRACTS/b4b.sol\":1303:1319  i.price = _price */\n      dup2\n      swap1\n      sstore\n      pop\n        /* \"B4B.CONTRACTS/b4b.sol\":1152:1326  function ChangePrice (uint256 _price) public {... */\n      pop\n      pop\n      jump\t// out\n\n    auxdata: 0xa265627a7a72315820d3cc55921da185b96fd69f7cd28b0ebd8fab713f4a0ebc7930fdf6630606d6d564736f6c63430005110032\n}\n",
				"bytecode": {
					"linkReferences": {},
					"object": "608060405260005460015534801561001657600080fd5b5042600081905550610da28061002d6000396000f3fe6080604052600436106100c25760003560e01c80639ddac05e1161007f578063e0e1bd8411610059578063e0e1bd841461037b578063e352893e146103b6578063e6bf297b146103f1578063fb92488b14610440576100c2565b80639ddac05e14610288578063a07c81f0146102db578063a6602d5f14610316576100c2565b80631eb398af146100c7578063318d6178146101025780634f6109d6146101555780635bbf3050146101805780638712c66e146101e257806397190fae14610235575b600080fd5b3480156100d357600080fd5b50610100600480360360208110156100ea57600080fd5b810190808035906020019092919050505061047b565b005b34801561010e57600080fd5b5061013b6004803603602081101561012557600080fd5b8101908080359060200190929190505050610597565b604051808215151515815260200191505060405180910390f35b34801561016157600080fd5b5061016a6105c9565b6040518082815260200191505060405180910390f35b6101cc6004803603604081101561019657600080fd5b81019080803573ffffffffffffffffffffffffffffffffffffffff16906020019092919080359060200190929190505050610662565b6040518082815260200191505060405180910390f35b3480156101ee57600080fd5b5061021b6004803603602081101561020557600080fd5b81019080803590602001909291905050506107f4565b604051808215151515815260200191505060405180910390f35b34801561024157600080fd5b5061026e6004803603602081101561025857600080fd5b8101908080359060200190929190505050610826565b604051808215151515815260200191505060405180910390f35b34801561029457600080fd5b506102c1600480360360208110156102ab57600080fd5b8101908080359060200190929190505050610858565b604051808215151515815260200191505060405180910390f35b3480156102e757600080fd5b50610314600480360360208110156102fe57600080fd5b810190808035906020019092919050505061088a565b005b34801561032257600080fd5b506103656004803603602081101561033957600080fd5b81019080803573ffffffffffffffffffffffffffffffffffffffff1690602001909291905050506109db565b6040518082815260200191505060405180910390f35b34801561038757600080fd5b506103b46004803603602081101561039e57600080fd5b8101908080359060200190929190505050610a2c565b005b3480156103c257600080fd5b506103ef600480360360208110156103d957600080fd5b8101908080359060200190929190505050610b86565b005b3480156103fd57600080fd5b5061042a6004803603602081101561041457600080fd5b8101908080359060200190929190505050610cb5565b6040518082815260200191505060405180910390f35b34801561044c57600080fd5b506104796004803603602081101561046357600080fd5b8101908080359060200190929190505050610cda565b005b60006003600083815260200190815260200160002090503373ffffffffffffffffffffffffffffffffffffffff168160000160009054906101000a900473ffffffffffffffffffffffffffffffffffffffff1673ffffffffffffffffffffffffffffffffffffffff16146104ee57600080fd5b600115158160030160009054906101000a900460ff1615151461051057600080fd5b600115158160030160019054906101000a900460ff1615151461053257600080fd5b600115158160030160029054906101000a900460ff1615151461055457600080fd5b600015158160030160039054906101000a900460ff1615151461057657600080fd5b60018160030160036101000a81548160ff0219169083151502179055505050565b6000806003600084815260200190815260200160002090508060030160039054906101000a900460ff16915050919050565b600062278d006000544203116105de57600080fd5b6000600460003373ffffffffffffffffffffffffffffffffffffffff1673ffffffffffffffffffffffffffffffffffffffff168152602001908152602001600020905062278d0060015442031161063457600080fd5b6064816002015402816003018190555062278d00600160008282540192505081905550806003015491505090565b600080600460008573ffffffffffffffffffffffffffffffffffffffff1673ffffffffffffffffffffffffffffffffffffffff1681526020019081526020016000209050348160010154146106b657600080fd5b600260008154809291906001019190505591506000600360008481526020019081526020016000209050338160000160006101000a81548173ffffffffffffffffffffffffffffffffffffffff021916908373ffffffffffffffffffffffffffffffffffffffff160217905550848160010160006101000a81548173ffffffffffffffffffffffffffffffffffffffff021916908373ffffffffffffffffffffffffffffffffffffffff16021790555083816002018190555060018160030160006101000a81548160ff02191690831515021790555060008160030160016101000a81548160ff02191690831515021790555060008160030160026101000a81548160ff02191690831515021790555060008160030160036101000a81548160ff021916908315150217905550348160040181905550505092915050565b6000806003600084815260200190815260200160002090508060030160019054906101000a900460ff16915050919050565b6000806003600084815260200190815260200160002090508060030160029054906101000a900460ff16915050919050565b6000806003600084815260200190815260200160002090508060030160009054906101000a900460ff16915050919050565b60006003600083815260200190815260200160002090503373ffffffffffffffffffffffffffffffffffffffff168160010160009054906101000a900473ffffffffffffffffffffffffffffffffffffffff1673ffffffffffffffffffffffffffffffffffffffff16146108fd57600080fd5b600115158160030160009054906101000a900460ff1615151461091f57600080fd5b600115158160030160019054906101000a900460ff1615151461094157600080fd5b600015158160030160029054906101000a900460ff1615151461096357600080fd5b60018160030160026101000a81548160ff0219169083151502179055506000600460003373ffffffffffffffffffffffffffffffffffffffff1673ffffffffffffffffffffffffffffffffffffffff1681526020019081526020016000209050600a8160020160008282540192505081905550505050565b600080600460008473ffffffffffffffffffffffffffffffffffffffff1673ffffffffffffffffffffffffffffffffffffffff16815260200190815260200160002090508060020154915050919050565b60006003600083815260200190815260200160002090503373ffffffffffffffffffffffffffffffffffffffff168160010160009054906101000a900473ffffffffffffffffffffffffffffffffffffffff1673ffffffffffffffffffffffffffffffffffffffff1614610a9f57600080fd5b600115158160030160009054906101000a900460ff16151514610ac157600080fd5b600115158160030160019054906101000a900460ff16151514610ae357600080fd5b600115158160030160029054906101000a900460ff16151514610b0557600080fd5b600115158160030160039054906101000a900460ff16151514610b2757600080fd5b6000816004015490503373ffffffffffffffffffffffffffffffffffffffff166108fc829081150290604051600060405180830381858888f19350505050158015610b76573d6000803e3d6000fd5b5060008260040181905550505050565b60006003600083815260200190815260200160002090503373ffffffffffffffffffffffffffffffffffffffff168160010160009054906101000a900473ffffffffffffffffffffffffffffffffffffffff1673ffffffffffffffffffffffffffffffffffffffff1614610bf957600080fd5b600115158160030160009054906101000a900460ff16151514610c1b57600080fd5b600015158160030160019054906101000a900460ff16151514610c3d57600080fd5b60018160030160016101000a81548160ff0219169083151502179055506000600460003373ffffffffffffffffffffffffffffffffffffffff1673ffffffffffffffffffffffffffffffffffffffff1681526020019081526020016000209050600a8160020160008282540192505081905550505050565b6000806003600084815260200190815260200160002090508060040154915050919050565b6000600460003373ffffffffffffffffffffffffffffffffffffffff1673ffffffffffffffffffffffffffffffffffffffff1681526020019081526020016000209050338160000160006101000a81548173ffffffffffffffffffffffffffffffffffffffff021916908373ffffffffffffffffffffffffffffffffffffffff160217905550818160010181905550505056fea265627a7a72315820d3cc55921da185b96fd69f7cd28b0ebd8fab713f4a0ebc7930fdf6630606d6d564736f6c63430005110032",
					"opcodes": "PUSH1 0x80 PUSH1 0x40 MSTORE PUSH1 0x0 SLOAD PUSH1 0x1 SSTORE CALLVALUE DUP1 ISZERO PUSH2 0x16 JUMPI PUSH1 0x0 DUP1 REVERT JUMPDEST POP TIMESTAMP PUSH1 0x0 DUP2 SWAP1 SSTORE POP PUSH2 0xDA2 DUP1 PUSH2 0x2D PUSH1 0x0 CODECOPY PUSH1 0x0 RETURN INVALID PUSH1 0x80 PUSH1 0x40 MSTORE PUSH1 0x4 CALLDATASIZE LT PUSH2 0xC2 JUMPI PUSH1 0x0 CALLDATALOAD PUSH1 0xE0 SHR DUP1 PUSH4 0x9DDAC05E GT PUSH2 0x7F JUMPI DUP1 PUSH4 0xE0E1BD84 GT PUSH2 0x59 JUMPI DUP1 PUSH4 0xE0E1BD84 EQ PUSH2 0x37B JUMPI DUP1 PUSH4 0xE352893E EQ PUSH2 0x3B6 JUMPI DUP1 PUSH4 0xE6BF297B EQ PUSH2 0x3F1 JUMPI DUP1 PUSH4 0xFB92488B EQ PUSH2 0x440 JUMPI PUSH2 0xC2 JUMP JUMPDEST DUP1 PUSH4 0x9DDAC05E EQ PUSH2 0x288 JUMPI DUP1 PUSH4 0xA07C81F0 EQ PUSH2 0x2DB JUMPI DUP1 PUSH4 0xA6602D5F EQ PUSH2 0x316 JUMPI PUSH2 0xC2 JUMP JUMPDEST DUP1 PUSH4 0x1EB398AF EQ PUSH2 0xC7 JUMPI DUP1 PUSH4 0x318D6178 EQ PUSH2 0x102 JUMPI DUP1 PUSH4 0x4F6109D6 EQ PUSH2 0x155 JUMPI DUP1 PUSH4 0x5BBF3050 EQ PUSH2 0x180 JUMPI DUP1 PUSH4 0x8712C66E EQ PUSH2 0x1E2 JUMPI DUP1 PUSH4 0x97190FAE EQ PUSH2 0x235 JUMPI JUMPDEST PUSH1 0x0 DUP1 REVERT JUMPDEST CALLVALUE DUP1 ISZERO PUSH2 0xD3 JUMPI PUSH1 0x0 DUP1 REVERT JUMPDEST POP PUSH2 0x100 PUSH1 0x4 DUP1 CALLDATASIZE SUB PUSH1 0x20 DUP2 LT ISZERO PUSH2 0xEA JUMPI PUSH1 0x0 DUP1 REVERT JUMPDEST DUP2 ADD SWAP1 DUP1 DUP1 CALLDATALOAD SWAP1 PUSH1 0x20 ADD SWAP1 SWAP3 SWAP2 SWAP1 POP POP POP PUSH2 0x47B JUMP JUMPDEST STOP JUMPDEST CALLVALUE DUP1 ISZERO PUSH2 0x10E JUMPI PUSH1 0x0 DUP1 REVERT JUMPDEST POP PUSH2 0x13B PUSH1 0x4 DUP1 CALLDATASIZE SUB PUSH1 0x20 DUP2 LT ISZERO PUSH2 0x125 JUMPI PUSH1 0x0 DUP1 REVERT JUMPDEST DUP2 ADD SWAP1 DUP1 DUP1 CALLDATALOAD SWAP1 PUSH1 0x20 ADD SWAP1 SWAP3 SWAP2 SWAP1 POP POP POP PUSH2 0x597 JUMP JUMPDEST PUSH1 0x40 MLOAD DUP1 DUP3 ISZERO ISZERO ISZERO ISZERO DUP2 MSTORE PUSH1 0x20 ADD SWAP2 POP POP PUSH1 0x40 MLOAD DUP1 SWAP2 SUB SWAP1 RETURN JUMPDEST CALLVALUE DUP1 ISZERO PUSH2 0x161 JUMPI PUSH1 0x0 DUP1 REVERT JUMPDEST POP PUSH2 0x16A PUSH2 0x5C9 JUMP JUMPDEST PUSH1 0x40 MLOAD DUP1 DUP3 DUP2 MSTORE PUSH1 0x20 ADD SWAP2 POP POP PUSH1 0x40 MLOAD DUP1 SWAP2 SUB SWAP1 RETURN JUMPDEST PUSH2 0x1CC PUSH1 0x4 DUP1 CALLDATASIZE SUB PUSH1 0x40 DUP2 LT ISZERO PUSH2 0x196 JUMPI PUSH1 0x0 DUP1 REVERT JUMPDEST DUP2 ADD SWAP1 DUP1 DUP1 CALLDATALOAD PUSH20 0xFFFFFFFFFFFFFFFFFFFFFFFFFFFFFFFFFFFFFFFF AND SWAP1 PUSH1 0x20 ADD SWAP1 SWAP3 SWAP2 SWAP1 DUP1 CALLDATALOAD SWAP1 PUSH1 0x20 ADD SWAP1 SWAP3 SWAP2 SWAP1 POP POP POP PUSH2 0x662 JUMP JUMPDEST PUSH1 0x40 MLOAD DUP1 DUP3 DUP2 MSTORE PUSH1 0x20 ADD SWAP2 POP POP PUSH1 0x40 MLOAD DUP1 SWAP2 SUB SWAP1 RETURN JUMPDEST CALLVALUE DUP1 ISZERO PUSH2 0x1EE JUMPI PUSH1 0x0 DUP1 REVERT JUMPDEST POP PUSH2 0x21B PUSH1 0x4 DUP1 CALLDATASIZE SUB PUSH1 0x20 DUP2 LT ISZERO PUSH2 0x205 JUMPI PUSH1 0x0 DUP1 REVERT JUMPDEST DUP2 ADD SWAP1 DUP1 DUP1 CALLDATALOAD SWAP1 PUSH1 0x20 ADD SWAP1 SWAP3 SWAP2 SWAP1 POP POP POP PUSH2 0x7F4 JUMP JUMPDEST PUSH1 0x40 MLOAD DUP1 DUP3 ISZERO ISZERO ISZERO ISZERO DUP2 MSTORE PUSH1 0x20 ADD SWAP2 POP POP PUSH1 0x40 MLOAD DUP1 SWAP2 SUB SWAP1 RETURN JUMPDEST CALLVALUE DUP1 ISZERO PUSH2 0x241 JUMPI PUSH1 0x0 DUP1 REVERT JUMPDEST POP PUSH2 0x26E PUSH1 0x4 DUP1 CALLDATASIZE SUB PUSH1 0x20 DUP2 LT ISZERO PUSH2 0x258 JUMPI PUSH1 0x0 DUP1 REVERT JUMPDEST DUP2 ADD SWAP1 DUP1 DUP1 CALLDATALOAD SWAP1 PUSH1 0x20 ADD SWAP1 SWAP3 SWAP2 SWAP1 POP POP POP PUSH2 0x826 JUMP JUMPDEST PUSH1 0x40 MLOAD DUP1 DUP3 ISZERO ISZERO ISZERO ISZERO DUP2 MSTORE PUSH1 0x20 ADD SWAP2 POP POP PUSH1 0x40 MLOAD DUP1 SWAP2 SUB SWAP1 RETURN JUMPDEST CALLVALUE DUP1 ISZERO PUSH2 0x294 JUMPI PUSH1 0x0 DUP1 REVERT JUMPDEST POP PUSH2 0x2C1 PUSH1 0x4 DUP1 CALLDATASIZE SUB PUSH1 0x20 DUP2 LT ISZERO PUSH2 0x2AB JUMPI PUSH1 0x0 DUP1 REVERT JUMPDEST DUP2 ADD SWAP1 DUP1 DUP1 CALLDATALOAD SWAP1 PUSH1 0x20 ADD SWAP1 SWAP3 SWAP2 SWAP1 POP POP POP PUSH2 0x858 JUMP JUMPDEST PUSH1 0x40 MLOAD DUP1 DUP3 ISZERO ISZERO ISZERO ISZERO DUP2 MSTORE PUSH1 0x20 ADD SWAP2 POP POP PUSH1 0x40 MLOAD DUP1 SWAP2 SUB SWAP1 RETURN JUMPDEST CALLVALUE DUP1 ISZERO PUSH2 0x2E7 JUMPI PUSH1 0x0 DUP1 REVERT JUMPDEST POP PUSH2 0x314 PUSH1 0x4 DUP1 CALLDATASIZE SUB PUSH1 0x20 DUP2 LT ISZERO PUSH2 0x2FE JUMPI PUSH1 0x0 DUP1 REVERT JUMPDEST DUP2 ADD SWAP1 DUP1 DUP1 CALLDATALOAD SWAP1 PUSH1 0x20 ADD SWAP1 SWAP3 SWAP2 SWAP1 POP POP POP PUSH2 0x88A JUMP JUMPDEST STOP JUMPDEST CALLVALUE DUP1 ISZERO PUSH2 0x322 JUMPI PUSH1 0x0 DUP1 REVERT JUMPDEST POP PUSH2 0x365 PUSH1 0x4 DUP1 CALLDATASIZE SUB PUSH1 0x20 DUP2 LT ISZERO PUSH2 0x339 JUMPI PUSH1 0x0 DUP1 REVERT JUMPDEST DUP2 ADD SWAP1 DUP1 DUP1 CALLDATALOAD PUSH20 0xFFFFFFFFFFFFFFFFFFFFFFFFFFFFFFFFFFFFFFFF AND SWAP1 PUSH1 0x20 ADD SWAP1 SWAP3 SWAP2 SWAP1 POP POP POP PUSH2 0x9DB JUMP JUMPDEST PUSH1 0x40 MLOAD DUP1 DUP3 DUP2 MSTORE PUSH1 0x20 ADD SWAP2 POP POP PUSH1 0x40 MLOAD DUP1 SWAP2 SUB SWAP1 RETURN JUMPDEST CALLVALUE DUP1 ISZERO PUSH2 0x387 JUMPI PUSH1 0x0 DUP1 REVERT JUMPDEST POP PUSH2 0x3B4 PUSH1 0x4 DUP1 CALLDATASIZE SUB PUSH1 0x20 DUP2 LT ISZERO PUSH2 0x39E JUMPI PUSH1 0x0 DUP1 REVERT JUMPDEST DUP2 ADD SWAP1 DUP1 DUP1 CALLDATALOAD SWAP1 PUSH1 0x20 ADD SWAP1 SWAP3 SWAP2 SWAP1 POP POP POP PUSH2 0xA2C JUMP JUMPDEST STOP JUMPDEST CALLVALUE DUP1 ISZERO PUSH2 0x3C2 JUMPI PUSH1 0x0 DUP1 REVERT JUMPDEST POP PUSH2 0x3EF PUSH1 0x4 DUP1 CALLDATASIZE SUB PUSH1 0x20 DUP2 LT ISZERO PUSH2 0x3D9 JUMPI PUSH1 0x0 DUP1 REVERT JUMPDEST DUP2 ADD SWAP1 DUP1 DUP1 CALLDATALOAD SWAP1 PUSH1 0x20 ADD SWAP1 SWAP3 SWAP2 SWAP1 POP POP POP PUSH2 0xB86 JUMP JUMPDEST STOP JUMPDEST CALLVALUE DUP1 ISZERO PUSH2 0x3FD JUMPI PUSH1 0x0 DUP1 REVERT JUMPDEST POP PUSH2 0x42A PUSH1 0x4 DUP1 CALLDATASIZE SUB PUSH1 0x20 DUP2 LT ISZERO PUSH2 0x414 JUMPI PUSH1 0x0 DUP1 REVERT JUMPDEST DUP2 ADD SWAP1 DUP1 DUP1 CALLDATALOAD SWAP1 PUSH1 0x20 ADD SWAP1 SWAP3 SWAP2 SWAP1 POP POP POP PUSH2 0xCB5 JUMP JUMPDEST PUSH1 0x40 MLOAD DUP1 DUP3 DUP2 MSTORE PUSH1 0x20 ADD SWAP2 POP POP PUSH1 0x40 MLOAD DUP1 SWAP2 SUB SWAP1 RETURN JUMPDEST CALLVALUE DUP1 ISZERO PUSH2 0x44C JUMPI PUSH1 0x0 DUP1 REVERT JUMPDEST POP PUSH2 0x479 PUSH1 0x4 DUP1 CALLDATASIZE SUB PUSH1 0x20 DUP2 LT ISZERO PUSH2 0x463 JUMPI PUSH1 0x0 DUP1 REVERT JUMPDEST DUP2 ADD SWAP1 DUP1 DUP1 CALLDATALOAD SWAP1 PUSH1 0x20 ADD SWAP1 SWAP3 SWAP2 SWAP1 POP POP POP PUSH2 0xCDA JUMP JUMPDEST STOP JUMPDEST PUSH1 0x0 PUSH1 0x3 PUSH1 0x0 DUP4 DUP2 MSTORE PUSH1 0x20 ADD SWAP1 DUP2 MSTORE PUSH1 0x20 ADD PUSH1 0x0 KECCAK256 SWAP1 POP CALLER PUSH20 0xFFFFFFFFFFFFFFFFFFFFFFFFFFFFFFFFFFFFFFFF AND DUP2 PUSH1 0x0 ADD PUSH1 0x0 SWAP1 SLOAD SWAP1 PUSH2 0x100 EXP SWAP1 DIV PUSH20 0xFFFFFFFFFFFFFFFFFFFFFFFFFFFFFFFFFFFFFFFF AND PUSH20 0xFFFFFFFFFFFFFFFFFFFFFFFFFFFFFFFFFFFFFFFF AND EQ PUSH2 0x4EE JUMPI PUSH1 0x0 DUP1 REVERT JUMPDEST PUSH1 0x1 ISZERO ISZERO DUP2 PUSH1 0x3 ADD PUSH1 0x0 SWAP1 SLOAD SWAP1 PUSH2 0x100 EXP SWAP1 DIV PUSH1 0xFF AND ISZERO ISZERO EQ PUSH2 0x510 JUMPI PUSH1 0x0 DUP1 REVERT JUMPDEST PUSH1 0x1 ISZERO ISZERO DUP2 PUSH1 0x3 ADD PUSH1 0x1 SWAP1 SLOAD SWAP1 PUSH2 0x100 EXP SWAP1 DIV PUSH1 0xFF AND ISZERO ISZERO EQ PUSH2 0x532 JUMPI PUSH1 0x0 DUP1 REVERT JUMPDEST PUSH1 0x1 ISZERO ISZERO DUP2 PUSH1 0x3 ADD PUSH1 0x2 SWAP1 SLOAD SWAP1 PUSH2 0x100 EXP SWAP1 DIV PUSH1 0xFF AND ISZERO ISZERO EQ PUSH2 0x554 JUMPI PUSH1 0x0 DUP1 REVERT JUMPDEST PUSH1 0x0 ISZERO ISZERO DUP2 PUSH1 0x3 ADD PUSH1 0x3 SWAP1 SLOAD SWAP1 PUSH2 0x100 EXP SWAP1 DIV PUSH1 0xFF AND ISZERO ISZERO EQ PUSH2 0x576 JUMPI PUSH1 0x0 DUP1 REVERT JUMPDEST PUSH1 0x1 DUP2 PUSH1 0x3 ADD PUSH1 0x3 PUSH2 0x100 EXP DUP2 SLOAD DUP2 PUSH1 0xFF MUL NOT AND SWAP1 DUP4 ISZERO ISZERO MUL OR SWAP1 SSTORE POP POP POP JUMP JUMPDEST PUSH1 0x0 DUP1 PUSH1 0x3 PUSH1 0x0 DUP5 DUP2 MSTORE PUSH1 0x20 ADD SWAP1 DUP2 MSTORE PUSH1 0x20 ADD PUSH1 0x0 KECCAK256 SWAP1 POP DUP1 PUSH1 0x3 ADD PUSH1 0x3 SWAP1 SLOAD SWAP1 PUSH2 0x100 EXP SWAP1 DIV PUSH1 0xFF AND SWAP2 POP POP SWAP2 SWAP1 POP JUMP JUMPDEST PUSH1 0x0 PUSH3 0x278D00 PUSH1 0x0 SLOAD TIMESTAMP SUB GT PUSH2 0x5DE JUMPI PUSH1 0x0 DUP1 REVERT JUMPDEST PUSH1 0x0 PUSH1 0x4 PUSH1 0x0 CALLER PUSH20 0xFFFFFFFFFFFFFFFFFFFFFFFFFFFFFFFFFFFFFFFF AND PUSH20 0xFFFFFFFFFFFFFFFFFFFFFFFFFFFFFFFFFFFFFFFF AND DUP2 MSTORE PUSH1 0x20 ADD SWAP1 DUP2 MSTORE PUSH1 0x20 ADD PUSH1 0x0 KECCAK256 SWAP1 POP PUSH3 0x278D00 PUSH1 0x1 SLOAD TIMESTAMP SUB GT PUSH2 0x634 JUMPI PUSH1 0x0 DUP1 REVERT JUMPDEST PUSH1 0x64 DUP2 PUSH1 0x2 ADD SLOAD MUL DUP2 PUSH1 0x3 ADD DUP2 SWAP1 SSTORE POP PUSH3 0x278D00 PUSH1 0x1 PUSH1 0x0 DUP3 DUP3 SLOAD ADD SWAP3 POP POP DUP2 SWAP1 SSTORE POP DUP1 PUSH1 0x3 ADD SLOAD SWAP2 POP POP SWAP1 JUMP JUMPDEST PUSH1 0x0 DUP1 PUSH1 0x4 PUSH1 0x0 DUP6 PUSH20 0xFFFFFFFFFFFFFFFFFFFFFFFFFFFFFFFFFFFFFFFF AND PUSH20 0xFFFFFFFFFFFFFFFFFFFFFFFFFFFFFFFFFFFFFFFF AND DUP2 MSTORE PUSH1 0x20 ADD SWAP1 DUP2 MSTORE PUSH1 0x20 ADD PUSH1 0x0 KECCAK256 SWAP1 POP CALLVALUE DUP2 PUSH1 0x1 ADD SLOAD EQ PUSH2 0x6B6 JUMPI PUSH1 0x0 DUP1 REVERT JUMPDEST PUSH1 0x2 PUSH1 0x0 DUP2 SLOAD DUP1 SWAP3 SWAP2 SWAP1 PUSH1 0x1 ADD SWAP2 SWAP1 POP SSTORE SWAP2 POP PUSH1 0x0 PUSH1 0x3 PUSH1 0x0 DUP5 DUP2 MSTORE PUSH1 0x20 ADD SWAP1 DUP2 MSTORE PUSH1 0x20 ADD PUSH1 0x0 KECCAK256 SWAP1 POP CALLER DUP2 PUSH1 0x0 ADD PUSH1 0x0 PUSH2 0x100 EXP DUP2 SLOAD DUP2 PUSH20 0xFFFFFFFFFFFFFFFFFFFFFFFFFFFFFFFFFFFFFFFF MUL NOT AND SWAP1 DUP4 PUSH20 0xFFFFFFFFFFFFFFFFFFFFFFFFFFFFFFFFFFFFFFFF AND MUL OR SWAP1 SSTORE POP DUP5 DUP2 PUSH1 0x1 ADD PUSH1 0x0 PUSH2 0x100 EXP DUP2 SLOAD DUP2 PUSH20 0xFFFFFFFFFFFFFFFFFFFFFFFFFFFFFFFFFFFFFFFF MUL NOT AND SWAP1 DUP4 PUSH20 0xFFFFFFFFFFFFFFFFFFFFFFFFFFFFFFFFFFFFFFFF AND MUL OR SWAP1 SSTORE POP DUP4 DUP2 PUSH1 0x2 ADD DUP2 SWAP1 SSTORE POP PUSH1 0x1 DUP2 PUSH1 0x3 ADD PUSH1 0x0 PUSH2 0x100 EXP DUP2 SLOAD DUP2 PUSH1 0xFF MUL NOT AND SWAP1 DUP4 ISZERO ISZERO MUL OR SWAP1 SSTORE POP PUSH1 0x0 DUP2 PUSH1 0x3 ADD PUSH1 0x1 PUSH2 0x100 EXP DUP2 SLOAD DUP2 PUSH1 0xFF MUL NOT AND SWAP1 DUP4 ISZERO ISZERO MUL OR SWAP1 SSTORE POP PUSH1 0x0 DUP2 PUSH1 0x3 ADD PUSH1 0x2 PUSH2 0x100 EXP DUP2 SLOAD DUP2 PUSH1 0xFF MUL NOT AND SWAP1 DUP4 ISZERO ISZERO MUL OR SWAP1 SSTORE POP PUSH1 0x0 DUP2 PUSH1 0x3 ADD PUSH1 0x3 PUSH2 0x100 EXP DUP2 SLOAD DUP2 PUSH1 0xFF MUL NOT AND SWAP1 DUP4 ISZERO ISZERO MUL OR SWAP1 SSTORE POP CALLVALUE DUP2 PUSH1 0x4 ADD DUP2 SWAP1 SSTORE POP POP POP SWAP3 SWAP2 POP POP JUMP JUMPDEST PUSH1 0x0 DUP1 PUSH1 0x3 PUSH1 0x0 DUP5 DUP2 MSTORE PUSH1 0x20 ADD SWAP1 DUP2 MSTORE PUSH1 0x20 ADD PUSH1 0x0 KECCAK256 SWAP1 POP DUP1 PUSH1 0x3 ADD PUSH1 0x1 SWAP1 SLOAD SWAP1 PUSH2 0x100 EXP SWAP1 DIV PUSH1 0xFF AND SWAP2 POP POP SWAP2 SWAP1 POP JUMP JUMPDEST PUSH1 0x0 DUP1 PUSH1 0x3 PUSH1 0x0 DUP5 DUP2 MSTORE PUSH1 0x20 ADD SWAP1 DUP2 MSTORE PUSH1 0x20 ADD PUSH1 0x0 KECCAK256 SWAP1 POP DUP1 PUSH1 0x3 ADD PUSH1 0x2 SWAP1 SLOAD SWAP1 PUSH2 0x100 EXP SWAP1 DIV PUSH1 0xFF AND SWAP2 POP POP SWAP2 SWAP1 POP JUMP JUMPDEST PUSH1 0x0 DUP1 PUSH1 0x3 PUSH1 0x0 DUP5 DUP2 MSTORE PUSH1 0x20 ADD SWAP1 DUP2 MSTORE PUSH1 0x20 ADD PUSH1 0x0 KECCAK256 SWAP1 POP DUP1 PUSH1 0x3 ADD PUSH1 0x0 SWAP1 SLOAD SWAP1 PUSH2 0x100 EXP SWAP1 DIV PUSH1 0xFF AND SWAP2 POP POP SWAP2 SWAP1 POP JUMP JUMPDEST PUSH1 0x0 PUSH1 0x3 PUSH1 0x0 DUP4 DUP2 MSTORE PUSH1 0x20 ADD SWAP1 DUP2 MSTORE PUSH1 0x20 ADD PUSH1 0x0 KECCAK256 SWAP1 POP CALLER PUSH20 0xFFFFFFFFFFFFFFFFFFFFFFFFFFFFFFFFFFFFFFFF AND DUP2 PUSH1 0x1 ADD PUSH1 0x0 SWAP1 SLOAD SWAP1 PUSH2 0x100 EXP SWAP1 DIV PUSH20 0xFFFFFFFFFFFFFFFFFFFFFFFFFFFFFFFFFFFFFFFF AND PUSH20 0xFFFFFFFFFFFFFFFFFFFFFFFFFFFFFFFFFFFFFFFF AND EQ PUSH2 0x8FD JUMPI PUSH1 0x0 DUP1 REVERT JUMPDEST PUSH1 0x1 ISZERO ISZERO DUP2 PUSH1 0x3 ADD PUSH1 0x0 SWAP1 SLOAD SWAP1 PUSH2 0x100 EXP SWAP1 DIV PUSH1 0xFF AND ISZERO ISZERO EQ PUSH2 0x91F JUMPI PUSH1 0x0 DUP1 REVERT JUMPDEST PUSH1 0x1 ISZERO ISZERO DUP2 PUSH1 0x3 ADD PUSH1 0x1 SWAP1 SLOAD SWAP1 PUSH2 0x100 EXP SWAP1 DIV PUSH1 0xFF AND ISZERO ISZERO EQ PUSH2 0x941 JUMPI PUSH1 0x0 DUP1 REVERT JUMPDEST PUSH1 0x0 ISZERO ISZERO DUP2 PUSH1 0x3 ADD PUSH1 0x2 SWAP1 SLOAD SWAP1 PUSH2 0x100 EXP SWAP1 DIV PUSH1 0xFF AND ISZERO ISZERO EQ PUSH2 0x963 JUMPI PUSH1 0x0 DUP1 REVERT JUMPDEST PUSH1 0x1 DUP2 PUSH1 0x3 ADD PUSH1 0x2 PUSH2 0x100 EXP DUP2 SLOAD DUP2 PUSH1 0xFF MUL NOT AND SWAP1 DUP4 ISZERO ISZERO MUL OR SWAP1 SSTORE POP PUSH1 0x0 PUSH1 0x4 PUSH1 0x0 CALLER PUSH20 0xFFFFFFFFFFFFFFFFFFFFFFFFFFFFFFFFFFFFFFFF AND PUSH20 0xFFFFFFFFFFFFFFFFFFFFFFFFFFFFFFFFFFFFFFFF AND DUP2 MSTORE PUSH1 0x20 ADD SWAP1 DUP2 MSTORE PUSH1 0x20 ADD PUSH1 0x0 KECCAK256 SWAP1 POP PUSH1 0xA DUP2 PUSH1 0x2 ADD PUSH1 0x0 DUP3 DUP3 SLOAD ADD SWAP3 POP POP DUP2 SWAP1 SSTORE POP POP POP POP JUMP JUMPDEST PUSH1 0x0 DUP1 PUSH1 0x4 PUSH1 0x0 DUP5 PUSH20 0xFFFFFFFFFFFFFFFFFFFFFFFFFFFFFFFFFFFFFFFF AND PUSH20 0xFFFFFFFFFFFFFFFFFFFFFFFFFFFFFFFFFFFFFFFF AND DUP2 MSTORE PUSH1 0x20 ADD SWAP1 DUP2 MSTORE PUSH1 0x20 ADD PUSH1 0x0 KECCAK256 SWAP1 POP DUP1 PUSH1 0x2 ADD SLOAD SWAP2 POP POP SWAP2 SWAP1 POP JUMP JUMPDEST PUSH1 0x0 PUSH1 0x3 PUSH1 0x0 DUP4 DUP2 MSTORE PUSH1 0x20 ADD SWAP1 DUP2 MSTORE PUSH1 0x20 ADD PUSH1 0x0 KECCAK256 SWAP1 POP CALLER PUSH20 0xFFFFFFFFFFFFFFFFFFFFFFFFFFFFFFFFFFFFFFFF AND DUP2 PUSH1 0x1 ADD PUSH1 0x0 SWAP1 SLOAD SWAP1 PUSH2 0x100 EXP SWAP1 DIV PUSH20 0xFFFFFFFFFFFFFFFFFFFFFFFFFFFFFFFFFFFFFFFF AND PUSH20 0xFFFFFFFFFFFFFFFFFFFFFFFFFFFFFFFFFFFFFFFF AND EQ PUSH2 0xA9F JUMPI PUSH1 0x0 DUP1 REVERT JUMPDEST PUSH1 0x1 ISZERO ISZERO DUP2 PUSH1 0x3 ADD PUSH1 0x0 SWAP1 SLOAD SWAP1 PUSH2 0x100 EXP SWAP1 DIV PUSH1 0xFF AND ISZERO ISZERO EQ PUSH2 0xAC1 JUMPI PUSH1 0x0 DUP1 REVERT JUMPDEST PUSH1 0x1 ISZERO ISZERO DUP2 PUSH1 0x3 ADD PUSH1 0x1 SWAP1 SLOAD SWAP1 PUSH2 0x100 EXP SWAP1 DIV PUSH1 0xFF AND ISZERO ISZERO EQ PUSH2 0xAE3 JUMPI PUSH1 0x0 DUP1 REVERT JUMPDEST PUSH1 0x1 ISZERO ISZERO DUP2 PUSH1 0x3 ADD PUSH1 0x2 SWAP1 SLOAD SWAP1 PUSH2 0x100 EXP SWAP1 DIV PUSH1 0xFF AND ISZERO ISZERO EQ PUSH2 0xB05 JUMPI PUSH1 0x0 DUP1 REVERT JUMPDEST PUSH1 0x1 ISZERO ISZERO DUP2 PUSH1 0x3 ADD PUSH1 0x3 SWAP1 SLOAD SWAP1 PUSH2 0x100 EXP SWAP1 DIV PUSH1 0xFF AND ISZERO ISZERO EQ PUSH2 0xB27 JUMPI PUSH1 0x0 DUP1 REVERT JUMPDEST PUSH1 0x0 DUP2 PUSH1 0x4 ADD SLOAD SWAP1 POP CALLER PUSH20 0xFFFFFFFFFFFFFFFFFFFFFFFFFFFFFFFFFFFFFFFF AND PUSH2 0x8FC DUP3 SWAP1 DUP2 ISZERO MUL SWAP1 PUSH1 0x40 MLOAD PUSH1 0x0 PUSH1 0x40 MLOAD DUP1 DUP4 SUB DUP2 DUP6 DUP9 DUP9 CALL SWAP4 POP POP POP POP ISZERO DUP1 ISZERO PUSH2 0xB76 JUMPI RETURNDATASIZE PUSH1 0x0 DUP1 RETURNDATACOPY RETURNDATASIZE PUSH1 0x0 REVERT JUMPDEST POP PUSH1 0x0 DUP3 PUSH1 0x4 ADD DUP2 SWAP1 SSTORE POP POP POP POP JUMP JUMPDEST PUSH1 0x0 PUSH1 0x3 PUSH1 0x0 DUP4 DUP2 MSTORE PUSH1 0x20 ADD SWAP1 DUP2 MSTORE PUSH1 0x20 ADD PUSH1 0x0 KECCAK256 SWAP1 POP CALLER PUSH20 0xFFFFFFFFFFFFFFFFFFFFFFFFFFFFFFFFFFFFFFFF AND DUP2 PUSH1 0x1 ADD PUSH1 0x0 SWAP1 SLOAD SWAP1 PUSH2 0x100 EXP SWAP1 DIV PUSH20 0xFFFFFFFFFFFFFFFFFFFFFFFFFFFFFFFFFFFFFFFF AND PUSH20 0xFFFFFFFFFFFFFFFFFFFFFFFFFFFFFFFFFFFFFFFF AND EQ PUSH2 0xBF9 JUMPI PUSH1 0x0 DUP1 REVERT JUMPDEST PUSH1 0x1 ISZERO ISZERO DUP2 PUSH1 0x3 ADD PUSH1 0x0 SWAP1 SLOAD SWAP1 PUSH2 0x100 EXP SWAP1 DIV PUSH1 0xFF AND ISZERO ISZERO EQ PUSH2 0xC1B JUMPI PUSH1 0x0 DUP1 REVERT JUMPDEST PUSH1 0x0 ISZERO ISZERO DUP2 PUSH1 0x3 ADD PUSH1 0x1 SWAP1 SLOAD SWAP1 PUSH2 0x100 EXP SWAP1 DIV PUSH1 0xFF AND ISZERO ISZERO EQ PUSH2 0xC3D JUMPI PUSH1 0x0 DUP1 REVERT JUMPDEST PUSH1 0x1 DUP2 PUSH1 0x3 ADD PUSH1 0x1 PUSH2 0x100 EXP DUP2 SLOAD DUP2 PUSH1 0xFF MUL NOT AND SWAP1 DUP4 ISZERO ISZERO MUL OR SWAP1 SSTORE POP PUSH1 0x0 PUSH1 0x4 PUSH1 0x0 CALLER PUSH20 0xFFFFFFFFFFFFFFFFFFFFFFFFFFFFFFFFFFFFFFFF AND PUSH20 0xFFFFFFFFFFFFFFFFFFFFFFFFFFFFFFFFFFFFFFFF AND DUP2 MSTORE PUSH1 0x20 ADD SWAP1 DUP2 MSTORE PUSH1 0x20 ADD PUSH1 0x0 KECCAK256 SWAP1 POP PUSH1 0xA DUP2 PUSH1 0x2 ADD PUSH1 0x0 DUP3 DUP3 SLOAD ADD SWAP3 POP POP DUP2 SWAP1 SSTORE POP POP POP POP JUMP JUMPDEST PUSH1 0x0 DUP1 PUSH1 0x3 PUSH1 0x0 DUP5 DUP2 MSTORE PUSH1 0x20 ADD SWAP1 DUP2 MSTORE PUSH1 0x20 ADD PUSH1 0x0 KECCAK256 SWAP1 POP DUP1 PUSH1 0x4 ADD SLOAD SWAP2 POP POP SWAP2 SWAP1 POP JUMP JUMPDEST PUSH1 0x0 PUSH1 0x4 PUSH1 0x0 CALLER PUSH20 0xFFFFFFFFFFFFFFFFFFFFFFFFFFFFFFFFFFFFFFFF AND PUSH20 0xFFFFFFFFFFFFFFFFFFFFFFFFFFFFFFFFFFFFFFFF AND DUP2 MSTORE PUSH1 0x20 ADD SWAP1 DUP2 MSTORE PUSH1 0x20 ADD PUSH1 0x0 KECCAK256 SWAP1 POP CALLER DUP2 PUSH1 0x0 ADD PUSH1 0x0 PUSH2 0x100 EXP DUP2 SLOAD DUP2 PUSH20 0xFFFFFFFFFFFFFFFFFFFFFFFFFFFFFFFFFFFFFFFF MUL NOT AND SWAP1 DUP4 PUSH20 0xFFFFFFFFFFFFFFFFFFFFFFFFFFFFFFFFFFFFFFFF AND MUL OR SWAP1 SSTORE POP DUP2 DUP2 PUSH1 0x1 ADD DUP2 SWAP1 SSTORE POP POP POP JUMP INVALID LOG2 PUSH6 0x627A7A723158 KECCAK256 0xD3 0xCC SSTORE SWAP3 SAR LOG1 DUP6 0xB9 PUSH16 0xD69F7CD28B0EBD8FAB713F4A0EBC7930 REVERT 0xF6 PUSH4 0x606D6D5 PUSH5 0x736F6C6343 STOP SDIV GT STOP ORIGIN "
				},
				"gasEstimates": {
					"creation": {
						"codeDepositCost": "698000",
						"executionCost": "41553",
						"totalCost": "739553"
					},
					"external": {
						"AcceptBooking(uint256)": "44907",
						"AcceptStatus(uint256)": "1384",
						"ApproveAds(uint256)": "25777",
						"ApprovedStatus(uint256)": "1318",
						"BookStatus(uint256)": "1268",
						"ChangePrice(uint256)": "41310",
						"CompleteAds(uint256)": "45835",
						"CompleteStatus(uint256)": "1406",
						"NewBooking(address,uint256)": "187658",
						"PaidOnContract(uint256)": "1263",
						"PointsBalance(address)": "1282",
						"ReceiveSalary(uint256)": "infinite",
						"TakeCoins()": "44489"
					}
				},
				"methodIdentifiers": {
					"AcceptBooking(uint256)": "e352893e",
					"AcceptStatus(uint256)": "8712c66e",
					"ApproveAds(uint256)": "1eb398af",
					"ApprovedStatus(uint256)": "318d6178",
					"BookStatus(uint256)": "9ddac05e",
					"ChangePrice(uint256)": "fb92488b",
					"CompleteAds(uint256)": "a07c81f0",
					"CompleteStatus(uint256)": "97190fae",
					"NewBooking(address,uint256)": "5bbf3050",
					"PaidOnContract(uint256)": "e6bf297b",
					"PointsBalance(address)": "a6602d5f",
					"ReceiveSalary(uint256)": "e0e1bd84",
					"TakeCoins()": "4f6109d6"
				}
			},
			"storageLayout": {
				"storage": [
					{
						"astId": 3,
						"contract": "B4B.CONTRACTS/b4b.sol:B4B",
						"label": "deployDate",
						"offset": 0,
						"slot": "0",
						"type": "t_uint256"
					},
					{
						"astId": 14,
						"contract": "B4B.CONTRACTS/b4b.sol:B4B",
						"label": "lastDistributionDate",
						"offset": 0,
						"slot": "1",
						"type": "t_uint256"
					},
					{
						"astId": 33,
						"contract": "B4B.CONTRACTS/b4b.sol:B4B",
						"label": "numCampaigns",
						"offset": 0,
						"slot": "2",
						"type": "t_uint256"
					},
					{
						"astId": 37,
						"contract": "B4B.CONTRACTS/b4b.sol:B4B",
						"label": "campaigns",
						"offset": 0,
						"slot": "3",
						"type": "t_mapping(t_uint256,t_struct(Campaign)31_storage)"
					},
					{
						"astId": 50,
						"contract": "B4B.CONTRACTS/b4b.sol:B4B",
						"label": "influencers",
						"offset": 0,
						"slot": "4",
						"type": "t_mapping(t_address,t_struct(Influencer)46_storage)"
					}
				],
				"types": {
					"t_address": {
						"encoding": "inplace",
						"label": "address",
						"numberOfBytes": "20"
					},
					"t_bool": {
						"encoding": "inplace",
						"label": "bool",
						"numberOfBytes": "1"
					},
					"t_mapping(t_address,t_struct(Influencer)46_storage)": {
						"encoding": "mapping",
						"key": "t_address",
						"label": "mapping(address => struct B4B.Influencer)",
						"numberOfBytes": "32",
						"value": "t_struct(Influencer)46_storage"
					},
					"t_mapping(t_uint256,t_struct(Campaign)31_storage)": {
						"encoding": "mapping",
						"key": "t_uint256",
						"label": "mapping(uint256 => struct B4B.Campaign)",
						"numberOfBytes": "32",
						"value": "t_struct(Campaign)31_storage"
					},
					"t_struct(Campaign)31_storage": {
						"encoding": "inplace",
						"label": "struct B4B.Campaign",
						"members": [
							{
								"astId": 16,
								"contract": "B4B.CONTRACTS/b4b.sol:B4B",
								"label": "brand_addr",
								"offset": 0,
								"slot": "0",
								"type": "t_address"
							},
							{
								"astId": 18,
								"contract": "B4B.CONTRACTS/b4b.sol:B4B",
								"label": "influencer_addr",
								"offset": 0,
								"slot": "1",
								"type": "t_address"
							},
							{
								"astId": 20,
								"contract": "B4B.CONTRACTS/b4b.sol:B4B",
								"label": "date",
								"offset": 0,
								"slot": "2",
								"type": "t_uint256"
							},
							{
								"astId": 22,
								"contract": "B4B.CONTRACTS/b4b.sol:B4B",
								"label": "book_status",
								"offset": 0,
								"slot": "3",
								"type": "t_bool"
							},
							{
								"astId": 24,
								"contract": "B4B.CONTRACTS/b4b.sol:B4B",
								"label": "accept_status",
								"offset": 1,
								"slot": "3",
								"type": "t_bool"
							},
							{
								"astId": 26,
								"contract": "B4B.CONTRACTS/b4b.sol:B4B",
								"label": "complete_status",
								"offset": 2,
								"slot": "3",
								"type": "t_bool"
							},
							{
								"astId": 28,
								"contract": "B4B.CONTRACTS/b4b.sol:B4B",
								"label": "approved_status",
								"offset": 3,
								"slot": "3",
								"type": "t_bool"
							},
							{
								"astId": 30,
								"contract": "B4B.CONTRACTS/b4b.sol:B4B",
								"label": "paid",
								"offset": 0,
								"slot": "4",
								"type": "t_uint256"
							}
						],
						"numberOfBytes": "160"
					},
					"t_struct(Influencer)46_storage": {
						"encoding": "inplace",
						"label": "struct B4B.Influencer",
						"members": [
							{
								"astId": 39,
								"contract": "B4B.CONTRACTS/b4b.sol:B4B",
								"label": "influencer_addr",
								"offset": 0,
								"slot": "0",
								"type": "t_address"
							},
							{
								"astId": 41,
								"contract": "B4B.CONTRACTS/b4b.sol:B4B",
								"label": "price",
								"offset": 0,
								"slot": "1",
								"type": "t_uint256"
							},
							{
								"astId": 43,
								"contract": "B4B.CONTRACTS/b4b.sol:B4B",
								"label": "points",
								"offset": 0,
								"slot": "2",
								"type": "t_uint256"
							},
							{
								"astId": 45,
								"contract": "B4B.CONTRACTS/b4b.sol:B4B",
								"label": "coins",
								"offset": 0,
								"slot": "3",
								"type": "t_uint256"
							}
						],
						"numberOfBytes": "128"
					},
					"t_uint256": {
						"encoding": "inplace",
						"label": "uint256",
						"numberOfBytes": "32"
					}
				}
			},
			"userdoc": {
				"methods": {}
			}
		}
	}
}