{
	"B4B.CONTRACTS/b4b.sol": {
		"B4B": {
			"abi": [
				{
					"inputs": [],
					"payable": false,
					"stateMutability": "nonpayable",
					"type": "constructor"
				},
				{
					"constant": false,
					"inputs": [
						{
							"internalType": "uint256",
							"name": "_campaignID",
							"type": "uint256"
						}
					],
					"name": "AcceptBooking",
					"outputs": [],
					"payable": false,
					"stateMutability": "nonpayable",
					"type": "function"
				},
				{
					"constant": true,
					"inputs": [
						{
							"internalType": "uint256",
							"name": "_campaignID",
							"type": "uint256"
						}
					],
					"name": "AcceptStatus",
					"outputs": [
						{
							"internalType": "bool",
							"name": "",
							"type": "bool"
						}
					],
					"payable": false,
					"stateMutability": "view",
					"type": "function"
				},
				{
					"constant": false,
					"inputs": [
						{
							"internalType": "uint256",
							"name": "_campaignID",
							"type": "uint256"
						}
					],
					"name": "ApproveAds",
					"outputs": [],
					"payable": false,
					"stateMutability": "nonpayable",
					"type": "function"
				},
				{
					"constant": true,
					"inputs": [
						{
							"internalType": "uint256",
							"name": "_campaignID",
							"type": "uint256"
						}
					],
					"name": "ApprovedStatus",
					"outputs": [
						{
							"internalType": "bool",
							"name": "",
							"type": "bool"
						}
					],
					"payable": false,
					"stateMutability": "view",
					"type": "function"
				},
				{
					"constant": true,
					"inputs": [
						{
							"internalType": "uint256",
							"name": "_campaignID",
							"type": "uint256"
						}
					],
					"name": "BookStatus",
					"outputs": [
						{
							"internalType": "bool",
							"name": "",
							"type": "bool"
						}
					],
					"payable": false,
					"stateMutability": "view",
					"type": "function"
				},
				{
					"constant": false,
					"inputs": [
						{
							"internalType": "uint256",
							"name": "_price",
							"type": "uint256"
						}
					],
					"name": "ChangePrice",
					"outputs": [],
					"payable": false,
					"stateMutability": "nonpayable",
					"type": "function"
				},
				{
					"constant": false,
					"inputs": [
						{
							"internalType": "uint256",
							"name": "_campaignID",
							"type": "uint256"
						}
					],
					"name": "CompleteAds",
					"outputs": [],
					"payable": false,
					"stateMutability": "nonpayable",
					"type": "function"
				},
				{
					"constant": true,
					"inputs": [
						{
							"internalType": "uint256",
							"name": "_campaignID",
							"type": "uint256"
						}
					],
					"name": "CompleteStatus",
					"outputs": [
						{
							"internalType": "bool",
							"name": "",
							"type": "bool"
						}
					],
					"payable": false,
					"stateMutability": "view",
					"type": "function"
				},
				{
					"constant": false,
					"inputs": [
						{
							"internalType": "address",
							"name": "_influencer",
							"type": "address"
						}
					],
					"name": "NewBooking",
					"outputs": [
						{
							"internalType": "uint256",
							"name": "campaignID",
							"type": "uint256"
						}
					],
					"payable": true,
					"stateMutability": "payable",
					"type": "function"
				},
				{
					"constant": true,
					"inputs": [
						{
							"internalType": "uint256",
							"name": "_campaignID",
							"type": "uint256"
						}
					],
					"name": "PaidOnContract",
					"outputs": [
						{
							"internalType": "uint256",
							"name": "",
							"type": "uint256"
						}
					],
					"payable": false,
					"stateMutability": "view",
					"type": "function"
				},
				{
					"constant": true,
					"inputs": [
						{
							"internalType": "address",
							"name": "_influencer",
							"type": "address"
						}
					],
					"name": "PointsBalance",
					"outputs": [
						{
							"internalType": "uint256",
							"name": "",
							"type": "uint256"
						}
					],
					"payable": false,
					"stateMutability": "view",
					"type": "function"
				},
				{
					"constant": false,
					"inputs": [
						{
							"internalType": "uint256",
							"name": "_campaignID",
							"type": "uint256"
						}
					],
					"name": "ReceiveSalary",
					"outputs": [],
					"payable": false,
					"stateMutability": "nonpayable",
					"type": "function"
				},
				{
					"constant": false,
					"inputs": [],
					"name": "TakeCoins",
					"outputs": [
						{
							"internalType": "uint256",
							"name": "",
							"type": "uint256"
						}
					],
					"payable": false,
					"stateMutability": "nonpayable",
					"type": "function"
				}
			],
			"devdoc": {
				"methods": {}
			},
			"evm": {
				"assembly": "    /* \"B4B.CONTRACTS/b4b.sol\":24:4906  contract B4B {... */\n  mstore(0x40, 0x80)\n    /* \"B4B.CONTRACTS/b4b.sol\":66:116  constructor() public {... */\n  callvalue\n    /* \"--CODEGEN--\":8:17   */\n  dup1\n    /* \"--CODEGEN--\":5:7   */\n  iszero\n  tag_1\n  jumpi\n    /* \"--CODEGEN--\":30:31   */\n  0x00\n    /* \"--CODEGEN--\":27:28   */\n  dup1\n    /* \"--CODEGEN--\":20:32   */\n  revert\n    /* \"--CODEGEN--\":5:7   */\ntag_1:\n    /* \"B4B.CONTRACTS/b4b.sol\":66:116  constructor() public {... */\n  pop\n    /* \"B4B.CONTRACTS/b4b.sol\":106:109  now */\n  timestamp\n    /* \"B4B.CONTRACTS/b4b.sol\":93:103  deployDate */\n  0x00\n    /* \"B4B.CONTRACTS/b4b.sol\":93:109  deployDate = now */\n  dup2\n  swap1\n  sstore\n  pop\n    /* \"B4B.CONTRACTS/b4b.sol\":24:4906  contract B4B {... */\n  dataSize(sub_0)\n  dup1\n  dataOffset(sub_0)\n  0x00\n  codecopy\n  0x00\n  return\nstop\n\nsub_0: assembly {\n        /* \"B4B.CONTRACTS/b4b.sol\":24:4906  contract B4B {... */\n      mstore(0x40, 0x80)\n      jumpi(tag_1, lt(calldatasize, 0x04))\n      shr(0xe0, calldataload(0x00))\n      dup1\n      0x9ddac05e\n      gt\n      tag_15\n      jumpi\n      dup1\n      0xe0e1bd84\n      gt\n      tag_16\n      jumpi\n      dup1\n      0xe0e1bd84\n      eq\n      tag_11\n      jumpi\n      dup1\n      0xe352893e\n      eq\n      tag_12\n      jumpi\n      dup1\n      0xe6bf297b\n      eq\n      tag_13\n      jumpi\n      dup1\n      0xfb92488b\n      eq\n      tag_14\n      jumpi\n      jump(tag_1)\n    tag_16:\n      dup1\n      0x9ddac05e\n      eq\n      tag_8\n      jumpi\n      dup1\n      0xa07c81f0\n      eq\n      tag_9\n      jumpi\n      dup1\n      0xa6602d5f\n      eq\n      tag_10\n      jumpi\n      jump(tag_1)\n    tag_15:\n      dup1\n      0x1172cde8\n      eq\n      tag_2\n      jumpi\n      dup1\n      0x1eb398af\n      eq\n      tag_3\n      jumpi\n      dup1\n      0x318d6178\n      eq\n      tag_4\n      jumpi\n      dup1\n      0x4f6109d6\n      eq\n      tag_5\n      jumpi\n      dup1\n      0x8712c66e\n      eq\n      tag_6\n      jumpi\n      dup1\n      0x97190fae\n      eq\n      tag_7\n      jumpi\n    tag_1:\n      0x00\n      dup1\n      revert\n        /* \"B4B.CONTRACTS/b4b.sol\":1324:1857  function NewBooking (address  _influencer) public payable returns (uint campaignID) {... */\n    tag_2:\n      tag_17\n      0x04\n      dup1\n      calldatasize\n      sub\n        /* \"--CODEGEN--\":13:15   */\n      0x20\n        /* \"--CODEGEN--\":8:11   */\n      dup2\n        /* \"--CODEGEN--\":5:16   */\n      lt\n        /* \"--CODEGEN--\":2:4   */\n      iszero\n      tag_18\n      jumpi\n        /* \"--CODEGEN--\":29:30   */\n      0x00\n        /* \"--CODEGEN--\":26:27   */\n      dup1\n        /* \"--CODEGEN--\":19:31   */\n      revert\n        /* \"--CODEGEN--\":2:4   */\n    tag_18:\n        /* \"B4B.CONTRACTS/b4b.sol\":1324:1857  function NewBooking (address  _influencer) public payable returns (uint campaignID) {... */\n      dup2\n      add\n      swap1\n      dup1\n      dup1\n      calldataload\n      0xffffffffffffffffffffffffffffffffffffffff\n      and\n      swap1\n      0x20\n      add\n      swap1\n      swap3\n      swap2\n      swap1\n      pop\n      pop\n      pop\n      tag_19\n      jump\t// in\n    tag_17:\n      mload(0x40)\n      dup1\n      dup3\n      dup2\n      mstore\n      0x20\n      add\n      swap2\n      pop\n      pop\n      mload(0x40)\n      dup1\n      swap2\n      sub\n      swap1\n      return\n        /* \"B4B.CONTRACTS/b4b.sol\":2798:3147  function ApproveAds (uint _campaignID) public {... */\n    tag_3:\n      callvalue\n        /* \"--CODEGEN--\":8:17   */\n      dup1\n        /* \"--CODEGEN--\":5:7   */\n      iszero\n      tag_20\n      jumpi\n        /* \"--CODEGEN--\":30:31   */\n      0x00\n        /* \"--CODEGEN--\":27:28   */\n      dup1\n        /* \"--CODEGEN--\":20:32   */\n      revert\n        /* \"--CODEGEN--\":5:7   */\n    tag_20:\n        /* \"B4B.CONTRACTS/b4b.sol\":2798:3147  function ApproveAds (uint _campaignID) public {... */\n      pop\n      tag_21\n      0x04\n      dup1\n      calldatasize\n      sub\n        /* \"--CODEGEN--\":13:15   */\n      0x20\n        /* \"--CODEGEN--\":8:11   */\n      dup2\n        /* \"--CODEGEN--\":5:16   */\n      lt\n        /* \"--CODEGEN--\":2:4   */\n      iszero\n      tag_22\n      jumpi\n        /* \"--CODEGEN--\":29:30   */\n      0x00\n        /* \"--CODEGEN--\":26:27   */\n      dup1\n        /* \"--CODEGEN--\":19:31   */\n      revert\n        /* \"--CODEGEN--\":2:4   */\n    tag_22:\n        /* \"B4B.CONTRACTS/b4b.sol\":2798:3147  function ApproveAds (uint _campaignID) public {... */\n      dup2\n      add\n      swap1\n      dup1\n      dup1\n      calldataload\n      swap1\n      0x20\n      add\n      swap1\n      swap3\n      swap2\n      swap1\n      pop\n      pop\n      pop\n      tag_23\n      jump\t// in\n    tag_21:\n      stop\n        /* \"B4B.CONTRACTS/b4b.sol\":4079:4242  function ApprovedStatus(uint _campaignID) public view returns (bool) {... */\n    tag_4:\n      callvalue\n        /* \"--CODEGEN--\":8:17   */\n      dup1\n        /* \"--CODEGEN--\":5:7   */\n      iszero\n      tag_24\n      jumpi\n        /* \"--CODEGEN--\":30:31   */\n      0x00\n        /* \"--CODEGEN--\":27:28   */\n      dup1\n        /* \"--CODEGEN--\":20:32   */\n      revert\n        /* \"--CODEGEN--\":5:7   */\n    tag_24:\n        /* \"B4B.CONTRACTS/b4b.sol\":4079:4242  function ApprovedStatus(uint _campaignID) public view returns (bool) {... */\n      pop\n      tag_25\n      0x04\n      dup1\n      calldatasize\n      sub\n        /* \"--CODEGEN--\":13:15   */\n      0x20\n        /* \"--CODEGEN--\":8:11   */\n      dup2\n        /* \"--CODEGEN--\":5:16   */\n      lt\n        /* \"--CODEGEN--\":2:4   */\n      iszero\n      tag_26\n      jumpi\n        /* \"--CODEGEN--\":29:30   */\n      0x00\n        /* \"--CODEGEN--\":26:27   */\n      dup1\n        /* \"--CODEGEN--\":19:31   */\n      revert\n        /* \"--CODEGEN--\":2:4   */\n    tag_26:\n        /* \"B4B.CONTRACTS/b4b.sol\":4079:4242  function ApprovedStatus(uint _campaignID) public view returns (bool) {... */\n      dup2\n      add\n      swap1\n      dup1\n      dup1\n      calldataload\n      swap1\n      0x20\n      add\n      swap1\n      swap3\n      swap2\n      swap1\n      pop\n      pop\n      pop\n      tag_27\n      jump\t// in\n    tag_25:\n      mload(0x40)\n      dup1\n      dup3\n      iszero\n      iszero\n      iszero\n      iszero\n      dup2\n      mstore\n      0x20\n      add\n      swap2\n      pop\n      pop\n      mload(0x40)\n      dup1\n      swap2\n      sub\n      swap1\n      return\n        /* \"B4B.CONTRACTS/b4b.sol\":4580:4904  function TakeCoins () public returns (uint256) {... */\n    tag_5:\n      callvalue\n        /* \"--CODEGEN--\":8:17   */\n      dup1\n        /* \"--CODEGEN--\":5:7   */\n      iszero\n      tag_28\n      jumpi\n        /* \"--CODEGEN--\":30:31   */\n      0x00\n        /* \"--CODEGEN--\":27:28   */\n      dup1\n        /* \"--CODEGEN--\":20:32   */\n      revert\n        /* \"--CODEGEN--\":5:7   */\n    tag_28:\n        /* \"B4B.CONTRACTS/b4b.sol\":4580:4904  function TakeCoins () public returns (uint256) {... */\n      pop\n      tag_29\n      tag_30\n      jump\t// in\n    tag_29:\n      mload(0x40)\n      dup1\n      dup3\n      dup2\n      mstore\n      0x20\n      add\n      swap2\n      pop\n      pop\n      mload(0x40)\n      dup1\n      swap2\n      sub\n      swap1\n      return\n        /* \"B4B.CONTRACTS/b4b.sol\":3737:3896  function AcceptStatus(uint _campaignID) public view returns (bool) {... */\n    tag_6:\n      callvalue\n        /* \"--CODEGEN--\":8:17   */\n      dup1\n        /* \"--CODEGEN--\":5:7   */\n      iszero\n      tag_31\n      jumpi\n        /* \"--CODEGEN--\":30:31   */\n      0x00\n        /* \"--CODEGEN--\":27:28   */\n      dup1\n        /* \"--CODEGEN--\":20:32   */\n      revert\n        /* \"--CODEGEN--\":5:7   */\n    tag_31:\n        /* \"B4B.CONTRACTS/b4b.sol\":3737:3896  function AcceptStatus(uint _campaignID) public view returns (bool) {... */\n      pop\n      tag_32\n      0x04\n      dup1\n      calldatasize\n      sub\n        /* \"--CODEGEN--\":13:15   */\n      0x20\n        /* \"--CODEGEN--\":8:11   */\n      dup2\n        /* \"--CODEGEN--\":5:16   */\n      lt\n        /* \"--CODEGEN--\":2:4   */\n      iszero\n      tag_33\n      jumpi\n        /* \"--CODEGEN--\":29:30   */\n      0x00\n        /* \"--CODEGEN--\":26:27   */\n      dup1\n        /* \"--CODEGEN--\":19:31   */\n      revert\n        /* \"--CODEGEN--\":2:4   */\n    tag_33:\n        /* \"B4B.CONTRACTS/b4b.sol\":3737:3896  function AcceptStatus(uint _campaignID) public view returns (bool) {... */\n      dup2\n      add\n      swap1\n      dup1\n      dup1\n      calldataload\n      swap1\n      0x20\n      add\n      swap1\n      swap3\n      swap2\n      swap1\n      pop\n      pop\n      pop\n      tag_34\n      jump\t// in\n    tag_32:\n      mload(0x40)\n      dup1\n      dup3\n      iszero\n      iszero\n      iszero\n      iszero\n      dup2\n      mstore\n      0x20\n      add\n      swap2\n      pop\n      pop\n      mload(0x40)\n      dup1\n      swap2\n      sub\n      swap1\n      return\n        /* \"B4B.CONTRACTS/b4b.sol\":3906:4069  function CompleteStatus(uint _campaignID) public view returns (bool) {... */\n    tag_7:\n      callvalue\n        /* \"--CODEGEN--\":8:17   */\n      dup1\n        /* \"--CODEGEN--\":5:7   */\n      iszero\n      tag_35\n      jumpi\n        /* \"--CODEGEN--\":30:31   */\n      0x00\n        /* \"--CODEGEN--\":27:28   */\n      dup1\n        /* \"--CODEGEN--\":20:32   */\n      revert\n        /* \"--CODEGEN--\":5:7   */\n    tag_35:\n        /* \"B4B.CONTRACTS/b4b.sol\":3906:4069  function CompleteStatus(uint _campaignID) public view returns (bool) {... */\n      pop\n      tag_36\n      0x04\n      dup1\n      calldatasize\n      sub\n        /* \"--CODEGEN--\":13:15   */\n      0x20\n        /* \"--CODEGEN--\":8:11   */\n      dup2\n        /* \"--CODEGEN--\":5:16   */\n      lt\n        /* \"--CODEGEN--\":2:4   */\n      iszero\n      tag_37\n      jumpi\n        /* \"--CODEGEN--\":29:30   */\n      0x00\n        /* \"--CODEGEN--\":26:27   */\n      dup1\n        /* \"--CODEGEN--\":19:31   */\n      revert\n        /* \"--CODEGEN--\":2:4   */\n    tag_37:\n        /* \"B4B.CONTRACTS/b4b.sol\":3906:4069  function CompleteStatus(uint _campaignID) public view returns (bool) {... */\n      dup2\n      add\n      swap1\n      dup1\n      dup1\n      calldataload\n      swap1\n      0x20\n      add\n      swap1\n      swap3\n      swap2\n      swap1\n      pop\n      pop\n      pop\n      tag_38\n      jump\t// in\n    tag_36:\n      mload(0x40)\n      dup1\n      dup3\n      iszero\n      iszero\n      iszero\n      iszero\n      dup2\n      mstore\n      0x20\n      add\n      swap2\n      pop\n      pop\n      mload(0x40)\n      dup1\n      swap2\n      sub\n      swap1\n      return\n        /* \"B4B.CONTRACTS/b4b.sol\":3572:3727  function BookStatus(uint _campaignID) public view returns (bool) {... */\n    tag_8:\n      callvalue\n        /* \"--CODEGEN--\":8:17   */\n      dup1\n        /* \"--CODEGEN--\":5:7   */\n      iszero\n      tag_39\n      jumpi\n        /* \"--CODEGEN--\":30:31   */\n      0x00\n        /* \"--CODEGEN--\":27:28   */\n      dup1\n        /* \"--CODEGEN--\":20:32   */\n      revert\n        /* \"--CODEGEN--\":5:7   */\n    tag_39:\n        /* \"B4B.CONTRACTS/b4b.sol\":3572:3727  function BookStatus(uint _campaignID) public view returns (bool) {... */\n      pop\n      tag_40\n      0x04\n      dup1\n      calldatasize\n      sub\n        /* \"--CODEGEN--\":13:15   */\n      0x20\n        /* \"--CODEGEN--\":8:11   */\n      dup2\n        /* \"--CODEGEN--\":5:16   */\n      lt\n        /* \"--CODEGEN--\":2:4   */\n      iszero\n      tag_41\n      jumpi\n        /* \"--CODEGEN--\":29:30   */\n      0x00\n        /* \"--CODEGEN--\":26:27   */\n      dup1\n        /* \"--CODEGEN--\":19:31   */\n      revert\n        /* \"--CODEGEN--\":2:4   */\n    tag_41:\n        /* \"B4B.CONTRACTS/b4b.sol\":3572:3727  function BookStatus(uint _campaignID) public view returns (bool) {... */\n      dup2\n      add\n      swap1\n      dup1\n      dup1\n      calldataload\n      swap1\n      0x20\n      add\n      swap1\n      swap3\n      swap2\n      swap1\n      pop\n      pop\n      pop\n      tag_42\n      jump\t// in\n    tag_40:\n      mload(0x40)\n      dup1\n      dup3\n      iszero\n      iszero\n      iszero\n      iszero\n      dup2\n      mstore\n      0x20\n      add\n      swap2\n      pop\n      pop\n      mload(0x40)\n      dup1\n      swap2\n      sub\n      swap1\n      return\n        /* \"B4B.CONTRACTS/b4b.sol\":2309:2792  function CompleteAds (uint _campaignID) public {... */\n    tag_9:\n      callvalue\n        /* \"--CODEGEN--\":8:17   */\n      dup1\n        /* \"--CODEGEN--\":5:7   */\n      iszero\n      tag_43\n      jumpi\n        /* \"--CODEGEN--\":30:31   */\n      0x00\n        /* \"--CODEGEN--\":27:28   */\n      dup1\n        /* \"--CODEGEN--\":20:32   */\n      revert\n        /* \"--CODEGEN--\":5:7   */\n    tag_43:\n        /* \"B4B.CONTRACTS/b4b.sol\":2309:2792  function CompleteAds (uint _campaignID) public {... */\n      pop\n      tag_44\n      0x04\n      dup1\n      calldatasize\n      sub\n        /* \"--CODEGEN--\":13:15   */\n      0x20\n        /* \"--CODEGEN--\":8:11   */\n      dup2\n        /* \"--CODEGEN--\":5:16   */\n      lt\n        /* \"--CODEGEN--\":2:4   */\n      iszero\n      tag_45\n      jumpi\n        /* \"--CODEGEN--\":29:30   */\n      0x00\n        /* \"--CODEGEN--\":26:27   */\n      dup1\n        /* \"--CODEGEN--\":19:31   */\n      revert\n        /* \"--CODEGEN--\":2:4   */\n    tag_45:\n        /* \"B4B.CONTRACTS/b4b.sol\":2309:2792  function CompleteAds (uint _campaignID) public {... */\n      dup2\n      add\n      swap1\n      dup1\n      dup1\n      calldataload\n      swap1\n      0x20\n      add\n      swap1\n      swap3\n      swap2\n      swap1\n      pop\n      pop\n      pop\n      tag_46\n      jump\t// in\n    tag_44:\n      stop\n        /* \"B4B.CONTRACTS/b4b.sol\":4410:4574  function PointsBalance (address _influencer) public view returns (uint256) {... */\n    tag_10:\n      callvalue\n        /* \"--CODEGEN--\":8:17   */\n      dup1\n        /* \"--CODEGEN--\":5:7   */\n      iszero\n      tag_47\n      jumpi\n        /* \"--CODEGEN--\":30:31   */\n      0x00\n        /* \"--CODEGEN--\":27:28   */\n      dup1\n        /* \"--CODEGEN--\":20:32   */\n      revert\n        /* \"--CODEGEN--\":5:7   */\n    tag_47:\n        /* \"B4B.CONTRACTS/b4b.sol\":4410:4574  function PointsBalance (address _influencer) public view returns (uint256) {... */\n      pop\n      tag_48\n      0x04\n      dup1\n      calldatasize\n      sub\n        /* \"--CODEGEN--\":13:15   */\n      0x20\n        /* \"--CODEGEN--\":8:11   */\n      dup2\n        /* \"--CODEGEN--\":5:16   */\n      lt\n        /* \"--CODEGEN--\":2:4   */\n      iszero\n      tag_49\n      jumpi\n        /* \"--CODEGEN--\":29:30   */\n      0x00\n        /* \"--CODEGEN--\":26:27   */\n      dup1\n        /* \"--CODEGEN--\":19:31   */\n      revert\n        /* \"--CODEGEN--\":2:4   */\n    tag_49:\n        /* \"B4B.CONTRACTS/b4b.sol\":4410:4574  function PointsBalance (address _influencer) public view returns (uint256) {... */\n      dup2\n      add\n      swap1\n      dup1\n      dup1\n      calldataload\n      0xffffffffffffffffffffffffffffffffffffffff\n      and\n      swap1\n      0x20\n      add\n      swap1\n      swap3\n      swap2\n      swap1\n      pop\n      pop\n      pop\n      tag_50\n      jump\t// in\n    tag_48:\n      mload(0x40)\n      dup1\n      dup3\n      dup2\n      mstore\n      0x20\n      add\n      swap2\n      pop\n      pop\n      mload(0x40)\n      dup1\n      swap2\n      sub\n      swap1\n      return\n        /* \"B4B.CONTRACTS/b4b.sol\":3153:3566  function ReceiveSalary (uint _campaignID) public {... */\n    tag_11:\n      callvalue\n        /* \"--CODEGEN--\":8:17   */\n      dup1\n        /* \"--CODEGEN--\":5:7   */\n      iszero\n      tag_51\n      jumpi\n        /* \"--CODEGEN--\":30:31   */\n      0x00\n        /* \"--CODEGEN--\":27:28   */\n      dup1\n        /* \"--CODEGEN--\":20:32   */\n      revert\n        /* \"--CODEGEN--\":5:7   */\n    tag_51:\n        /* \"B4B.CONTRACTS/b4b.sol\":3153:3566  function ReceiveSalary (uint _campaignID) public {... */\n      pop\n      tag_52\n      0x04\n      dup1\n      calldatasize\n      sub\n        /* \"--CODEGEN--\":13:15   */\n      0x20\n        /* \"--CODEGEN--\":8:11   */\n      dup2\n        /* \"--CODEGEN--\":5:16   */\n      lt\n        /* \"--CODEGEN--\":2:4   */\n      iszero\n      tag_53\n      jumpi\n        /* \"--CODEGEN--\":29:30   */\n      0x00\n        /* \"--CODEGEN--\":26:27   */\n      dup1\n        /* \"--CODEGEN--\":19:31   */\n      revert\n        /* \"--CODEGEN--\":2:4   */\n    tag_53:\n        /* \"B4B.CONTRACTS/b4b.sol\":3153:3566  function ReceiveSalary (uint _campaignID) public {... */\n      dup2\n      add\n      swap1\n      dup1\n      dup1\n      calldataload\n      swap1\n      0x20\n      add\n      swap1\n      swap3\n      swap2\n      swap1\n      pop\n      pop\n      pop\n      tag_54\n      jump\t// in\n    tag_52:\n      stop\n        /* \"B4B.CONTRACTS/b4b.sol\":1863:2303  function AcceptBooking (uint _campaignID) public {... */\n    tag_12:\n      callvalue\n        /* \"--CODEGEN--\":8:17   */\n      dup1\n        /* \"--CODEGEN--\":5:7   */\n      iszero\n      tag_55\n      jumpi\n        /* \"--CODEGEN--\":30:31   */\n      0x00\n        /* \"--CODEGEN--\":27:28   */\n      dup1\n        /* \"--CODEGEN--\":20:32   */\n      revert\n        /* \"--CODEGEN--\":5:7   */\n    tag_55:\n        /* \"B4B.CONTRACTS/b4b.sol\":1863:2303  function AcceptBooking (uint _campaignID) public {... */\n      pop\n      tag_56\n      0x04\n      dup1\n      calldatasize\n      sub\n        /* \"--CODEGEN--\":13:15   */\n      0x20\n        /* \"--CODEGEN--\":8:11   */\n      dup2\n        /* \"--CODEGEN--\":5:16   */\n      lt\n        /* \"--CODEGEN--\":2:4   */\n      iszero\n      tag_57\n      jumpi\n        /* \"--CODEGEN--\":29:30   */\n      0x00\n        /* \"--CODEGEN--\":26:27   */\n      dup1\n        /* \"--CODEGEN--\":19:31   */\n      revert\n        /* \"--CODEGEN--\":2:4   */\n    tag_57:\n        /* \"B4B.CONTRACTS/b4b.sol\":1863:2303  function AcceptBooking (uint _campaignID) public {... */\n      dup2\n      add\n      swap1\n      dup1\n      dup1\n      calldataload\n      swap1\n      0x20\n      add\n      swap1\n      swap3\n      swap2\n      swap1\n      pop\n      pop\n      pop\n      tag_58\n      jump\t// in\n    tag_56:\n      stop\n        /* \"B4B.CONTRACTS/b4b.sol\":4248:4404  function PaidOnContract (uint _campaignID) public view returns (uint256) {... */\n    tag_13:\n      callvalue\n        /* \"--CODEGEN--\":8:17   */\n      dup1\n        /* \"--CODEGEN--\":5:7   */\n      iszero\n      tag_59\n      jumpi\n        /* \"--CODEGEN--\":30:31   */\n      0x00\n        /* \"--CODEGEN--\":27:28   */\n      dup1\n        /* \"--CODEGEN--\":20:32   */\n      revert\n        /* \"--CODEGEN--\":5:7   */\n    tag_59:\n        /* \"B4B.CONTRACTS/b4b.sol\":4248:4404  function PaidOnContract (uint _campaignID) public view returns (uint256) {... */\n      pop\n      tag_60\n      0x04\n      dup1\n      calldatasize\n      sub\n        /* \"--CODEGEN--\":13:15   */\n      0x20\n        /* \"--CODEGEN--\":8:11   */\n      dup2\n        /* \"--CODEGEN--\":5:16   */\n      lt\n        /* \"--CODEGEN--\":2:4   */\n      iszero\n      tag_61\n      jumpi\n        /* \"--CODEGEN--\":29:30   */\n      0x00\n        /* \"--CODEGEN--\":26:27   */\n      dup1\n        /* \"--CODEGEN--\":19:31   */\n      revert\n        /* \"--CODEGEN--\":2:4   */\n    tag_61:\n        /* \"B4B.CONTRACTS/b4b.sol\":4248:4404  function PaidOnContract (uint _campaignID) public view returns (uint256) {... */\n      dup2\n      add\n      swap1\n      dup1\n      dup1\n      calldataload\n      swap1\n      0x20\n      add\n      swap1\n      swap3\n      swap2\n      swap1\n      pop\n      pop\n      pop\n      tag_62\n      jump\t// in\n    tag_60:\n      mload(0x40)\n      dup1\n      dup3\n      dup2\n      mstore\n      0x20\n      add\n      swap2\n      pop\n      pop\n      mload(0x40)\n      dup1\n      swap2\n      sub\n      swap1\n      return\n        /* \"B4B.CONTRACTS/b4b.sol\":1144:1318  function ChangePrice (uint256 _price) public {... */\n    tag_14:\n      callvalue\n        /* \"--CODEGEN--\":8:17   */\n      dup1\n        /* \"--CODEGEN--\":5:7   */\n      iszero\n      tag_63\n      jumpi\n        /* \"--CODEGEN--\":30:31   */\n      0x00\n        /* \"--CODEGEN--\":27:28   */\n      dup1\n        /* \"--CODEGEN--\":20:32   */\n      revert\n        /* \"--CODEGEN--\":5:7   */\n    tag_63:\n        /* \"B4B.CONTRACTS/b4b.sol\":1144:1318  function ChangePrice (uint256 _price) public {... */\n      pop\n      tag_64\n      0x04\n      dup1\n      calldatasize\n      sub\n        /* \"--CODEGEN--\":13:15   */\n      0x20\n        /* \"--CODEGEN--\":8:11   */\n      dup2\n        /* \"--CODEGEN--\":5:16   */\n      lt\n        /* \"--CODEGEN--\":2:4   */\n      iszero\n      tag_65\n      jumpi\n        /* \"--CODEGEN--\":29:30   */\n      0x00\n        /* \"--CODEGEN--\":26:27   */\n      dup1\n        /* \"--CODEGEN--\":19:31   */\n      revert\n        /* \"--CODEGEN--\":2:4   */\n    tag_65:\n        /* \"B4B.CONTRACTS/b4b.sol\":1144:1318  function ChangePrice (uint256 _price) public {... */\n      dup2\n      add\n      swap1\n      dup1\n      dup1\n      calldataload\n      swap1\n      0x20\n      add\n      swap1\n      swap3\n      swap2\n      swap1\n      pop\n      pop\n      pop\n      tag_66\n      jump\t// in\n    tag_64:\n      stop\n        /* \"B4B.CONTRACTS/b4b.sol\":1324:1857  function NewBooking (address  _influencer) public payable returns (uint campaignID) {... */\n    tag_19:\n        /* \"B4B.CONTRACTS/b4b.sol\":1391:1406  uint campaignID */\n      0x00\n        /* \"B4B.CONTRACTS/b4b.sol\":1418:1438  Influencer storage i */\n      dup1\n        /* \"B4B.CONTRACTS/b4b.sol\":1441:1452  influencers */\n      0x03\n        /* \"B4B.CONTRACTS/b4b.sol\":1441:1465  influencers[_influencer] */\n      0x00\n        /* \"B4B.CONTRACTS/b4b.sol\":1453:1464  _influencer */\n      dup5\n        /* \"B4B.CONTRACTS/b4b.sol\":1441:1465  influencers[_influencer] */\n      0xffffffffffffffffffffffffffffffffffffffff\n      and\n      0xffffffffffffffffffffffffffffffffffffffff\n      and\n      dup2\n      mstore\n      0x20\n      add\n      swap1\n      dup2\n      mstore\n      0x20\n      add\n      0x00\n      keccak256\n        /* \"B4B.CONTRACTS/b4b.sol\":1418:1465  Influencer storage i = influencers[_influencer] */\n      swap1\n      pop\n        /* \"B4B.CONTRACTS/b4b.sol\":1495:1504  msg.value */\n      callvalue\n        /* \"B4B.CONTRACTS/b4b.sol\":1484:1485  i */\n      dup2\n        /* \"B4B.CONTRACTS/b4b.sol\":1484:1491  i.price */\n      0x01\n      add\n      sload\n        /* \"B4B.CONTRACTS/b4b.sol\":1484:1504  i.price == msg.value */\n      eq\n        /* \"B4B.CONTRACTS/b4b.sol\":1475:1505  require (i.price == msg.value) */\n      tag_68\n      jumpi\n      0x00\n      dup1\n      revert\n    tag_68:\n        /* \"B4B.CONTRACTS/b4b.sol\":1527:1539  numCampaigns */\n      0x01\n      0x00\n        /* \"B4B.CONTRACTS/b4b.sol\":1527:1541  numCampaigns++ */\n      dup2\n      sload\n      dup1\n      swap3\n      swap2\n      swap1\n      0x01\n      add\n      swap2\n      swap1\n      pop\n      sstore\n        /* \"B4B.CONTRACTS/b4b.sol\":1516:1541  campaignID=numCampaigns++ */\n      swap2\n      pop\n        /* \"B4B.CONTRACTS/b4b.sol\":1551:1569  Campaign storage c */\n      0x00\n        /* \"B4B.CONTRACTS/b4b.sol\":1572:1581  campaigns */\n      0x02\n        /* \"B4B.CONTRACTS/b4b.sol\":1572:1593  campaigns[campaignID] */\n      0x00\n        /* \"B4B.CONTRACTS/b4b.sol\":1582:1592  campaignID */\n      dup5\n        /* \"B4B.CONTRACTS/b4b.sol\":1572:1593  campaigns[campaignID] */\n      dup2\n      mstore\n      0x20\n      add\n      swap1\n      dup2\n      mstore\n      0x20\n      add\n      0x00\n      keccak256\n        /* \"B4B.CONTRACTS/b4b.sol\":1551:1593  Campaign storage c = campaigns[campaignID] */\n      swap1\n      pop\n        /* \"B4B.CONTRACTS/b4b.sol\":1618:1628  msg.sender */\n      caller\n        /* \"B4B.CONTRACTS/b4b.sol\":1603:1604  c */\n      dup2\n        /* \"B4B.CONTRACTS/b4b.sol\":1603:1615  c.brand_addr */\n      0x00\n      add\n      0x00\n        /* \"B4B.CONTRACTS/b4b.sol\":1603:1628  c.brand_addr = msg.sender */\n      0x0100\n      exp\n      dup2\n      sload\n      dup2\n      0xffffffffffffffffffffffffffffffffffffffff\n      mul\n      not\n      and\n      swap1\n      dup4\n      0xffffffffffffffffffffffffffffffffffffffff\n      and\n      mul\n      or\n      swap1\n      sstore\n      pop\n        /* \"B4B.CONTRACTS/b4b.sol\":1658:1669  _influencer */\n      dup4\n        /* \"B4B.CONTRACTS/b4b.sol\":1638:1639  c */\n      dup2\n        /* \"B4B.CONTRACTS/b4b.sol\":1638:1655  c.influencer_addr */\n      0x01\n      add\n      0x00\n        /* \"B4B.CONTRACTS/b4b.sol\":1638:1669  c.influencer_addr = _influencer */\n      0x0100\n      exp\n      dup2\n      sload\n      dup2\n      0xffffffffffffffffffffffffffffffffffffffff\n      mul\n      not\n      and\n      swap1\n      dup4\n      0xffffffffffffffffffffffffffffffffffffffff\n      and\n      mul\n      or\n      swap1\n      sstore\n      pop\n        /* \"B4B.CONTRACTS/b4b.sol\":1688:1691  now */\n      timestamp\n        /* \"B4B.CONTRACTS/b4b.sol\":1679:1680  c */\n      dup2\n        /* \"B4B.CONTRACTS/b4b.sol\":1679:1685  c.date */\n      0x02\n      add\n        /* \"B4B.CONTRACTS/b4b.sol\":1679:1691  c.date = now */\n      dup2\n      swap1\n      sstore\n      pop\n        /* \"B4B.CONTRACTS/b4b.sol\":1717:1721  true */\n      0x01\n        /* \"B4B.CONTRACTS/b4b.sol\":1701:1702  c */\n      dup2\n        /* \"B4B.CONTRACTS/b4b.sol\":1701:1714  c.book_status */\n      0x03\n      add\n      0x00\n        /* \"B4B.CONTRACTS/b4b.sol\":1701:1721  c.book_status = true */\n      0x0100\n      exp\n      dup2\n      sload\n      dup2\n      0xff\n      mul\n      not\n      and\n      swap1\n      dup4\n      iszero\n      iszero\n      mul\n      or\n      swap1\n      sstore\n      pop\n        /* \"B4B.CONTRACTS/b4b.sol\":1749:1754  false */\n      0x00\n        /* \"B4B.CONTRACTS/b4b.sol\":1731:1732  c */\n      dup2\n        /* \"B4B.CONTRACTS/b4b.sol\":1731:1746  c.accept_status */\n      0x03\n      add\n      0x01\n        /* \"B4B.CONTRACTS/b4b.sol\":1731:1754  c.accept_status = false */\n      0x0100\n      exp\n      dup2\n      sload\n      dup2\n      0xff\n      mul\n      not\n      and\n      swap1\n      dup4\n      iszero\n      iszero\n      mul\n      or\n      swap1\n      sstore\n      pop\n        /* \"B4B.CONTRACTS/b4b.sol\":1784:1789  false */\n      0x00\n        /* \"B4B.CONTRACTS/b4b.sol\":1764:1765  c */\n      dup2\n        /* \"B4B.CONTRACTS/b4b.sol\":1764:1781  c.complete_status */\n      0x03\n      add\n      0x02\n        /* \"B4B.CONTRACTS/b4b.sol\":1764:1789  c.complete_status = false */\n      0x0100\n      exp\n      dup2\n      sload\n      dup2\n      0xff\n      mul\n      not\n      and\n      swap1\n      dup4\n      iszero\n      iszero\n      mul\n      or\n      swap1\n      sstore\n      pop\n        /* \"B4B.CONTRACTS/b4b.sol\":1819:1824  false */\n      0x00\n        /* \"B4B.CONTRACTS/b4b.sol\":1799:1800  c */\n      dup2\n        /* \"B4B.CONTRACTS/b4b.sol\":1799:1816  c.approved_status */\n      0x03\n      add\n      0x03\n        /* \"B4B.CONTRACTS/b4b.sol\":1799:1824  c.approved_status = false */\n      0x0100\n      exp\n      dup2\n      sload\n      dup2\n      0xff\n      mul\n      not\n      and\n      swap1\n      dup4\n      iszero\n      iszero\n      mul\n      or\n      swap1\n      sstore\n      pop\n        /* \"B4B.CONTRACTS/b4b.sol\":1843:1844  i */\n      dup2\n        /* \"B4B.CONTRACTS/b4b.sol\":1843:1850  i.price */\n      0x01\n      add\n      sload\n        /* \"B4B.CONTRACTS/b4b.sol\":1834:1835  c */\n      dup2\n        /* \"B4B.CONTRACTS/b4b.sol\":1834:1840  c.paid */\n      0x04\n      add\n        /* \"B4B.CONTRACTS/b4b.sol\":1834:1850  c.paid = i.price */\n      dup2\n      swap1\n      sstore\n      pop\n        /* \"B4B.CONTRACTS/b4b.sol\":1324:1857  function NewBooking (address  _influencer) public payable returns (uint campaignID) {... */\n      pop\n      pop\n      swap2\n      swap1\n      pop\n      jump\t// out\n        /* \"B4B.CONTRACTS/b4b.sol\":2798:3147  function ApproveAds (uint _campaignID) public {... */\n    tag_23:\n        /* \"B4B.CONTRACTS/b4b.sol\":2854:2872  Campaign storage c */\n      0x00\n        /* \"B4B.CONTRACTS/b4b.sol\":2875:2884  campaigns */\n      0x02\n        /* \"B4B.CONTRACTS/b4b.sol\":2875:2897  campaigns[_campaignID] */\n      0x00\n        /* \"B4B.CONTRACTS/b4b.sol\":2885:2896  _campaignID */\n      dup4\n        /* \"B4B.CONTRACTS/b4b.sol\":2875:2897  campaigns[_campaignID] */\n      dup2\n      mstore\n      0x20\n      add\n      swap1\n      dup2\n      mstore\n      0x20\n      add\n      0x00\n      keccak256\n        /* \"B4B.CONTRACTS/b4b.sol\":2854:2897  Campaign storage c = campaigns[_campaignID] */\n      swap1\n      pop\n        /* \"B4B.CONTRACTS/b4b.sol\":2930:2940  msg.sender */\n      caller\n        /* \"B4B.CONTRACTS/b4b.sol\":2916:2940  c.brand_addr==msg.sender */\n      0xffffffffffffffffffffffffffffffffffffffff\n      and\n        /* \"B4B.CONTRACTS/b4b.sol\":2916:2917  c */\n      dup2\n        /* \"B4B.CONTRACTS/b4b.sol\":2916:2928  c.brand_addr */\n      0x00\n      add\n      0x00\n      swap1\n      sload\n      swap1\n      0x0100\n      exp\n      swap1\n      div\n      0xffffffffffffffffffffffffffffffffffffffff\n      and\n        /* \"B4B.CONTRACTS/b4b.sol\":2916:2940  c.brand_addr==msg.sender */\n      0xffffffffffffffffffffffffffffffffffffffff\n      and\n      eq\n        /* \"B4B.CONTRACTS/b4b.sol\":2907:2941  require (c.brand_addr==msg.sender) */\n      tag_70\n      jumpi\n      0x00\n      dup1\n      revert\n    tag_70:\n        /* \"B4B.CONTRACTS/b4b.sol\":2975:2979  true */\n      0x01\n        /* \"B4B.CONTRACTS/b4b.sol\":2960:2979  c.book_status==true */\n      iszero\n      iszero\n        /* \"B4B.CONTRACTS/b4b.sol\":2960:2961  c */\n      dup2\n        /* \"B4B.CONTRACTS/b4b.sol\":2960:2973  c.book_status */\n      0x03\n      add\n      0x00\n      swap1\n      sload\n      swap1\n      0x0100\n      exp\n      swap1\n      div\n      0xff\n      and\n        /* \"B4B.CONTRACTS/b4b.sol\":2960:2979  c.book_status==true */\n      iszero\n      iszero\n      eq\n        /* \"B4B.CONTRACTS/b4b.sol\":2951:2980  require (c.book_status==true) */\n      tag_71\n      jumpi\n      0x00\n      dup1\n      revert\n    tag_71:\n        /* \"B4B.CONTRACTS/b4b.sol\":3016:3020  true */\n      0x01\n        /* \"B4B.CONTRACTS/b4b.sol\":2999:3020  c.accept_status==true */\n      iszero\n      iszero\n        /* \"B4B.CONTRACTS/b4b.sol\":2999:3000  c */\n      dup2\n        /* \"B4B.CONTRACTS/b4b.sol\":2999:3014  c.accept_status */\n      0x03\n      add\n      0x01\n      swap1\n      sload\n      swap1\n      0x0100\n      exp\n      swap1\n      div\n      0xff\n      and\n        /* \"B4B.CONTRACTS/b4b.sol\":2999:3020  c.accept_status==true */\n      iszero\n      iszero\n      eq\n        /* \"B4B.CONTRACTS/b4b.sol\":2990:3021  require (c.accept_status==true) */\n      tag_72\n      jumpi\n      0x00\n      dup1\n      revert\n    tag_72:\n        /* \"B4B.CONTRACTS/b4b.sol\":3059:3063  true */\n      0x01\n        /* \"B4B.CONTRACTS/b4b.sol\":3040:3063  c.complete_status==true */\n      iszero\n      iszero\n        /* \"B4B.CONTRACTS/b4b.sol\":3040:3041  c */\n      dup2\n        /* \"B4B.CONTRACTS/b4b.sol\":3040:3057  c.complete_status */\n      0x03\n      add\n      0x02\n      swap1\n      sload\n      swap1\n      0x0100\n      exp\n      swap1\n      div\n      0xff\n      and\n        /* \"B4B.CONTRACTS/b4b.sol\":3040:3063  c.complete_status==true */\n      iszero\n      iszero\n      eq\n        /* \"B4B.CONTRACTS/b4b.sol\":3031:3064  require (c.complete_status==true) */\n      tag_73\n      jumpi\n      0x00\n      dup1\n      revert\n    tag_73:\n        /* \"B4B.CONTRACTS/b4b.sol\":3102:3107  false */\n      0x00\n        /* \"B4B.CONTRACTS/b4b.sol\":3083:3107  c.approved_status==false */\n      iszero\n      iszero\n        /* \"B4B.CONTRACTS/b4b.sol\":3083:3084  c */\n      dup2\n        /* \"B4B.CONTRACTS/b4b.sol\":3083:3100  c.approved_status */\n      0x03\n      add\n      0x03\n      swap1\n      sload\n      swap1\n      0x0100\n      exp\n      swap1\n      div\n      0xff\n      and\n        /* \"B4B.CONTRACTS/b4b.sol\":3083:3107  c.approved_status==false */\n      iszero\n      iszero\n      eq\n        /* \"B4B.CONTRACTS/b4b.sol\":3074:3108  require (c.approved_status==false) */\n      tag_74\n      jumpi\n      0x00\n      dup1\n      revert\n    tag_74:\n        /* \"B4B.CONTRACTS/b4b.sol\":3136:3140  true */\n      0x01\n        /* \"B4B.CONTRACTS/b4b.sol\":3118:3119  c */\n      dup2\n        /* \"B4B.CONTRACTS/b4b.sol\":3118:3135  c.approved_status */\n      0x03\n      add\n      0x03\n        /* \"B4B.CONTRACTS/b4b.sol\":3118:3140  c.approved_status=true */\n      0x0100\n      exp\n      dup2\n      sload\n      dup2\n      0xff\n      mul\n      not\n      and\n      swap1\n      dup4\n      iszero\n      iszero\n      mul\n      or\n      swap1\n      sstore\n      pop\n        /* \"B4B.CONTRACTS/b4b.sol\":2798:3147  function ApproveAds (uint _campaignID) public {... */\n      pop\n      pop\n      jump\t// out\n        /* \"B4B.CONTRACTS/b4b.sol\":4079:4242  function ApprovedStatus(uint _campaignID) public view returns (bool) {... */\n    tag_27:\n        /* \"B4B.CONTRACTS/b4b.sol\":4142:4146  bool */\n      0x00\n        /* \"B4B.CONTRACTS/b4b.sol\":4158:4176  Campaign storage c */\n      dup1\n        /* \"B4B.CONTRACTS/b4b.sol\":4179:4188  campaigns */\n      0x02\n        /* \"B4B.CONTRACTS/b4b.sol\":4179:4201  campaigns[_campaignID] */\n      0x00\n        /* \"B4B.CONTRACTS/b4b.sol\":4189:4200  _campaignID */\n      dup5\n        /* \"B4B.CONTRACTS/b4b.sol\":4179:4201  campaigns[_campaignID] */\n      dup2\n      mstore\n      0x20\n      add\n      swap1\n      dup2\n      mstore\n      0x20\n      add\n      0x00\n      keccak256\n        /* \"B4B.CONTRACTS/b4b.sol\":4158:4201  Campaign storage c = campaigns[_campaignID] */\n      swap1\n      pop\n        /* \"B4B.CONTRACTS/b4b.sol\":4218:4219  c */\n      dup1\n        /* \"B4B.CONTRACTS/b4b.sol\":4218:4235  c.approved_status */\n      0x03\n      add\n      0x03\n      swap1\n      sload\n      swap1\n      0x0100\n      exp\n      swap1\n      div\n      0xff\n      and\n        /* \"B4B.CONTRACTS/b4b.sol\":4211:4235  return c.approved_status */\n      swap2\n      pop\n      pop\n        /* \"B4B.CONTRACTS/b4b.sol\":4079:4242  function ApprovedStatus(uint _campaignID) public view returns (bool) {... */\n      swap2\n      swap1\n      pop\n      jump\t// out\n        /* \"B4B.CONTRACTS/b4b.sol\":4580:4904  function TakeCoins () public returns (uint256) {... */\n    tag_30:\n        /* \"B4B.CONTRACTS/b4b.sol\":4618:4625  uint256 */\n      0x00\n        /* \"B4B.CONTRACTS/b4b.sol\":4661:4668  30 days */\n      0x278d00\n        /* \"B4B.CONTRACTS/b4b.sol\":4650:4660  deployDate */\n      sload(0x00)\n        /* \"B4B.CONTRACTS/b4b.sol\":4646:4649  now */\n      timestamp\n        /* \"B4B.CONTRACTS/b4b.sol\":4646:4660  now-deployDate */\n      sub\n        /* \"B4B.CONTRACTS/b4b.sol\":4646:4668  now-deployDate>30 days */\n      gt\n        /* \"B4B.CONTRACTS/b4b.sol\":4637:4669  require (now-deployDate>30 days) */\n      tag_77\n      jumpi\n      0x00\n      dup1\n      revert\n    tag_77:\n        /* \"B4B.CONTRACTS/b4b.sol\":4688:4708  Influencer storage i */\n      0x00\n        /* \"B4B.CONTRACTS/b4b.sol\":4711:4722  influencers */\n      0x03\n        /* \"B4B.CONTRACTS/b4b.sol\":4711:4734  influencers[msg.sender] */\n      0x00\n        /* \"B4B.CONTRACTS/b4b.sol\":4723:4733  msg.sender */\n      caller\n        /* \"B4B.CONTRACTS/b4b.sol\":4711:4734  influencers[msg.sender] */\n      0xffffffffffffffffffffffffffffffffffffffff\n      and\n      0xffffffffffffffffffffffffffffffffffffffff\n      and\n      dup2\n      mstore\n      0x20\n      add\n      swap1\n      dup2\n      mstore\n      0x20\n      add\n      0x00\n      keccak256\n        /* \"B4B.CONTRACTS/b4b.sol\":4688:4734  Influencer storage i = influencers[msg.sender] */\n      swap1\n      pop\n        /* \"B4B.CONTRACTS/b4b.sol\":4780:4787  30 days */\n      0x278d00\n        /* \"B4B.CONTRACTS/b4b.sol\":4757:4758  i */\n      dup2\n        /* \"B4B.CONTRACTS/b4b.sol\":4757:4779  i.lastDistributionDate */\n      0x04\n      add\n      sload\n        /* \"B4B.CONTRACTS/b4b.sol\":4753:4756  now */\n      timestamp\n        /* \"B4B.CONTRACTS/b4b.sol\":4753:4779  now-i.lastDistributionDate */\n      sub\n        /* \"B4B.CONTRACTS/b4b.sol\":4753:4787  now-i.lastDistributionDate>30 days */\n      gt\n        /* \"B4B.CONTRACTS/b4b.sol\":4744:4788  require (now-i.lastDistributionDate>30 days) */\n      tag_78\n      jumpi\n      0x00\n      dup1\n      revert\n    tag_78:\n        /* \"B4B.CONTRACTS/b4b.sol\":4818:4821  100 */\n      0x64\n        /* \"B4B.CONTRACTS/b4b.sol\":4809:4810  i */\n      dup2\n        /* \"B4B.CONTRACTS/b4b.sol\":4809:4817  i.points */\n      0x02\n      add\n      sload\n        /* \"B4B.CONTRACTS/b4b.sol\":4809:4821  i.points*100 */\n      mul\n        /* \"B4B.CONTRACTS/b4b.sol\":4799:4800  i */\n      dup2\n        /* \"B4B.CONTRACTS/b4b.sol\":4799:4806  i.coins */\n      0x03\n      add\n        /* \"B4B.CONTRACTS/b4b.sol\":4799:4821  i.coins = i.points*100 */\n      dup2\n      swap1\n      sstore\n      pop\n        /* \"B4B.CONTRACTS/b4b.sol\":4857:4864  30 days */\n      0x278d00\n        /* \"B4B.CONTRACTS/b4b.sol\":4832:4833  i */\n      dup2\n        /* \"B4B.CONTRACTS/b4b.sol\":4832:4854  i.lastDistributionDate */\n      0x04\n      add\n      0x00\n        /* \"B4B.CONTRACTS/b4b.sol\":4832:4864  i.lastDistributionDate+= 30 days */\n      dup3\n      dup3\n      sload\n      add\n      swap3\n      pop\n      pop\n      dup2\n      swap1\n      sstore\n      pop\n        /* \"B4B.CONTRACTS/b4b.sol\":4890:4891  i */\n      dup1\n        /* \"B4B.CONTRACTS/b4b.sol\":4890:4897  i.coins */\n      0x03\n      add\n      sload\n        /* \"B4B.CONTRACTS/b4b.sol\":4883:4897  return i.coins */\n      swap2\n      pop\n      pop\n        /* \"B4B.CONTRACTS/b4b.sol\":4580:4904  function TakeCoins () public returns (uint256) {... */\n      swap1\n      jump\t// out\n        /* \"B4B.CONTRACTS/b4b.sol\":3737:3896  function AcceptStatus(uint _campaignID) public view returns (bool) {... */\n    tag_34:\n        /* \"B4B.CONTRACTS/b4b.sol\":3798:3802  bool */\n      0x00\n        /* \"B4B.CONTRACTS/b4b.sol\":3814:3832  Campaign storage c */\n      dup1\n        /* \"B4B.CONTRACTS/b4b.sol\":3835:3844  campaigns */\n      0x02\n        /* \"B4B.CONTRACTS/b4b.sol\":3835:3857  campaigns[_campaignID] */\n      0x00\n        /* \"B4B.CONTRACTS/b4b.sol\":3845:3856  _campaignID */\n      dup5\n        /* \"B4B.CONTRACTS/b4b.sol\":3835:3857  campaigns[_campaignID] */\n      dup2\n      mstore\n      0x20\n      add\n      swap1\n      dup2\n      mstore\n      0x20\n      add\n      0x00\n      keccak256\n        /* \"B4B.CONTRACTS/b4b.sol\":3814:3857  Campaign storage c = campaigns[_campaignID] */\n      swap1\n      pop\n        /* \"B4B.CONTRACTS/b4b.sol\":3874:3875  c */\n      dup1\n        /* \"B4B.CONTRACTS/b4b.sol\":3874:3889  c.accept_status */\n      0x03\n      add\n      0x01\n      swap1\n      sload\n      swap1\n      0x0100\n      exp\n      swap1\n      div\n      0xff\n      and\n        /* \"B4B.CONTRACTS/b4b.sol\":3867:3889  return c.accept_status */\n      swap2\n      pop\n      pop\n        /* \"B4B.CONTRACTS/b4b.sol\":3737:3896  function AcceptStatus(uint _campaignID) public view returns (bool) {... */\n      swap2\n      swap1\n      pop\n      jump\t// out\n        /* \"B4B.CONTRACTS/b4b.sol\":3906:4069  function CompleteStatus(uint _campaignID) public view returns (bool) {... */\n    tag_38:\n        /* \"B4B.CONTRACTS/b4b.sol\":3969:3973  bool */\n      0x00\n        /* \"B4B.CONTRACTS/b4b.sol\":3985:4003  Campaign storage c */\n      dup1\n        /* \"B4B.CONTRACTS/b4b.sol\":4006:4015  campaigns */\n      0x02\n        /* \"B4B.CONTRACTS/b4b.sol\":4006:4028  campaigns[_campaignID] */\n      0x00\n        /* \"B4B.CONTRACTS/b4b.sol\":4016:4027  _campaignID */\n      dup5\n        /* \"B4B.CONTRACTS/b4b.sol\":4006:4028  campaigns[_campaignID] */\n      dup2\n      mstore\n      0x20\n      add\n      swap1\n      dup2\n      mstore\n      0x20\n      add\n      0x00\n      keccak256\n        /* \"B4B.CONTRACTS/b4b.sol\":3985:4028  Campaign storage c = campaigns[_campaignID] */\n      swap1\n      pop\n        /* \"B4B.CONTRACTS/b4b.sol\":4045:4046  c */\n      dup1\n        /* \"B4B.CONTRACTS/b4b.sol\":4045:4062  c.complete_status */\n      0x03\n      add\n      0x02\n      swap1\n      sload\n      swap1\n      0x0100\n      exp\n      swap1\n      div\n      0xff\n      and\n        /* \"B4B.CONTRACTS/b4b.sol\":4038:4062  return c.complete_status */\n      swap2\n      pop\n      pop\n        /* \"B4B.CONTRACTS/b4b.sol\":3906:4069  function CompleteStatus(uint _campaignID) public view returns (bool) {... */\n      swap2\n      swap1\n      pop\n      jump\t// out\n        /* \"B4B.CONTRACTS/b4b.sol\":3572:3727  function BookStatus(uint _campaignID) public view returns (bool) {... */\n    tag_42:\n        /* \"B4B.CONTRACTS/b4b.sol\":3631:3635  bool */\n      0x00\n        /* \"B4B.CONTRACTS/b4b.sol\":3647:3665  Campaign storage c */\n      dup1\n        /* \"B4B.CONTRACTS/b4b.sol\":3668:3677  campaigns */\n      0x02\n        /* \"B4B.CONTRACTS/b4b.sol\":3668:3690  campaigns[_campaignID] */\n      0x00\n        /* \"B4B.CONTRACTS/b4b.sol\":3678:3689  _campaignID */\n      dup5\n        /* \"B4B.CONTRACTS/b4b.sol\":3668:3690  campaigns[_campaignID] */\n      dup2\n      mstore\n      0x20\n      add\n      swap1\n      dup2\n      mstore\n      0x20\n      add\n      0x00\n      keccak256\n        /* \"B4B.CONTRACTS/b4b.sol\":3647:3690  Campaign storage c = campaigns[_campaignID] */\n      swap1\n      pop\n        /* \"B4B.CONTRACTS/b4b.sol\":3707:3708  c */\n      dup1\n        /* \"B4B.CONTRACTS/b4b.sol\":3707:3720  c.book_status */\n      0x03\n      add\n      0x00\n      swap1\n      sload\n      swap1\n      0x0100\n      exp\n      swap1\n      div\n      0xff\n      and\n        /* \"B4B.CONTRACTS/b4b.sol\":3700:3720  return c.book_status */\n      swap2\n      pop\n      pop\n        /* \"B4B.CONTRACTS/b4b.sol\":3572:3727  function BookStatus(uint _campaignID) public view returns (bool) {... */\n      swap2\n      swap1\n      pop\n      jump\t// out\n        /* \"B4B.CONTRACTS/b4b.sol\":2309:2792  function CompleteAds (uint _campaignID) public {... */\n    tag_46:\n        /* \"B4B.CONTRACTS/b4b.sol\":2366:2384  Campaign storage c */\n      0x00\n        /* \"B4B.CONTRACTS/b4b.sol\":2387:2396  campaigns */\n      0x02\n        /* \"B4B.CONTRACTS/b4b.sol\":2387:2409  campaigns[_campaignID] */\n      0x00\n        /* \"B4B.CONTRACTS/b4b.sol\":2397:2408  _campaignID */\n      dup4\n        /* \"B4B.CONTRACTS/b4b.sol\":2387:2409  campaigns[_campaignID] */\n      dup2\n      mstore\n      0x20\n      add\n      swap1\n      dup2\n      mstore\n      0x20\n      add\n      0x00\n      keccak256\n        /* \"B4B.CONTRACTS/b4b.sol\":2366:2409  Campaign storage c = campaigns[_campaignID] */\n      swap1\n      pop\n        /* \"B4B.CONTRACTS/b4b.sol\":2447:2457  msg.sender */\n      caller\n        /* \"B4B.CONTRACTS/b4b.sol\":2428:2457  c.influencer_addr==msg.sender */\n      0xffffffffffffffffffffffffffffffffffffffff\n      and\n        /* \"B4B.CONTRACTS/b4b.sol\":2428:2429  c */\n      dup2\n        /* \"B4B.CONTRACTS/b4b.sol\":2428:2445  c.influencer_addr */\n      0x01\n      add\n      0x00\n      swap1\n      sload\n      swap1\n      0x0100\n      exp\n      swap1\n      div\n      0xffffffffffffffffffffffffffffffffffffffff\n      and\n        /* \"B4B.CONTRACTS/b4b.sol\":2428:2457  c.influencer_addr==msg.sender */\n      0xffffffffffffffffffffffffffffffffffffffff\n      and\n      eq\n        /* \"B4B.CONTRACTS/b4b.sol\":2419:2458  require (c.influencer_addr==msg.sender) */\n      tag_83\n      jumpi\n      0x00\n      dup1\n      revert\n    tag_83:\n        /* \"B4B.CONTRACTS/b4b.sol\":2492:2496  true */\n      0x01\n        /* \"B4B.CONTRACTS/b4b.sol\":2477:2496  c.book_status==true */\n      iszero\n      iszero\n        /* \"B4B.CONTRACTS/b4b.sol\":2477:2478  c */\n      dup2\n        /* \"B4B.CONTRACTS/b4b.sol\":2477:2490  c.book_status */\n      0x03\n      add\n      0x00\n      swap1\n      sload\n      swap1\n      0x0100\n      exp\n      swap1\n      div\n      0xff\n      and\n        /* \"B4B.CONTRACTS/b4b.sol\":2477:2496  c.book_status==true */\n      iszero\n      iszero\n      eq\n        /* \"B4B.CONTRACTS/b4b.sol\":2468:2497  require (c.book_status==true) */\n      tag_84\n      jumpi\n      0x00\n      dup1\n      revert\n    tag_84:\n        /* \"B4B.CONTRACTS/b4b.sol\":2533:2537  true */\n      0x01\n        /* \"B4B.CONTRACTS/b4b.sol\":2516:2537  c.accept_status==true */\n      iszero\n      iszero\n        /* \"B4B.CONTRACTS/b4b.sol\":2516:2517  c */\n      dup2\n        /* \"B4B.CONTRACTS/b4b.sol\":2516:2531  c.accept_status */\n      0x03\n      add\n      0x01\n      swap1\n      sload\n      swap1\n      0x0100\n      exp\n      swap1\n      div\n      0xff\n      and\n        /* \"B4B.CONTRACTS/b4b.sol\":2516:2537  c.accept_status==true */\n      iszero\n      iszero\n      eq\n        /* \"B4B.CONTRACTS/b4b.sol\":2507:2538  require (c.accept_status==true) */\n      tag_85\n      jumpi\n      0x00\n      dup1\n      revert\n    tag_85:\n        /* \"B4B.CONTRACTS/b4b.sol\":2576:2581  false */\n      0x00\n        /* \"B4B.CONTRACTS/b4b.sol\":2557:2581  c.complete_status==false */\n      iszero\n      iszero\n        /* \"B4B.CONTRACTS/b4b.sol\":2557:2558  c */\n      dup2\n        /* \"B4B.CONTRACTS/b4b.sol\":2557:2574  c.complete_status */\n      0x03\n      add\n      0x02\n      swap1\n      sload\n      swap1\n      0x0100\n      exp\n      swap1\n      div\n      0xff\n      and\n        /* \"B4B.CONTRACTS/b4b.sol\":2557:2581  c.complete_status==false */\n      iszero\n      iszero\n      eq\n        /* \"B4B.CONTRACTS/b4b.sol\":2548:2582  require (c.complete_status==false) */\n      tag_86\n      jumpi\n      0x00\n      dup1\n      revert\n    tag_86:\n        /* \"B4B.CONTRACTS/b4b.sol\":2610:2614  true */\n      0x01\n        /* \"B4B.CONTRACTS/b4b.sol\":2592:2593  c */\n      dup2\n        /* \"B4B.CONTRACTS/b4b.sol\":2592:2609  c.complete_status */\n      0x03\n      add\n      0x02\n        /* \"B4B.CONTRACTS/b4b.sol\":2592:2614  c.complete_status=true */\n      0x0100\n      exp\n      dup2\n      sload\n      dup2\n      0xff\n      mul\n      not\n      and\n      swap1\n      dup4\n      iszero\n      iszero\n      mul\n      or\n      swap1\n      sstore\n      pop\n        /* \"B4B.CONTRACTS/b4b.sol\":2672:2692  Influencer storage i */\n      0x00\n        /* \"B4B.CONTRACTS/b4b.sol\":2695:2706  influencers */\n      0x03\n        /* \"B4B.CONTRACTS/b4b.sol\":2695:2718  influencers[msg.sender] */\n      0x00\n        /* \"B4B.CONTRACTS/b4b.sol\":2707:2717  msg.sender */\n      caller\n        /* \"B4B.CONTRACTS/b4b.sol\":2695:2718  influencers[msg.sender] */\n      0xffffffffffffffffffffffffffffffffffffffff\n      and\n      0xffffffffffffffffffffffffffffffffffffffff\n      and\n      dup2\n      mstore\n      0x20\n      add\n      swap1\n      dup2\n      mstore\n      0x20\n      add\n      0x00\n      keccak256\n        /* \"B4B.CONTRACTS/b4b.sol\":2672:2718  Influencer storage i = influencers[msg.sender] */\n      swap1\n      pop\n        /* \"B4B.CONTRACTS/b4b.sol\":2738:2740  10 */\n      0x0a\n        /* \"B4B.CONTRACTS/b4b.sol\":2728:2729  i */\n      dup2\n        /* \"B4B.CONTRACTS/b4b.sol\":2728:2736  i.points */\n      0x02\n      add\n      0x00\n        /* \"B4B.CONTRACTS/b4b.sol\":2728:2740  i.points+=10 */\n      dup3\n      dup3\n      sload\n      add\n      swap3\n      pop\n      pop\n      dup2\n      swap1\n      sstore\n      pop\n        /* \"B4B.CONTRACTS/b4b.sol\":2309:2792  function CompleteAds (uint _campaignID) public {... */\n      pop\n      pop\n      pop\n      jump\t// out\n        /* \"B4B.CONTRACTS/b4b.sol\":4410:4574  function PointsBalance (address _influencer) public view returns (uint256) {... */\n    tag_50:\n        /* \"B4B.CONTRACTS/b4b.sol\":4476:4483  uint256 */\n      0x00\n        /* \"B4B.CONTRACTS/b4b.sol\":4495:4515  Influencer storage i */\n      dup1\n        /* \"B4B.CONTRACTS/b4b.sol\":4518:4529  influencers */\n      0x03\n        /* \"B4B.CONTRACTS/b4b.sol\":4518:4542  influencers[_influencer] */\n      0x00\n        /* \"B4B.CONTRACTS/b4b.sol\":4530:4541  _influencer */\n      dup5\n        /* \"B4B.CONTRACTS/b4b.sol\":4518:4542  influencers[_influencer] */\n      0xffffffffffffffffffffffffffffffffffffffff\n      and\n      0xffffffffffffffffffffffffffffffffffffffff\n      and\n      dup2\n      mstore\n      0x20\n      add\n      swap1\n      dup2\n      mstore\n      0x20\n      add\n      0x00\n      keccak256\n        /* \"B4B.CONTRACTS/b4b.sol\":4495:4542  Influencer storage i = influencers[_influencer] */\n      swap1\n      pop\n        /* \"B4B.CONTRACTS/b4b.sol\":4559:4560  i */\n      dup1\n        /* \"B4B.CONTRACTS/b4b.sol\":4559:4567  i.points */\n      0x02\n      add\n      sload\n        /* \"B4B.CONTRACTS/b4b.sol\":4552:4567  return i.points */\n      swap2\n      pop\n      pop\n        /* \"B4B.CONTRACTS/b4b.sol\":4410:4574  function PointsBalance (address _influencer) public view returns (uint256) {... */\n      swap2\n      swap1\n      pop\n      jump\t// out\n        /* \"B4B.CONTRACTS/b4b.sol\":3153:3566  function ReceiveSalary (uint _campaignID) public {... */\n    tag_54:\n        /* \"B4B.CONTRACTS/b4b.sol\":3212:3230  Campaign storage c */\n      0x00\n        /* \"B4B.CONTRACTS/b4b.sol\":3233:3242  campaigns */\n      0x02\n        /* \"B4B.CONTRACTS/b4b.sol\":3233:3255  campaigns[_campaignID] */\n      0x00\n        /* \"B4B.CONTRACTS/b4b.sol\":3243:3254  _campaignID */\n      dup4\n        /* \"B4B.CONTRACTS/b4b.sol\":3233:3255  campaigns[_campaignID] */\n      dup2\n      mstore\n      0x20\n      add\n      swap1\n      dup2\n      mstore\n      0x20\n      add\n      0x00\n      keccak256\n        /* \"B4B.CONTRACTS/b4b.sol\":3212:3255  Campaign storage c = campaigns[_campaignID] */\n      swap1\n      pop\n        /* \"B4B.CONTRACTS/b4b.sol\":3293:3303  msg.sender */\n      caller\n        /* \"B4B.CONTRACTS/b4b.sol\":3274:3303  c.influencer_addr==msg.sender */\n      0xffffffffffffffffffffffffffffffffffffffff\n      and\n        /* \"B4B.CONTRACTS/b4b.sol\":3274:3275  c */\n      dup2\n        /* \"B4B.CONTRACTS/b4b.sol\":3274:3291  c.influencer_addr */\n      0x01\n      add\n      0x00\n      swap1\n      sload\n      swap1\n      0x0100\n      exp\n      swap1\n      div\n      0xffffffffffffffffffffffffffffffffffffffff\n      and\n        /* \"B4B.CONTRACTS/b4b.sol\":3274:3303  c.influencer_addr==msg.sender */\n      0xffffffffffffffffffffffffffffffffffffffff\n      and\n      eq\n        /* \"B4B.CONTRACTS/b4b.sol\":3265:3304  require (c.influencer_addr==msg.sender) */\n      tag_89\n      jumpi\n      0x00\n      dup1\n      revert\n    tag_89:\n        /* \"B4B.CONTRACTS/b4b.sol\":3338:3342  true */\n      0x01\n        /* \"B4B.CONTRACTS/b4b.sol\":3323:3342  c.book_status==true */\n      iszero\n      iszero\n        /* \"B4B.CONTRACTS/b4b.sol\":3323:3324  c */\n      dup2\n        /* \"B4B.CONTRACTS/b4b.sol\":3323:3336  c.book_status */\n      0x03\n      add\n      0x00\n      swap1\n      sload\n      swap1\n      0x0100\n      exp\n      swap1\n      div\n      0xff\n      and\n        /* \"B4B.CONTRACTS/b4b.sol\":3323:3342  c.book_status==true */\n      iszero\n      iszero\n      eq\n        /* \"B4B.CONTRACTS/b4b.sol\":3314:3343  require (c.book_status==true) */\n      tag_90\n      jumpi\n      0x00\n      dup1\n      revert\n    tag_90:\n        /* \"B4B.CONTRACTS/b4b.sol\":3379:3383  true */\n      0x01\n        /* \"B4B.CONTRACTS/b4b.sol\":3362:3383  c.accept_status==true */\n      iszero\n      iszero\n        /* \"B4B.CONTRACTS/b4b.sol\":3362:3363  c */\n      dup2\n        /* \"B4B.CONTRACTS/b4b.sol\":3362:3377  c.accept_status */\n      0x03\n      add\n      0x01\n      swap1\n      sload\n      swap1\n      0x0100\n      exp\n      swap1\n      div\n      0xff\n      and\n        /* \"B4B.CONTRACTS/b4b.sol\":3362:3383  c.accept_status==true */\n      iszero\n      iszero\n      eq\n        /* \"B4B.CONTRACTS/b4b.sol\":3353:3384  require (c.accept_status==true) */\n      tag_91\n      jumpi\n      0x00\n      dup1\n      revert\n    tag_91:\n        /* \"B4B.CONTRACTS/b4b.sol\":3422:3426  true */\n      0x01\n        /* \"B4B.CONTRACTS/b4b.sol\":3403:3426  c.complete_status==true */\n      iszero\n      iszero\n        /* \"B4B.CONTRACTS/b4b.sol\":3403:3404  c */\n      dup2\n        /* \"B4B.CONTRACTS/b4b.sol\":3403:3420  c.complete_status */\n      0x03\n      add\n      0x02\n      swap1\n      sload\n      swap1\n      0x0100\n      exp\n      swap1\n      div\n      0xff\n      and\n        /* \"B4B.CONTRACTS/b4b.sol\":3403:3426  c.complete_status==true */\n      iszero\n      iszero\n      eq\n        /* \"B4B.CONTRACTS/b4b.sol\":3394:3427  require (c.complete_status==true) */\n      tag_92\n      jumpi\n      0x00\n      dup1\n      revert\n    tag_92:\n        /* \"B4B.CONTRACTS/b4b.sol\":3465:3469  true */\n      0x01\n        /* \"B4B.CONTRACTS/b4b.sol\":3446:3469  c.approved_status==true */\n      iszero\n      iszero\n        /* \"B4B.CONTRACTS/b4b.sol\":3446:3447  c */\n      dup2\n        /* \"B4B.CONTRACTS/b4b.sol\":3446:3463  c.approved_status */\n      0x03\n      add\n      0x03\n      swap1\n      sload\n      swap1\n      0x0100\n      exp\n      swap1\n      div\n      0xff\n      and\n        /* \"B4B.CONTRACTS/b4b.sol\":3446:3469  c.approved_status==true */\n      iszero\n      iszero\n      eq\n        /* \"B4B.CONTRACTS/b4b.sol\":3437:3470  require (c.approved_status==true) */\n      tag_93\n      jumpi\n      0x00\n      dup1\n      revert\n    tag_93:\n        /* \"B4B.CONTRACTS/b4b.sol\":3489:3499  uint256 _d */\n      0x00\n        /* \"B4B.CONTRACTS/b4b.sol\":3502:3503  c */\n      dup2\n        /* \"B4B.CONTRACTS/b4b.sol\":3502:3508  c.paid */\n      0x04\n      add\n      sload\n        /* \"B4B.CONTRACTS/b4b.sol\":3489:3508  uint256 _d = c.paid */\n      swap1\n      pop\n        /* \"B4B.CONTRACTS/b4b.sol\":3518:3528  msg.sender */\n      caller\n        /* \"B4B.CONTRACTS/b4b.sol\":3518:3537  msg.sender.transfer */\n      0xffffffffffffffffffffffffffffffffffffffff\n      and\n        /* \"B4B.CONTRACTS/b4b.sol\":3518:3541  msg.sender.transfer(_d) */\n      0x08fc\n        /* \"B4B.CONTRACTS/b4b.sol\":3538:3540  _d */\n      dup3\n        /* \"B4B.CONTRACTS/b4b.sol\":3518:3541  msg.sender.transfer(_d) */\n      swap1\n      dup2\n      iszero\n      mul\n      swap1\n      mload(0x40)\n      0x00\n      mload(0x40)\n      dup1\n      dup4\n      sub\n      dup2\n      dup6\n      dup9\n      dup9\n      call\n      swap4\n      pop\n      pop\n      pop\n      pop\n      iszero\n        /* \"--CODEGEN--\":8:17   */\n      dup1\n        /* \"--CODEGEN--\":5:7   */\n      iszero\n      tag_94\n      jumpi\n        /* \"--CODEGEN--\":45:61   */\n      returndatasize\n        /* \"--CODEGEN--\":42:43   */\n      0x00\n        /* \"--CODEGEN--\":39:40   */\n      dup1\n        /* \"--CODEGEN--\":24:62   */\n      returndatacopy\n        /* \"--CODEGEN--\":77:93   */\n      returndatasize\n        /* \"--CODEGEN--\":74:75   */\n      0x00\n        /* \"--CODEGEN--\":67:94   */\n      revert\n        /* \"--CODEGEN--\":5:7   */\n    tag_94:\n        /* \"B4B.CONTRACTS/b4b.sol\":3518:3541  msg.sender.transfer(_d) */\n      pop\n        /* \"B4B.CONTRACTS/b4b.sol\":3558:3559  0 */\n      0x00\n        /* \"B4B.CONTRACTS/b4b.sol\":3551:3552  c */\n      dup3\n        /* \"B4B.CONTRACTS/b4b.sol\":3551:3557  c.paid */\n      0x04\n      add\n        /* \"B4B.CONTRACTS/b4b.sol\":3551:3559  c.paid=0 */\n      dup2\n      swap1\n      sstore\n      pop\n        /* \"B4B.CONTRACTS/b4b.sol\":3153:3566  function ReceiveSalary (uint _campaignID) public {... */\n      pop\n      pop\n      pop\n      jump\t// out\n        /* \"B4B.CONTRACTS/b4b.sol\":1863:2303  function AcceptBooking (uint _campaignID) public {... */\n    tag_58:\n        /* \"B4B.CONTRACTS/b4b.sol\":1922:1940  Campaign storage c */\n      0x00\n        /* \"B4B.CONTRACTS/b4b.sol\":1943:1952  campaigns */\n      0x02\n        /* \"B4B.CONTRACTS/b4b.sol\":1943:1965  campaigns[_campaignID] */\n      0x00\n        /* \"B4B.CONTRACTS/b4b.sol\":1953:1964  _campaignID */\n      dup4\n        /* \"B4B.CONTRACTS/b4b.sol\":1943:1965  campaigns[_campaignID] */\n      dup2\n      mstore\n      0x20\n      add\n      swap1\n      dup2\n      mstore\n      0x20\n      add\n      0x00\n      keccak256\n        /* \"B4B.CONTRACTS/b4b.sol\":1922:1965  Campaign storage c = campaigns[_campaignID] */\n      swap1\n      pop\n        /* \"B4B.CONTRACTS/b4b.sol\":2003:2013  msg.sender */\n      caller\n        /* \"B4B.CONTRACTS/b4b.sol\":1984:2013  c.influencer_addr==msg.sender */\n      0xffffffffffffffffffffffffffffffffffffffff\n      and\n        /* \"B4B.CONTRACTS/b4b.sol\":1984:1985  c */\n      dup2\n        /* \"B4B.CONTRACTS/b4b.sol\":1984:2001  c.influencer_addr */\n      0x01\n      add\n      0x00\n      swap1\n      sload\n      swap1\n      0x0100\n      exp\n      swap1\n      div\n      0xffffffffffffffffffffffffffffffffffffffff\n      and\n        /* \"B4B.CONTRACTS/b4b.sol\":1984:2013  c.influencer_addr==msg.sender */\n      0xffffffffffffffffffffffffffffffffffffffff\n      and\n      eq\n        /* \"B4B.CONTRACTS/b4b.sol\":1975:2014  require (c.influencer_addr==msg.sender) */\n      tag_96\n      jumpi\n      0x00\n      dup1\n      revert\n    tag_96:\n        /* \"B4B.CONTRACTS/b4b.sol\":2048:2052  true */\n      0x01\n        /* \"B4B.CONTRACTS/b4b.sol\":2033:2052  c.book_status==true */\n      iszero\n      iszero\n        /* \"B4B.CONTRACTS/b4b.sol\":2033:2034  c */\n      dup2\n        /* \"B4B.CONTRACTS/b4b.sol\":2033:2046  c.book_status */\n      0x03\n      add\n      0x00\n      swap1\n      sload\n      swap1\n      0x0100\n      exp\n      swap1\n      div\n      0xff\n      and\n        /* \"B4B.CONTRACTS/b4b.sol\":2033:2052  c.book_status==true */\n      iszero\n      iszero\n      eq\n        /* \"B4B.CONTRACTS/b4b.sol\":2024:2053  require (c.book_status==true) */\n      tag_97\n      jumpi\n      0x00\n      dup1\n      revert\n    tag_97:\n        /* \"B4B.CONTRACTS/b4b.sol\":2089:2094  false */\n      0x00\n        /* \"B4B.CONTRACTS/b4b.sol\":2072:2094  c.accept_status==false */\n      iszero\n      iszero\n        /* \"B4B.CONTRACTS/b4b.sol\":2072:2073  c */\n      dup2\n        /* \"B4B.CONTRACTS/b4b.sol\":2072:2087  c.accept_status */\n      0x03\n      add\n      0x01\n      swap1\n      sload\n      swap1\n      0x0100\n      exp\n      swap1\n      div\n      0xff\n      and\n        /* \"B4B.CONTRACTS/b4b.sol\":2072:2094  c.accept_status==false */\n      iszero\n      iszero\n      eq\n        /* \"B4B.CONTRACTS/b4b.sol\":2063:2095  require (c.accept_status==false) */\n      tag_98\n      jumpi\n      0x00\n      dup1\n      revert\n    tag_98:\n        /* \"B4B.CONTRACTS/b4b.sol\":2121:2125  true */\n      0x01\n        /* \"B4B.CONTRACTS/b4b.sol\":2105:2106  c */\n      dup2\n        /* \"B4B.CONTRACTS/b4b.sol\":2105:2120  c.accept_status */\n      0x03\n      add\n      0x01\n        /* \"B4B.CONTRACTS/b4b.sol\":2105:2125  c.accept_status=true */\n      0x0100\n      exp\n      dup2\n      sload\n      dup2\n      0xff\n      mul\n      not\n      and\n      swap1\n      dup4\n      iszero\n      iszero\n      mul\n      or\n      swap1\n      sstore\n      pop\n        /* \"B4B.CONTRACTS/b4b.sol\":2175:2195  Influencer storage i */\n      0x00\n        /* \"B4B.CONTRACTS/b4b.sol\":2198:2209  influencers */\n      0x03\n        /* \"B4B.CONTRACTS/b4b.sol\":2198:2221  influencers[msg.sender] */\n      0x00\n        /* \"B4B.CONTRACTS/b4b.sol\":2210:2220  msg.sender */\n      caller\n        /* \"B4B.CONTRACTS/b4b.sol\":2198:2221  influencers[msg.sender] */\n      0xffffffffffffffffffffffffffffffffffffffff\n      and\n      0xffffffffffffffffffffffffffffffffffffffff\n      and\n      dup2\n      mstore\n      0x20\n      add\n      swap1\n      dup2\n      mstore\n      0x20\n      add\n      0x00\n      keccak256\n        /* \"B4B.CONTRACTS/b4b.sol\":2175:2221  Influencer storage i = influencers[msg.sender] */\n      swap1\n      pop\n        /* \"B4B.CONTRACTS/b4b.sol\":2241:2243  10 */\n      0x0a\n        /* \"B4B.CONTRACTS/b4b.sol\":2231:2232  i */\n      dup2\n        /* \"B4B.CONTRACTS/b4b.sol\":2231:2239  i.points */\n      0x02\n      add\n      0x00\n        /* \"B4B.CONTRACTS/b4b.sol\":2231:2243  i.points+=10 */\n      dup3\n      dup3\n      sload\n      add\n      swap3\n      pop\n      pop\n      dup2\n      swap1\n      sstore\n      pop\n        /* \"B4B.CONTRACTS/b4b.sol\":1863:2303  function AcceptBooking (uint _campaignID) public {... */\n      pop\n      pop\n      pop\n      jump\t// out\n        /* \"B4B.CONTRACTS/b4b.sol\":4248:4404  function PaidOnContract (uint _campaignID) public view returns (uint256) {... */\n    tag_62:\n        /* \"B4B.CONTRACTS/b4b.sol\":4312:4319  uint256 */\n      0x00\n        /* \"B4B.CONTRACTS/b4b.sol\":4331:4349  Campaign storage c */\n      dup1\n        /* \"B4B.CONTRACTS/b4b.sol\":4352:4361  campaigns */\n      0x02\n        /* \"B4B.CONTRACTS/b4b.sol\":4352:4374  campaigns[_campaignID] */\n      0x00\n        /* \"B4B.CONTRACTS/b4b.sol\":4362:4373  _campaignID */\n      dup5\n        /* \"B4B.CONTRACTS/b4b.sol\":4352:4374  campaigns[_campaignID] */\n      dup2\n      mstore\n      0x20\n      add\n      swap1\n      dup2\n      mstore\n      0x20\n      add\n      0x00\n      keccak256\n        /* \"B4B.CONTRACTS/b4b.sol\":4331:4374  Campaign storage c = campaigns[_campaignID] */\n      swap1\n      pop\n        /* \"B4B.CONTRACTS/b4b.sol\":4391:4392  c */\n      dup1\n        /* \"B4B.CONTRACTS/b4b.sol\":4391:4397  c.paid */\n      0x04\n      add\n      sload\n        /* \"B4B.CONTRACTS/b4b.sol\":4384:4397  return c.paid */\n      swap2\n      pop\n      pop\n        /* \"B4B.CONTRACTS/b4b.sol\":4248:4404  function PaidOnContract (uint _campaignID) public view returns (uint256) {... */\n      swap2\n      swap1\n      pop\n      jump\t// out\n        /* \"B4B.CONTRACTS/b4b.sol\":1144:1318  function ChangePrice (uint256 _price) public {... */\n    tag_66:\n        /* \"B4B.CONTRACTS/b4b.sol\":1199:1219  Influencer storage i */\n      0x00\n        /* \"B4B.CONTRACTS/b4b.sol\":1222:1233  influencers */\n      0x03\n        /* \"B4B.CONTRACTS/b4b.sol\":1222:1245  influencers[msg.sender] */\n      0x00\n        /* \"B4B.CONTRACTS/b4b.sol\":1234:1244  msg.sender */\n      caller\n        /* \"B4B.CONTRACTS/b4b.sol\":1222:1245  influencers[msg.sender] */\n      0xffffffffffffffffffffffffffffffffffffffff\n      and\n      0xffffffffffffffffffffffffffffffffffffffff\n      and\n      dup2\n      mstore\n      0x20\n      add\n      swap1\n      dup2\n      mstore\n      0x20\n      add\n      0x00\n      keccak256\n        /* \"B4B.CONTRACTS/b4b.sol\":1199:1245  Influencer storage i = influencers[msg.sender] */\n      swap1\n      pop\n        /* \"B4B.CONTRACTS/b4b.sol\":1275:1285  msg.sender */\n      caller\n        /* \"B4B.CONTRACTS/b4b.sol\":1255:1256  i */\n      dup2\n        /* \"B4B.CONTRACTS/b4b.sol\":1255:1272  i.influencer_addr */\n      0x00\n      add\n      0x00\n        /* \"B4B.CONTRACTS/b4b.sol\":1255:1285  i.influencer_addr = msg.sender */\n      0x0100\n      exp\n      dup2\n      sload\n      dup2\n      0xffffffffffffffffffffffffffffffffffffffff\n      mul\n      not\n      and\n      swap1\n      dup4\n      0xffffffffffffffffffffffffffffffffffffffff\n      and\n      mul\n      or\n      swap1\n      sstore\n      pop\n        /* \"B4B.CONTRACTS/b4b.sol\":1305:1311  _price */\n      dup2\n        /* \"B4B.CONTRACTS/b4b.sol\":1295:1296  i */\n      dup2\n        /* \"B4B.CONTRACTS/b4b.sol\":1295:1302  i.price */\n      0x01\n      add\n        /* \"B4B.CONTRACTS/b4b.sol\":1295:1311  i.price = _price */\n      dup2\n      swap1\n      sstore\n      pop\n        /* \"B4B.CONTRACTS/b4b.sol\":1144:1318  function ChangePrice (uint256 _price) public {... */\n      pop\n      pop\n      jump\t// out\n\n    auxdata: 0xa265627a7a72315820fb54e5bd3d086c7d41e0c8f55a4d4e713e1e1bd556db9b33e54b5a909eca15fa64736f6c63430005110032\n}\n",
				"bytecode": {
					"linkReferences": {},
					"object": "608060405234801561001057600080fd5b5042600081905550610d9f806100276000396000f3fe6080604052600436106100c25760003560e01c80639ddac05e1161007f578063e0e1bd8411610059578063e0e1bd8414610371578063e352893e146103ac578063e6bf297b146103e7578063fb92488b14610436576100c2565b80639ddac05e1461027e578063a07c81f0146102d1578063a6602d5f1461030c576100c2565b80631172cde8146100c75780631eb398af1461011f578063318d61781461015a5780634f6109d6146101ad5780638712c66e146101d857806397190fae1461022b575b600080fd5b610109600480360360208110156100dd57600080fd5b81019080803573ffffffffffffffffffffffffffffffffffffffff169060200190929190505050610471565b6040518082815260200191505060405180910390f35b34801561012b57600080fd5b506101586004803603602081101561014257600080fd5b8101908080359060200190929190505050610606565b005b34801561016657600080fd5b506101936004803603602081101561017d57600080fd5b8101908080359060200190929190505050610722565b604051808215151515815260200191505060405180910390f35b3480156101b957600080fd5b506101c2610754565b6040518082815260200191505060405180910390f35b3480156101e457600080fd5b50610211600480360360208110156101fb57600080fd5b81019080803590602001909291905050506107f1565b604051808215151515815260200191505060405180910390f35b34801561023757600080fd5b506102646004803603602081101561024e57600080fd5b8101908080359060200190929190505050610823565b604051808215151515815260200191505060405180910390f35b34801561028a57600080fd5b506102b7600480360360208110156102a157600080fd5b8101908080359060200190929190505050610855565b604051808215151515815260200191505060405180910390f35b3480156102dd57600080fd5b5061030a600480360360208110156102f457600080fd5b8101908080359060200190929190505050610887565b005b34801561031857600080fd5b5061035b6004803603602081101561032f57600080fd5b81019080803573ffffffffffffffffffffffffffffffffffffffff1690602001909291905050506109d8565b6040518082815260200191505060405180910390f35b34801561037d57600080fd5b506103aa6004803603602081101561039457600080fd5b8101908080359060200190929190505050610a29565b005b3480156103b857600080fd5b506103e5600480360360208110156103cf57600080fd5b8101908080359060200190929190505050610b83565b005b3480156103f357600080fd5b506104206004803603602081101561040a57600080fd5b8101908080359060200190929190505050610cb2565b6040518082815260200191505060405180910390f35b34801561044257600080fd5b5061046f6004803603602081101561045957600080fd5b8101908080359060200190929190505050610cd7565b005b600080600360008473ffffffffffffffffffffffffffffffffffffffff1673ffffffffffffffffffffffffffffffffffffffff1681526020019081526020016000209050348160010154146104c557600080fd5b600160008154809291906001019190505591506000600260008481526020019081526020016000209050338160000160006101000a81548173ffffffffffffffffffffffffffffffffffffffff021916908373ffffffffffffffffffffffffffffffffffffffff160217905550838160010160006101000a81548173ffffffffffffffffffffffffffffffffffffffff021916908373ffffffffffffffffffffffffffffffffffffffff16021790555042816002018190555060018160030160006101000a81548160ff02191690831515021790555060008160030160016101000a81548160ff02191690831515021790555060008160030160026101000a81548160ff02191690831515021790555060008160030160036101000a81548160ff021916908315150217905550816001015481600401819055505050919050565b60006002600083815260200190815260200160002090503373ffffffffffffffffffffffffffffffffffffffff168160000160009054906101000a900473ffffffffffffffffffffffffffffffffffffffff1673ffffffffffffffffffffffffffffffffffffffff161461067957600080fd5b600115158160030160009054906101000a900460ff1615151461069b57600080fd5b600115158160030160019054906101000a900460ff161515146106bd57600080fd5b600115158160030160029054906101000a900460ff161515146106df57600080fd5b600015158160030160039054906101000a900460ff1615151461070157600080fd5b60018160030160036101000a81548160ff0219169083151502179055505050565b6000806002600084815260200190815260200160002090508060030160039054906101000a900460ff16915050919050565b600062278d0060005442031161076957600080fd5b6000600360003373ffffffffffffffffffffffffffffffffffffffff1673ffffffffffffffffffffffffffffffffffffffff168152602001908152602001600020905062278d0081600401544203116107c157600080fd5b6064816002015402816003018190555062278d008160040160008282540192505081905550806003015491505090565b6000806002600084815260200190815260200160002090508060030160019054906101000a900460ff16915050919050565b6000806002600084815260200190815260200160002090508060030160029054906101000a900460ff16915050919050565b6000806002600084815260200190815260200160002090508060030160009054906101000a900460ff16915050919050565b60006002600083815260200190815260200160002090503373ffffffffffffffffffffffffffffffffffffffff168160010160009054906101000a900473ffffffffffffffffffffffffffffffffffffffff1673ffffffffffffffffffffffffffffffffffffffff16146108fa57600080fd5b600115158160030160009054906101000a900460ff1615151461091c57600080fd5b600115158160030160019054906101000a900460ff1615151461093e57600080fd5b600015158160030160029054906101000a900460ff1615151461096057600080fd5b60018160030160026101000a81548160ff0219169083151502179055506000600360003373ffffffffffffffffffffffffffffffffffffffff1673ffffffffffffffffffffffffffffffffffffffff1681526020019081526020016000209050600a8160020160008282540192505081905550505050565b600080600360008473ffffffffffffffffffffffffffffffffffffffff1673ffffffffffffffffffffffffffffffffffffffff16815260200190815260200160002090508060020154915050919050565b60006002600083815260200190815260200160002090503373ffffffffffffffffffffffffffffffffffffffff168160010160009054906101000a900473ffffffffffffffffffffffffffffffffffffffff1673ffffffffffffffffffffffffffffffffffffffff1614610a9c57600080fd5b600115158160030160009054906101000a900460ff16151514610abe57600080fd5b600115158160030160019054906101000a900460ff16151514610ae057600080fd5b600115158160030160029054906101000a900460ff16151514610b0257600080fd5b600115158160030160039054906101000a900460ff16151514610b2457600080fd5b6000816004015490503373ffffffffffffffffffffffffffffffffffffffff166108fc829081150290604051600060405180830381858888f19350505050158015610b73573d6000803e3d6000fd5b5060008260040181905550505050565b60006002600083815260200190815260200160002090503373ffffffffffffffffffffffffffffffffffffffff168160010160009054906101000a900473ffffffffffffffffffffffffffffffffffffffff1673ffffffffffffffffffffffffffffffffffffffff1614610bf657600080fd5b600115158160030160009054906101000a900460ff16151514610c1857600080fd5b600015158160030160019054906101000a900460ff16151514610c3a57600080fd5b60018160030160016101000a81548160ff0219169083151502179055506000600360003373ffffffffffffffffffffffffffffffffffffffff1673ffffffffffffffffffffffffffffffffffffffff1681526020019081526020016000209050600a8160020160008282540192505081905550505050565b6000806002600084815260200190815260200160002090508060040154915050919050565b6000600360003373ffffffffffffffffffffffffffffffffffffffff1673ffffffffffffffffffffffffffffffffffffffff1681526020019081526020016000209050338160000160006101000a81548173ffffffffffffffffffffffffffffffffffffffff021916908373ffffffffffffffffffffffffffffffffffffffff160217905550818160010181905550505056fea265627a7a72315820fb54e5bd3d086c7d41e0c8f55a4d4e713e1e1bd556db9b33e54b5a909eca15fa64736f6c63430005110032",
					"opcodes": "PUSH1 0x80 PUSH1 0x40 MSTORE CALLVALUE DUP1 ISZERO PUSH2 0x10 JUMPI PUSH1 0x0 DUP1 REVERT JUMPDEST POP TIMESTAMP PUSH1 0x0 DUP2 SWAP1 SSTORE POP PUSH2 0xD9F DUP1 PUSH2 0x27 PUSH1 0x0 CODECOPY PUSH1 0x0 RETURN INVALID PUSH1 0x80 PUSH1 0x40 MSTORE PUSH1 0x4 CALLDATASIZE LT PUSH2 0xC2 JUMPI PUSH1 0x0 CALLDATALOAD PUSH1 0xE0 SHR DUP1 PUSH4 0x9DDAC05E GT PUSH2 0x7F JUMPI DUP1 PUSH4 0xE0E1BD84 GT PUSH2 0x59 JUMPI DUP1 PUSH4 0xE0E1BD84 EQ PUSH2 0x371 JUMPI DUP1 PUSH4 0xE352893E EQ PUSH2 0x3AC JUMPI DUP1 PUSH4 0xE6BF297B EQ PUSH2 0x3E7 JUMPI DUP1 PUSH4 0xFB92488B EQ PUSH2 0x436 JUMPI PUSH2 0xC2 JUMP JUMPDEST DUP1 PUSH4 0x9DDAC05E EQ PUSH2 0x27E JUMPI DUP1 PUSH4 0xA07C81F0 EQ PUSH2 0x2D1 JUMPI DUP1 PUSH4 0xA6602D5F EQ PUSH2 0x30C JUMPI PUSH2 0xC2 JUMP JUMPDEST DUP1 PUSH4 0x1172CDE8 EQ PUSH2 0xC7 JUMPI DUP1 PUSH4 0x1EB398AF EQ PUSH2 0x11F JUMPI DUP1 PUSH4 0x318D6178 EQ PUSH2 0x15A JUMPI DUP1 PUSH4 0x4F6109D6 EQ PUSH2 0x1AD JUMPI DUP1 PUSH4 0x8712C66E EQ PUSH2 0x1D8 JUMPI DUP1 PUSH4 0x97190FAE EQ PUSH2 0x22B JUMPI JUMPDEST PUSH1 0x0 DUP1 REVERT JUMPDEST PUSH2 0x109 PUSH1 0x4 DUP1 CALLDATASIZE SUB PUSH1 0x20 DUP2 LT ISZERO PUSH2 0xDD JUMPI PUSH1 0x0 DUP1 REVERT JUMPDEST DUP2 ADD SWAP1 DUP1 DUP1 CALLDATALOAD PUSH20 0xFFFFFFFFFFFFFFFFFFFFFFFFFFFFFFFFFFFFFFFF AND SWAP1 PUSH1 0x20 ADD SWAP1 SWAP3 SWAP2 SWAP1 POP POP POP PUSH2 0x471 JUMP JUMPDEST PUSH1 0x40 MLOAD DUP1 DUP3 DUP2 MSTORE PUSH1 0x20 ADD SWAP2 POP POP PUSH1 0x40 MLOAD DUP1 SWAP2 SUB SWAP1 RETURN JUMPDEST CALLVALUE DUP1 ISZERO PUSH2 0x12B JUMPI PUSH1 0x0 DUP1 REVERT JUMPDEST POP PUSH2 0x158 PUSH1 0x4 DUP1 CALLDATASIZE SUB PUSH1 0x20 DUP2 LT ISZERO PUSH2 0x142 JUMPI PUSH1 0x0 DUP1 REVERT JUMPDEST DUP2 ADD SWAP1 DUP1 DUP1 CALLDATALOAD SWAP1 PUSH1 0x20 ADD SWAP1 SWAP3 SWAP2 SWAP1 POP POP POP PUSH2 0x606 JUMP JUMPDEST STOP JUMPDEST CALLVALUE DUP1 ISZERO PUSH2 0x166 JUMPI PUSH1 0x0 DUP1 REVERT JUMPDEST POP PUSH2 0x193 PUSH1 0x4 DUP1 CALLDATASIZE SUB PUSH1 0x20 DUP2 LT ISZERO PUSH2 0x17D JUMPI PUSH1 0x0 DUP1 REVERT JUMPDEST DUP2 ADD SWAP1 DUP1 DUP1 CALLDATALOAD SWAP1 PUSH1 0x20 ADD SWAP1 SWAP3 SWAP2 SWAP1 POP POP POP PUSH2 0x722 JUMP JUMPDEST PUSH1 0x40 MLOAD DUP1 DUP3 ISZERO ISZERO ISZERO ISZERO DUP2 MSTORE PUSH1 0x20 ADD SWAP2 POP POP PUSH1 0x40 MLOAD DUP1 SWAP2 SUB SWAP1 RETURN JUMPDEST CALLVALUE DUP1 ISZERO PUSH2 0x1B9 JUMPI PUSH1 0x0 DUP1 REVERT JUMPDEST POP PUSH2 0x1C2 PUSH2 0x754 JUMP JUMPDEST PUSH1 0x40 MLOAD DUP1 DUP3 DUP2 MSTORE PUSH1 0x20 ADD SWAP2 POP POP PUSH1 0x40 MLOAD DUP1 SWAP2 SUB SWAP1 RETURN JUMPDEST CALLVALUE DUP1 ISZERO PUSH2 0x1E4 JUMPI PUSH1 0x0 DUP1 REVERT JUMPDEST POP PUSH2 0x211 PUSH1 0x4 DUP1 CALLDATASIZE SUB PUSH1 0x20 DUP2 LT ISZERO PUSH2 0x1FB JUMPI PUSH1 0x0 DUP1 REVERT JUMPDEST DUP2 ADD SWAP1 DUP1 DUP1 CALLDATALOAD SWAP1 PUSH1 0x20 ADD SWAP1 SWAP3 SWAP2 SWAP1 POP POP POP PUSH2 0x7F1 JUMP JUMPDEST PUSH1 0x40 MLOAD DUP1 DUP3 ISZERO ISZERO ISZERO ISZERO DUP2 MSTORE PUSH1 0x20 ADD SWAP2 POP POP PUSH1 0x40 MLOAD DUP1 SWAP2 SUB SWAP1 RETURN JUMPDEST CALLVALUE DUP1 ISZERO PUSH2 0x237 JUMPI PUSH1 0x0 DUP1 REVERT JUMPDEST POP PUSH2 0x264 PUSH1 0x4 DUP1 CALLDATASIZE SUB PUSH1 0x20 DUP2 LT ISZERO PUSH2 0x24E JUMPI PUSH1 0x0 DUP1 REVERT JUMPDEST DUP2 ADD SWAP1 DUP1 DUP1 CALLDATALOAD SWAP1 PUSH1 0x20 ADD SWAP1 SWAP3 SWAP2 SWAP1 POP POP POP PUSH2 0x823 JUMP JUMPDEST PUSH1 0x40 MLOAD DUP1 DUP3 ISZERO ISZERO ISZERO ISZERO DUP2 MSTORE PUSH1 0x20 ADD SWAP2 POP POP PUSH1 0x40 MLOAD DUP1 SWAP2 SUB SWAP1 RETURN JUMPDEST CALLVALUE DUP1 ISZERO PUSH2 0x28A JUMPI PUSH1 0x0 DUP1 REVERT JUMPDEST POP PUSH2 0x2B7 PUSH1 0x4 DUP1 CALLDATASIZE SUB PUSH1 0x20 DUP2 LT ISZERO PUSH2 0x2A1 JUMPI PUSH1 0x0 DUP1 REVERT JUMPDEST DUP2 ADD SWAP1 DUP1 DUP1 CALLDATALOAD SWAP1 PUSH1 0x20 ADD SWAP1 SWAP3 SWAP2 SWAP1 POP POP POP PUSH2 0x855 JUMP JUMPDEST PUSH1 0x40 MLOAD DUP1 DUP3 ISZERO ISZERO ISZERO ISZERO DUP2 MSTORE PUSH1 0x20 ADD SWAP2 POP POP PUSH1 0x40 MLOAD DUP1 SWAP2 SUB SWAP1 RETURN JUMPDEST CALLVALUE DUP1 ISZERO PUSH2 0x2DD JUMPI PUSH1 0x0 DUP1 REVERT JUMPDEST POP PUSH2 0x30A PUSH1 0x4 DUP1 CALLDATASIZE SUB PUSH1 0x20 DUP2 LT ISZERO PUSH2 0x2F4 JUMPI PUSH1 0x0 DUP1 REVERT JUMPDEST DUP2 ADD SWAP1 DUP1 DUP1 CALLDATALOAD SWAP1 PUSH1 0x20 ADD SWAP1 SWAP3 SWAP2 SWAP1 POP POP POP PUSH2 0x887 JUMP JUMPDEST STOP JUMPDEST CALLVALUE DUP1 ISZERO PUSH2 0x318 JUMPI PUSH1 0x0 DUP1 REVERT JUMPDEST POP PUSH2 0x35B PUSH1 0x4 DUP1 CALLDATASIZE SUB PUSH1 0x20 DUP2 LT ISZERO PUSH2 0x32F JUMPI PUSH1 0x0 DUP1 REVERT JUMPDEST DUP2 ADD SWAP1 DUP1 DUP1 CALLDATALOAD PUSH20 0xFFFFFFFFFFFFFFFFFFFFFFFFFFFFFFFFFFFFFFFF AND SWAP1 PUSH1 0x20 ADD SWAP1 SWAP3 SWAP2 SWAP1 POP POP POP PUSH2 0x9D8 JUMP JUMPDEST PUSH1 0x40 MLOAD DUP1 DUP3 DUP2 MSTORE PUSH1 0x20 ADD SWAP2 POP POP PUSH1 0x40 MLOAD DUP1 SWAP2 SUB SWAP1 RETURN JUMPDEST CALLVALUE DUP1 ISZERO PUSH2 0x37D JUMPI PUSH1 0x0 DUP1 REVERT JUMPDEST POP PUSH2 0x3AA PUSH1 0x4 DUP1 CALLDATASIZE SUB PUSH1 0x20 DUP2 LT ISZERO PUSH2 0x394 JUMPI PUSH1 0x0 DUP1 REVERT JUMPDEST DUP2 ADD SWAP1 DUP1 DUP1 CALLDATALOAD SWAP1 PUSH1 0x20 ADD SWAP1 SWAP3 SWAP2 SWAP1 POP POP POP PUSH2 0xA29 JUMP JUMPDEST STOP JUMPDEST CALLVALUE DUP1 ISZERO PUSH2 0x3B8 JUMPI PUSH1 0x0 DUP1 REVERT JUMPDEST POP PUSH2 0x3E5 PUSH1 0x4 DUP1 CALLDATASIZE SUB PUSH1 0x20 DUP2 LT ISZERO PUSH2 0x3CF JUMPI PUSH1 0x0 DUP1 REVERT JUMPDEST DUP2 ADD SWAP1 DUP1 DUP1 CALLDATALOAD SWAP1 PUSH1 0x20 ADD SWAP1 SWAP3 SWAP2 SWAP1 POP POP POP PUSH2 0xB83 JUMP JUMPDEST STOP JUMPDEST CALLVALUE DUP1 ISZERO PUSH2 0x3F3 JUMPI PUSH1 0x0 DUP1 REVERT JUMPDEST POP PUSH2 0x420 PUSH1 0x4 DUP1 CALLDATASIZE SUB PUSH1 0x20 DUP2 LT ISZERO PUSH2 0x40A JUMPI PUSH1 0x0 DUP1 REVERT JUMPDEST DUP2 ADD SWAP1 DUP1 DUP1 CALLDATALOAD SWAP1 PUSH1 0x20 ADD SWAP1 SWAP3 SWAP2 SWAP1 POP POP POP PUSH2 0xCB2 JUMP JUMPDEST PUSH1 0x40 MLOAD DUP1 DUP3 DUP2 MSTORE PUSH1 0x20 ADD SWAP2 POP POP PUSH1 0x40 MLOAD DUP1 SWAP2 SUB SWAP1 RETURN JUMPDEST CALLVALUE DUP1 ISZERO PUSH2 0x442 JUMPI PUSH1 0x0 DUP1 REVERT JUMPDEST POP PUSH2 0x46F PUSH1 0x4 DUP1 CALLDATASIZE SUB PUSH1 0x20 DUP2 LT ISZERO PUSH2 0x459 JUMPI PUSH1 0x0 DUP1 REVERT JUMPDEST DUP2 ADD SWAP1 DUP1 DUP1 CALLDATALOAD SWAP1 PUSH1 0x20 ADD SWAP1 SWAP3 SWAP2 SWAP1 POP POP POP PUSH2 0xCD7 JUMP JUMPDEST STOP JUMPDEST PUSH1 0x0 DUP1 PUSH1 0x3 PUSH1 0x0 DUP5 PUSH20 0xFFFFFFFFFFFFFFFFFFFFFFFFFFFFFFFFFFFFFFFF AND PUSH20 0xFFFFFFFFFFFFFFFFFFFFFFFFFFFFFFFFFFFFFFFF AND DUP2 MSTORE PUSH1 0x20 ADD SWAP1 DUP2 MSTORE PUSH1 0x20 ADD PUSH1 0x0 KECCAK256 SWAP1 POP CALLVALUE DUP2 PUSH1 0x1 ADD SLOAD EQ PUSH2 0x4C5 JUMPI PUSH1 0x0 DUP1 REVERT JUMPDEST PUSH1 0x1 PUSH1 0x0 DUP2 SLOAD DUP1 SWAP3 SWAP2 SWAP1 PUSH1 0x1 ADD SWAP2 SWAP1 POP SSTORE SWAP2 POP PUSH1 0x0 PUSH1 0x2 PUSH1 0x0 DUP5 DUP2 MSTORE PUSH1 0x20 ADD SWAP1 DUP2 MSTORE PUSH1 0x20 ADD PUSH1 0x0 KECCAK256 SWAP1 POP CALLER DUP2 PUSH1 0x0 ADD PUSH1 0x0 PUSH2 0x100 EXP DUP2 SLOAD DUP2 PUSH20 0xFFFFFFFFFFFFFFFFFFFFFFFFFFFFFFFFFFFFFFFF MUL NOT AND SWAP1 DUP4 PUSH20 0xFFFFFFFFFFFFFFFFFFFFFFFFFFFFFFFFFFFFFFFF AND MUL OR SWAP1 SSTORE POP DUP4 DUP2 PUSH1 0x1 ADD PUSH1 0x0 PUSH2 0x100 EXP DUP2 SLOAD DUP2 PUSH20 0xFFFFFFFFFFFFFFFFFFFFFFFFFFFFFFFFFFFFFFFF MUL NOT AND SWAP1 DUP4 PUSH20 0xFFFFFFFFFFFFFFFFFFFFFFFFFFFFFFFFFFFFFFFF AND MUL OR SWAP1 SSTORE POP TIMESTAMP DUP2 PUSH1 0x2 ADD DUP2 SWAP1 SSTORE POP PUSH1 0x1 DUP2 PUSH1 0x3 ADD PUSH1 0x0 PUSH2 0x100 EXP DUP2 SLOAD DUP2 PUSH1 0xFF MUL NOT AND SWAP1 DUP4 ISZERO ISZERO MUL OR SWAP1 SSTORE POP PUSH1 0x0 DUP2 PUSH1 0x3 ADD PUSH1 0x1 PUSH2 0x100 EXP DUP2 SLOAD DUP2 PUSH1 0xFF MUL NOT AND SWAP1 DUP4 ISZERO ISZERO MUL OR SWAP1 SSTORE POP PUSH1 0x0 DUP2 PUSH1 0x3 ADD PUSH1 0x2 PUSH2 0x100 EXP DUP2 SLOAD DUP2 PUSH1 0xFF MUL NOT AND SWAP1 DUP4 ISZERO ISZERO MUL OR SWAP1 SSTORE POP PUSH1 0x0 DUP2 PUSH1 0x3 ADD PUSH1 0x3 PUSH2 0x100 EXP DUP2 SLOAD DUP2 PUSH1 0xFF MUL NOT AND SWAP1 DUP4 ISZERO ISZERO MUL OR SWAP1 SSTORE POP DUP2 PUSH1 0x1 ADD SLOAD DUP2 PUSH1 0x4 ADD DUP2 SWAP1 SSTORE POP POP POP SWAP2 SWAP1 POP JUMP JUMPDEST PUSH1 0x0 PUSH1 0x2 PUSH1 0x0 DUP4 DUP2 MSTORE PUSH1 0x20 ADD SWAP1 DUP2 MSTORE PUSH1 0x20 ADD PUSH1 0x0 KECCAK256 SWAP1 POP CALLER PUSH20 0xFFFFFFFFFFFFFFFFFFFFFFFFFFFFFFFFFFFFFFFF AND DUP2 PUSH1 0x0 ADD PUSH1 0x0 SWAP1 SLOAD SWAP1 PUSH2 0x100 EXP SWAP1 DIV PUSH20 0xFFFFFFFFFFFFFFFFFFFFFFFFFFFFFFFFFFFFFFFF AND PUSH20 0xFFFFFFFFFFFFFFFFFFFFFFFFFFFFFFFFFFFFFFFF AND EQ PUSH2 0x679 JUMPI PUSH1 0x0 DUP1 REVERT JUMPDEST PUSH1 0x1 ISZERO ISZERO DUP2 PUSH1 0x3 ADD PUSH1 0x0 SWAP1 SLOAD SWAP1 PUSH2 0x100 EXP SWAP1 DIV PUSH1 0xFF AND ISZERO ISZERO EQ PUSH2 0x69B JUMPI PUSH1 0x0 DUP1 REVERT JUMPDEST PUSH1 0x1 ISZERO ISZERO DUP2 PUSH1 0x3 ADD PUSH1 0x1 SWAP1 SLOAD SWAP1 PUSH2 0x100 EXP SWAP1 DIV PUSH1 0xFF AND ISZERO ISZERO EQ PUSH2 0x6BD JUMPI PUSH1 0x0 DUP1 REVERT JUMPDEST PUSH1 0x1 ISZERO ISZERO DUP2 PUSH1 0x3 ADD PUSH1 0x2 SWAP1 SLOAD SWAP1 PUSH2 0x100 EXP SWAP1 DIV PUSH1 0xFF AND ISZERO ISZERO EQ PUSH2 0x6DF JUMPI PUSH1 0x0 DUP1 REVERT JUMPDEST PUSH1 0x0 ISZERO ISZERO DUP2 PUSH1 0x3 ADD PUSH1 0x3 SWAP1 SLOAD SWAP1 PUSH2 0x100 EXP SWAP1 DIV PUSH1 0xFF AND ISZERO ISZERO EQ PUSH2 0x701 JUMPI PUSH1 0x0 DUP1 REVERT JUMPDEST PUSH1 0x1 DUP2 PUSH1 0x3 ADD PUSH1 0x3 PUSH2 0x100 EXP DUP2 SLOAD DUP2 PUSH1 0xFF MUL NOT AND SWAP1 DUP4 ISZERO ISZERO MUL OR SWAP1 SSTORE POP POP POP JUMP JUMPDEST PUSH1 0x0 DUP1 PUSH1 0x2 PUSH1 0x0 DUP5 DUP2 MSTORE PUSH1 0x20 ADD SWAP1 DUP2 MSTORE PUSH1 0x20 ADD PUSH1 0x0 KECCAK256 SWAP1 POP DUP1 PUSH1 0x3 ADD PUSH1 0x3 SWAP1 SLOAD SWAP1 PUSH2 0x100 EXP SWAP1 DIV PUSH1 0xFF AND SWAP2 POP POP SWAP2 SWAP1 POP JUMP JUMPDEST PUSH1 0x0 PUSH3 0x278D00 PUSH1 0x0 SLOAD TIMESTAMP SUB GT PUSH2 0x769 JUMPI PUSH1 0x0 DUP1 REVERT JUMPDEST PUSH1 0x0 PUSH1 0x3 PUSH1 0x0 CALLER PUSH20 0xFFFFFFFFFFFFFFFFFFFFFFFFFFFFFFFFFFFFFFFF AND PUSH20 0xFFFFFFFFFFFFFFFFFFFFFFFFFFFFFFFFFFFFFFFF AND DUP2 MSTORE PUSH1 0x20 ADD SWAP1 DUP2 MSTORE PUSH1 0x20 ADD PUSH1 0x0 KECCAK256 SWAP1 POP PUSH3 0x278D00 DUP2 PUSH1 0x4 ADD SLOAD TIMESTAMP SUB GT PUSH2 0x7C1 JUMPI PUSH1 0x0 DUP1 REVERT JUMPDEST PUSH1 0x64 DUP2 PUSH1 0x2 ADD SLOAD MUL DUP2 PUSH1 0x3 ADD DUP2 SWAP1 SSTORE POP PUSH3 0x278D00 DUP2 PUSH1 0x4 ADD PUSH1 0x0 DUP3 DUP3 SLOAD ADD SWAP3 POP POP DUP2 SWAP1 SSTORE POP DUP1 PUSH1 0x3 ADD SLOAD SWAP2 POP POP SWAP1 JUMP JUMPDEST PUSH1 0x0 DUP1 PUSH1 0x2 PUSH1 0x0 DUP5 DUP2 MSTORE PUSH1 0x20 ADD SWAP1 DUP2 MSTORE PUSH1 0x20 ADD PUSH1 0x0 KECCAK256 SWAP1 POP DUP1 PUSH1 0x3 ADD PUSH1 0x1 SWAP1 SLOAD SWAP1 PUSH2 0x100 EXP SWAP1 DIV PUSH1 0xFF AND SWAP2 POP POP SWAP2 SWAP1 POP JUMP JUMPDEST PUSH1 0x0 DUP1 PUSH1 0x2 PUSH1 0x0 DUP5 DUP2 MSTORE PUSH1 0x20 ADD SWAP1 DUP2 MSTORE PUSH1 0x20 ADD PUSH1 0x0 KECCAK256 SWAP1 POP DUP1 PUSH1 0x3 ADD PUSH1 0x2 SWAP1 SLOAD SWAP1 PUSH2 0x100 EXP SWAP1 DIV PUSH1 0xFF AND SWAP2 POP POP SWAP2 SWAP1 POP JUMP JUMPDEST PUSH1 0x0 DUP1 PUSH1 0x2 PUSH1 0x0 DUP5 DUP2 MSTORE PUSH1 0x20 ADD SWAP1 DUP2 MSTORE PUSH1 0x20 ADD PUSH1 0x0 KECCAK256 SWAP1 POP DUP1 PUSH1 0x3 ADD PUSH1 0x0 SWAP1 SLOAD SWAP1 PUSH2 0x100 EXP SWAP1 DIV PUSH1 0xFF AND SWAP2 POP POP SWAP2 SWAP1 POP JUMP JUMPDEST PUSH1 0x0 PUSH1 0x2 PUSH1 0x0 DUP4 DUP2 MSTORE PUSH1 0x20 ADD SWAP1 DUP2 MSTORE PUSH1 0x20 ADD PUSH1 0x0 KECCAK256 SWAP1 POP CALLER PUSH20 0xFFFFFFFFFFFFFFFFFFFFFFFFFFFFFFFFFFFFFFFF AND DUP2 PUSH1 0x1 ADD PUSH1 0x0 SWAP1 SLOAD SWAP1 PUSH2 0x100 EXP SWAP1 DIV PUSH20 0xFFFFFFFFFFFFFFFFFFFFFFFFFFFFFFFFFFFFFFFF AND PUSH20 0xFFFFFFFFFFFFFFFFFFFFFFFFFFFFFFFFFFFFFFFF AND EQ PUSH2 0x8FA JUMPI PUSH1 0x0 DUP1 REVERT JUMPDEST PUSH1 0x1 ISZERO ISZERO DUP2 PUSH1 0x3 ADD PUSH1 0x0 SWAP1 SLOAD SWAP1 PUSH2 0x100 EXP SWAP1 DIV PUSH1 0xFF AND ISZERO ISZERO EQ PUSH2 0x91C JUMPI PUSH1 0x0 DUP1 REVERT JUMPDEST PUSH1 0x1 ISZERO ISZERO DUP2 PUSH1 0x3 ADD PUSH1 0x1 SWAP1 SLOAD SWAP1 PUSH2 0x100 EXP SWAP1 DIV PUSH1 0xFF AND ISZERO ISZERO EQ PUSH2 0x93E JUMPI PUSH1 0x0 DUP1 REVERT JUMPDEST PUSH1 0x0 ISZERO ISZERO DUP2 PUSH1 0x3 ADD PUSH1 0x2 SWAP1 SLOAD SWAP1 PUSH2 0x100 EXP SWAP1 DIV PUSH1 0xFF AND ISZERO ISZERO EQ PUSH2 0x960 JUMPI PUSH1 0x0 DUP1 REVERT JUMPDEST PUSH1 0x1 DUP2 PUSH1 0x3 ADD PUSH1 0x2 PUSH2 0x100 EXP DUP2 SLOAD DUP2 PUSH1 0xFF MUL NOT AND SWAP1 DUP4 ISZERO ISZERO MUL OR SWAP1 SSTORE POP PUSH1 0x0 PUSH1 0x3 PUSH1 0x0 CALLER PUSH20 0xFFFFFFFFFFFFFFFFFFFFFFFFFFFFFFFFFFFFFFFF AND PUSH20 0xFFFFFFFFFFFFFFFFFFFFFFFFFFFFFFFFFFFFFFFF AND DUP2 MSTORE PUSH1 0x20 ADD SWAP1 DUP2 MSTORE PUSH1 0x20 ADD PUSH1 0x0 KECCAK256 SWAP1 POP PUSH1 0xA DUP2 PUSH1 0x2 ADD PUSH1 0x0 DUP3 DUP3 SLOAD ADD SWAP3 POP POP DUP2 SWAP1 SSTORE POP POP POP POP JUMP JUMPDEST PUSH1 0x0 DUP1 PUSH1 0x3 PUSH1 0x0 DUP5 PUSH20 0xFFFFFFFFFFFFFFFFFFFFFFFFFFFFFFFFFFFFFFFF AND PUSH20 0xFFFFFFFFFFFFFFFFFFFFFFFFFFFFFFFFFFFFFFFF AND DUP2 MSTORE PUSH1 0x20 ADD SWAP1 DUP2 MSTORE PUSH1 0x20 ADD PUSH1 0x0 KECCAK256 SWAP1 POP DUP1 PUSH1 0x2 ADD SLOAD SWAP2 POP POP SWAP2 SWAP1 POP JUMP JUMPDEST PUSH1 0x0 PUSH1 0x2 PUSH1 0x0 DUP4 DUP2 MSTORE PUSH1 0x20 ADD SWAP1 DUP2 MSTORE PUSH1 0x20 ADD PUSH1 0x0 KECCAK256 SWAP1 POP CALLER PUSH20 0xFFFFFFFFFFFFFFFFFFFFFFFFFFFFFFFFFFFFFFFF AND DUP2 PUSH1 0x1 ADD PUSH1 0x0 SWAP1 SLOAD SWAP1 PUSH2 0x100 EXP SWAP1 DIV PUSH20 0xFFFFFFFFFFFFFFFFFFFFFFFFFFFFFFFFFFFFFFFF AND PUSH20 0xFFFFFFFFFFFFFFFFFFFFFFFFFFFFFFFFFFFFFFFF AND EQ PUSH2 0xA9C JUMPI PUSH1 0x0 DUP1 REVERT JUMPDEST PUSH1 0x1 ISZERO ISZERO DUP2 PUSH1 0x3 ADD PUSH1 0x0 SWAP1 SLOAD SWAP1 PUSH2 0x100 EXP SWAP1 DIV PUSH1 0xFF AND ISZERO ISZERO EQ PUSH2 0xABE JUMPI PUSH1 0x0 DUP1 REVERT JUMPDEST PUSH1 0x1 ISZERO ISZERO DUP2 PUSH1 0x3 ADD PUSH1 0x1 SWAP1 SLOAD SWAP1 PUSH2 0x100 EXP SWAP1 DIV PUSH1 0xFF AND ISZERO ISZERO EQ PUSH2 0xAE0 JUMPI PUSH1 0x0 DUP1 REVERT JUMPDEST PUSH1 0x1 ISZERO ISZERO DUP2 PUSH1 0x3 ADD PUSH1 0x2 SWAP1 SLOAD SWAP1 PUSH2 0x100 EXP SWAP1 DIV PUSH1 0xFF AND ISZERO ISZERO EQ PUSH2 0xB02 JUMPI PUSH1 0x0 DUP1 REVERT JUMPDEST PUSH1 0x1 ISZERO ISZERO DUP2 PUSH1 0x3 ADD PUSH1 0x3 SWAP1 SLOAD SWAP1 PUSH2 0x100 EXP SWAP1 DIV PUSH1 0xFF AND ISZERO ISZERO EQ PUSH2 0xB24 JUMPI PUSH1 0x0 DUP1 REVERT JUMPDEST PUSH1 0x0 DUP2 PUSH1 0x4 ADD SLOAD SWAP1 POP CALLER PUSH20 0xFFFFFFFFFFFFFFFFFFFFFFFFFFFFFFFFFFFFFFFF AND PUSH2 0x8FC DUP3 SWAP1 DUP2 ISZERO MUL SWAP1 PUSH1 0x40 MLOAD PUSH1 0x0 PUSH1 0x40 MLOAD DUP1 DUP4 SUB DUP2 DUP6 DUP9 DUP9 CALL SWAP4 POP POP POP POP ISZERO DUP1 ISZERO PUSH2 0xB73 JUMPI RETURNDATASIZE PUSH1 0x0 DUP1 RETURNDATACOPY RETURNDATASIZE PUSH1 0x0 REVERT JUMPDEST POP PUSH1 0x0 DUP3 PUSH1 0x4 ADD DUP2 SWAP1 SSTORE POP POP POP POP JUMP JUMPDEST PUSH1 0x0 PUSH1 0x2 PUSH1 0x0 DUP4 DUP2 MSTORE PUSH1 0x20 ADD SWAP1 DUP2 MSTORE PUSH1 0x20 ADD PUSH1 0x0 KECCAK256 SWAP1 POP CALLER PUSH20 0xFFFFFFFFFFFFFFFFFFFFFFFFFFFFFFFFFFFFFFFF AND DUP2 PUSH1 0x1 ADD PUSH1 0x0 SWAP1 SLOAD SWAP1 PUSH2 0x100 EXP SWAP1 DIV PUSH20 0xFFFFFFFFFFFFFFFFFFFFFFFFFFFFFFFFFFFFFFFF AND PUSH20 0xFFFFFFFFFFFFFFFFFFFFFFFFFFFFFFFFFFFFFFFF AND EQ PUSH2 0xBF6 JUMPI PUSH1 0x0 DUP1 REVERT JUMPDEST PUSH1 0x1 ISZERO ISZERO DUP2 PUSH1 0x3 ADD PUSH1 0x0 SWAP1 SLOAD SWAP1 PUSH2 0x100 EXP SWAP1 DIV PUSH1 0xFF AND ISZERO ISZERO EQ PUSH2 0xC18 JUMPI PUSH1 0x0 DUP1 REVERT JUMPDEST PUSH1 0x0 ISZERO ISZERO DUP2 PUSH1 0x3 ADD PUSH1 0x1 SWAP1 SLOAD SWAP1 PUSH2 0x100 EXP SWAP1 DIV PUSH1 0xFF AND ISZERO ISZERO EQ PUSH2 0xC3A JUMPI PUSH1 0x0 DUP1 REVERT JUMPDEST PUSH1 0x1 DUP2 PUSH1 0x3 ADD PUSH1 0x1 PUSH2 0x100 EXP DUP2 SLOAD DUP2 PUSH1 0xFF MUL NOT AND SWAP1 DUP4 ISZERO ISZERO MUL OR SWAP1 SSTORE POP PUSH1 0x0 PUSH1 0x3 PUSH1 0x0 CALLER PUSH20 0xFFFFFFFFFFFFFFFFFFFFFFFFFFFFFFFFFFFFFFFF AND PUSH20 0xFFFFFFFFFFFFFFFFFFFFFFFFFFFFFFFFFFFFFFFF AND DUP2 MSTORE PUSH1 0x20 ADD SWAP1 DUP2 MSTORE PUSH1 0x20 ADD PUSH1 0x0 KECCAK256 SWAP1 POP PUSH1 0xA DUP2 PUSH1 0x2 ADD PUSH1 0x0 DUP3 DUP3 SLOAD ADD SWAP3 POP POP DUP2 SWAP1 SSTORE POP POP POP POP JUMP JUMPDEST PUSH1 0x0 DUP1 PUSH1 0x2 PUSH1 0x0 DUP5 DUP2 MSTORE PUSH1 0x20 ADD SWAP1 DUP2 MSTORE PUSH1 0x20 ADD PUSH1 0x0 KECCAK256 SWAP1 POP DUP1 PUSH1 0x4 ADD SLOAD SWAP2 POP POP SWAP2 SWAP1 POP JUMP JUMPDEST PUSH1 0x0 PUSH1 0x3 PUSH1 0x0 CALLER PUSH20 0xFFFFFFFFFFFFFFFFFFFFFFFFFFFFFFFFFFFFFFFF AND PUSH20 0xFFFFFFFFFFFFFFFFFFFFFFFFFFFFFFFFFFFFFFFF AND DUP2 MSTORE PUSH1 0x20 ADD SWAP1 DUP2 MSTORE PUSH1 0x20 ADD PUSH1 0x0 KECCAK256 SWAP1 POP CALLER DUP2 PUSH1 0x0 ADD PUSH1 0x0 PUSH2 0x100 EXP DUP2 SLOAD DUP2 PUSH20 0xFFFFFFFFFFFFFFFFFFFFFFFFFFFFFFFFFFFFFFFF MUL NOT AND SWAP1 DUP4 PUSH20 0xFFFFFFFFFFFFFFFFFFFFFFFFFFFFFFFFFFFFFFFF AND MUL OR SWAP1 SSTORE POP DUP2 DUP2 PUSH1 0x1 ADD DUP2 SWAP1 SSTORE POP POP POP JUMP INVALID LOG2 PUSH6 0x627A7A723158 KECCAK256 0xFB SLOAD 0xE5 0xBD RETURNDATASIZE ADDMOD PUSH13 0x7D41E0C8F55A4D4E713E1E1BD5 JUMP 0xDB SWAP12 CALLER 0xE5 0x4B GAS SWAP1 SWAP15 0xCA ISZERO STATICCALL PUSH5 0x736F6C6343 STOP SDIV GT STOP ORIGIN "
				},
				"gasEstimates": {
					"creation": {
						"codeDepositCost": "697400",
						"executionCost": "20741",
						"totalCost": "718141"
					},
					"external": {
						"AcceptBooking(uint256)": "44907",
						"AcceptStatus(uint256)": "1384",
						"ApproveAds(uint256)": "25799",
						"ApprovedStatus(uint256)": "1340",
						"BookStatus(uint256)": "1268",
						"ChangePrice(uint256)": "41310",
						"CompleteAds(uint256)": "45835",
						"CompleteStatus(uint256)": "1406",
						"NewBooking(address)": "188369",
						"PaidOnContract(uint256)": "1263",
						"PointsBalance(address)": "1282",
						"ReceiveSalary(uint256)": "infinite",
						"TakeCoins()": "44523"
					}
				},
				"methodIdentifiers": {
					"AcceptBooking(uint256)": "e352893e",
					"AcceptStatus(uint256)": "8712c66e",
					"ApproveAds(uint256)": "1eb398af",
					"ApprovedStatus(uint256)": "318d6178",
					"BookStatus(uint256)": "9ddac05e",
					"ChangePrice(uint256)": "fb92488b",
					"CompleteAds(uint256)": "a07c81f0",
					"CompleteStatus(uint256)": "97190fae",
					"NewBooking(address)": "1172cde8",
					"PaidOnContract(uint256)": "e6bf297b",
					"PointsBalance(address)": "a6602d5f",
					"ReceiveSalary(uint256)": "e0e1bd84",
					"TakeCoins()": "4f6109d6"
				}
			},
			"storageLayout": {
				"storage": [
					{
						"astId": 3,
						"contract": "B4B.CONTRACTS/b4b.sol:B4B",
						"label": "deployDate",
						"offset": 0,
						"slot": "0",
						"type": "t_uint256"
					},
					{
						"astId": 30,
						"contract": "B4B.CONTRACTS/b4b.sol:B4B",
						"label": "numCampaigns",
						"offset": 0,
						"slot": "1",
						"type": "t_uint256"
					},
					{
						"astId": 34,
						"contract": "B4B.CONTRACTS/b4b.sol:B4B",
						"label": "campaigns",
						"offset": 0,
						"slot": "2",
						"type": "t_mapping(t_uint256,t_struct(Campaign)28_storage)"
					},
					{
						"astId": 49,
						"contract": "B4B.CONTRACTS/b4b.sol:B4B",
						"label": "influencers",
						"offset": 0,
						"slot": "3",
						"type": "t_mapping(t_address,t_struct(Influencer)45_storage)"
					}
				],
				"types": {
					"t_address": {
						"encoding": "inplace",
						"label": "address",
						"numberOfBytes": "20"
					},
					"t_bool": {
						"encoding": "inplace",
						"label": "bool",
						"numberOfBytes": "1"
					},
					"t_mapping(t_address,t_struct(Influencer)45_storage)": {
						"encoding": "mapping",
						"key": "t_address",
						"label": "mapping(address => struct B4B.Influencer)",
						"numberOfBytes": "32",
						"value": "t_struct(Influencer)45_storage"
					},
					"t_mapping(t_uint256,t_struct(Campaign)28_storage)": {
						"encoding": "mapping",
						"key": "t_uint256",
						"label": "mapping(uint256 => struct B4B.Campaign)",
						"numberOfBytes": "32",
						"value": "t_struct(Campaign)28_storage"
					},
					"t_struct(Campaign)28_storage": {
						"encoding": "inplace",
						"label": "struct B4B.Campaign",
						"members": [
							{
								"astId": 13,
								"contract": "B4B.CONTRACTS/b4b.sol:B4B",
								"label": "brand_addr",
								"offset": 0,
								"slot": "0",
								"type": "t_address"
							},
							{
								"astId": 15,
								"contract": "B4B.CONTRACTS/b4b.sol:B4B",
								"label": "influencer_addr",
								"offset": 0,
								"slot": "1",
								"type": "t_address"
							},
							{
								"astId": 17,
								"contract": "B4B.CONTRACTS/b4b.sol:B4B",
								"label": "date",
								"offset": 0,
								"slot": "2",
								"type": "t_uint256"
							},
							{
								"astId": 19,
								"contract": "B4B.CONTRACTS/b4b.sol:B4B",
								"label": "book_status",
								"offset": 0,
								"slot": "3",
								"type": "t_bool"
							},
							{
								"astId": 21,
								"contract": "B4B.CONTRACTS/b4b.sol:B4B",
								"label": "accept_status",
								"offset": 1,
								"slot": "3",
								"type": "t_bool"
							},
							{
								"astId": 23,
								"contract": "B4B.CONTRACTS/b4b.sol:B4B",
								"label": "complete_status",
								"offset": 2,
								"slot": "3",
								"type": "t_bool"
							},
							{
								"astId": 25,
								"contract": "B4B.CONTRACTS/b4b.sol:B4B",
								"label": "approved_status",
								"offset": 3,
								"slot": "3",
								"type": "t_bool"
							},
							{
								"astId": 27,
								"contract": "B4B.CONTRACTS/b4b.sol:B4B",
								"label": "paid",
								"offset": 0,
								"slot": "4",
								"type": "t_uint256"
							}
						],
						"numberOfBytes": "160"
					},
					"t_struct(Influencer)45_storage": {
						"encoding": "inplace",
						"label": "struct B4B.Influencer",
						"members": [
							{
								"astId": 36,
								"contract": "B4B.CONTRACTS/b4b.sol:B4B",
								"label": "influencer_addr",
								"offset": 0,
								"slot": "0",
								"type": "t_address"
							},
							{
								"astId": 38,
								"contract": "B4B.CONTRACTS/b4b.sol:B4B",
								"label": "price",
								"offset": 0,
								"slot": "1",
								"type": "t_uint256"
							},
							{
								"astId": 40,
								"contract": "B4B.CONTRACTS/b4b.sol:B4B",
								"label": "points",
								"offset": 0,
								"slot": "2",
								"type": "t_uint256"
							},
							{
								"astId": 42,
								"contract": "B4B.CONTRACTS/b4b.sol:B4B",
								"label": "coins",
								"offset": 0,
								"slot": "3",
								"type": "t_uint256"
							},
							{
								"astId": 44,
								"contract": "B4B.CONTRACTS/b4b.sol:B4B",
								"label": "lastDistributionDate",
								"offset": 0,
								"slot": "4",
								"type": "t_uint256"
							}
						],
						"numberOfBytes": "160"
					},
					"t_uint256": {
						"encoding": "inplace",
						"label": "uint256",
						"numberOfBytes": "32"
					}
				}
			},
			"userdoc": {
				"methods": {}
			}
		}
	}
}